:020000040000FA
:0200000003D823
:02000100038674
:020002000326D3
:0200030002F405
:0200040002A058
:020005000254A3
:0200060001F304
:0200070001AE48
:02000800015C99
:02000900011ADA
:02000A0000D321
:02000B0000698A
:02000C000023CF
:02000D0003E40A
:02000E00038865
:02000F00033FAD
:0200100002FCF0
:0200110002A447
:02001200025595
:020013000209E0
:0200140001BF2A
:02001500017F69
:020016000120C7
:0200170000DB0C
:0200180000A73F
:0200190000469F
:02001A000016CE
:02001B0003CB15
:02001C00037D62
:02001D00032BB3
:02001E0002D00E
:02001F0002934A
:02002000023F9D
:020021000207D4
:0200220001C912
:02002300017367
:020024000121B8
:0200250000EFEA
:0200260000AB2D
:02002700004592
:02002800000CCA
:0200290003C60C
:02002A00038C45
:02002B00033898
:02002C0002F0E0
:02002D0002AA25
:02002E0002636B
:02002F000226A7
:0200300001E4E9
:02003100019735
:02003200015774
:020033000102C8
:0200340000B515
:02003500008445
:02003600003791
:0200370003F7CD
:0200380003B80B
:0200390003784A
:02003A0003348D
:02003B0002FAC7
:02003C0002AD13
:02003D0002704F
:02003E00022995
:02003F0001E2DC
:02004000018F2E
:02004100015C60
:020042000110AB
:0200430000D0EB
:02004400009327
:02004500004E6B
:02004600001B9D
:0200470003CDE7
:02004800039A19
:02004900034A68
:02004A0003179A
:02004B0002CEE3
:02004C0002812F
:02004D0002604F
:02004E000202AC
:02004F0001DBD3
:0200500001921B
:02005100015953
:02005200010D9E
:0200530000DECD
:02005400008B1F
:02005500005059
:02005600000F99
:0200570003CCD8
:02005800039D06
:0200590003584A
:02005A0003138E
:02005B0002E6BB
:02005C0002A000
:02005D0002544B
:02005E0002217D
:02005F0001F4AA
:0200600001A2FB
:0200610001623A
:02006200012F6C
:02006300010991
:0200640000C5D5
:02006500006E2B
:02006600003A5E
:02006700001B7C
:0200680003DBB8
:02006900039AF8
:02006A00034948
:02006B00031D73
:02006C0002D1BF
:02006D0002B4DB
:02006E0002632B
:02006F00023756
:0200700001F994
:0200710001CAC2
:02007200017B10
:02007300014842
:02007400011475
:0200750000DCAD
:020076000098F0
:02007700007314
:02007800003650
:0200790003FC86
:02007A0003ABD6
:02007B00038BF5
:02007C00034F30
:02007D00031965
:02007E0002E49A
:02007F00029BE2
:02008000027A02
:02008100023C3F
:0200820001F685
:0200830001BBBF
:020084000190E9
:02008500015F19
:0200860001195E
:0200870000F780
:0200880000A3D3
:02008900007BFA
:02008A0000482C
:02008B0000165D
:02008C0003DC93
:02008D0003ABC3
:02008E00036904
:02008F00033E2E
:02009000030E5D
:0200910002C7A4
:02009200028CDE
:02009300026306
:02009400022B3D
:0200950001FD6B
:0200960001C1A6
:020097000194D2
:0200980001570E
:02009900013331
:02009A0000F173
:02009B0000BBA8
:02009C000093CF
:02009D00006001
:02009E00002F31
:02009F0000045B
:0200A00003BF9C
:0200A100039AC0
:0200A2000362F7
:0200A300033B1D
:0200A40002EC6C
:0200A50002D87F
:0200A60002A2B4
:0200A7000267EE
:0200A800022C28
:0200A900020C47
:0200AA0001D57E
:0200AB0001A4AE
:0200AC000176DB
:0200AD00014010
:0200AE00011A35
:0200AF0000DA75
:0200B00000A3AB
:0200B100007DD0
:0200B200003D0F
:0200B300000843
:0200B40003F552
:0200B50003C086
:0200B6000386BF
:0200B7000356EE
:0200B800031B28
:0200B90002E85B
:0200BA0002D66C
:0200BB00029EA3
:0200BC00025EE2
:0200BD000240FF
:0200BE00020D31
:0200BF0001E25C
:0200C00001A598
:0200C1000189B3
:0200C200014AF1
:0200C300011E1C
:0200C40000FC3E
:0200C50000D564
:0200C6000096A2
:0200C7000073C4
:0200C800003CFA
:0200C900000E27
:0200CA0003EE43
:0200CB0003B27E
:0200CC00037BB4
:0200CD000356D8
:0200CE00033BF2
:0200CF0002EF3E
:0200D00002E14B
:0200D10002B279
:0200D2000287A3
:0200D3000258D1
:0200D400021612
:0200D50001FD2B
:0200D60001CC5B
:0200D700019A8C
:0200D8000179AC
:0200D9000134F0
:0200DA0001140F
:0200DB00010022
:0200DC0000C65C
:0200DD0000A879
:0200DE000067B9
:0200DF000048D7
:0200E00000130B
:0200E10003E832
:0200E20003CA4F
:0200E300038494
:0200E4000361B6
:0200E500033BDB
:0200E6000324F1
:0200E70002E530
:0200E80002B85C
:0200E90002A66D
:0200EA0002779B
:0200EB00024EC3
:0200EC000216FA
:0200ED0001EC24
:0200EE0001D13E
:0200EF00019A74
:0200F0000168A5
:0200F1000158B4
:0200F200011FEC
:0200F30001000A
:0200F40000D337
:0200F500009970
:0200F600009276
:0200F7000058AF
:0200F8000029DD
:0200F90003FD05
:0200FA0003EB16
:0200FB0003C53B
:0200FC00039867
:0200FD00036896
:0200FE000336C7
:0200FF000326D6
:0201000002E516
:0201010002CD2D
:02010200029861
:02010300027C7C
:020104000250A7
:02010500022EC8
:0201060001F8FE
:0201070001E90C
:0201080001B440
:02010900018B68
:02010A00017E74
:02010B00013FB2
:02010C00012BC5
:02010D0000F5FB
:02010E0000D51A
:02010F0000AC42
:0201100000826B
:02011100006C80
:020112000044A7
:02011300001AD0
:0201140003FEE8
:0201150003C421
:0201160003A341
:0201170003885B
:0201180003657D
:02011900034998
:02011A000305DB
:02011B0002E7F9
:02011C0002D906
:02011D00029E40
:02011E00028E4F
:02011F0002617B
:020120000233A8
:020121000219C1
:0201220001F0EA
:0201230001D504
:0201240001A038
:02012500018F48
:02012600015A7C
:02012700013E97
:02012800011FB5
:0201290000EEE6
:02012A0000C60D
:02012B0000B51D
:02012C00008A47
:02012D00006070
:02012E0000507F
:02012F00001BB3
:020130000006C7
:0201310003E1E8
:0201320003C503
:02013300038E39
:0201340003794D
:02013500035174
:0201360003289C
:02013700030CB7
:020138000301C1
:0201390002CCF6
:02013A0002B50C
:02013B00027D43
:02013C00027649
:02013D00023F7F
:02013E00022598
:02013F000205B7
:0201400001D2EA
:0201410001B605
:0201420001A812
:02014300018633
:02014400016256
:02014500013186
:020146000114A2
:020147000101B4
:0201480000E0D5
:0201490000AC08
:02014A00008A29
:02014B00006E44
:02014C0000436E
:02014D00004070
:02014E00000CA3
:02014F0003EDBE
:0201500003D8D2
:0201510003C3E6
:02015200038C1C
:02015300036245
:02015400035A4C
:02015500032F76
:02015600031F85
:0201570002FAAA
:0201580002DFC4
:0201590002C0E2
:02015A00029011
:02015B00026F31
:02015C00024B54
:02015D00022F6F
:02015E00021687
:02015F0001F0AD
:0201600001D0CC
:0201610001AFEC
:0201620001A2F8
:02016300017425
:02016400015444
:02016500014A4D
:02016600012373
:02016700010E87
:0201680000F79E
:0201690000CFC5
:02016A0000A0F3
:02016B00008C06
:02016C00006D24
:02016D00005838
:02016E0000434C
:02016F0000117D
:0201700003EB9F
:0201710003D9B0
:0201720003B6D2
:0201730003A0E7
:02017400037F07
:02017500036025
:02017600034242
:0201770003265D
:02017800030A78
:0201790002E89A
:02017A0002E1A0
:02017B0002ADD3
:02017C000286F9
:02017D00027806
:02017E00025E1F
:02017F0002423A
:02018000022655
:02018100020971
:0201820001E199
:0201830001E396
:0201840001B7C1
:02018500019CDB
:02018600017DF9
:02018700015D18
:02018800013B39
:02018900012F44
:02018A00010072
:02018B0000FE74
:02018C0000CFA2
:02018D0000BAB6
:02018E00008FE0
:02018F000085E9
:02019000005F0E
:02019100003D2F
:0201920000303B
:02019300001D4D
:02019400000663
:0201950003D88D
:0201960003B2B2
:0201970003A4BF
:0201980003A1C1
:02019900037CE5
:02019A0003550B
:02019B00034619
:02019C00031D41
:02019D0002FD61
:02019E0002FD60
:02019F0002D785
:0201A00002ACAF
:0201A10002ADAD
:0201A2000282D7
:0201A3000266F2
:0201A400025502
:0201A50002272F
:0201A600022F26
:0201A700020E46
:0201A80001DB79
:0201A90001C98A
:0201AA0001B49E
:0201AB000194BD
:0201AC000176DA
:0201AD000175DA
:0201AE000153FB
:0201AF00013D10
:0201B00001123A
:0201B10001113A
:0201B20000ED5E
:0201B30000D674
:0201B40000A9A0
:0201B500009AAE
:0201B6000088BF
:0201B7000070D6
:0201B800004AFB
:0201B9000045FF
:0201BA00003211
:0201BB00000042
:0201BC0003F34B
:0201BD0003DB62
:0201BE0003D16B
:0201BF0003AD8E
:0201C0000380BA
:0201C100037BBE
:0201C2000366D2
:0201C3000353E4
:0201C400032511
:0201C500030B2A
:0201C60002FB3A
:0201C70002DD57
:0201C80002DC57
:0201C90002BF73
:0201CA0002A28F
:0201CB0002929E
:0201CC00026CC3
:0201CD000261CD
:0201CE00024AE3
:0201CF000235F7
:0201D00002002B
:0201D100020327
:0201D20001D159
:0201D30001BD6C
:0201D40001B375
:0201D50001A384
:0201D6000176B0
:0201D700017AAB
:0201D800014ED6
:0201D9000140E3
:0201DA00012BF7
:0201DB00011011
:0201DC0000F22F
:0201DD0000EA36
:0201DE0000CC53
:0201DF0000BD61
:0201E000009A83
:0201E10000809C
:0201E2000075A6
:0201E300004FCB
:0201E4000041D8
:0201E5000034E4
:0201E600001304
:0201E700000313
:0201E80003E42E
:0201E90003C54C
:0201EA0003C947
:0201EB0003A966
:0201EC0003828C
:0201ED00038786
:0201EE000357B5
:0201EF00034BC0
:0201F0000340CA
:0201F100031EEB
:0201F200030CFC
:0201F30002FF09
:0201F40002E324
:0201F50002E026
:0201F60002BC49
:0201F700029D67
:0201F800028C77
:0201F90002788A
:0201FA00027091
:0201FB000249B7
:0201FC000249B6
:0201FD00022ED0
:0201FE000204F9
:0201FF0001FA03
:0202000001D427
:0202010001DA20
:0202020001B445
:0202030001AA4E
:02020400019B5C
:02020500018175
:02020600016E87
:02020700015E96
:02020800013CB7
:020209000136BC
:02020A000117DA
:02020B000106EA
:02020C0000F1FF
:02020D0000DE11
:02020E0000BC32
:02020F0000AF3E
:02021000009D4F
:02021100007972
:02021200008169
:02021300006881
:020214000041A7
:020215000030B7
:020216000026C0
:020217000002E3
:02021800000ADA
:0202190003F2EE
:02021A0003C817
:02021B0003CC12
:02021C0003A736
:02021D00039C40
:02021E00038259
:02021F00037A60
:02022000035485
:02022100035385
:02022200032CAB
:02022300032DA9
:02022400030BCA
:0202250002F9DC
:0202260002F4E0
:0202270002D9FA
:0202280002B919
:0202290002B31E
:02022A00029040
:02022B00028A45
:02022C0002715D
:02022D00026D60
:02022E00025478
:02022F00024F7C
:020230000226A4
:02023100021DAC
:020232000205C3
:020233000203C4
:0202340001E9DE
:0202350001D1F5
:0202360001BA0B
:0202370001992B
:02023800019330
:0202390001952D
:02023A0001734E
:02023B0001665A
:02023C00015768
:02023D00012E90
:02023E00013A83
:02023F0001209C
:0202400000FBC1
:0202410000FFBC
:0202420000F4C6
:0202430000DADF
:0202440000BCFC
:0202450000A512
:02024600009F17
:02024700007F36
:02024800007E36
:02024900006152
:02024A00005E54
:02024B00003D74
:02024C00002F81
:02024D0000258A
:02024E00001995
:02024F000008A5
:0202500003E6C3
:0202510003E0C8
:0202520003BAED
:0202530003BEE8
:0202540003AFF6
:02025500039113
:02025600038122
:02025700037B27
:02025800035B46
:0202590003435D
:02025A00033E61
:02025B0003237B
:02025C00032D70
:02025D00030B91
:02025E00030893
:02025F0002F5A6
:0202600002E7B3
:0202610002D2C7
:0202620002BDDB
:0202630002B8DF
:02026400028C0A
:0202650002880D
:02026600027C18
:0202670002652E
:02026800026032
:02026900023C55
:02026A0002226E
:02026B00022D62
:02026C0002048A
:02026D00020588
:02026E0001E9A4
:02026F0001D5B7
:0202700001CFBC
:0202710001AFDB
:0202720001B5D4
:02027300019CEC
:02027400018EF9
:02027500018501
:02027600016421
:02027700015D27
:02027800015E25
:0202790001463C
:02027A00013948
:02027B00012957
:02027C0001027D
:02027D00010A74
:02027E00010677
:02027F0000E09D
:0202800000D2AA
:0202810000CEAD
:0202820000BCBE
:020283000097E2
:020284000099DF
:020285000084F3
:02028600007105
:02028700007104
:02028800005321
:02028900004F24
:02028A0000363C
:02028B00003B36
:02028C00002947
:02028D00001A55
:02028E0003F675
:02028F0003FF6B
:0202900003DB8E
:0202910003C8A0
:0202920003B3B4
:0202930003BEA8
:0202940003AFB6
:02029500038ADA
:02029600038DD6
:02029700037FE3
:02029800036DF4
:0202990003540C
:02029A00033F20
:02029B00034E10
:02029C00032439
:02029D00031E3E
:02029E00030457
:02029F00030951
:0202A00002F565
:0202A10002E079
:0202A20002C890
:0202A30002C691
:0202A40002BD99
:0202A50002B99C
:0202A6000293C1
:0202A7000295BE
:0202A8000274DE
:0202A900027ED3
:0202AA000259F7
:0202AB000254FB
:0202AC0002410D
:0202AD0002301D
:0202AE00023913
:0202AF0002202B
:0202B000021238
:0202B10001F258
:0202B200020246
:0202B30001DF69
:0202B40001D572
:0202B50001CF77
:0202B60001B590
:0202B70001A59F
:0202B80001A59E
:0202B900018BB7
:0202BA000184BD
:0202BB00017DC3
:0202BC00016AD5
:0202BD000164DA
:0202BE00014FEE
:0202BF000145F7
:0202C000013605
:0202C100011327
:0202C200010E2B
:0202C300011424
:0202C40001082F
:0202C50000E057
:0202C60000E84E
:0202C70000D85D
:0202C80000CD67
:0202C90000BC77
:0202CA0000BD75
:0202CB000090A1
:0202CC0000919F
:0202CD00007DB2
:0202CE00007FAF
:0202CF000071BC
:0202D000005AD2
:0202D1000061CA
:0202D200003BEF
:0202D300002AFF
:0202D400001A0E
:0202D500001512
:0202D600001610
:0202D70003FA28
:0202D80003F72A
:0202D90003ED33
:0202DA0003DC43
:0202DB0003CF4F
:0202DC0003C954
:0202DD0003AA72
:0202DE00039487
:0202DF0003A377
:0202E000039782
:0202E100038296
:0202E200038196
:0202E3000370A6
:0202E4000361B4
:0202E5000351C3
:0202E6000333E0
:0202E700033ED4
:0202E8000324ED
:0202E9000326EA
:0202EA0002FA16
:0202EB00030A04
:0202EC0002E925
:0202ED0002EE1F
:0202EE0002D23A
:0202EF0002D437
:0202F00002C248
:0202F10002A861
:0202F20002BA4E
:0202F300029572
:0202F400028B7B
:0202F500029075
:0202F60002768E
:0202F700027B88
:0202F80002659D
:0202F9000254AD
:0202FA00024BB5
:0202FB000236C9
:0202FC000233CB
:0202FD00021FDE
:0202FE000225D7
:0202FF00021CDF
:0203000001F703
:0203010001F108
:0203020001EC0C
:0203030001E710
:0203040001DD19
:0203050001B93C
:0203060001C034
:0203070001AA49
:0203080001A250
:02030900019A57
:02030A00019060
:02030B00018E61
:02030C0001806E
:02030D00016984
:02030E00015D8F
:02030F00014F9C
:02031000013BAF
:02031100013EAB
:02031200013AAE
:02031300012CBB
:020314000118CE
:020315000118CD
:0203160000FDE8
:0203170000F8EC
:0203180000F3F0
:0203190000DC06
:02031A0000C918
:02031B0000DA06
:02031C0000C11E
:02031D0000BA24
:02031E0000C01D
:02031F00009D3F
:0203200000A734
:02032100007E5C
:02032200008752
:02032300007E5A
:02032400005F78
:02032500005C7A
:02032600006471
:02032700003E96
:0203280000488B
:020329000021B1
:02032A0000329F
:02032B000021AF
:02032C00000FC0
:02032D00000BC3
:02032E0003EFDB
:02032F0003F8D1
:0203300003F5D3
:0203310003DEE9
:0203320003DDE9
:0203330003CDF8
:0203340003BF05
:0203350003BA09
:0203360003A022
:02033700038E33
:02033800039828
:0203390003833C
:02033A0003833B
:02033B00037A43
:02033C00035E5E
:02033D00035C5F
:02033E00035763
:02033F00035267
:02034000033C7C
:02034100033B7C
:02034200032E88
:020343000310A5
:02034400031B99
:02034500030AA9
:02034600030AA8
:0203470002F3BF
:0203480002EEC3
:0203490002E6CA
:02034A0002D4DB
:02034B0002E0CE
:02034C0002C6E7
:02034D0002B7F5
:02034E0002B6F5
:02034F0002AA00
:02035000029B0E
:02035100029A0E
:02035200028D1A
:02035300028A1C
:02035400026C39
:0203550002663E
:02035600025E45
:02035700024E54
:02035800025C45
:02035900023D63
:02035A00022A75
:02035B0002247A
:02035C00022677
:02035D00021884
:02035E00020596
:02035F00021684
:0203600001F2A8
:0203610001F2A7
:0203620001F4A4
:0203630001E8AF
:0203640001EBAB
:0203650001CCC9
:0203660001CFC5
:0203670001BFD4
:0203680001BCD6
:02036900019DF4
:02036A000196FA
:02036B00018F00
:02036C00019DF1
:02036D00017B12
:02036E00017E0E
:02036F00016C1F
:02037000016228
:02037100015633
:0203720001592F
:02037300014B3C
:0203740001493D
:02037500013B4A
:02037600012064
:02037700012261
:02037800011072
:02037900012958
:02037A0001017F
:02037B00010877
:02037C0001017D
:02037D0000F589
:02037E0000F08D
:02037F0000D6A6
:0203800000CDAE
:0203810000CDAD
:0203820000B6C3
:0203830000B8C0
:0203840000B5C2
:0203850000A3D3
:020386000093E2
:0203870000A2D2
:020388000080F3
:02038900007AF8
:02038A00007EF3
:02038B00006907
:02038C00006C03
:02038D00005519
:02038E00006904
:02038F00004D1F
:02039000004922
:02039100003832
:02039200003831
:02039300002048
:02039400002245
:02039500002541
:02039600000461
:02039700000064
:02039800000A59
:02039900000161
:02039A0003EF6F
:02039B0003E677
:02039C0003EA72
:02039D0003C398
:02039E0003C793
:02039F0003CA8F
:0203A00003B0A8
:0203A10003BA9D
:0203A20003BC9A
:0203A300039FB6
:0203A4000394C0
:0203A500039CB7
:0203A600037AD8
:0203A7000389C8
:0203A8000371DF
:0203A9000361EE
:0203AA000371DD
:0203AB000364E9
:0203AC00035AF2
:0203AD00034902
:0203AE00034BFF
:0203AF00034CFD
:0203B000033315
:0203B100033413
:0203B200032D19
:0203B300031A2B
:0203B400031430
:0203B500030D36
:0203B600031131
:0203B700030938
:0203B80002F64B
:0203B90002F14F
:0203BA0002F14E
:0203BB0002DA64
:0203BC0002CE6F
:0203BD0002DC60
:0203BE0002BA81
:0203BF0002BD7D
:0203C00002C475
:0203C10002A197
:0203C20002A493
:0203C30002A88E
:0203C4000290A5
:0203C5000290A4
:0203C600027DB6
:0203C7000275BD
:0203C8000271C0
:0203C9000262CE
:0203CA000273BC
:0203CB00026DC1
:0203CC00024DE0
:0203CD00024AE2
:0203CE00024FDC
:0203CF000248E2
:0203D0000247E2
:0203D1000230F8
:0203D200022403
:0203D300021115
:0203D400021E07
:0203D500022103
:0203D60001FC28
:0203D700020121
:0203D800020021
:0203D90001F72A
:0203DA0001E23E
:0203DB0001D847
:0203DC0001E935
:0203DD0001D34A
:0203DE0001D24A
:0203DF0001D348
:0203E00001C852
:0203E10001BB5E
:0203E20001BC5C
:0203E30001997E
:0203E400019E78
:0203E500019C79
:0203E60001957F
:0203E70001898A
:0203E80001759D
:0203E90001878A
:0203EA000165AB
:0203EB00016AA5
:0203EC00016CA2
:0203ED000161AC
:0203EE000156B6
:0203EF000150BB
:0203F0000156B4
:0203F1000144C5
:0203F2000135D3
:0203F300012CDB
:0203F400013DC9
:0203F500012ADB
:0203F600011CE8
:0203F7000116ED
:0203F8000111F1
:0203F900010EF3
:0203FA0000FA07
:0203FB0000E917
:0203FC0000F50A
:0203FD0000E915
:0203FE0000EF0E
:0203FF0000E913
:0204000000D624
:0204010000C435
:0204020000D523
:0204030000B93E
:0204040000C82E
:0204050000C332
:0204060000AA4A
:0204070000AC47
:0204080000955D
:0204090000A34E
:02040A0000915F
:02040B00008966
:02040C0000806E
:02040D0000806D
:02040E00006D7F
:02040F00006A81
:02041000007377
:02041100005297
:02041200006484
:02041300005196
:0204140000479F
:020415000042A3
:02041600004C98
:020417000033B0
:020418000032B0
:02041900002FB2
:02041A00002AB6
:02041B000025BA
:02041C000009D5
:02041D000015C8
:02041E000019C3
:02041F000011CA
:0204200003EEE9
:0204210003F3E3
:0204220003F3E2
:0204230003F7DD
:0204240003D8FB
:0204250003EAE8
:0204260003CA07
:0204270003C709
:0204280003BF10
:0204290003C608
:02042A0003BA13
:02042B0003B616
:02042C0003A823
:02042D0003A624
:02042E00039C2D
:02042F0003A820
:02043000039433
:02043100039A2C
:02043200039233
:02043300038B39
:02043400037E45
:02043500036F53
:02043600037F42
:02043700036F51
:02043800035F60
:02043900035965
:02043A00035766
:02043B0003417B
:02043C00035566
:02043D00035268
:02043E00034871
:02043F00032A8E
:02044000033087
:02044100032A8C
:02044200032E87
:0204430003288C
:020444000305AE
:020445000311A1
:020446000308A9
:0204470002FEB3
:020448000307A8
:0204490002FEB1
:02044A000307A6
:02044B0002E8C5
:02044C0002F0BC
:02044D0002E5C6
:02044E0002D2D8
:02044F0002C5E4
:0204500002CBDD
:0204510002C7E0
:0204520002D1D5
:0204530002C5E0
:0204540002B2F2
:0204550002A6FD
:0204560002A200
:0204570002ABF6
:02045800029D03
:0204590002ABF4
:02045A00029A04
:02045B00028B12
:02045C00029606
:02045D00027328
:02045E00028911
:02045F00028217
:02046000026E2A
:02046100027027
:02046200026A2C
:02046300025A3B
:02046400025440
:0204650002573C
:02046600024F43
:02046700024B46
:02046800024848
:0204690002414E
:02046A0002424C
:02046B00023657
:02046C0002226A
:02046D0002206B
:02046E00021179
:02046F00021574
:02047000021C6C
:02047100020E79
:02047200020C7A
:0204730001FE88
:0204740001F491
:0204750001F292
:0204760001F88B
:0204770001E79B
:0204780001F190
:0204790001ED93
:02047A0001CFB0
:02047B0001D2AC
:02047C0001D4A9
:02047D0001D5A7
:02047E0001BEBD
:02047F0001D2A8
:0204800001B7C2
:0204810001B7C1
:0204820001B0C7
:0204830001B7BF
:0204840001A7CE
:0204850001A3D1
:0204860001A5CE
:0204870001A2D0
:020488000190E1
:020489000194DC
:02048A00018AE5
:02048B00018BE3
:02048C000181EC
:02048D000178F4
:02048E00017DEE
:02048F0001600A
:02049000016603
:02049100015117
:02049200016601
:02049300015511
:02049400014025
:02049500014321
:02049600013C27
:02049700013929
:0204980001332E
:0204990001233D
:02049A00012E31
:02049B00013529
:02049C00012E2F
:02049D0001213B
:02049E00011D3E
:02049F00011A40
:0204A000011A3F
:0204A100010B4D
:0204A200010D4A
:0204A300010551
:0204A40000ED69
:0204A50000F95C
:0204A60000ED67
:0204A70000F063
:0204A80000DB77
:0204A90000DF72
:0204AA0000D37D
:0204AB0000EB64
:0204AC0000D27C
:0204AD0000CA83
:0204AE0000C08C
:0204AF0000C883
:0204B00000C585
:0204B10000AF9A
:0204B20000BF89
:0204B30000A7A0
:0204B40000A2A4
:0204B50000A4A1
:0204B60000A79D
:0204B7000095AE
:0204B800009BA7
:0204B900008DB4
:0204BA00007FC1
:0204BB00007BC4
:0204BC000090AE
:0204BD000080BD
:0204BE000081BB
:0204BF000072C9
:0204C000006CCE
:0204C1000069D0
:0204C2000058E0
:0204C300005ED9
:0204C4000062D4
:0204C5000056DF
:0204C600005CD8
:0204C7000055DE
:0204C8000054DE
:0204C9000059D8
:0204CA000039F7
:0204CB00003FF0
:0204CC00002FFF
:0204CD00002FFE
:0204CE000039F3
:0204CF000031FA
:0204D000001713
:0204D100001E0B
:0204D200001D0B
:0204D300001C0B
:0204D400002006
:0204D500000F16
:0204D60000091B
:0204D70003F927
:0204D80003E936
:0204D90000041D
:0204DA0003F429
:0204DB0003FF1D
:0204DC0003EC2F
:0204DD0003F02A
:0204DE0003E534
:0204DF0003DE3A
:0204E00003D443
:0204E10003D73F
:0204E20003DA3B
:0204E30003C54F
:0204E40003C053
:0204E50003BC56
:0204E60003C64B
:0204E70003BD53
:0204E80003B25D
:0204E90003B559
:0204EA0003A964
:0204EB00039C70
:0204EC0003B457
:0204ED00039E6C
:0204EE00039574
:0204EF00038E7A
:0204F000038C7B
:0204F100038C7A
:0204F200037590
:0204F300037A8A
:0204F400039370
:0204F500037E84
:0204F600038081
:0204F70003649C
:0204F800036E91
:0204F900036995
:0204FA000358A5
:0204FB00036B91
:0204FC00034CAF
:0204FD00034CAE
:0204FE00035E9B
:0204FF00034EAA
:020500000345B1
:02050100033DB8
:020502000340B4
:020503000338BB
:020504000349A9
:020505000325CC
:02050600033EB2
:02050700031AD5
:020508000320CE
:020509000321CC
:02050A000320CC
:02050B000316D5
:02050C000313D7
:02050D00030ADF
:02050E0002F9F0
:02050F000315D2
:020510000310D6
:0205110002FEE8
:0205120002FCE9
:0205130002F0F4
:0205140002F9EA
:0205150002FCE6
:0205160002E3FE
:0205170002E000
:0205180002EEF1
:0205190002D40A
:02051A0002EBF2
:02051B0002D309
:02051C0002CA11
:02051D0002DEFC
:02051E0002BE1B
:02051F0002CA0E
:0205200002BC1B
:0205210002BF17
:0205220002B223
:0205230002B81C
:0205240002AD26
:02052500029D35
:0205260002B918
:0205270002A12F
:02052800029936
:0205290002A32B
:02052A00029D30
:02052B0002A824
:02052C00028F3C
:02052D00028C3E
:02052E00028445
:02052F00029533
:0205300002784F
:0205310002784E
:02053200028A3B
:02053300027F45
:0205340002655E
:0205350002734F
:0205360002754C
:02053700025A66
:02053800025B64
:0205390002645A
:02053A00025568
:02053B00024A72
:02053C00025665
:02053D00024C6E
:02053E00024B6E
:02053F00024B6D
:02054000023E79
:02054100023D79
:0205420002397C
:02054300023084
:0205440002357E
:02054500023280
:02054600023180
:02054700022789
:0205480002159A
:02054900021B93
:02054A0002218C
:02054B00020F9D
:02054C000207A4
:02054D00020AA0
:02054E00021792
:02054F000206A2
:0205500001FCAC
:020551000200A6
:0205520001F0B6
:0205530001F3B2
:0205540001F7AD
:0205550001F6AD
:0205560002059C
:0205570001ECB5
:0205580001E1BF
:0205590001E6B9
:02055A0001DAC4
:02055B0001DFBE
:02055C0001E5B7
:02055D0001E1BA
:02055E0001D8C2
:02055F0001C4D5
:0205600001D5C3
:0205610001B8DF
:0205620001C9CD
:0205630001B5E0
:0205640001CACA
:0205650001B2E1
:0205660001BFD3
:0205670001B2DF
:0205680001A2EE
:0205690001B3DC
:02056A0001A0EE
:02056B0001A3EA
:02056C0001A8E4
:02056D0001ACDF
:02056E0001A3E7
:02056F00019CED
:020570000197F1
:02057100018502
:02057200018204
:020573000191F4
:02057400017D07
:020575000184FF
:02057600018200
:02057700016819
:02057800016B15
:02057900017708
:02057A00017C02
:02057B00015C21
:02057C00015F1D
:02057D00016F0C
:02057E00016B0F
:02057F00016811
:02058000015523
:02058100015720
:02058200015521
:02058300014E27
:02058400013A3A
:02058500014A29
:02058600014E24
:0205870001432E
:02058800012A46
:02058900013738
:02058A00013E30
:02058B00012845
:02058C0001313B
:02058D00012B40
:02058E00012B3F
:02058F00012940
:02059000011850
:0205910001194E
:02059200011F47
:02059300011154
:02059400010163
:0205950001095A
:0205960001075B
:0205970001025F
:02059800010D53
:02059900010D52
:02059A0000FB64
:02059B0001025B
:02059C00010557
:02059D0000FA62
:02059E0000EC6F
:02059F0000E476
:0205A00000E277
:0205A10000FA5E
:0205A20000DF78
:0205A30000EE68
:0205A40000DB7A
:0205A50000E173
:0205A60000D182
:0205A70000E76B
:0205A80000CA87
:0205A90000D977
:0205AA0000C58A
:0205AB0000BF8F
:0205AC0000CD80
:0205AD0000C389
:0205AE0000B794
:0205AF0000BC8E
:0205B00000BD8C
:0205B10000C088
:0205B20000BF88
:0205B30000A3A3
:0205B40000A0A5
:0205B50000A4A0
:0205B60000B48F
:0205B70000A89A
:0205B800009CA5
:0205B9000098A8
:0205BA0000AB94
:0205BB000091AD
:0205BC000094A9
:0205BD00009E9E
:0205BE000091AA
:0205BF000091A9
:0205C000007DBC
:0205C1000084B4
:0205C200006FC8
:0205C3000089AD
:0205C4000075C0
:0205C5000077BD
:0205C6000071C2
:0205C7000076BC
:0205C8000071C0
:0205C9000060D0
:0205CA00007CB3
:0205CB000064CA
:0205CC00005DD0
:0205CD000055D7
:0205CE00004DDE
:0205CF00004DDD
:0205D0000056D3
:0205D1000055D3
:0205D2000057D0
:0205D3000058CE
:0205D400003CE9
:0205D500004CD8
:0205D600004DD6
:0205D7000043DF
:0205D8000042DF
:0205D900002FF1
:0205DA000035EA
:0205DB000028F6
:0205DC000032EB
:0205DD000037E5
:0205DE000028F3
:0205DF000023F7
:0205E0000026F3
:0205E100001FF9
:0205E200001AFD
:0205E3000020F6
:0205E400001BFA
:0205E500000C08
:0205E6000029EA
:0205E700001002
:0205E800001AF7
:0205E90000060A
:0205EA0000000F
:0205EB000010FE
:0205EC0000030A
:0205ED000010FC
:0205EE0003FE0A
:0205EF00000505
:0205F00003FF07
:0205F10003FC09
:0205F20003F113
:0205F30003FB08
:0205F40003ED15
:0205F50003F908
:0205F60003EE12
:0205F70003D728
:0205F80003DC22
:0205F90003E21B
:0205FA0003E715
:0205FB0003E219
:0205FC0003E119
:0205FD0003D524
:0205FE0003C533
:0205FF0003CF28
:0206000003C82D
:0206010003B93B
:0206020003D41F
:0206030003C032
:0206040003C130
:0206050003B739
:0206060003AE41
:0206070003B43A
:0206080003AC41
:0206090003C725
:02060A0003A645
:02060B0003A941
:02060C00039F4A
:02060D00039355
:02060E0003B235
:02060F00039D49
:02061000039B4A
:02061100038E56
:02061200039B48
:02061300038B57
:02061400039948
:0206150003A040
:02061600039946
:02061700038B53
:02061800037D60
:02061900038B51
:02061A00039249
:02061B00038357
:02061C00038554
:02061D00037C5C
:02061E0003696E
:02061F00036E68
:02062000038154
:02062100036C68
:0206220003646F
:0206230003646E
:02062400036869
:02062500035E72
:02062600036669
:02062700034D81
:02062800035776
:02062900036567
:02062A0003606B
:02062B00034A80
:02062C00034C7D
:02062D00035276
:02062E00034285
:02062F00034D79
:0206300003576E
:02063100034A7A
:02063200034F74
:0206330003477B
:0206340003378A
:02063500033C84
:02063600034976
:0206370003249A
:02063800032994
:02063900032993
:02063A00033883
:02063B00033D7D
:02063C00031B9E
:02063D00031D9B
:02063E0003298E
:02063F00032A8C
:02064000032194
:0206410003298B
:02064200031D96
:02064300031B97
:02064400030CA5
:020645000305AB
:02064600030BA4
:0206470002FFB0
:0206480003139A
:020649000306A6
:02064A00030E9D
:02064B00030AA0
:02064C000301A8
:02064D000302A6
:02064E00030A9D
:02064F00031195
:020650000301A4
:0206510003059F
:0206520002FFA5
:0206530002FCA7
:0206540002EDB5
:0206550002EEB3
:0206560002EBB5
:0206570002EEB1
:0206580002E9B5
:0206590002F4A9
:02065A0002E6B6
:02065B0002D5C6
:02065C0002CFCB
:02065D0002EBAE
:02065E0002DBBD
:02065F0002CFC8
:0206600002CCCA
:0206610002E3B2
:0206620002CBC9
:0206630002BBD8
:0206640002D4BE
:0206650002D3BE
:0206660002C9C7
:0206670002C6C9
:0206680002B9D5
:0206690002ADE0
:02066A0002AFDD
:02066B0002C2C9
:02066C0002ADDD
:02066D0002BBCE
:02066E0002ABDD
:02066F0002B4D3
:0206700002A3E3
:0206710002ADD8
:0206720002A4E0
:0206730002B3D0
:0206740002A2E0
:0206750002B3CE
:0206760002A7D9
:0206770002A6D9
:0206780002ADD1
:0206790002A5D8
:02067A000289F3
:02067B00029CDF
:02067C0002A5D5
:02067D000287F2
:02067E000286F2
:02067F000295E2
:02068000027AFC
:020681000288ED
:020682000295DF
:020683000289EA
:02068400027EF4
:02068500027CF5
:02068600027FF1
:020687000281EE
:02068800026FFF
:02068900027DF0
:02068A000284E8
:02068B00026EFD
:02068C00026604
:02068D000270F9
:02068E00026800
:02068F00026106
:02069000026303
:020691000271F4
:02069200025311
:0206930002570C
:02069400026BF7
:02069500025011
:02069600025A06
:02069700024F10
:02069800024D11
:02069900025EFF
:02069A00025309
:02069B00025506
:02069C00025802
:02069D00023920
:02069E00023B1D
:02069F00025304
:0206A000023B1B
:0206A100024114
:0206A200025400
:0206A300024B08
:0206A40002341E
:0206A500023C15
:0206A600023C14
:0206A700023916
:0206A800023519
:0206A900022A23
:0206AA0002222A
:0206AB00022C1F
:0206AC00021A30
:0206AD00022F1A
:0206AE00022D1B
:0206AF00022F18
:0206B00002281E
:0206B100021035
:0206B200022A1A
:0206B30002192A
:0206B400020D35
:0206B50002251C
:0206B60002152B
:0206B700020C33
:0206B80002231B
:0206B900020934
:0206BA00020B31
:0206BB00020F2C
:0206BC00021327
:0206BD0001F644
:0206BE00020632
:0206BF0001FA3E
:0206C00001F740
:0206C10001F73F
:0206C20001FA3B
:0206C30002082B
:0206C40001FA39
:0206C50001E54D
:0206C60001E74A
:0206C70001FB35
:0206C80001EF40
:0206C90001EA44
:0206CA0001E845
:0206CB0001E745
:0206CC0001E546
:0206CD0001E545
:0206CE0001E346
:0206CF0001D058
:0206D00001DD4A
:0206D10001D452
:0206D20001ED38
:0206D30001CE56
:0206D40001DB48
:0206D50001D949
:0206D60001D24F
:0206D70001CF51
:0206D80001D24D
:0206D90001C25C
:0206DA0001D944
:0206DB0001CC50
:0206DC0001DA41
:0206DD0001BE5C
:0206DE0001CF4A
:0206DF0001C256
:0206E00001B364
:0206E10001C353
:0206E20001B164
:0206E30001B55F
:0206E40001C053
:0206E50001B161
:0206E60001BF52
:0206E70001AF61
:0206E80001A26D
:0206E90001B856
:0206EA0001B25B
:0206EB0001B05C
:0206EC0001A467
:0206ED0001AB5F
:0206EE0001AB5E
:0206EF00019E6A
:0206F00001AD5A
:0206F100019670
:0206F200019E67
:0206F30001A262
:0206F400018B78
:0206F50001A75B
:0206F60001A160
:0206F700018779
:0206F800019F60
:0206F900019A64
:0206FA00018974
:0206FB00019369
:0206FC00019368
:0206FD00018E6C
:0206FE00019465
:0206FF00018D6B
:02070000017B7B
:0207010001767F
:02070200017381
:02070300017D76
:0207040001757D
:02070500017B76
:0207060001757B
:0207070001826D
:02070800017E70
:0207090001816C
:02070A00016488
:02070B00016784
:02070C00017674
:02070D00016782
:02070E00016682
:02070F00016384
:0207100001776F
:02071100015E87
:02071200017173
:02071300015390
:02071400015E84
:02071500016081
:02071600016080
:0207170001637C
:02071800015589
:02071900015588
:02071A00015A82
:02071B00015E7D
:02071C00014595
:02071D00015881
:02071E00016078
:02071F00015285
:0207200001587E
:0207210001468F
:0207220001468E
:02072300013A99
:0207240001389A
:0207250001478A
:02072600013898
:02072700013996
:0207280001408E
:02072900013796
:02072A00013696
:02072B00013893
:02072C000125A5
:02072D00013495
:02072E00013B8D
:02072F00013196
:0207300001289E
:02073100012E97
:02073200013292
:0207330001259E
:020734000122A0
:02073500011EA3
:02073600011DA3
:020737000112AD
:0207380001328C
:02073900012A93
:02073A00012498
:02073B0001308B
:02073C000117A3
:02073D00012396
:02073E00011F99
:02073F00011F98
:02074000010CAA
:02074100012293
:020742000112A2
:020743000107AC
:0207440001189A
:02074500011998
:0207460000FAB7
:020747000104AB
:02074800010F9F
:0207490001119C
:02074A000102AA
:02074B0001109B
:02074C000105A5
:02074D000104A5
:02074E0000FFAA
:02074F0000F3B5
:020750000100A6
:0207510000EABC
:0207520000F3B2
:0207530000FAAA
:0207540000F4AF
:0207550000E3BF
:0207560000E8B9
:0207570000FEA2
:0207580000E6B9
:0207590000D9C5
:02075A0000E3BA
:02075B0000F8A4
:02075C0000F4A7
:02075D0000EBAF
:02075E0000E2B7
:02075F0000CECA
:0207600000DCBB
:0207610000E4B2
:0207620000D2C3
:0207630000E2B2
:0207640000D6BD
:0207650000DEB4
:0207660000E4AD
:0207670000D3BD
:0207680000C8C7
:0207690000E0AE
:02076A0000C9C4
:02076B0000DEAE
:02076C0000D5B6
:02076D0000BFCB
:02076E0000CFBA
:02076F0000D4B4
:0207700000C8BF
:0207710000CABC
:0207720000C5C0
:0207730000BEC6
:0207740000B7CC
:0207750000C9B9
:0207760000B8C9
:0207770000C3BD
:0207780000AFD0
:0207790000B6C8
:02077A0000C3BA
:02077B0000B6C6
:02077C0000A7D4
:02077D0000A9D1
:02077E0000BABF
:02077F0000C2B6
:0207800000AFC8
:0207810000B4C2
:0207820000AEC7
:02078300009BD9
:0207840000A7CC
:0207850000A8CA
:02078600009FD2
:0207870000A9C7
:0207880000A6C9
:02078900009CD2
:02078A000096D7
:02078B0000A8C4
:02078C0000A2C9
:02078D00009CCE
:02078E0000A4C5
:02078F0000A9BF
:020790000097D0
:02079100009ACC
:0207920000A3C2
:02079300009ACA
:020794000087DC
:02079500008BD7
:02079600009EC3
:020797000094CC
:02079800007CE3
:020799000090CE
:02079A00009DC0
:02079B00008ECE
:02079C000091CA
:02079D00007BDF
:02079E00007FDA
:02079F000083D5
:0207A0000084D3
:0207A1000079DD
:0207A200008ACB
:0207A3000087CD
:0207A4000070E3
:0207A5000081D1
:0207A6000084CD
:0207A7000087C9
:0207A800007AD5
:0207A9000088C6
:0207AA00006AE3
:0207AB000068E4
:0207AC000078D3
:0207AD000063E7
:0207AE00005CED
:0207AF000063E5
:0207B000006ADD
:0207B100006ED8
:0207B200005AEB
:0207B3000065DF
:0207B4000055EE
:0207B500006CD6
:0207B6000055EC
:0207B7000066DA
:0207B8000056E9
:0207B9000051ED
:0207BA000051EC
:0207BB000068D4
:0207BC000057E4
:0207BD000067D3
:0207BE000053E6
:0207BF00005FD9
:0207C0000046F1
:0207C100005ADC
:0207C2000054E1
:0207C300004FE5
:0207C400004BE8
:0207C500004AE8
:0207C600004DE4
:0207C7000054DC
:0207C8000033FC
:0207C9000051DD
:0207CA00003AF3
:0207CB000059D3
:0207CC00004DDE
:0207CD00003DED
:0207CE000044E5
:0207CF000037F1
:0207D000004ADD
:0207D100003FE7
:0207D200003CE9
:0207D300003BE9
:0207D4000045DE
:0207D5000047DB
:0207D6000039E8
:0207D7000033ED
:0207D8000029F6
:0207D900002DF1
:0207DA00003BE2
:0207DB00002BF1
:0207DC000021FA
:0207DD000034E6
:0207DE000038E1
:0207DF00001CFC
:0207E000002DEA
:0207E100002EE8
:0207E200002CE9
:0207E3000018FC
:0207E400002BE8
:0207E500001EF4
:0207E600001CF5
:0207E7000029E7
:0207E8000021EE
:0207E900001AF4
:0207EA00002AE3
:0207EB00001CF0
:0207EC00000CFF
:0207ED00001FEB
:0207EE000011F8
:0207EF00001CEC
:0207F0000010F7
:0207F100001BEB
:0207F2000015F0
:0207F300001AEA
:0207F4000010F3
:0207F5000006FC
:0207F6000002FF
:0207F700000FF1
:0207F800000AF5
:0207F900000BF3
:0207FA000004F9
:0207FB0003FBFE
:0207FC000005F6
:0207FD000009F1
:0207FE0003FAFC
:0207FF0003FAFB
:00000001ff
