:020000040000FA
:020000000100FD
:020001000100FC
:020002000100FB
:020003000100FA
:020004000100F9
:020005000101F7
:020006000101F6
:020007000101F5
:020008000101F4
:020009000102F2
:02000A000102F1
:02000B000102F0
:02000C000102EF
:02000D000103ED
:02000E000103EC
:02000F000103EB
:020010000103EA
:020011000104E8
:020012000104E7
:020013000104E6
:020014000104E5
:020015000105E3
:020016000105E2
:020017000105E1
:020018000105E0
:020019000106DE
:02001A000106DD
:02001B000106DC
:02001C000106DB
:02001D000107D9
:02001E000107D8
:02001F000107D7
:020020000107D6
:020021000108D4
:020022000108D3
:020023000108D2
:020024000108D1
:020025000109CF
:020026000109CE
:020027000109CD
:020028000109CC
:020029000109CB
:02002A00010AC9
:02002B00010AC8
:02002C00010AC7
:02002D00010AC6
:02002E00010BC4
:02002F00010BC3
:02003000010BC2
:02003100010BC1
:02003200010CBF
:02003300010CBE
:02003400010CBD
:02003500010CBC
:02003600010CBB
:02003700010DB9
:02003800010DB8
:02003900010DB7
:02003A00010DB6
:02003B00010EB4
:02003C00010EB3
:02003D00010EB2
:02003E00010EB1
:02003F00010FAF
:02004000010FAE
:02004100010FAD
:02004200010FAC
:02004300010FAB
:020044000110A9
:020045000110A8
:020046000110A7
:020047000110A6
:020048000111A4
:020049000111A3
:02004A000111A2
:02004B000111A1
:02004C000111A0
:02004D0001129E
:02004E0001129D
:02004F0001129C
:0200500001129B
:02005100011399
:02005200011398
:02005300011397
:02005400011396
:02005500011395
:02005600011493
:02005700011492
:02005800011491
:02005900011490
:02005A0001158E
:02005B0001158D
:02005C0001158C
:02005D0001158B
:02005E0001158A
:02005F00011688
:02006000011687
:02006100011686
:02006200011685
:02006300011783
:02006400011782
:02006500011781
:02006600011780
:0200670001177F
:0200680001187D
:0200690001187C
:02006A0001187B
:02006B0001187A
:02006C00011978
:02006D00011977
:02006E00011976
:02006F00011975
:02007000011974
:02007100011A72
:02007200011A71
:02007300011A70
:02007400011A6F
:02007500011A6E
:02007600011B6C
:02007700011B6B
:02007800011B6A
:02007900011B69
:02007A00011B68
:02007B00011C66
:02007C00011C65
:02007D00011C64
:02007E00011C63
:02007F00011D61
:02008000011D60
:02008100011D5F
:02008200011D5E
:02008300011D5D
:02008400011E5B
:02008500011E5A
:02008600011E59
:02008700011E58
:02008800011E57
:02008900011F55
:02008A00011F54
:02008B00011F53
:02008C00011F52
:02008D00011F51
:02008E0001204F
:02008F0001204E
:0200900001204D
:0200910001204C
:0200920001204B
:02009300012149
:02009400012148
:02009500012147
:02009600012146
:02009700012145
:02009800012243
:02009900012242
:02009A00012241
:02009B00012240
:02009C0001223F
:02009D0001233D
:02009E0001233C
:02009F0001233B
:0200A00001233A
:0200A100012339
:0200A200012437
:0200A300012436
:0200A400012435
:0200A500012434
:0200A600012433
:0200A700012531
:0200A800012530
:0200A90001252F
:0200AA0001252E
:0200AB0001252D
:0200AC0001262B
:0200AD0001262A
:0200AE00012629
:0200AF00012628
:0200B000012627
:0200B100012725
:0200B200012724
:0200B300012723
:0200B400012722
:0200B500012721
:0200B60001281F
:0200B70001281E
:0200B80001281D
:0200B90001281C
:0200BA0001281B
:0200BB00012919
:0200BC00012918
:0200BD00012917
:0200BE00012916
:0200BF00012915
:0200C000012A13
:0200C100012A12
:0200C200012A11
:0200C300012A10
:0200C400012A0F
:0200C500012A0E
:0200C600012B0C
:0200C700012B0B
:0200C800012B0A
:0200C900012B09
:0200CA00012B08
:0200CB00012C06
:0200CC00012C05
:0200CD00012C04
:0200CE00012C03
:0200CF00012C02
:0200D000012D00
:0200D100012DFF
:0200D200012DFE
:0200D300012DFD
:0200D400012DFC
:0200D500012DFB
:0200D600012EF9
:0200D700012EF8
:0200D800012EF7
:0200D900012EF6
:0200DA00012EF5
:0200DB00012FF3
:0200DC00012FF2
:0200DD00012FF1
:0200DE00012FF0
:0200DF00012FEF
:0200E000012FEE
:0200E1000130EC
:0200E2000130EB
:0200E3000130EA
:0200E4000130E9
:0200E5000130E8
:0200E6000131E6
:0200E7000131E5
:0200E8000131E4
:0200E9000131E3
:0200EA000131E2
:0200EB000131E1
:0200EC000132DF
:0200ED000132DE
:0200EE000132DD
:0200EF000132DC
:0200F0000132DB
:0200F1000133D9
:0200F2000133D8
:0200F3000133D7
:0200F4000133D6
:0200F5000133D5
:0200F6000133D4
:0200F7000134D2
:0200F8000134D1
:0200F9000134D0
:0200FA000134CF
:0200FB000134CE
:0200FC000135CC
:0200FD000135CB
:0200FE000135CA
:0200FF000135C9
:020100000135C7
:020101000135C6
:020102000136C4
:020103000136C3
:020104000136C2
:020105000136C1
:020106000136C0
:020107000136BF
:020108000137BD
:020109000137BC
:02010A000137BB
:02010B000137BA
:02010C000137B9
:02010D000137B8
:02010E000138B6
:02010F000138B5
:020110000138B4
:020111000138B3
:020112000138B2
:020113000139B0
:020114000139AF
:020115000139AE
:020116000139AD
:020117000139AC
:020118000139AB
:02011900013AA9
:02011A00013AA8
:02011B00013AA7
:02011C00013AA6
:02011D00013AA5
:02011E00013AA4
:02011F00013BA2
:02012000013BA1
:02012100013BA0
:02012200013B9F
:02012300013B9E
:02012400013B9D
:02012500013C9B
:02012600013C9A
:02012700013C99
:02012800013C98
:02012900013C97
:02012A00013C96
:02012B00013D94
:02012C00013D93
:02012D00013D92
:02012E00013D91
:02012F00013D90
:02013000013D8F
:02013100013E8D
:02013200013E8C
:02013300013E8B
:02013400013E8A
:02013500013E89
:02013600013E88
:02013700013F86
:02013800013F85
:02013900013F84
:02013A00013F83
:02013B00013F82
:02013C00013F81
:02013D0001407F
:02013E0001407E
:02013F0001407D
:0201400001407C
:0201410001407B
:0201420001407A
:02014300014079
:02014400014177
:02014500014176
:02014600014175
:02014700014174
:02014800014173
:02014900014172
:02014A00014270
:02014B0001426F
:02014C0001426E
:02014D0001426D
:02014E0001426C
:02014F0001426B
:02015000014369
:02015100014368
:02015200014367
:02015300014366
:02015400014365
:02015500014364
:02015600014462
:02015700014461
:02015800014460
:0201590001445F
:02015A0001445E
:02015B0001445D
:02015C0001445C
:02015D0001455A
:02015E00014559
:02015F00014558
:02016000014557
:02016100014556
:02016200014555
:02016300014653
:02016400014652
:02016500014651
:02016600014650
:0201670001464F
:0201680001464E
:0201690001464D
:02016A0001474B
:02016B0001474A
:02016C00014749
:02016D00014748
:02016E00014747
:02016F00014746
:02017000014844
:02017100014843
:02017200014842
:02017300014841
:02017400014840
:0201750001483F
:0201760001483E
:0201770001493C
:0201780001493B
:0201790001493A
:02017A00014939
:02017B00014938
:02017C00014937
:02017D00014A35
:02017E00014A34
:02017F00014A33
:02018000014A32
:02018100014A31
:02018200014A30
:02018300014A2F
:02018400014B2D
:02018500014B2C
:02018600014B2B
:02018700014B2A
:02018800014B29
:02018900014B28
:02018A00014B27
:02018B00014C25
:02018C00014C24
:02018D00014C23
:02018E00014C22
:02018F00014C21
:02019000014C20
:02019100014C1F
:02019200014D1D
:02019300014D1C
:02019400014D1B
:02019500014D1A
:02019600014D19
:02019700014D18
:02019800014D17
:02019900014E15
:02019A00014E14
:02019B00014E13
:02019C00014E12
:02019D00014E11
:02019E00014E10
:02019F00014F0E
:0201A000014F0D
:0201A100014F0C
:0201A200014F0B
:0201A300014F0A
:0201A400014F09
:0201A500014F08
:0201A600015006
:0201A700015005
:0201A800015004
:0201A900015003
:0201AA00015002
:0201AB00015001
:0201AC00015000
:0201AD000150FF
:0201AE000151FD
:0201AF000151FC
:0201B0000151FB
:0201B1000151FA
:0201B2000151F9
:0201B3000151F8
:0201B4000151F7
:0201B5000152F5
:0201B6000152F4
:0201B7000152F3
:0201B8000152F2
:0201B9000152F1
:0201BA000152F0
:0201BB000152EF
:0201BC000153ED
:0201BD000153EC
:0201BE000153EB
:0201BF000153EA
:0201C0000153E9
:0201C1000153E8
:0201C2000153E7
:0201C3000154E5
:0201C4000154E4
:0201C5000154E3
:0201C6000154E2
:0201C7000154E1
:0201C8000154E0
:0201C9000154DF
:0201CA000155DD
:0201CB000155DC
:0201CC000155DB
:0201CD000155DA
:0201CE000155D9
:0201CF000155D8
:0201D0000155D7
:0201D1000155D6
:0201D2000156D4
:0201D3000156D3
:0201D4000156D2
:0201D5000156D1
:0201D6000156D0
:0201D7000156CF
:0201D8000156CE
:0201D9000157CC
:0201DA000157CB
:0201DB000157CA
:0201DC000157C9
:0201DD000157C8
:0201DE000157C7
:0201DF000157C6
:0201E0000157C5
:0201E1000158C3
:0201E2000158C2
:0201E3000158C1
:0201E4000158C0
:0201E5000158BF
:0201E6000158BE
:0201E7000158BD
:0201E8000159BB
:0201E9000159BA
:0201EA000159B9
:0201EB000159B8
:0201EC000159B7
:0201ED000159B6
:0201EE000159B5
:0201EF000159B4
:0201F000015AB2
:0201F100015AB1
:0201F200015AB0
:0201F300015AAF
:0201F400015AAE
:0201F500015AAD
:0201F600015AAC
:0201F700015BAA
:0201F800015BA9
:0201F900015BA8
:0201FA00015BA7
:0201FB00015BA6
:0201FC00015BA5
:0201FD00015BA4
:0201FE00015BA3
:0201FF00015CA1
:02020000015C9F
:02020100015C9E
:02020200015C9D
:02020300015C9C
:02020400015C9B
:02020500015C9A
:02020600015C99
:02020700015D97
:02020800015D96
:02020900015D95
:02020A00015D94
:02020B00015D93
:02020C00015D92
:02020D00015D91
:02020E00015D90
:02020F00015E8E
:02021000015E8D
:02021100015E8C
:02021200015E8B
:02021300015E8A
:02021400015E89
:02021500015E88
:02021600015E87
:02021700015F85
:02021800015F84
:02021900015F83
:02021A00015F82
:02021B00015F81
:02021C00015F80
:02021D00015F7F
:02021E00015F7E
:02021F0001607C
:0202200001607B
:0202210001607A
:02022200016079
:02022300016078
:02022400016077
:02022500016076
:02022600016075
:02022700016173
:02022800016172
:02022900016171
:02022A00016170
:02022B0001616F
:02022C0001616E
:02022D0001616D
:02022E0001616C
:02022F0001626A
:02023000016269
:02023100016268
:02023200016267
:02023300016266
:02023400016265
:02023500016264
:02023600016263
:02023700016262
:02023800016360
:0202390001635F
:02023A0001635E
:02023B0001635D
:02023C0001635C
:02023D0001635B
:02023E0001635A
:02023F00016359
:02024000016457
:02024100016456
:02024200016455
:02024300016454
:02024400016453
:02024500016452
:02024600016451
:02024700016450
:0202480001654E
:0202490001654D
:02024A0001654C
:02024B0001654B
:02024C0001654A
:02024D00016549
:02024E00016548
:02024F00016547
:02025000016546
:02025100016644
:02025200016643
:02025300016642
:02025400016641
:02025500016640
:0202560001663F
:0202570001663E
:0202580001663D
:0202590001663C
:02025A0001673A
:02025B00016739
:02025C00016738
:02025D00016737
:02025E00016736
:02025F00016735
:02026000016734
:02026100016733
:02026200016831
:02026300016830
:0202640001682F
:0202650001682E
:0202660001682D
:0202670001682C
:0202680001682B
:0202690001682A
:02026A00016829
:02026B00016927
:02026C00016926
:02026D00016925
:02026E00016924
:02026F00016923
:02027000016922
:02027100016921
:02027200016920
:0202730001691F
:02027400016A1D
:02027500016A1C
:02027600016A1B
:02027700016A1A
:02027800016A19
:02027900016A18
:02027A00016A17
:02027B00016A16
:02027C00016A15
:02027D00016B13
:02027E00016B12
:02027F00016B11
:02028000016B10
:02028100016B0F
:02028200016B0E
:02028300016B0D
:02028400016B0C
:02028500016B0B
:02028600016C09
:02028700016C08
:02028800016C07
:02028900016C06
:02028A00016C05
:02028B00016C04
:02028C00016C03
:02028D00016C02
:02028E00016C01
:02028F00016DFF
:02029000016DFE
:02029100016DFD
:02029200016DFC
:02029300016DFB
:02029400016DFA
:02029500016DF9
:02029600016DF8
:02029700016DF7
:02029800016EF5
:02029900016EF4
:02029A00016EF3
:02029B00016EF2
:02029C00016EF1
:02029D00016EF0
:02029E00016EEF
:02029F00016EEE
:0202A000016EED
:0202A100016EEC
:0202A200016FEA
:0202A300016FE9
:0202A400016FE8
:0202A500016FE7
:0202A600016FE6
:0202A700016FE5
:0202A800016FE4
:0202A900016FE3
:0202AA00016FE2
:0202AB000170E0
:0202AC000170DF
:0202AD000170DE
:0202AE000170DD
:0202AF000170DC
:0202B0000170DB
:0202B1000170DA
:0202B2000170D9
:0202B3000170D8
:0202B4000170D7
:0202B5000171D5
:0202B6000171D4
:0202B7000171D3
:0202B8000171D2
:0202B9000171D1
:0202BA000171D0
:0202BB000171CF
:0202BC000171CE
:0202BD000171CD
:0202BE000172CB
:0202BF000172CA
:0202C0000172C9
:0202C1000172C8
:0202C2000172C7
:0202C3000172C6
:0202C4000172C5
:0202C5000172C4
:0202C6000172C3
:0202C7000172C2
:0202C8000173C0
:0202C9000173BF
:0202CA000173BE
:0202CB000173BD
:0202CC000173BC
:0202CD000173BB
:0202CE000173BA
:0202CF000173B9
:0202D0000173B8
:0202D1000173B7
:0202D2000174B5
:0202D3000174B4
:0202D4000174B3
:0202D5000174B2
:0202D6000174B1
:0202D7000174B0
:0202D8000174AF
:0202D9000174AE
:0202DA000174AD
:0202DB000174AC
:0202DC000175AA
:0202DD000175A9
:0202DE000175A8
:0202DF000175A7
:0202E0000175A6
:0202E1000175A5
:0202E2000175A4
:0202E3000175A3
:0202E4000175A2
:0202E5000175A1
:0202E60001769F
:0202E70001769E
:0202E80001769D
:0202E90001769C
:0202EA0001769B
:0202EB0001769A
:0202EC00017699
:0202ED00017698
:0202EE00017697
:0202EF00017696
:0202F000017794
:0202F100017793
:0202F200017792
:0202F300017791
:0202F400017790
:0202F50001778F
:0202F60001778E
:0202F70001778D
:0202F80001778C
:0202F90001778B
:0202FA00017889
:0202FB00017888
:0202FC00017887
:0202FD00017886
:0202FE00017885
:0202FF00017884
:02030000017882
:02030100017881
:02030200017880
:0203030001787F
:0203040001787E
:0203050001797C
:0203060001797B
:0203070001797A
:02030800017979
:02030900017978
:02030A00017977
:02030B00017976
:02030C00017975
:02030D00017974
:02030E00017973
:02030F00017A71
:02031000017A70
:02031100017A6F
:02031200017A6E
:02031300017A6D
:02031400017A6C
:02031500017A6B
:02031600017A6A
:02031700017A69
:02031800017A68
:02031900017A67
:02031A00017B65
:02031B00017B64
:02031C00017B63
:02031D00017B62
:02031E00017B61
:02031F00017B60
:02032000017B5F
:02032100017B5E
:02032200017B5D
:02032300017B5C
:02032400017B5B
:02032500017C59
:02032600017C58
:02032700017C57
:02032800017C56
:02032900017C55
:02032A00017C54
:02032B00017C53
:02032C00017C52
:02032D00017C51
:02032E00017C50
:02032F00017D4E
:02033000017D4D
:02033100017D4C
:02033200017D4B
:02033300017D4A
:02033400017D49
:02033500017D48
:02033600017D47
:02033700017D46
:02033800017D45
:02033900017D44
:02033A00017E42
:02033B00017E41
:02033C00017E40
:02033D00017E3F
:02033E00017E3E
:02033F00017E3D
:02034000017E3C
:02034100017E3B
:02034200017E3A
:02034300017E39
:02034400017E38
:02034500017E37
:02034600017F35
:02034700017F34
:02034800017F33
:02034900017F32
:02034A00017F31
:02034B00017F30
:02034C00017F2F
:02034D00017F2E
:02034E00017F2D
:02034F00017F2C
:02035000017F2B
:02035100018029
:02035200018028
:02035300018027
:02035400018026
:02035500018025
:02035600018024
:02035700018023
:02035800018022
:02035900018021
:02035A00018020
:02035B0001801F
:02035C0001811D
:02035D0001811C
:02035E0001811B
:02035F0001811A
:02036000018119
:02036100018118
:02036200018117
:02036300018116
:02036400018115
:02036500018114
:02036600018113
:02036700018112
:02036800018210
:0203690001820F
:02036A0001820E
:02036B0001820D
:02036C0001820C
:02036D0001820B
:02036E0001820A
:02036F00018209
:02037000018208
:02037100018207
:02037200018206
:02037300018304
:02037400018303
:02037500018302
:02037600018301
:02037700018300
:020378000183FF
:020379000183FE
:02037A000183FD
:02037B000183FC
:02037C000183FB
:02037D000183FA
:02037E000183F9
:02037F000184F7
:020380000184F6
:020381000184F5
:020382000184F4
:020383000184F3
:020384000184F2
:020385000184F1
:020386000184F0
:020387000184EF
:020388000184EE
:020389000184ED
:02038A000184EC
:02038B000185EA
:02038C000185E9
:02038D000185E8
:02038E000185E7
:02038F000185E6
:020390000185E5
:020391000185E4
:020392000185E3
:020393000185E2
:020394000185E1
:020395000185E0
:020396000185DF
:020397000186DD
:020398000186DC
:020399000186DB
:02039A000186DA
:02039B000186D9
:02039C000186D8
:02039D000186D7
:02039E000186D6
:02039F000186D5
:0203A0000186D4
:0203A1000186D3
:0203A2000186D2
:0203A3000187D0
:0203A4000187CF
:0203A5000187CE
:0203A6000187CD
:0203A7000187CC
:0203A8000187CB
:0203A9000187CA
:0203AA000187C9
:0203AB000187C8
:0203AC000187C7
:0203AD000187C6
:0203AE000187C5
:0203AF000187C4
:0203B0000188C2
:0203B1000188C1
:0203B2000188C0
:0203B3000188BF
:0203B4000188BE
:0203B5000188BD
:0203B6000188BC
:0203B7000188BB
:0203B8000188BA
:0203B9000188B9
:0203BA000188B8
:0203BB000188B7
:0203BC000189B5
:0203BD000189B4
:0203BE000189B3
:0203BF000189B2
:0203C0000189B1
:0203C1000189B0
:0203C2000189AF
:0203C3000189AE
:0203C4000189AD
:0203C5000189AC
:0203C6000189AB
:0203C7000189AA
:0203C8000189A9
:0203C900018AA7
:0203CA00018AA6
:0203CB00018AA5
:0203CC00018AA4
:0203CD00018AA3
:0203CE00018AA2
:0203CF00018AA1
:0203D000018AA0
:0203D100018A9F
:0203D200018A9E
:0203D300018A9D
:0203D400018A9C
:0203D500018A9B
:0203D600018B99
:0203D700018B98
:0203D800018B97
:0203D900018B96
:0203DA00018B95
:0203DB00018B94
:0203DC00018B93
:0203DD00018B92
:0203DE00018B91
:0203DF00018B90
:0203E000018B8F
:0203E100018B8E
:0203E200018B8D
:0203E300018C8B
:0203E400018C8A
:0203E500018C89
:0203E600018C88
:0203E700018C87
:0203E800018C86
:0203E900018C85
:0203EA00018C84
:0203EB00018C83
:0203EC00018C82
:0203ED00018C81
:0203EE00018C80
:0203EF00018C7F
:0203F000018D7D
:0203F100018D7C
:0203F200018D7B
:0203F300018D7A
:0203F400018D79
:0203F500018D78
:0203F600018D77
:0203F700018D76
:0203F800018D75
:0203F900018D74
:0203FA00018D73
:0203FB00018D72
:0203FC00018D71
:0203FD00018D70
:0203FE00018E6E
:0203FF00018E6D
:02040000018E6B
:02040100018E6A
:02040200018E69
:02040300018E68
:02040400018E67
:02040500018E66
:02040600018E65
:02040700018E64
:02040800018E63
:02040900018E62
:02040A00018E61
:02040B00018F5F
:02040C00018F5E
:02040D00018F5D
:02040E00018F5C
:02040F00018F5B
:02041000018F5A
:02041100018F59
:02041200018F58
:02041300018F57
:02041400018F56
:02041500018F55
:02041600018F54
:02041700018F53
:02041800018F52
:02041900019050
:02041A0001904F
:02041B0001904E
:02041C0001904D
:02041D0001904C
:02041E0001904B
:02041F0001904A
:02042000019049
:02042100019048
:02042200019047
:02042300019046
:02042400019045
:02042500019044
:02042600019043
:02042700019141
:02042800019140
:0204290001913F
:02042A0001913E
:02042B0001913D
:02042C0001913C
:02042D0001913B
:02042E0001913A
:02042F00019139
:02043000019138
:02043100019137
:02043200019136
:02043300019135
:02043400019134
:02043500019232
:02043600019231
:02043700019230
:0204380001922F
:0204390001922E
:02043A0001922D
:02043B0001922C
:02043C0001922B
:02043D0001922A
:02043E00019229
:02043F00019228
:02044000019227
:02044100019226
:02044200019225
:02044300019323
:02044400019322
:02044500019321
:02044600019320
:0204470001931F
:0204480001931E
:0204490001931D
:02044A0001931C
:02044B0001931B
:02044C0001931A
:02044D00019319
:02044E00019318
:02044F00019317
:02045000019316
:02045100019315
:02045200019413
:02045300019412
:02045400019411
:02045500019410
:0204560001940F
:0204570001940E
:0204580001940D
:0204590001940C
:02045A0001940B
:02045B0001940A
:02045C00019409
:02045D00019408
:02045E00019407
:02045F00019406
:02046000019504
:02046100019503
:02046200019502
:02046300019501
:02046400019500
:020465000195FF
:020466000195FE
:020467000195FD
:020468000195FC
:020469000195FB
:02046A000195FA
:02046B000195F9
:02046C000195F8
:02046D000195F7
:02046E000195F6
:02046F000196F4
:020470000196F3
:020471000196F2
:020472000196F1
:020473000196F0
:020474000196EF
:020475000196EE
:020476000196ED
:020477000196EC
:020478000196EB
:020479000196EA
:02047A000196E9
:02047B000196E8
:02047C000196E7
:02047D000196E6
:02047E000197E4
:02047F000197E3
:020480000197E2
:020481000197E1
:020482000197E0
:020483000197DF
:020484000197DE
:020485000197DD
:020486000197DC
:020487000197DB
:020488000197DA
:020489000197D9
:02048A000197D8
:02048B000197D7
:02048C000197D6
:02048D000197D5
:02048E000198D3
:02048F000198D2
:020490000198D1
:020491000198D0
:020492000198CF
:020493000198CE
:020494000198CD
:020495000198CC
:020496000198CB
:020497000198CA
:020498000198C9
:020499000198C8
:02049A000198C7
:02049B000198C6
:02049C000198C5
:02049D000199C3
:02049E000199C2
:02049F000199C1
:0204A0000199C0
:0204A1000199BF
:0204A2000199BE
:0204A3000199BD
:0204A4000199BC
:0204A5000199BB
:0204A6000199BA
:0204A7000199B9
:0204A8000199B8
:0204A9000199B7
:0204AA000199B6
:0204AB000199B5
:0204AC000199B4
:0204AD00019AB2
:0204AE00019AB1
:0204AF00019AB0
:0204B000019AAF
:0204B100019AAE
:0204B200019AAD
:0204B300019AAC
:0204B400019AAB
:0204B500019AAA
:0204B600019AA9
:0204B700019AA8
:0204B800019AA7
:0204B900019AA6
:0204BA00019AA5
:0204BB00019AA4
:0204BC00019AA3
:0204BD00019BA1
:0204BE00019BA0
:0204BF00019B9F
:0204C000019B9E
:0204C100019B9D
:0204C200019B9C
:0204C300019B9B
:0204C400019B9A
:0204C500019B99
:0204C600019B98
:0204C700019B97
:0204C800019B96
:0204C900019B95
:0204CA00019B94
:0204CB00019B93
:0204CC00019B92
:0204CD00019C90
:0204CE00019C8F
:0204CF00019C8E
:0204D000019C8D
:0204D100019C8C
:0204D200019C8B
:0204D300019C8A
:0204D400019C89
:0204D500019C88
:0204D600019C87
:0204D700019C86
:0204D800019C85
:0204D900019C84
:0204DA00019C83
:0204DB00019C82
:0204DC00019C81
:0204DD00019C80
:0204DE00019D7E
:0204DF00019D7D
:0204E000019D7C
:0204E100019D7B
:0204E200019D7A
:0204E300019D79
:0204E400019D78
:0204E500019D77
:0204E600019D76
:0204E700019D75
:0204E800019D74
:0204E900019D73
:0204EA00019D72
:0204EB00019D71
:0204EC00019D70
:0204ED00019D6F
:0204EE00019D6E
:0204EF00019E6C
:0204F000019E6B
:0204F100019E6A
:0204F200019E69
:0204F300019E68
:0204F400019E67
:0204F500019E66
:0204F600019E65
:0204F700019E64
:0204F800019E63
:0204F900019E62
:0204FA00019E61
:0204FB00019E60
:0204FC00019E5F
:0204FD00019E5E
:0204FE00019E5D
:0204FF00019E5C
:02050000019F59
:02050100019F58
:02050200019F57
:02050300019F56
:02050400019F55
:02050500019F54
:02050600019F53
:02050700019F52
:02050800019F51
:02050900019F50
:02050A00019F4F
:02050B00019F4E
:02050C00019F4D
:02050D00019F4C
:02050E00019F4B
:02050F00019F4A
:02051000019F49
:0205110001A047
:0205120001A046
:0205130001A045
:0205140001A044
:0205150001A043
:0205160001A042
:0205170001A041
:0205180001A040
:0205190001A03F
:02051A0001A03E
:02051B0001A03D
:02051C0001A03C
:02051D0001A03B
:02051E0001A03A
:02051F0001A039
:0205200001A038
:0205210001A037
:0205220001A135
:0205230001A134
:0205240001A133
:0205250001A132
:0205260001A131
:0205270001A130
:0205280001A12F
:0205290001A12E
:02052A0001A12D
:02052B0001A12C
:02052C0001A12B
:02052D0001A12A
:02052E0001A129
:02052F0001A128
:0205300001A127
:0205310001A126
:0205320001A125
:0205330001A124
:0205340001A222
:0205350001A221
:0205360001A220
:0205370001A21F
:0205380001A21E
:0205390001A21D
:02053A0001A21C
:02053B0001A21B
:02053C0001A21A
:02053D0001A219
:02053E0001A218
:02053F0001A217
:0205400001A216
:0205410001A215
:0205420001A214
:0205430001A213
:0205440001A212
:0205450001A211
:0205460001A30F
:0205470001A30E
:0205480001A30D
:0205490001A30C
:02054A0001A30B
:02054B0001A30A
:02054C0001A309
:02054D0001A308
:02054E0001A307
:02054F0001A306
:0205500001A305
:0205510001A304
:0205520001A303
:0205530001A302
:0205540001A301
:0205550001A300
:0205560001A3FF
:0205570001A3FE
:0205580001A3FD
:0205590001A4FB
:02055A0001A4FA
:02055B0001A4F9
:02055C0001A4F8
:02055D0001A4F7
:02055E0001A4F6
:02055F0001A4F5
:0205600001A4F4
:0205610001A4F3
:0205620001A4F2
:0205630001A4F1
:0205640001A4F0
:0205650001A4EF
:0205660001A4EE
:0205670001A4ED
:0205680001A4EC
:0205690001A4EB
:02056A0001A4EA
:02056B0001A4E9
:02056C0001A5E7
:02056D0001A5E6
:02056E0001A5E5
:02056F0001A5E4
:0205700001A5E3
:0205710001A5E2
:0205720001A5E1
:0205730001A5E0
:0205740001A5DF
:0205750001A5DE
:0205760001A5DD
:0205770001A5DC
:0205780001A5DB
:0205790001A5DA
:02057A0001A5D9
:02057B0001A5D8
:02057C0001A5D7
:02057D0001A5D6
:02057E0001A5D5
:02057F0001A6D3
:0205800001A6D2
:0205810001A6D1
:0205820001A6D0
:0205830001A6CF
:0205840001A6CE
:0205850001A6CD
:0205860001A6CC
:0205870001A6CB
:0205880001A6CA
:0205890001A6C9
:02058A0001A6C8
:02058B0001A6C7
:02058C0001A6C6
:02058D0001A6C5
:02058E0001A6C4
:02058F0001A6C3
:0205900001A6C2
:0205910001A6C1
:0205920001A7BF
:0205930001A7BE
:0205940001A7BD
:0205950001A7BC
:0205960001A7BB
:0205970001A7BA
:0205980001A7B9
:0205990001A7B8
:02059A0001A7B7
:02059B0001A7B6
:02059C0001A7B5
:02059D0001A7B4
:02059E0001A7B3
:02059F0001A7B2
:0205A00001A7B1
:0205A10001A7B0
:0205A20001A7AF
:0205A30001A7AE
:0205A40001A7AD
:0205A50001A7AC
:0205A60001A8AA
:0205A70001A8A9
:0205A80001A8A8
:0205A90001A8A7
:0205AA0001A8A6
:0205AB0001A8A5
:0205AC0001A8A4
:0205AD0001A8A3
:0205AE0001A8A2
:0205AF0001A8A1
:0205B00001A8A0
:0205B10001A89F
:0205B20001A89E
:0205B30001A89D
:0205B40001A89C
:0205B50001A89B
:0205B60001A89A
:0205B70001A899
:0205B80001A898
:0205B90001A897
:0205BA0001A995
:0205BB0001A994
:0205BC0001A993
:0205BD0001A992
:0205BE0001A991
:0205BF0001A990
:0205C00001A98F
:0205C10001A98E
:0205C20001A98D
:0205C30001A98C
:0205C40001A98B
:0205C50001A98A
:0205C60001A989
:0205C70001A988
:0205C80001A987
:0205C90001A986
:0205CA0001A985
:0205CB0001A984
:0205CC0001A983
:0205CD0001A982
:0205CE0001AA80
:0205CF0001AA7F
:0205D00001AA7E
:0205D10001AA7D
:0205D20001AA7C
:0205D30001AA7B
:0205D40001AA7A
:0205D50001AA79
:0205D60001AA78
:0205D70001AA77
:0205D80001AA76
:0205D90001AA75
:0205DA0001AA74
:0205DB0001AA73
:0205DC0001AA72
:0205DD0001AA71
:0205DE0001AA70
:0205DF0001AA6F
:0205E00001AA6E
:0205E10001AA6D
:0205E20001AA6C
:0205E30001AB6A
:0205E40001AB69
:0205E50001AB68
:0205E60001AB67
:0205E70001AB66
:0205E80001AB65
:0205E90001AB64
:0205EA0001AB63
:0205EB0001AB62
:0205EC0001AB61
:0205ED0001AB60
:0205EE0001AB5F
:0205EF0001AB5E
:0205F00001AB5D
:0205F10001AB5C
:0205F20001AB5B
:0205F30001AB5A
:0205F40001AB59
:0205F50001AB58
:0205F60001AB57
:0205F70001AB56
:0205F80001AC54
:0205F90001AC53
:0205FA0001AC52
:0205FB0001AC51
:0205FC0001AC50
:0205FD0001AC4F
:0205FE0001AC4E
:0205FF0001AC4D
:0206000001AC4B
:0206010001AC4A
:0206020001AC49
:0206030001AC48
:0206040001AC47
:0206050001AC46
:0206060001AC45
:0206070001AC44
:0206080001AC43
:0206090001AC42
:02060A0001AC41
:02060B0001AC40
:02060C0001AC3F
:02060D0001AD3D
:02060E0001AD3C
:02060F0001AD3B
:0206100001AD3A
:0206110001AD39
:0206120001AD38
:0206130001AD37
:0206140001AD36
:0206150001AD35
:0206160001AD34
:0206170001AD33
:0206180001AD32
:0206190001AD31
:02061A0001AD30
:02061B0001AD2F
:02061C0001AD2E
:02061D0001AD2D
:02061E0001AD2C
:02061F0001AD2B
:0206200001AD2A
:0206210001AD29
:0206220001AD28
:0206230001AE26
:0206240001AE25
:0206250001AE24
:0206260001AE23
:0206270001AE22
:0206280001AE21
:0206290001AE20
:02062A0001AE1F
:02062B0001AE1E
:02062C0001AE1D
:02062D0001AE1C
:02062E0001AE1B
:02062F0001AE1A
:0206300001AE19
:0206310001AE18
:0206320001AE17
:0206330001AE16
:0206340001AE15
:0206350001AE14
:0206360001AE13
:0206370001AE12
:0206380001AE11
:0206390001AF0F
:02063A0001AF0E
:02063B0001AF0D
:02063C0001AF0C
:02063D0001AF0B
:02063E0001AF0A
:02063F0001AF09
:0206400001AF08
:0206410001AF07
:0206420001AF06
:0206430001AF05
:0206440001AF04
:0206450001AF03
:0206460001AF02
:0206470001AF01
:0206480001AF00
:0206490001AFFF
:02064A0001AFFE
:02064B0001AFFD
:02064C0001AFFC
:02064D0001AFFB
:02064E0001AFFA
:02064F0001AFF9
:0206500001B0F7
:0206510001B0F6
:0206520001B0F5
:0206530001B0F4
:0206540001B0F3
:0206550001B0F2
:0206560001B0F1
:0206570001B0F0
:0206580001B0EF
:0206590001B0EE
:02065A0001B0ED
:02065B0001B0EC
:02065C0001B0EB
:02065D0001B0EA
:02065E0001B0E9
:02065F0001B0E8
:0206600001B0E7
:0206610001B0E6
:0206620001B0E5
:0206630001B0E4
:0206640001B0E3
:0206650001B0E2
:0206660001B0E1
:0206670001B1DF
:0206680001B1DE
:0206690001B1DD
:02066A0001B1DC
:02066B0001B1DB
:02066C0001B1DA
:02066D0001B1D9
:02066E0001B1D8
:02066F0001B1D7
:0206700001B1D6
:0206710001B1D5
:0206720001B1D4
:0206730001B1D3
:0206740001B1D2
:0206750001B1D1
:0206760001B1D0
:0206770001B1CF
:0206780001B1CE
:0206790001B1CD
:02067A0001B1CC
:02067B0001B1CB
:02067C0001B1CA
:02067D0001B1C9
:02067E0001B1C8
:02067F0001B2C6
:0206800001B2C5
:0206810001B2C4
:0206820001B2C3
:0206830001B2C2
:0206840001B2C1
:0206850001B2C0
:0206860001B2BF
:0206870001B2BE
:0206880001B2BD
:0206890001B2BC
:02068A0001B2BB
:02068B0001B2BA
:02068C0001B2B9
:02068D0001B2B8
:02068E0001B2B7
:02068F0001B2B6
:0206900001B2B5
:0206910001B2B4
:0206920001B2B3
:0206930001B2B2
:0206940001B2B1
:0206950001B2B0
:0206960001B2AF
:0206970001B3AD
:0206980001B3AC
:0206990001B3AB
:02069A0001B3AA
:02069B0001B3A9
:02069C0001B3A8
:02069D0001B3A7
:02069E0001B3A6
:02069F0001B3A5
:0206A00001B3A4
:0206A10001B3A3
:0206A20001B3A2
:0206A30001B3A1
:0206A40001B3A0
:0206A50001B39F
:0206A60001B39E
:0206A70001B39D
:0206A80001B39C
:0206A90001B39B
:0206AA0001B39A
:0206AB0001B399
:0206AC0001B398
:0206AD0001B397
:0206AE0001B396
:0206AF0001B494
:0206B00001B493
:0206B10001B492
:0206B20001B491
:0206B30001B490
:0206B40001B48F
:0206B50001B48E
:0206B60001B48D
:0206B70001B48C
:0206B80001B48B
:0206B90001B48A
:0206BA0001B489
:0206BB0001B488
:0206BC0001B487
:0206BD0001B486
:0206BE0001B485
:0206BF0001B484
:0206C00001B483
:0206C10001B482
:0206C20001B481
:0206C30001B480
:0206C40001B47F
:0206C50001B47E
:0206C60001B47D
:0206C70001B47C
:0206C80001B57A
:0206C90001B579
:0206CA0001B578
:0206CB0001B577
:0206CC0001B576
:0206CD0001B575
:0206CE0001B574
:0206CF0001B573
:0206D00001B572
:0206D10001B571
:0206D20001B570
:0206D30001B56F
:0206D40001B56E
:0206D50001B56D
:0206D60001B56C
:0206D70001B56B
:0206D80001B56A
:0206D90001B569
:0206DA0001B568
:0206DB0001B567
:0206DC0001B566
:0206DD0001B565
:0206DE0001B564
:0206DF0001B563
:0206E00001B562
:0206E10001B561
:0206E20001B65F
:0206E30001B65E
:0206E40001B65D
:0206E50001B65C
:0206E60001B65B
:0206E70001B65A
:0206E80001B659
:0206E90001B658
:0206EA0001B657
:0206EB0001B656
:0206EC0001B655
:0206ED0001B654
:0206EE0001B653
:0206EF0001B652
:0206F00001B651
:0206F10001B650
:0206F20001B64F
:0206F30001B64E
:0206F40001B64D
:0206F50001B64C
:0206F60001B64B
:0206F70001B64A
:0206F80001B649
:0206F90001B648
:0206FA0001B647
:0206FB0001B646
:0206FC0001B744
:0206FD0001B743
:0206FE0001B742
:0206FF0001B741
:0207000001B73F
:0207010001B73E
:0207020001B73D
:0207030001B73C
:0207040001B73B
:0207050001B73A
:0207060001B739
:0207070001B738
:0207080001B737
:0207090001B736
:02070A0001B735
:02070B0001B734
:02070C0001B733
:02070D0001B732
:02070E0001B731
:02070F0001B730
:0207100001B72F
:0207110001B72E
:0207120001B72D
:0207130001B72C
:0207140001B72B
:0207150001B72A
:0207160001B828
:0207170001B827
:0207180001B826
:0207190001B825
:02071A0001B824
:02071B0001B823
:02071C0001B822
:02071D0001B821
:02071E0001B820
:02071F0001B81F
:0207200001B81E
:0207210001B81D
:0207220001B81C
:0207230001B81B
:0207240001B81A
:0207250001B819
:0207260001B818
:0207270001B817
:0207280001B816
:0207290001B815
:02072A0001B814
:02072B0001B813
:02072C0001B812
:02072D0001B811
:02072E0001B810
:02072F0001B80F
:0207300001B80E
:0207310001B90C
:0207320001B90B
:0207330001B90A
:0207340001B909
:0207350001B908
:0207360001B907
:0207370001B906
:0207380001B905
:0207390001B904
:02073A0001B903
:02073B0001B902
:02073C0001B901
:02073D0001B900
:02073E0001B9FF
:02073F0001B9FE
:0207400001B9FD
:0207410001B9FC
:0207420001B9FB
:0207430001B9FA
:0207440001B9F9
:0207450001B9F8
:0207460001B9F7
:0207470001B9F6
:0207480001B9F5
:0207490001B9F4
:02074A0001B9F3
:02074B0001B9F2
:02074C0001B9F1
:02074D0001BAEF
:02074E0001BAEE
:02074F0001BAED
:0207500001BAEC
:0207510001BAEB
:0207520001BAEA
:0207530001BAE9
:0207540001BAE8
:0207550001BAE7
:0207560001BAE6
:0207570001BAE5
:0207580001BAE4
:0207590001BAE3
:02075A0001BAE2
:02075B0001BAE1
:02075C0001BAE0
:02075D0001BADF
:02075E0001BADE
:02075F0001BADD
:0207600001BADC
:0207610001BADB
:0207620001BADA
:0207630001BAD9
:0207640001BAD8
:0207650001BAD7
:0207660001BAD6
:0207670001BAD5
:0207680001BAD4
:0207690001BBD2
:02076A0001BBD1
:02076B0001BBD0
:02076C0001BBCF
:02076D0001BBCE
:02076E0001BBCD
:02076F0001BBCC
:0207700001BBCB
:0207710001BBCA
:0207720001BBC9
:0207730001BBC8
:0207740001BBC7
:0207750001BBC6
:0207760001BBC5
:0207770001BBC4
:0207780001BBC3
:0207790001BBC2
:02077A0001BBC1
:02077B0001BBC0
:02077C0001BBBF
:02077D0001BBBE
:02077E0001BBBD
:02077F0001BBBC
:0207800001BBBB
:0207810001BBBA
:0207820001BBB9
:0207830001BBB8
:0207840001BBB7
:0207850001BBB6
:0207860001BCB4
:0207870001BCB3
:0207880001BCB2
:0207890001BCB1
:02078A0001BCB0
:02078B0001BCAF
:02078C0001BCAE
:02078D0001BCAD
:02078E0001BCAC
:02078F0001BCAB
:0207900001BCAA
:0207910001BCA9
:0207920001BCA8
:0207930001BCA7
:0207940001BCA6
:0207950001BCA5
:0207960001BCA4
:0207970001BCA3
:0207980001BCA2
:0207990001BCA1
:02079A0001BCA0
:02079B0001BC9F
:02079C0001BC9E
:02079D0001BC9D
:02079E0001BC9C
:02079F0001BC9B
:0207A00001BC9A
:0207A10001BC99
:0207A20001BC98
:0207A30001BC97
:0207A40001BD95
:0207A50001BD94
:0207A60001BD93
:0207A70001BD92
:0207A80001BD91
:0207A90001BD90
:0207AA0001BD8F
:0207AB0001BD8E
:0207AC0001BD8D
:0207AD0001BD8C
:0207AE0001BD8B
:0207AF0001BD8A
:0207B00001BD89
:0207B10001BD88
:0207B20001BD87
:0207B30001BD86
:0207B40001BD85
:0207B50001BD84
:0207B60001BD83
:0207B70001BD82
:0207B80001BD81
:0207B90001BD80
:0207BA0001BD7F
:0207BB0001BD7E
:0207BC0001BD7D
:0207BD0001BD7C
:0207BE0001BD7B
:0207BF0001BD7A
:0207C00001BD79
:0207C10001BD78
:0207C20001BE76
:0207C30001BE75
:0207C40001BE74
:0207C50001BE73
:0207C60001BE72
:0207C70001BE71
:0207C80001BE70
:0207C90001BE6F
:0207CA0001BE6E
:0207CB0001BE6D
:0207CC0001BE6C
:0207CD0001BE6B
:0207CE0001BE6A
:0207CF0001BE69
:0207D00001BE68
:0207D10001BE67
:0207D20001BE66
:0207D30001BE65
:0207D40001BE64
:0207D50001BE63
:0207D60001BE62
:0207D70001BE61
:0207D80001BE60
:0207D90001BE5F
:0207DA0001BE5E
:0207DB0001BE5D
:0207DC0001BE5C
:0207DD0001BE5B
:0207DE0001BE5A
:0207DF0001BE59
:0207E00001BE58
:0207E10001BF56
:0207E20001BF55
:0207E30001BF54
:0207E40001BF53
:0207E50001BF52
:0207E60001BF51
:0207E70001BF50
:0207E80001BF4F
:0207E90001BF4E
:0207EA0001BF4D
:0207EB0001BF4C
:0207EC0001BF4B
:0207ED0001BF4A
:0207EE0001BF49
:0207EF0001BF48
:0207F00001BF47
:0207F10001BF46
:0207F20001BF45
:0207F30001BF44
:0207F40001BF43
:0207F50001BF42
:0207F60001BF41
:0207F70001BF40
:0207F80001BF3F
:0207F90001BF3E
:0207FA0001BF3D
:0207FB0001BF3C
:0207FC0001BF3B
:0207FD0001BF3A
:0207FE0001BF39
:0207FF0001BF38
:00000001ff
