:020000040000FA
:0200000003FFFC
:0200010000BF3E
:0200020002FEFC
:0200030002BB3E
:0200040003F601
:0200050002AC4B
:0200060002DE18
:02000700008A6D
:0200080003B043
:02000900004EA7
:02000A0002648E
:02000B0001F101
:02000C0002F4FC
:02000D00016B85
:02000E00015798
:02000F0002B637
:02001000018766
:0200110001C923
:02001200037C6D
:02001300029E4B
:020014000330B7
:02001500012EBA
:02001600009A4E
:02001700017274
:0200180003B52E
:02001900036280
:02001A0000796B
:02001B0002F8E9
:02001C0002DF01
:02001D00002CB5
:02001E0002E0FE
:02001F0002F8E5
:02002000007569
:02002100035585
:02002200039841
:02002300013C9E
:02002400004199
:0200250000A633
:02002600026A6C
:02002700018D49
:02002800020DC7
:0200290003E9E9
:02002A000321B0
:02002B0003B51B
:02002C0001A22F
:02002D0000E8E9
:02002E00018748
:02002F00037E4E
:0200300002CC00
:02003100036F5B
:02003200016863
:0200330000B516
:02003400015574
:0200350003497D
:02003600028E38
:0200370003259F
:02003800010BBA
:02003900004283
:02003A0000C7FD
:02003B00029A27
:02003C0001BA07
:02003D00022798
:02003E0003DFDE
:02003F0002E2DB
:02004000032F8C
:0200410000C5F8
:0200420003A415
:0200430003CAEE
:02004400013782
:0200450003EBCB
:0200460003E4D1
:02004700012195
:0200480003A211
:0200490003674B
:02004A00006D47
:02004B0002B6FB
:02004C00023E72
:02004D000308A6
:02004E0001109F
:02004F00005758
:0200500000DBD3
:02005100029D0E
:02005200019B10
:0200530001D5D5
:0200540003495E
:0200550001F7B1
:0200560001DFC8
:020057000300A4
:0200580001584D
:0200590000E7BE
:02005A0001ADF6
:02005B0003A9F7
:02005C0002DAC6
:02005D00033E60
:02005E0000D7C9
:02005F0003A2FA
:02006000039FFC
:0200610000CECF
:02006200032D6C
:0200630002BDDC
:02006400037B1C
:02006500016830
:02006600008315
:0200670000CCCB
:02006800024054
:0200690000E1B4
:02006A0000ACE8
:02006B0001A2F0
:02006C0003C1CE
:02006D00030A84
:02006E00037A13
:02006F0001137B
:0200700003D2B9
:0200710003B8D2
:0200720000C3C9
:0200730002F396
:02007400024741
:0200750002BFC8
:02007600005A2E
:0200770003166E
:0200780002F58F
:0200790003F48E
:02007A0002136F
:02007B00015230
:02007C0001B0D1
:02007D00032C52
:02007E0001C6B9
:02007F00017C02
:02008000024F2D
:02008100003D40
:02008200034633
:02008300036A0E
:0200840000A7D3
:0200850002FD7A
:02008600026C0A
:0200870002F283
:02008800008FE7
:0200890003432F
:02008A00030C65
:02008B0003EB85
:02008C0001DE93
:02008D0000E58C
:02008E0001006F
:02008F00022D40
:02009000006C02
:0200910003BCAE
:02009200001D4F
:02009300018EDC
:02009400000F5B
:02009500039FC7
:02009600003D2B
:0200970001E97D
:0200980000A1C5
:020099000067FE
:02009A0001382B
:02009B0003144C
:02009C0001FB66
:02009D0001EC74
:02009E0002E678
:02009F0000E976
:0200A00003F566
:0200A100000855
:0200A200012239
:0200A300034216
:0200A4000269EF
:0200A5000294C3
:0200A60003C491
:0200A70001F95D
:0200A800013124
:0200A900016BE9
:0200AA0002A8AA
:0200AB0000E76C
:0200AC0000272B
:0200AD000067EA
:0200AE0001A8A7
:0200AF0003E864
:0200B000032724
:0200B1000364E6
:0200B200009EAE
:0200B30002D673
:0200B400020B3D
:0200B500023B0C
:0200B6000367DE
:0200B700018EB8
:0200B80000AF97
:0200B90000CA7B
:0200BA0001DE65
:0200BB0003EA56
:0200BC0002EF51
:0200BD0002EB54
:0200BE0003DF5E
:0200BF0001C876
:0200C00000A896
:0200C100007DC0
:0200C2000146F5
:0200C300030434
:0200C40001B683
:0200C500015ADE
:0200C60001F245
:0200C700037BB9
:0200C80001F63F
:0200C9000162D2
:0200CA0001BE75
:0200CB00030A26
:0200CC000146EB
:0200CD000071C0
:0200CE00008AA6
:0200CF0001909E
:0200D0000384A7
:0200D1000265C6
:0200D2000232F8
:0200D30002EA3F
:0200D400008E9C
:0200D500031C0A
:0200D600029591
:0200D70002F72E
:0200D8000042E4
:0200D9000276AD
:0200DA00019291
:0200DB0001968C
:0200DC0002819F
:0200DD000052CF
:0200DE00030914
:0200DF0002A677
:0200E0000327F4
:0200E100008E8F
:0200E20002D842
:0200E300020613
:0200E400021701
:0200E500030A0C
:0200E60000E038
:0200E70003967E
:0200E800032EE5
:0200E90003A76B
:0200EA00010013
:0200EB000338D8
:0200EC00024FC1
:0200ED000245CA
:0200EE000319F4
:0200EF0000CA45
:0200F0000359B2
:0200F10002C447
:0200F200030CFD
:0200F300002FDC
:0200F400022DDB
:0200F500010701
:0200F60000BA4E
:0200F7000147BF
:0200F80002AE56
:0200F90000ED18
:0200FA000005FF
:0200FB0003F40C
:0200FC0000BB47
:0200FD000259A6
:0200FE0000CD33
:0200FF000018E7
:020100000038C5
:02010100012DCE
:0201020002F603
:02010300019465
:020104000106F2
:02010500014BAC
:02010600026293
:02010700004CAA
:020108000308EA
:0201090002955D
:02010A0002F4FD
:02010B000022D0
:02010C000221CE
:02010D0000F000
:02010E00008E61
:02010F0000FAF4
:020110000235B6
:02011100003DAF
:020112000313D5
:0201130002B632
:020114000325C1
:02011500006187
:0201160002687D
:02011700013AAB
:0201180000D80D
:02011900013FA4
:02011A00027071
:02011B00006B77
:02011C00032FAF
:02011D0002BB23
:02011E000310CC
:02011F00002DB1
:020120000210CB
:0201210000BB21
:02012200002CAF
:02012300006377
:02012400016078
:020125000322B3
:0201260001A82E
:0201270000F3E3
:020128000102D2
:0201290001D5FE
:02012A00036A66
:02012B0001C30E
:02012C0000DDF4
:02012D0000BA16
:02012E00015876
:02012F0002B715
:0201300000D6F7
:0201310003B613
:02013200035573
:0201330003B413
:0201340000D2F7
:0201350002AF17
:02013600014A7C
:0201370000A224
:0201380000B80D
:02013900018B38
:02013A00031BA5
:02013B0001665B
:02013C00006E53
:02013D0000318F
:02013E0000AE11
:02013F0001E7D6
:0201400003D9E1
:02014100028634
:0201420001ECCE
:02014300020BAD
:0201440002E2D5
:02014500007246
:0201460002BAFB
:0201470001B9FC
:02014800016F45
:0201490001DCD7
:02014A0002FFB2
:02014B0000D8DA
:02014C00036747
:02014D0002AB03
:02014E0002A409
:02014F0003515A
:0201500000B2FB
:0201510002C7E3
:02015200018F1B
:02015300010A9F
:02015400013870
:0201550002178F
:0201560003A9FB
:0201570001ECB9
:0201580000E0C5
:02015900008420
:02015A0000D9CA
:02015B0001DEC3
:02015C0003920C
:02015D0001F6A9
:02015E00010995
:02015F0000CAD4
:02016000013963
:02016100025545
:0201620000207B
:02016300029701
:0201640001BBDD
:02016500018B0C
:0201660002078E
:02016700032F64
:02016800010292
:02016900038011
:02016A0002A8E9
:02016B00027B15
:02016C0002F798
:02016D00001D73
:02016E0001ECA2
:02016F0000642A
:02017000038406
:02017100034C3D
:0201720003BCCC
:0201730000D4B6
:020174000292F5
:0201750000F791
:02017600000384
:0201770003B4CF
:02017800000B7A
:0201790001087B
:02017A0002A9D8
:02017B0000EF93
:02017C0003D9A5
:02017D00036815
:02017E000399E3
:02017F00006F0F
:0201800001E795
:0201810000027A
:0201820002BFBA
:02018300021E5A
:02018400021E59
:0201850002C0B6
:02018600000374
:0201870001E68F
:02018800006A0B
:02018900038EE3
:02018A0003511F
:02018B0003B4BB
:02018C0000B6BB
:02018D00025618
:02018E000095DA
:02018F000371FA
:0201900002EC7F
:02019100030366
:0201920003B8B0
:02019300010A5F
:0201940002F86F
:020195000182E5
:0201960000A8BF
:020197000069FD
:0201980000C5A0
:0201990001BCA7
:02019A00034E12
:02019B00017AE7
:02019C00004021
:02019D00039FBE
:02019E000398C4
:02019F00002A34
:0201A000015408
:0201A100031643
:0201A2000171E9
:0201A3000063F7
:0201A40003ED69
:0201A500000E4A
:0201A60000C592
:0201A700021341
:0201A80003F85A
:0201A9000272E0
:0201AA000181D1
:0201AB0001262B
:0201AC000160F0
:0201AD00022F1F
:0201AE000392BA
:0201AF000189C4
:0201B000001439
:0201B100033217
:0201B20002E465
:0201B30003281F
:0201B40003FF47
:0201B5000168DF
:0201B6000363E1
:0201B70001F055
:0201B800010F35
:0201B90000BE86
:0201BA0000FF44
:0201BB0001CF72
:0201BC0003310D
:0201BD0001221D
:0201BE0003A29A
:0201BF0002B28A
:0201C0000252E9
:0201C1000280BA
:0201C200033CFC
:0201C3000087B3
:0201C4000260D7
:0201C50000C672
:0201C60003BA7A
:0201C700033BF8
:0201C8000349E9
:0201C90003E34E
:0201CA00010929
:0201CB0002BC74
:0201CC0000FA37
:0201CD0003C469
:0201CE00031913
:0201CF0002F834
:0201D0000363C7
:0201D1000057D5
:0201D20001D654
:0201D30003DE49
:0201D4000270B7
:0201D500018B9C
:0201D600012FF7
:0201D700015CC9
:0201D800021112
:0201D900034FD2
:0201DA0001140E
:0201DB000360BF
:0201DC000235EA
:0201DD0001908F
:0201DE000172AC
:0201DF0001DA43
:0201E00002C952
:0201E100003EDE
:0201E2000238E1
:0201E30000B862
:0201E40003BD59
:0201E5000347CE
:0201E6000356BE
:0201E70003E92A
:0201E800010113
:0201E900029C76
:0201EA0000BB58
:0201EB00035DB2
:0201EC0002828D
:0201ED00022BE3
:0201EE000255B8
:0201EF00030308
:0201F0000032DB
:0201F10001E328
:0201F2000016F5
:0201F30002CA3E
:0201F40001FF09
:0201F50001B552
:0201F60001EB1B
:0201F70002A262
:0201F80003D929
:0201F900019073
:0201FA0003C63A
:0201FB00027B85
:0201FC0001B050
:0201FD0001639C
:0201FE00019569
:0201FF000246B6
:02020000037485
:020201000120DA
:02020200034AAD
:0202030001F107
:020204000116E1
:0202050000B740
:0202060000D521
:02020700016F85
:0202080002856D
:020209000017DC
:02020A000225CB
:02020B0000AE43
:02020C0003B23B
:02020D000331BB
:02020E00032BC0
:02020F00039F4B
:02021000008E5E
:0202110001F6F4
:0202120003D90E
:020213000234B3
:020214000109DE
:02021500005790
:02021600001EC8
:02021700005E87
:020218000115CE
:0202190002459C
:02021A0003EDF2
:02021B00020CD3
:02021C0000A33D
:02021D0003B12B
:02021E000335A6
:02021F000331A9
:0202200003A336
:02022100008B50
:0202220001E9F0
:0202230003BD19
:020224000207CF
:0202250000C611
:0202260003FAD9
:0202270003A32F
:0202280003C110
:02022900005380
:02022A00015978
:02022B0002D3FC
:02022C0000C10F
:02022D000323A9
:02022E0001F8D5
:02022F0001408C
:0202300000FBD1
:020231000129A1
:0202320001C900
:0202330002DBEC
:02023400005F69
:0202350002566F
:0202360000BD09
:0202370003962C
:0202380002E0E2
:02023900029C25
:02023A0002C7F9
:02023B0003645A
:02023C00007050
:02023D0001EDD1
:02023E0003D9E2
:02023F00023685
:020240000101BA
:02024100003C7F
:0202420003E6D1
:0202430003FEB8
:02024400008533
:02024500017B3B
:0202460002DFD5
:0202470000B005
:0202480002F0C2
:02024900019D15
:02024A0000B7FB
:02024B00003E73
:02024C0000337D
:02024D0000941B
:02024E0001614C
:02024F00029B10
:0202500000416B
:02025100025257
:0202520000D0DA
:0202530003B9ED
:02025400030D98
:0202550002CCD9
:0202560002F6AE
:02025700038B17
:02025800008A1A
:0202590001F4AE
:02025A0003C8D7
:02025B0002059A
:02025C0000ACF4
:02025D0003BDDF
:02025E00033764
:02025F00031A80
:02026000036534
:02026100001A81
:02026200013762
:0202630002BCDB
:0202640000A9EF
:0202650002FF96
:0202660001BCD9
:0202670000E0B5
:02026800006C28
:02026900005E35
:02026A0000B8DA
:02026B00017917
:02026C0002A0EE
:02026D00002D62
:02026E0002216B
:02026F00007A13
:02027000033950
:02027100025E2B
:0202720001E8A1
:0202730001D8B0
:02027400022C5A
:0202750002E5A0
:02027600000383
:020277000185FF
:02027800036C15
:0202790001B7CB
:02027A0000651D
:02027B00037707
:02027C0002ED91
:02027D0002C6B7
:02027E00030279
:02027F0003A1D9
:0202800000A3D9
:02028100020871
:0202820003CFA8
:0202830001F880
:020284000083F5
:02028500037004
:0202860002BFB5
:02028700026F04
:020288000281F1
:0202890002F37E
:02028A0003C7A8
:02028B0000FB76
:02028C000290DE
:02028D000086E9
:02028E0002DB91
:02028F000191DB
:0202900000A7C5
:02029100001C4F
:0202920003F176
:02029300002544
:0202940000B8B0
:0202950001ABBB
:0202960002FC68
:0202970000ACB9
:0202980002BAA8
:0202990001273B
:02029A0003F26D
:02029B00031A44
:02029C0002A1BD
:02029D000285D8
:02029E0002C795
:02029F000366F4
:0202A0000061FB
:0202A10001BAA0
:0202A2000370E7
:0202A3000182D6
:0202A40003F164
:0202A50002BC99
:0202A60001E372
:0202A7000165EF
:0202A80001440F
:0202A900017ED4
:0202AA0002143C
:0202AB00030549
:0202AC00005000
:0202AD0001F757
:0202AE0003F952
:0202AF000255F6
:0202B000010B40
:0202B100001C2F
:0202B2000387C0
:0202B300034CFA
:0202B400036ADB
:0202B50003E262
:0202B60000B492
:0202B70001DE66
:0202B8000362DF
:0202B900013F03
:0202BA000374CB
:0202BB0002023D
:0202BC0000E957
:0202BD00002817
:0202BE0003BF7C
:0202BF0003AE8C
:0202C00003F544
:0202C1000093A8
:0202C2000189B0
:0202C30002D661
:0202C400007BBD
:0202C5000276BF
:0202C60000C86E
:0202C7000371C1
:0202C8000271C1
:0202C90001C76B
:0202CA000173BE
:0202CB000175BB
:0202CC0001CD62
:0202CD00027BB2
:0202CE00037EAD
:0202CF0000D756
:0202D0000286A4
:0202D1000089A2
:0202D20002E147
:0202D300018E9A
:0202D400009098
:0202D50003E73D
:0202D600039291
:0202D700039191
:0202D80003E43D
:0202D900008B98
:0202DA0001869B
:0202DB0002D44B
:0202DC000076AA
:0202DD00026BB2
:0202DE0000B36B
:0202DF00034FCB
:0202E000023DDD
:0202E100017E9C
:0202E200011207
:0202E30000F821
:0202E4000130E7
:0202E50001BA5C
:0202E60002977D
:0202E70003C54D
:0202E8000145CE
:0202E9000316FA
:0202EA000139D8
:0202EB0003AD61
:0202EC0002739B
:0202ED00018985
:0202EE0000F01E
:0202EF0000A865
:0202F00000B05C
:0202F100010802
:0202F20001B158
:0202F30002AA5D
:0202F40003F312
:0202F500018C7A
:0202F60003748F
:0202F70001AC58
:0202F8000034D0
:0202F900030AF6
:0202FA000230D0
:0202FB0001A55B
:0202FC00016897
:0202FD00017A84
:0202FE0001DB22
:0202FF00028A71
:02030000038771
:0203010000D327
:02030200026D8A
:020303000054A4
:0203040002896C
:02030500010CE9
:0203060003DC16
:0203070002F9F9
:0203080002648D
:02030900021BD5
:02030A000220CF
:02030B0002717D
:02030C00030FDD
:02030D0003F9F2
:02030E000130BC
:02030F0002B337
:02031000008269
:02031100029D4B
:020312000104E4
:0203130003B62F
:0203140002B431
:0203150001FEE7
:02031600019252
:02031700017271
:02031800019D45
:020319000213CD
:02031A0002D30C
:02031B0003DFFE
:02031C000134AA
:02031D0002D408
:02031E0000BE1F
:02031F0002F3E7
:02032000017169
:020321000039A1
:02032200034B8B
:0203230002A630
:02032400024B8A
:0203250002399B
:02032600027162
:0203270002F1E1
:0203280003BA16
:0203290000CC06
:02032A000227A8
:02032B0003CB02
:02032C0001B717
:02032D0003EBE0
:02032E00026764
:02032F00012BA0
:02033000003893
:02033100038C3B
:0203320003289E
:02033300030BBA
:0203340003368E
:0203350003A81B
:02033600006164
:02033700016162
:0203380002A819
:0203390000368C
:02033A00020BB4
:02033B0000269A
:02033C00028835
:02033D0001308D
:02033E00001E9F
:02033F00035267
:0203400002CCED
:02034100028C2C
:02034200029225
:0203430002DDD9
:02034400036E46
:02034500004472
:02034600016054
:0203470002C0F2
:0203480000654E
:02034900025060
:02034A00007F32
:02034B0002F2BC
:02034C0001AB03
:02034D0000A707
:02034E0003E8C2
:02034F00036D3C
:02035000033672
:02035100034364
:02035200039412
:02035300002880
:020354000100A6
:02035500021B89
:02035600037A28
:02035700011C87
:0203580003019F
:02035900012978
:02035A0003940A
:02035B0002425C
:02035C0001326C
:02035D00006539
:02035E0003DBBF
:02035F00039207
:02036000038C0C
:0203610003C8CF
:02036200004653
:02036300010592
:0203640002078E
:02036500034A49
:0203660000CEC7
:020367000294FE
:02036800009CF7
:0203690002E4AC
:02036A00016D23
:02036B00003858
:02036C00034349
:02036D00028FFD
:02036E00021C6F
:02036F0001E9A2
:0203700001F694
:02037100024444
:0203720002D2B5
:0203730003A0E5
:0203740000AED9
:0203750001FC89
:020376000389F9
:0203770001562D
:0203780003631D
:0203790001AFD2
:02037A00003B46
:02037B00030578
:02037C00020F6E
:02037D00015825
:02037E0000E09D
:02037F0000A6D6
:0203800000ABD0
:0203810000EF8B
:02038200017107
:02038300023145
:02038400033044
:02038500006C0A
:0203860001E78D
:0203870003A0D1
:020388000197DB
:0203890003CBA4
:02038A00023D32
:02038B0000EC84
:02038C0003D993
:02038D00030368
:02038E00026A01
:02038F00020F5B
:0203900001F07A
:02039100020E5A
:020392000269FE
:02039300030164
:0203940003D58F
:0203950000E680
:02039600023330
:0203970003BDA4
:020398000183DF
:020399000384DB
:02039A0001C29E
:02039B00003B25
:02039C0002F16C
:02039D0001E27B
:02039E00010E4E
:02039F000076E6
:0203A000001942
:0203A10003F85F
:0203A200001247
:0203A3000067F1
:0203A40000F760
:0203A50001C194
:0203A60002C78C
:0203A70000074D
:0203A8000182D0
:0203A900033718
:0203AA0001262A
:0203AB000350FD
:0203AC0001B49A
:0203AD000052FC
:0203AE00032B1F
:0203AF00023D0D
:0203B0000188C2
:0203B100010E3B
:0203B20000CD7C
:0203B30000C682
:0203B40000F84F
:0203B5000163E2
:0203B60002083B
:0203B70002E55D
:0203B80003FC44
:0203B900014CF5
:0203BA0002D46B
:0203BB000095AB
:0203BC00028FAE
:0203BD0000C27C
:0203BE00032D0D
:0203BF0001D06B
:0203C00000AB90
:0203C10003BF78
:0203C200030B2B
:0203C300028FA7
:0203C400024BEA
:0203C500023EF6
:0203C6000269CA
:0203C70002CC66
:0203C8000367C9
:0203C9000038FA
:0203CA000142EE
:0203CB000282AC
:0203CC0003FA32
:0203CD0001A885
:0203CE00038E9C
:0203CF0001AB80
:0203D00003FE2A
:0203D1000288A0
:0203D2000149DF
:0203D3000040E8
:0203D400036EB6
:0203D50002D252
:0203D600026CB7
:0203D700023CE6
:0203D8000243DE
:0203D900027FA1
:0203DA0002F22D
:0203DB00039A83
:0203DC000078A7
:0203DD00018C91
:0203DE0002D546
:0203DF000053C9
:0203E000020712
:0203E10003F126
:0203E200020F08
:0203E3000063B5
:0203E40002EB2A
:0203E50001A96C
:0203E600009B7A
:0203E70003C24F
:0203E800031EF2
:0203E90002AF61
:0203EA0002749B
:0203EB00026DA1
:0203EC00029B72
:0203ED0002FC10
:0203EE00039377
:0203EF00005DAF
:0203F000015BAF
:0203F100028D7B
:0203F20003F313
:0203F300018C7B
:0203F400035AAA
:0203F500015BAA
:0203F600038F73
:0203F70001F70C
:0203F800009271
:0203F90003609F
:0203FA0002619E
:0203FB00019669
:0203FC0000FD02
:0203FD00009866
:0203FE00006598
:0203FF00006597
:02040000009763
:0204010000FCFD
:02040200019463
:02040300025E97
:02040400035A99
:0204050000896C
:0204060001EA09
:02040700037C74
:020408000141B0
:020409000338B6
:02040A0001608F
:02040B0003BB31
:02040C000247A5
:02040D000104E8
:02040E0003F3F6
:02040F000314D4
:02041000026682
:0204110001E9FF
:02041200019D4A
:02041300018363
:0204140001994C
:0204150001E103
:02041600025989
:020417000302DE
:0204180003DC03
:0204190000E6FB
:02041A000221BD
:02041B00038D4F
:02041C000129B4
:02041D0002F5E6
:02041E0000F1EB
:02041F00031EBA
:02042000017B5E
:020421000007D2
:0204220002C412
:0204230001B125
:0204240000CD09
:020425000019BC
:0204260003953C
:02042700034090
:02042800031BB4
:020429000325A9
:02042A00035E6F
:02042B0003C705
:02042C00005F6F
:02042D000125A7
:02042E00021BAF
:02042F00034088
:02043000009436
:020431000217B0
:0204320003C8FD
:0204330001A81E
:0204340003B60D
:0204350001F3D1
:02043600005F65
:0204370002F9C8
:0204380001C100
:0204390000B70A
:02043A0003DBE2
:02043B00032E8E
:02043C0002AE0E
:02043D00025C5F
:02043E00023981
:02043F00024277
:02044000027A3E
:0204410002DFD8
:02044200037243
:02044300003285
:02044400012095
:02044500023B78
:0204460003832E
:0204470000F8BB
:02044800029B15
:02044900006A47
:02044A00026747
:02044B0000901F
:02044C0002E6C6
:02044D00016943
:02044E00001993
:02044F0002F5B4
:0204500001FEAB
:02045100013375
:02045200009513
:02045300002384
:0204540003DDC6
:0204550003C4DE
:0204560003D6CB
:0204570000158E
:02045800007F23
:0204590001168A
:02045A0001D8C7
:02045B0002C6D7
:02045C0003E0BB
:02045D00012577
:02045E00029604
:02045F00003368
:0204600001FB9E
:0204610003EEA8
:02046200020C8A
:02046300005641
:0204640002CBC9
:02046500016B29
:0204660000365E
:02046700032C64
:02046800024D43
:020469000198F8
:02046A00010F80
:02046B0000B0DF
:02046C00007C12
:02046D0000721B
:02046E000093F9
:02046F0000DEAD
:02047000015336
:0204710001F395
:0204720002BDC9
:0204730003B1D3
:0204740000CFB7
:0204750002176C
:020476000389F8
:0204770001255D
:0204780002EB95
:0204790000DBA6
:02047A0002F48A
:02047B00013747
:02047C0003A4D7
:02047D00023942
:02047E0000F983
:02047F0003E296
:0204800002F484
:02048100022F48
:020482000193E4
:02048300012155
:0204840000D79F
:0204850000B7BE
:0204860000BFB5
:0204870000F182
:02048800014B26
:0204890001CEA2
:02048A000279F5
:02048B00034D1F
:02048C00004A24
:02048D00016FFD
:02048E0002BCAE
:02048F00003239
:0204900001D099
:020491000396D0
:020492000185E2
:02049300039BC9
:0204940001DA8B
:02049500004025
:0204960002CF93
:020497000185DD
:020498000063FF
:020499000369F5
:02049A000296C8
:02049B0001EB73
:02049C000168F5
:02049D00010C50
:02049E0000D785
:02049F0000CA91
:0204A00000E476
:0204A100012632
:0204A200018EC9
:0204A300021E37
:0204A40002D480
:0204A50003B2A0
:0204A60000B79D
:0204A70001E270
:0204A80003341B
:0204A90000ADA4
:0204AA00024D01
:0204AB0000133C
:0204AC0002004C
:0204AD00001439
:0204AE00024EFC
:0204AF0000AE9D
:0204B000033413
:0204B10001E167
:0204B20000B494
:0204B30003AE96
:0204B40002CD77
:0204B500021231
:0204B600017EC5
:0204B700010F33
:0204B80000C67C
:0204B90000A39E
:0204BA0000A69A
:0204BB0000CE71
:0204BC00011C21
:0204BD000190AC
:0204BE00022911
:0204BF0002E752
:0204C00003CB6C
:0204C10000D465
:0204C200020333
:0204C3000357DD
:0204C40000D066
:0204C500026EC5
:0204C600003103
:0204C700021918
:0204C80000260C
:0204C9000258D7
:0204CA0000AF81
:0204CB00032B01
:0204CC0001CB62
:0204CD0000909D
:0204CE00037AAF
:0204CF000288A1
:0204D00001BB6E
:0204D100011216
:0204D200008D9B
:0204D300002DFA
:0204D40003F132
:0204D50003DA48
:0204D60003E63B
:0204D70000170C
:0204D800006BB7
:0204D90000E43D
:0204DA0001819E
:0204DB000241DC
:0204DC000325F6
:0204DD00002EEF
:0204DE000159C2
:0204DF0002A970
:0204E000001CFE
:0204E10001B365
:0204E200036DA8
:0204E300014BCB
:0204E400034CC7
:0204E5000170A4
:0204E60003B859
:0204E7000223EE
:0204E80000B161
:0204E9000363AB
:0204EA000237D7
:0204EB00012EE0
:0204EC000049C5
:0204ED00038684
:0204EE0002E624
:0204EF000269A0
:0204F000020FF9
:0204F10001D830
:0204F20001C344
:0204F30001D135
:0204F400020103
:0204F5000254AF
:0204F60002C939
:0204F70003619F
:0204F800001BE7
:0204F90000F70A
:0204FA0001F609
:0204FB000317E5
:0204FC00005AA4
:0204FD0001BF3D
:0204FE000346B3
:0204FF0000EF0C
:0205000002BA3D
:0205010000A751
:0205020002B63F
:0205030000E610
:020504000339B9
:0205050001AD46
:020506000042B1
:0205070002F9F7
:0205080001D21E
:0205090000CC24
:02050A0003E804
:02050B000325C6
:02050C00028368
:02050D000203E7
:02050E0001A446
:02050F00016683
:0205100001499F
:02051100014E99
:02051200017373
:0205130001B92C
:020514000220C3
:0205150002A939
:0205160003528E
:02051700001BC7
:020518000106DA
:020519000211CD
:02051A00033D9F
:02051B00008955
:02051C0001F6E6
:02051D00038455
:02051E000132A8
:02051F000300D7
:0205200000EFEA
:0205210002FED8
:02052200012DA9
:02052300037D56
:0205240001ECE8
:02052500007C58
:02052600032CA4
:0205270001FCD5
:0205280000ECE5
:0205290003FBD2
:02052A00032BA1
:02052B00027B51
:02052C0001EAE2
:02052D00017952
:02052E000127A3
:02052F0000F6D4
:0205300000E4E5
:0205310000F1D7
:02053200011EA8
:02053300016A5B
:0205340001D6EE
:02053500026161
:02053600030CB4
:0205370003D5EA
:0205380000BE03
:0205390001C7F8
:02053A0002EECF
:02053B0000348A
:02053C00019A22
:02053D00031E9B
:02053E0000C1FA
:02053F00028434
:02054000006554
:02054100026551
:02054200008334
:0205430002C1F3
:02054400011D97
:02054500039819
:02054600023180
:0205470000E9C9
:0205480003BFEF
:0205490002B4FA
:02054A0001C7E7
:02054B0000F8B6
:02054C00004865
:02054D0003B6F3
:02054E00034365
:02054F0002EDBB
:0205500002B6F1
:02055100029D09
:0205520002A203
:0205530002C4E0
:0205540003059D
:0205550003643D
:0205560003E0C0
:02055700007B27
:0205580001336D
:02055900020995
:02055A0002FDA0
:02055B00000E90
:02055C00013D5F
:02055D00028911
:02055E0003F3A5
:02055F00017B1E
:02056000032076
:0205610000E2B6
:0205620002C2D3
:0205630000BFD7
:0205640002D9BA
:02056500011083
:0205660003652B
:0205670001D7BA
:0205680000662B
:0205690003127B
:02056A0001DBB3
:02056B0000C1CD
:02056C0003C4C6
:02056D0002E3A7
:02056E00022069
:02056F00017A0F
:0205700000F099
:02057100008305
:02057200003255
:0205730003FE85
:0205740003E79B
:0205750003ED94
:02057600000E75
:02057700004D35
:0205780000A8D9
:02057900011F60
:02057A0001B2CC
:02057B0002621A
:02057C00032E4C
:02057D00001765
:02057E00011B5F
:02057F00023C3C
:020580000378FE
:0205810000D1A7
:0205820002462F
:0205830003D79C
:020584000184F0
:02058500034C25
:02058600013141
:0205870003313E
:02058800014D23
:020589000385E8
:02058A0001D995
:02058B00004826
:02058C0002D398
:02058D000179F2
:02058E00003B30
:02058F0003184F
:02059000021156
:02059100012641
:02059200005512
:0205930003A0C3
:0205940003075B
:020595000288DA
:0205960002253C
:0205970001DD84
:0205980001B0B0
:02059900019FC0
:02059A0001A8B6
:02059B0001CC91
:02059C00020C4F
:02059D000266F4
:02059E0002DB7E
:02059F00036BEC
:0205A000001643
:0205A10000DC7C
:0205A20001BD99
:0205A30002B89C
:0205A40003CE84
:0205A50000FE56
:0205A600024908
:0205A70003AFA0
:0205A800012F21
:0205A90002CA84
:0205AA00007FD0
:0205AB00024FFD
:0205AC00003914
:0205AD00023D0D
:0205AE00005CEF
:0205AF000295B3
:0205B00000E861
:0205B1000355F0
:0205B20001DD69
:0205B300007EC8
:0205B400033A08
:0205B500021032
:0205B600010042
:0205B700000939
:0205B800032D11
:0205B900026AD4
:0205BA0001C27C
:0205BB0001330A
:0205BC0000BE7F
:0205BD000063D9
:0205BE0000211A
:0205BF0003F93E
:0205C00003EB4B
:0205C10003F63F
:0205C200001B1C
:0205C300005ADC
:0205C40000B283
:0205C500012310
:0205C60001AE84
:0205C7000252DE
:0205C80003101E
:0205C90003E746
:0205CA0000D758
:0205CB0001E04D
:0205CC00030327
:0205CD00003EEE
:0205CE00019397
:0205CF00030126
:0205D0000088A1
:0205D1000228FE
:0205D20003E242
:0205D30001B471
:0205D400039E84
:0205D50001A281
:0205D60003BF61
:0205D70001F52C
:0205D8000043DE
:0205D90002AA74
:0205DA00012AF4
:0205DB0003C259
:0205DC000273A8
:0205DD00013DDE
:0205DE00001FFC
:0205DF00031AFD
:0205E000022DEA
:0205E1000159BE
:0205E200009D7A
:0205E30003FA19
:0205E400036FA3
:0205E50002FC16
:0205E60002A26F
:0205E700025FB1
:0205E8000235DA
:0205E9000224EA
:0205EA00022AE3
:0205EB000249C3
:0205EC00027F8C
:0205ED0002CE3C
:0205EE000335D3
:0205EF0003B453
:0205F000004ABF
:0205F10000F90F
:0205F20001BF47
:0205F300029E66
:0205F40003946E
:0205F50000A262
:0205F60001C83A
:0205F7000305FA
:0205F800005AA7
:0205F90001C738
:0205FA00034CB0
:0205FB0000E816
:0205FC00029B60
:0205FD00006696
:0205FE000249B0
:0205FF000043B7
:020600000255A1
:02060100007D7A
:0206020002BE36
:020603000115DF
:0206040003846D
:02060500020AE7
:0206060000A84A
:02060700035C92
:020608000228C6
:02060900010BE3
:02060A000005E9
:02060B000316D4
:02060C00023EAC
:02060D00017D6D
:02060E0000D416
:02060F000041A8
:0206100003C520
:02061100035F85
:020612000311D2
:0206130002DA09
:0206140002B929
:0206150002AF32
:0206160002BC24
:0206170002DF00
:020618000319C4
:02061900036A72
:02061A0003D10A
:02061B00004F8E
:02061C0000E4F8
:02061D00018F4B
:02061E00025088
:02061F000328AE
:020620000016C2
:02062100011BBB
:0206220002369E
:0206230003676B
:0206240000AF25
:02062500020DC4
:0206260003814E
:02062700010BC5
:0206280002AC22
:0206290000626D
:02062A00022F9D
:02062B000012BB
:02062C00020AC0
:02062D000019B2
:02062E00023E8A
:02062F00007950
:0206300002C9FD
:02063100013096
:0206320003AC17
:02063300023E85
:0206340000E6DE
:0206350003A41C
:02063600027848
:0206370001615F
:02063800006060
:02063900037547
:02063A00029F1D
:02063B0001DFDD
:02063C00013487
:02063D00009F1C
:02063E00001F9B
:02063F0003B501
:02064000036055
:02064100032193
:0206420002F7BD
:0206430002E3D0
:0206440002E4CE
:0206450002FAB7
:0206460003258A
:02064700036648
:0206480003BBF2
:02064900002689
:02064A0000A707
:02064B00013C70
:02064C0001E6C5
:02064D0002A603
:02064E00037A2D
:02064F00006445
:02065000016245
:02065100027530
:02065200039E05
:0206530000DBCA
:02065400022D75
:0206550003940C
:02065600011091
:0206570002A0FF
:0206580000455B
:0206590001FF9F
:02065A0003CECD
:02065B0001B1EB
:02065C0003A9F0
:02065D0001B6E4
:02065E0003D7C0
:02065F00020D8A
:02066000005741
:0206610002B6DF
:0206620001296C
:0206630003B1E1
:02066400024D45
:0206650000FE95
:0206660003C2CD
:02066700029CF3
:02066800018906
:02066900008B04
:02066A0003A1EA
:02066B0002CBC0
:02066C00020981
:02066D00015C2E
:02066E0000C3C7
:02066F00003E4B
:0206700003CDB8
:02067100037014
:0206720003275C
:0206730002F291
:0206740002D1B1
:0206750002C4BD
:0206760002CBB5
:0206770002E59A
:02067800031469
:02067900035725
:02067A0003ADCE
:02067B00001766
:02067C000095E7
:02067D00012654
:02067E0001CCAD
:02067F000285F2
:02068000035124
:02068100003245
:0206820001264F
:02068300022D46
:02068400034829
:020685000077FC
:0206860001B9B8
:02068700030E60
:020688000077F9
:0206890001F47A
:02068A000384E7
:02068B00012745
:02068C0002DD8D
:02068D0000A7C4
:02068E000284E4
:02068F000074F5
:020690000278EE
:02069100008FD8
:0206920002B9AB
:0206930000F66F
:0206940003461B
:0206950001AAB8
:02069600002042
:0206970002AAB5
:02069800014619
:0206990003F666
:02069A0002B9A3
:02069B00018ECE
:02069C000077E5
:02069D000372E6
:02069E000280D8
:02069F0001A2B6
:0206A00000D583
:0206A100001C3B
:0206A2000376DD
:0206A30002E271
:0206A4000261F1
:0206A50001F35F
:0206A6000197BA
:0206A700014E02
:0206A800011837
:0206A90000F45B
:0206AA0000E36B
:0206AB0000E568
:0206AC0000F953
:0206AD00011F2B
:0206AE000158F1
:0206AF0001A4A4
:0206B000020244
:0206B1000272D3
:0206B20002F450
:0206B3000389B9
:0206B400003113
:0206B50000EB58
:0206B60001B68B
:0206B7000295AA
:0206B8000385B8
:0206B9000088B7
:0206BA00019DA0
:0206BB0002C477
:0206BC0003FD3C
:0206BD000148F2
:0206BE0002A692
:0206BF00001524
:0206C0000197A0
:0206C100032A0A
:0206C20000D066
:0206C3000287AC
:0206C4000051E3
:0206C500022C05
:0206C600001919
:0206C700021817
:0206C800002907
:0206C900024CE1
:0206CA000081AD
:0206CB0002C764
:0206CC0001200B
:0206CD00038A9E
:0206CE00020523
:0206CF00009396
:0206D0000332F3
:0206D10001E244
:0206D20000A581
:0206D3000379A9
:0206D400025EC4
:0206D5000155CD
:0206D600005EC4
:0206D7000378A6
:0206D80002A37B
:0206D90001E03E
:0206DA00012FEE
:0206DB00008F8E
:0206DC0000001C
:0206DD00038296
:0206DE00031601
:0206DF0002BC5B
:0206E0000272A4
:0206E100023ADB
:0206E200021301
:0206E30001FE16
:0206E40001F91A
:0206E50002060B
:0206E6000224EC
:0206E7000253BC
:0206E80002937B
:0206E90002E429
:0206EA000347C4
:0206EB0003BA50
:0206EC00003FCD
:0206ED0000D437
:0206EE00017B8E
:0206EF000232D5
:0206F00002FA0C
:0206F10003D430
:0206F20000BE48
:0206F30001B94B
:0206F40002C53D
:0206F50003E11F
:0206F600010FF2
:0206F700024DB2
:0206F800039C61
:0206F90000FC03
:0206FA00026D8F
:0206FB0003EE0C
:0206FC0001807B
:0206FD000322D6
:0206FE0000D624
:0206FF00029A5D
:02070000006E89
:020701000253A1
:020702000048AD
:02070300024FA3
:0207040000658E
:02070500028C64
:0207060000C42D
:02070700030CE1
:0207080001648A
:0207090003CD1E
:02070A000246A5
:02070B0000D01C
:02070C0003697F
:02070D000214D4
:02070E0000CE1B
:02070F0003994C
:02071000027471
:02071100015F86
:02071200005A8B
:0207130003667B
:0207140002825F
:0207150001AE33
:0207160000EAF7
:020717000036AA
:0207180003924A
:0207190002FEDE
:02071A00027B60
:02071B000207D3
:02071C0001A337
:02071D00015089
:02071E00010CCC
:02071F0000D800
:0207200000B423
:0207210000A036
:02072200009C39
:0207230000A82C
:0207240000C40F
:0207250000EFE3
:02072600012AA6
:0207270001755A
:0207280001D0FE
:02072900023A92
:02072A0002B516
:02072B00033F8A
:02072C0003D8F0
:02072D00008149
:02072E00013A8E
:02072F000203C3
:0207300002DBEA
:0207310003C201
:0207320000B90C
:0207330001C003
:0207340002D6EB
:0207350003FCC3
:0207360001318F
:02073700027648
:0207380003CAF2
:02073900012D90
:02073A0002A01B
:02073B0000229A
:02073C0001B406
:02073D00035562
:02073E000105B3
:02073F0002C5F1
:02074000009423
:02074100027242
:02074200005F56
:02074300025B57
:0207440000674C
:0207450002822E
:0207460000AC05
:0207470002E5C9
:02074800012E80
:02074900038526
:02074A0001ECC0
:02074B0000614B
:02074C0002E6C3
:02074D00017930
:02074E00001C8D
:02074F0002CED8
:02075000018E18
:02075100005E48
:02075200033C66
:02075300022979
:0207540001267C
:02075500003171
:02075600034B53
:0207570002742A
:0207580001ABF3
:0207590000F2AC
:02075A00004756
:02075B0003ABEE
:02075C00031D7B
:02075D00029FF9
:02075E00022F68
:02075F0001CEC9
:02076000017B1B
:0207610001375E
:02076200010292
:0207630000DBB9
:0207640000C3D0
:0207650000BAD8
:0207660000BFD2
:0207670000D2BE
:0207680000F59A
:02076900012568
:02076A00016428
:02076B0001B2D9
:02076C00020E7B
:02076D00027810
:02076E0002F196
:02076F0003780D
:02077000000E79
:0207710000B2D4
:02077200016420
:0207730002255D
:0207740002F38E
:0207750003D1AE
:0207760000BCC5
:0207770001B6C9
:0207780002BDC0
:0207790003D4A7
:02077A0000F885
:02077B00022A50
:02077C00036B0D
:02077D0000BAC0
:02077E00021661
:02077F000381F4
:0207800000FA7D
:020781000282F2
:0207820000175E
:0207830001BAB9
:02078400036B05
:02078500012A47
:0207860002F778
:0207870000D39D
:0207880002BCB1
:0207890000B3BB
:02078A0002B7B4
:02078B0000CAA2
:02078C0002EB7E
:02078D00011950
:02078E00035610
:02078F0001A0C7
:0207900003F86C
:02079100025E06
:0207920000D194
:0207930003520F
:0207940001E181
:02079500007EE4
:02079600032836
:0207970001E07F
:0207980000A6B9
:02079900037AE1
:02079A00025B00
:02079B00014912
:02079C00004516
:02079D00034F08
:02079E000267F0
:02079F00018CCB
:0207A00000BE99
:0207A10003FE55
:0207A200034B07
:0207A30002A6AC
:0207A400020F42
:0207A5000185CC
:0207A600010848
:0207A7000098B8
:0207A800003718
:0207A90003E269
:0207AA00039BAF
:0207AB000361E8
:0207AC00033414
:0207AD00031532
:0207AE00030343
:0207AF0002FF47
:0207B00003073D
:0207B100031D26
:0207B200034002
:0207B3000370D1
:0207B40003AE92
:0207B50003F946
:0207B6000050F1
:0207B70000B58B
:0207B800012717
:0207B90001A796
:0207BA00023308
:0207BB0002CC6E
:0207BC000373C5
:0207BD00002614
:0207BE0000E752
:0207BF0001B483
:0207C000028FA6
:0207C1000376BD
:0207C200006BCA
:0207C300016CC7
:0207C400027BB6
:0207C500039699
:0207C60000BE73
:0207C70001F33C
:0207C8000335F7
:0207C9000084AA
:0207CA0001E04C
:0207CB000348E1
:0207CC0000BD6E
:0207CD000240E8
:0207CE0003CE58
:0207CF00016ABD
:0207D000031212
:0207D10000C75F
:0207D20002899A
:0207D3000058CC
:0207D4000233EE
:0207D500001B07
:0207D600020F10
:0207D700001010
:0207D800021EFF
:0207D9000038E6
:0207DA00025FBC
:0207DB00009389
:0207DC0002D346
:0207DD000120F9
:0207DE0003799D
:0207DF0001DE39
:0207E0000050C7
:0207E10002CF45
:0207E200015ABA
:0207E30003F21F
:0207E40002967B
:0207E5000146CB
:0207E60000030E
:0207E70002CC42
:0207E80001A26C
:0207E90000838B
:0207EA00037298
:0207EB00026C9E
:0207EC00017397
:0207ED00008684
:0207EE0003A660
:0207EF0002D234
:0207F000020AFB
:0207F100014EB7
:0207F200009E67
:0207F30003FB06
:0207F40003649C
:0207F50002D927
:0207F600025AA5
:0207F70001E718
:0207F80001817D
:0207F9000126D7
:0207FA0000D825
:0207FB00009666
:0207FC0000609B
:0207FD000036C4
:0207FE000018E1
:0207FF000005F3
:00000001ff
