:020000040000FA
:020000000000FE
:020001000300FA
:020002000200FA
:020003000101F9
:020004000001F9
:020005000303F3
:020006000204F2
:020007000106F0
:020008000007EF
:02000900030AE8
:02000A00020CE6
:02000B00010FE3
:02000C000011E1
:02000D000314DA
:02000E000218D6
:02000F00011BD3
:02001000001FCF
:020011000323C7
:020012000228C2
:02001300012CBE
:020014000031B9
:020015000336B0
:02001600023BAB
:020017000141A5
:0200180000479F
:02001900034D95
:02001A0002538F
:02001B00015989
:02001C00006082
:02001D00036777
:02001E00026E70
:02001F00017668
:02002000007E60
:02002100038555
:02002200028E4C
:02002300019644
:02002400009F3B
:0200250003A82E
:0200260002B125
:0200270001BA1C
:0200280000C412
:0200290003CE04
:02002A0002D8FA
:02002B0001E2F0
:02002C0000ECE6
:02002D0003F7D7
:02002E000302CB
:02002F00020DC0
:020030000119B4
:020031000025A8
:02003200033198
:02003300023D8C
:02003400014980
:02003500005673
:02003600036362
:02003700027055
:02003800017D48
:02003900008B3A
:02003A00039829
:02003B0002A61B
:02003C0001B50C
:02003D0000C3FE
:02003E0003D2EB
:02003F0002E1DC
:0200400001F0CD
:0200410000FFBE
:02004200000FAD
:02004300031F99
:02004400022F89
:02004500013F79
:02004600005068
:02004700036153
:02004800027143
:02004900018331
:02004A00009420
:02004B0003A60A
:02004C0002B8F8
:02004D0001CAE6
:02004E0000DCD4
:02004F0003EFBD
:020050000301AA
:02005100021497
:02005200012883
:02005300003B70
:02005400034F58
:02005500026344
:02005600017730
:02005700008B1C
:0200580003A003
:0200590002B4EF
:02005A0001C9DA
:02005B0000DFC4
:02005C0003F4AB
:02005D00030A94
:02005E0002207E
:02005F00013668
:02006000004C52
:02006100036238
:02006200027921
:0200630001900A
:0200640000A7F3
:0200650003BFD7
:0200660002D6C0
:0200670001EEA8
:0200680001068F
:02006900001E77
:02006A0003375A
:02006B00025041
:02006C00016829
:02006D0000820F
:02006E00039BF2
:02006F0002B4D9
:0200700001CEBF
:0200710000E8A5
:0200720000028A
:02007300031D6B
:02007400023751
:02007500015236
:02007600006D1B
:020077000388FC
:0200780002A4E0
:0200790001C0C4
:02007A0000DBA9
:02007B0003F789
:02007C0003146B
:02007D0002304F
:02007E00014D32
:02007F00006A15
:020080000387F4
:0200810002A4D7
:0200820001C2B9
:0200830000E09B
:0200840003FE79
:02008500031C5A
:02008600023A3C
:0200870001591D
:020088000078FE
:020089000397DB
:02008A0002B6BC
:02008B0001D59D
:02008C0000F57D
:02008D0000155C
:02008E00033538
:02008F00025518
:020090000175F8
:020091000096D7
:0200920003B7B2
:0200930002D891
:0200940001F970
:02009500011A4E
:02009600003C2C
:02009700035E06
:020098000280E4
:0200990001A2C2
:02009A0000C59F
:02009B0003E779
:02009C00030A55
:02009D00022D32
:02009E0001510E
:02009F000074EB
:0200A0000398C3
:0200A10002BBA0
:0200A20001E07B
:0200A300010456
:0200A400002832
:0200A500034D09
:0200A6000272E4
:0200A7000197BF
:0200A80000BC9A
:0200A90003E171
:0200AA0003074A
:0200AB00022D24
:0200AC000153FE
:0200AD000079D8
:0200AE0003A0AD
:0200AF0002C687
:0200B00001ED60
:0200B100011438
:0200B200003B11
:0200B3000363E5
:0200B400028ABE
:0200B50001B296
:0200B60000DA6E
:0200B700000245
:0200B800032B18
:0200B9000253F0
:0200BA00017CC7
:0200BB0000A59E
:0200BC0003CE71
:0200BD0002F748
:0200BE0002211D
:0200BF00014BF3
:0200C0000075C9
:0200C100039F9B
:0200C20002C971
:0200C30001F347
:0200C400011E1B
:0200C5000049F0
:0200C6000374C1
:0200C700029F96
:0200C80001CB6A
:0200C90000F63F
:0200CA00002212
:0200CB00034EE2
:0200CC00027AB6
:0200CD0001A789
:0200CE0000D35D
:0200CF0000002F
:0200D000032DFE
:0200D100025AD1
:0200D2000187A4
:0200D30000B576
:0200D40003E344
:0200D500031016
:0200D600023EE8
:0200D700016DB9
:0200D800009B8B
:0200D90003CA58
:0200DA0002F82A
:0200DB000227FA
:0200DC000157CA
:0200DD0000869B
:0200DE0003B667
:0200DF0002E538
:0200E000021507
:0200E1000145D7
:0200E2000075A7
:0200E30003A672
:0200E40002D741
:0200E500020710
:0200E6000138DF
:0200E700006AAD
:0200E800039B78
:0200E90002CC47
:0200EA0001FE15
:0200EB000130E2
:0200EC000062B0
:0200ED0003947A
:0200EE0002C747
:0200EF0001F915
:0200F000012CE1
:0200F100005FAE
:0200F200039277
:0200F30002C643
:0200F40001F910
:0200F500012DDB
:0200F6000061A7
:0200F70003956F
:0200F80002C93B
:0200F90001FD07
:0200FA000132D1
:0200FB0000679C
:0200FC00039C63
:0200FD0002D12E
:0200FE000206F8
:0200FF00013CC2
:0201000000718C
:0201010003A752
:0201020002DD1C
:020103000213E5
:02010400014AAE
:02010500008078
:0201060003B73D
:0201070002EE06
:020108000225CE
:02010900015C97
:02010A00009360
:02010B0003CB24
:02010C000303EB
:02010D00023BB3
:02010E0001737B
:02010F0000AB43
:0201100003E307
:02011100031CCD
:02011200025594
:02011300018E5B
:0201140000C722
:020115000000E8
:020116000339AB
:02011700027371
:0201180001AD37
:0201190000E7FD
:02011A000021C2
:02011B00035B84
:02011C00029649
:02011D0001D00F
:02011E00010BD3
:02011F00004698
:02012000038159
:0201210002BD1D
:0201220001F8E2
:020123000134A5
:02012400007069
:0201250003AC29
:0201260002E8ED
:020127000224B0
:02012800016074
:02012900009D37
:02012A0003DAF6
:02012B000317B8
:02012C0002547B
:02012D0001913E
:02012E0000CF00
:02012F00000DC1
:02013000034A80
:02013100028842
:0201320001C703
:020133000105C4
:02013400004386
:02013500038243
:0201360002C104
:020137000200C4
:02013800013F85
:02013900007E46
:02013A0003BE02
:02013B0002FDC3
:02013C00023D82
:02013D00017D42
:02013E0000BD02
:02013F0003FDBE
:02014000033E7C
:02014100027E3C
:0201420001BFFB
:020143000100B9
:02014400004178
:02014500038233
:0201460002C4F1
:020147000205AF
:0201480001476D
:0201490000892B
:02014A0003CBE5
:02014B00030DA2
:02014C0002505F
:02014D0001921D
:02014E0000D5DA
:02014F00001896
:02015000035B4F
:02015100029E0C
:0201520001E1C9
:02015300012584
:02015400006841
:0201550003ACF9
:0201560002F0B5
:02015700023470
:0201580001782C
:0201590000BDE7
:02015A000001A2
:02015B00034659
:02015C00028B14
:02015D0001D0CF
:02015E00011589
:02015F00005A44
:0201600003A0FA
:0201610002E6B4
:02016200022B6E
:02016300017128
:0201640000B8E1
:0201650003FE97
:02016600034450
:02016700028B09
:0201680001D2C2
:0201690001187B
:02016A00006033
:02016B0003A7E8
:02016C0002EEA1
:02016D00023658
:02016E00017D11
:02016F0000C5C9
:02017000000D80
:02017100035534
:02017200029DEC
:0201730001E6A3
:02017400012E5A
:02017500007711
:0201760003C0C4
:0201770003097A
:02017800025231
:02017900019CE7
:02017A0000E59E
:02017B00002F53
:02017C00037905
:02017D0002C2BC
:02017E00020D70
:02017F00015726
:0201800000A1DC
:0201810003EC8D
:02018200033642
:020183000281F7
:0201840001CCAC
:02018500011760
:02018600006314
:0201870003AEC5
:0201880002FA79
:0201890002452D
:02018A000191E1
:02018B0000DD95
:02018C00002948
:02018D000376F7
:02018E0002C2AB
:02018F00020F5D
:02019000015C10
:0201910000A8C4
:0201920003F573
:02019300034324
:020194000290D7
:0201950001DD8A
:02019600012B3B
:020197000079ED
:0201980003C79B
:0201990003154C
:02019A000263FE
:02019B0001B1B0
:02019C00010060
:02019D00004F11
:02019E00039DBF
:02019F0002EC70
:0201A000023B20
:0201A100018BD0
:0201A20000DA81
:0201A300002931
:0201A4000379DD
:0201A50002C98D
:0201A60002193C
:0201A7000169EC
:0201A80000B99C
:0201A90000094B
:0201AA00035AF6
:0201AB0002ABA5
:0201AC0001FB55
:0201AD00014C03
:0201AE00009DB2
:0201AF0003EF5C
:0201B00003400A
:0201B1000291B9
:0201B20001E367
:0201B300013514
:0201B4000087C2
:0201B50003D96C
:0201B600032B19
:0201B700027DC7
:0201B80001D074
:0201B900012221
:0201BA000075CE
:0201BB0003C877
:0201BC00031B23
:0201BD00026ED0
:0201BE0001C27C
:0201BF00011528
:0201C0000069D4
:0201C10003BC7D
:0201C200031028
:0201C3000264D4
:0201C40001B880
:0201C500010C2B
:0201C6000061D6
:0201C70003B57E
:0201C800030A28
:0201C900025FD3
:0201CA0001B47E
:0201CB00010928
:0201CC00005ED3
:0201CD0003B479
:0201CE00030923
:0201CF00025FCD
:0201D00001B478
:0201D100010A21
:0201D2000060CB
:0201D30003B770
:0201D400030D19
:0201D5000263C3
:0201D60001BA6C
:0201D700011114
:0201D8000068BD
:0201D90003BF62
:0201DA0003160A
:0201DB00026DB3
:0201DC0001C45C
:0201DD00011C03
:0201DE000073AC
:0201DF0003CB50
:0201E0000323F7
:0201E100027B9F
:0201E20001D347
:0201E300012CED
:0201E400008495
:0201E50003DD38
:0201E6000335DF
:0201E700028E86
:0201E80001E72D
:0201E9000140D3
:0201EA00009A79
:0201EB0003F31C
:0201EC00034DC1
:0201ED0002A668
:0201EE0002000D
:0201EF00015AB3
:0201F00000B459
:0201F100000EFE
:0201F2000368A0
:0201F30002C345
:0201F400021DEA
:0201F50001788F
:0201F60000D334
:0201F700002ED8
:0201F800038979
:0201F90002E41E
:0201FA00023FC2
:0201FB00019B66
:0201FC0000F60B
:0201FD000052AE
:0201FE0003AE4E
:0201FF00030AF1
:02020000026694
:0202010001C238
:02020200011EDB
:02020300007B7E
:0202040003D81D
:020205000334C0
:02020600029163
:0202070001EE06
:02020800014BA8
:0202090000A94A
:02020A000006EC
:02020B0003638B
:02020C0002C12D
:02020D00021FCE
:02020E00017D70
:02020F0000DB12
:020210000039B3
:02021100039751
:0202120002F5F3
:02021300025493
:0202140001B334
:020215000111D5
:02021600007076
:0202170003CF13
:02021800032EB3
:02021900028E53
:02021A0001EDF4
:02021B00014C94
:02021C0000AC34
:02021D00000CD3
:02021E00036C6F
:02021F0002CC0F
:02022000022CAE
:02022100018C4E
:0202220000ECEE
:02022300004D8C
:0202240003AD28
:02022500030EC6
:02022600026F65
:0202270001D004
:020228000131A2
:02022900009241
:02022A0003F4DB
:02022B00035579
:02022C0002B717
:02022D000218B5
:02022E00017A53
:02022F0000DCF1
:02023000003E8E
:0202310003A127
:020232000303C4
:02023300026562
:0202340001C8FF
:02023500012B9B
:02023600008D39
:0202370003F0D2
:0202380003536E
:0202390002B60B
:02023A00021AA6
:02023B00017D43
:02023C0000E1DF
:02023D0000447B
:02023E0003A813
:02023F00030CAE
:0202400002704A
:0202410001D4E6
:02024200013881
:02024300009D1C
:020244000001B7
:0202450003664E
:0202460002CAEA
:02024700022F84
:0202480001941F
:0202490000F9BA
:02024A00005E54
:02024B0003C4EA
:02024C00032984
:02024D00028F1E
:02024E0001F4B9
:02024F00015A52
:0202500000C0EC
:02025100002685
:02025200038C1B
:0202530002F2B5
:0202540002594D
:0202550001BFE7
:0202560001267F
:02025700008C19
:0202580003F3AE
:02025900035A46
:02025A0002C1DF
:02025B00022877
:02025C0001900F
:02025D0000F7A8
:02025E00005E40
:02025F0003C6D4
:02026000032E6B
:02026100029603
:0202620001FE9B
:02026300016632
:0202640000CECA
:02026500003661
:02026600039FF4
:0202670003078B
:02026800027022
:0202690001D8BA
:02026A00014150
:02026B0000AAE7
:02026C0000137D
:02026D00037D0F
:02026E0002E6A6
:02026F00024F3C
:0202700001B9D2
:02027100012367
:02027200008CFE
:0202730003F690
:02027400036025
:0202750002CABB
:0202760002354F
:02027700019FE5
:0202780001097A
:0202790000740F
:02027A0003DFA0
:02027B00034935
:02027C0002B4CA
:02027D00021F5E
:02027E00018AF3
:02027F0000F687
:0202800000611B
:0202810003CCAC
:0202820003383F
:0202830002A4D3
:02028400020F67
:02028500017BFB
:0202860000E78F
:02028700005322
:0202880003C0B1
:02028900032C44
:02028A000298D8
:02028B0002056A
:02028C000172FD
:02028D0000DE91
:02028E00004B23
:02028F0003B8B2
:02029000032544
:020291000293D6
:02029200020068
:02029300016DFB
:0202940000DB8D
:0202950000481F
:0202960003B6AD
:0202970003243E
:020298000292D0
:02029900020061
:02029A00016EF3
:02029B0000DD84
:02029C00004B15
:02029D0003B9A3
:02029E00032833
:02029F000297C4
:0202A000020654
:0202A1000174E6
:0202A20000E377
:0202A300005306
:0202A40003C293
:0202A500033123
:0202A60002A1B3
:0202A700021043
:0202A8000180D3
:0202A90000F063
:0202AA000060F2
:0202AB0003D07E
:0202AC0003400D
:0202AD0002B09D
:0202AE0002202C
:0202AF000190BC
:0202B00001014A
:0202B1000072D9
:0202B20003E265
:0202B3000353F3
:0202B40002C482
:0202B500023510
:0202B60001A69F
:0202B70001172D
:0202B8000089BB
:0202B90003FA46
:0202BA00036CD3
:0202BB0002DD62
:0202BC00024FEF
:0202BD0001C17D
:0202BE0001330A
:0202BF0000A598
:0202C000001725
:0202C100038AAE
:0202C20002FC3C
:0202C300026EC9
:0202C40001E156
:0202C5000154E2
:0202C60000C76F
:0202C7000039FC
:0202C80003AC85
:0202C900031F11
:0202CA0002939D
:0202CB00020629
:0202CC000179B6
:0202CD0000ED42
:0202CE000060CE
:0202CF0003D456
:0202D0000348E1
:0202D10002BC6D
:0202D2000230F8
:0202D30001A484
:0202D40001180F
:0202D500008D9A
:0202D600000125
:0202D7000375AD
:0202D80002EA38
:0202D900025FC2
:0202DA0001D44D
:0202DB000149D7
:0202DC0000BE62
:0202DD000033EC
:0202DE0003A873
:0202DF00031DFD
:0202E000029387
:0202E100020811
:0202E200017E9B
:0202E30000F326
:0202E4000069AF
:0202E50003DF35
:0202E6000355BE
:0202E70002CB48
:0202E8000242D0
:0202E90001B85A
:0202EA00012EE3
:0202EB0000A56C
:0202EC00001BF5
:0202ED0003927A
:0202EE00030902
:0202EF0002808B
:0202F00001F714
:0202F100016E9C
:0202F20000E525
:0202F300005CAD
:0202F40003D431
:0202F500034BB9
:0202F60002C341
:0202F700023AC9
:0202F80001B251
:0202F900012AD8
:0202FA0000A260
:0202FB00001AE7
:0202FC0003926B
:0202FD00030BF1
:0202FE00028379
:0202FF0001FB01
:02030000017486
:0203010000ED0D
:02030200006594
:0203030003DE17
:0203040003579D
:0203050002D024
:020306000249AA
:0203070001C231
:02030800013CB6
:0203090000B53D
:02030A00002FC2
:02030B0003A845
:02030C000322CA
:02030D00029C50
:02030E000216D5
:02030F0001905B
:02031000010AE0
:02031100008466
:0203120003FEE8
:0203130003786D
:0203140002F3F2
:02031500026D77
:0203160001E8FC
:02031700016380
:0203180000DE05
:02031900005989
:02031A0003D40A
:02031B00034F8E
:02031C0002CA13
:02031D00024597
:02031E0001C11B
:02031F00013C9F
:0203200000B823
:020321000033A7
:0203220003AF27
:02032300032BAA
:0203240002A72E
:020325000223B1
:02032600019F35
:02032700011BB8
:0203280000983B
:020329000014BE
:02032A0003903E
:02032B00030DC0
:02032C00028A43
:02032D000206C6
:02032E00018349
:02032F000100CB
:02033000007D4E
:0203310003FACD
:0203320003784E
:0203330002F5D1
:02033400027253
:0203350001F0D5
:02033600016E56
:0203370000EBD9
:0203380000695A
:0203390003E7D8
:02033A00036559
:02033B0002E3DB
:02033C0002615C
:02033D0001DFDE
:02033E00015E5E
:02033F0000DCE0
:02034000005B60
:0203410003D9DE
:0203420003585E
:0203430002D7DF
:02034400025560
:0203450001D4E1
:02034600015361
:0203470000D3E1
:02034800005261
:0203490003D1DE
:02034A0003505E
:02034B0002D0DE
:02034C0002505D
:02034D0001CFDE
:02034E00014F5D
:02034F0000CFDD
:02035000004F5C
:0203510003CFD8
:02035200034F57
:0203530002CFD7
:02035400024F56
:0203550001D0D5
:02035600015054
:0203570000D1D3
:02035800005152
:0203590003D2CD
:02035A0003534B
:02035B0002D4CA
:02035C00025548
:02035D0001D6C7
:02035E00015745
:02035F0000D8C4
:02036000005A41
:0203610003DBBC
:02036200035C3A
:0203630002DEB8
:02036400026035
:0203650001E1B4
:02036600016331
:0203670000E5AF
:0203680000672C
:0203690003E9A6
:02036A00036C22
:02036B0002EEA0
:02036C0002701D
:02036D0001F39A
:02036E00017517
:02036F0000F894
:02037000007B10
:0203710003FD8A
:02037200038006
:02037300030382
:020374000286FF
:0203750002097B
:02037600018DF7
:02037700011073
:020378000093F0
:0203790000176B
:02037A00039AE4
:02037B00031E5F
:02037C0002A2DB
:02037D00022656
:02037E0001AAD2
:02037F00012E4D
:0203800000B2C9
:02038100003644
:0203820003BABC
:02038300033E37
:0203840002C3B2
:0203850002472D
:0203860001CCA8
:02038700015023
:0203880000D59E
:02038900005A18
:02038A0003DF8F
:02038B00036409
:02038C0002E984
:02038D00026EFE
:02038E0001F379
:02038F000179F2
:0203900000FE6D
:020391000084E6
:02039200000960
:02039300038FD6
:0203940003154F
:02039500029ACA
:02039600022043
:0203970001A6BD
:02039800012C36
:0203990000B3AF
:02039A00003928
:02039B0003BF9E
:02039C00034517
:02039D0002CC90
:02039E00025209
:02039F0001D982
:0203A0000160FA
:0203A10000E773
:0203A200006EEB
:0203A30003F560
:0203A400037CD8
:0203A500030350
:0203A600028AC9
:0203A700021141
:0203A8000199B9
:0203A900012031
:0203AA0000A8A9
:0203AB00002F21
:0203AC0003B795
:0203AD00033F0C
:0203AE0002C685
:0203AF00024EFC
:0203B00001D674
:0203B100015FEA
:0203B20000E762
:0203B300006FD9
:0203B40003F74D
:0203B5000380C3
:0203B60003083A
:0203B7000291B1
:0203B800021928
:0203B90001A29F
:0203BA00012B15
:0203BB0000B48C
:0203BC00003D02
:0203BD0003C675
:0203BE00034FEB
:0203BF0002D862
:0203C0000262D7
:0203C10001EB4E
:0203C2000174C4
:0203C30000FE3A
:0203C4000087B0
:0203C500001125
:0203C600039B97
:0203C70003250C
:0203C80002AF82
:0203C9000239F7
:0203CA0001C36D
:0203CB00014DE2
:0203CC0000D758
:0203CD000061CD
:0203CE0003EC3E
:0203CF000376B3
:0203D000030127
:0203D100028B9D
:0203D200021611
:0203D30001A186
:0203D400012CFA
:0203D50000B76F
:0203D6000042E3
:0203D70003CD54
:0203D8000358C8
:0203D90002E33D
:0203DA00026FB0
:0203DB0001FA25
:0203DC00018599
:0203DD0001110C
:0203DE00009D80
:0203DF000028F4
:0203E00003B464
:0203E1000340D7
:0203E20002CC4B
:0203E3000258BE
:0203E40001E432
:0203E5000170A5
:0203E60000FC19
:0203E70000898B
:0203E8000015FE
:0203E90003A16E
:0203EA00032EE0
:0203EB0002BB53
:0203EC000247C6
:0203ED0001D439
:0203EE000161AB
:0203EF0000EE1E
:0203F000007B90
:0203F100000802
:0203F200039571
:0203F3000322E3
:0203F40002B055
:0203F500023DC7
:0203F60001CA3A
:0203F7000158AB
:0203F80000E51E
:0203F90000738F
:0203FA00000100
:0203FB00038F6E
:0203FC00031DDF
:0203FD0002AB51
:0203FE000239C2
:0203FF0001C734
:020400000155A4
:0204010000E316
:02040200007187
:020403000000F7
:02040400038E65
:02040500031DD5
:0204060002AB47
:02040700023AB7
:0204080001C928
:02040900015898
:02040A0000E709
:02040B00007679
:02040C000005E9
:02040D00039456
:02040E000323C6
:02040F0002B237
:020410000242A6
:0204110001D117
:02041200016186
:0204130000F0F7
:02041400008066
:020415000010D5
:0204160003A041
:02041700032FB1
:0204180002BF21
:02041900024F90
:02041A0001DF00
:02041B0001706E
:02041C000100DD
:02041D0000904D
:02041E000021BB
:02041F0003B127
:02042000034196
:0204210002D205
:02042200026373
:0204230001F3E3
:02042400018451
:020425000115BF
:0204260000A62E
:0204270000379C
:0204280003C807
:02042900035975
:02042A0002EBE3
:02042B00027C51
:02042C00020DBF
:02042D00019F2D
:02042E0001309B
:02042F0000C209
:02043000005476
:0204310003E5E1
:0204320003774E
:020433000309BB
:02043400029B29
:02043500022D96
:0204360001BF04
:02043700015171
:0204380000E3DF
:0204390000764B
:02043A000008B8
:02043B00039A22
:02043C00032D8E
:02043D0002C0FB
:02043E00025268
:02043F0001E5D5
:02044000017841
:02044100010BAD
:02044200009D1B
:02044300003087
:0204440003C3F0
:0204450003575B
:0204460002EAC8
:02044700027D34
:020448000210A0
:0204490001A40C
:02044A00013778
:02044B0000CBE4
:02044C00005E50
:02044D0003F2B8
:02044E00038623
:02044F00031A8E
:0204500002AEFA
:02045100024265
:0204520001D6D1
:02045300016A3C
:0204540000FEA8
:02045500009213
:0204560000267E
:0204570003BBE5
:02045800034F50
:0204590002E4BB
:02045A00027826
:02045B00020D90
:02045C0001A2FB
:02045D00013666
:02045E0000CBD1
:02045F0000603B
:0204600003F5A2
:02046100038A0C
:02046200031F76
:0204630002B5E0
:02046400024A4A
:0204650001DFB5
:0204660001741F
:02046700010A88
:02046800009FF3
:0204690000355C
:02046A0003CBC2
:02046B0003602C
:02046C0002F696
:02046D00028CFF
:02046E00022268
:02046F0001B8D2
:02047000014E3B
:0204710000E4A5
:02047200007A0E
:02047300001176
:0204740003A7DC
:02047500033D45
:0204760002D4AE
:02047700026A17
:0204780002017F
:020479000197E9
:02047A00012E51
:02047B0000C5BA
:02047C00005C22
:02047D0003F387
:02047E00038AEF
:02047F00032157
:0204800002B8C0
:02048100024F28
:0204820001E691
:02048300017EF8
:02048400011560
:0204850000ACC9
:02048600004430
:0204870003DB95
:020488000373FC
:02048900030B63
:02048A0002A3CB
:02048B00023A33
:02048C0001D29B
:02048D00016A02
:02048E00010269
:02048F00009AD1
:02049000003238
:0204910003CB9B
:02049200036302
:0204930002FB6A
:020494000294D0
:02049500022C37
:0204960001C59E
:02049700015D05
:0204980000F66C
:02049900008FD2
:02049A00002739
:02049B0003C09C
:02049C00035902
:02049D0002F269
:02049E00028BCF
:02049F00022435
:0204A00001BE9B
:0204A100015701
:0204A20000F068
:0204A300008ACD
:0204A400002333
:0204A50003BC96
:0204A6000356FB
:0204A70002F061
:0204A8000289C7
:0204A90002232C
:0204AA0001BD92
:0204AB000157F7
:0204AC0000F15D
:0204AD00008BC2
:0204AE00002527
:0204AF0003BF89
:0204B0000359EE
:0204B10002F354
:0204B200028EB8
:0204B30002281D
:0204B40001C283
:0204B500015DE7
:0204B60000F74D
:0204B7000092B1
:0204B800002D15
:0204B90003C876
:0204BA000362DB
:0204BB0002FD40
:0204BC000298A4
:0204BD00023308
:0204BE0001CE6D
:0204BF000169D1
:0204C000010534
:0204C10000A099
:0204C200003BFD
:0204C30003D65E
:0204C4000372C1
:0204C500030D25
:0204C60002A989
:0204C7000245EC
:0204C80001E051
:0204C900017CB4
:0204CA00011817
:0204CB0000B47B
:0204CC000050DE
:0204CD0003EC3E
:0204CE000388A1
:0204CF00032404
:0204D00002C068
:0204D100025CCB
:0204D20001F82F
:0204D300019591
:0204D4000131F4
:0204D50000CE57
:0204D600006ABA
:0204D70000071C
:0204D80003A37C
:0204D9000340DE
:0204DA0002DD41
:0204DB00027AA3
:0204DC00021705
:0204DD0001B369
:0204DE000150CB
:0204DF0000EE2D
:0204E000008B8F
:0204E1000028F1
:0204E20003C550
:0204E3000362B2
:0204E400030013
:0204E500029D76
:0204E600023BD7
:0204E70001D83A
:0204E80001769B
:0204E9000114FC
:0204EA0000B15F
:0204EB00004FC0
:0204EC0003ED1E
:0204ED00038B7F
:0204EE000329E0
:0204EF0002C742
:0204F0000265A3
:0204F100020304
:0204F20001A166
:0204F3000140C6
:0204F40000DE28
:0204F500007C89
:0204F600001BE9
:0204F70003B947
:0204F8000358A7
:0204F90002F609
:0204FA00029569
:0204FB000234C9
:0204FC0001D32A
:0204FD0001718B
:0204FE000110EB
:0204FF0000AF4C
:02050000004EAB
:0205010003ED08
:02050200038C68
:02050300032CC7
:0205040002CB28
:02050500026A88
:02050600020AE7
:0205070001A948
:020508000149A7
:0205090000E808
:02050A00008867
:02050B000027C7
:02050C0003C723
:02050D00036782
:02050E000307E1
:02050F0002A741
:020510000247A0
:0205110001E700
:0205120001875F
:020513000127BE
:0205140000C71E
:0205150000677D
:020516000007DC
:0205170003A837
:02051800034896
:0205190002E9F5
:02051A00028954
:02051B00022AB2
:02051C0001CA12
:02051D00016B70
:02051E00010CCE
:02051F0000AD2D
:02052000004E8B
:0205210003EEE7
:02052200038F45
:020523000330A3
:0205240002D201
:0205250002735F
:020526000214BD
:0205270001B51C
:0205280001567A
:0205290000F8D8
:02052A00009936
:02052B00003B93
:02052C0003DCEE
:02052D00037E4B
:02052E000320A8
:02052F0002C107
:02053000026364
:020531000205C1
:0205320001A71F
:0205330001497C
:0205340000EBDA
:02053500008D37
:02053600002F94
:0205370003D1EE
:0205380003734B
:020539000315A8
:02053A0002B805
:02053B00025A62
:02053C0001FCC0
:02053D00019F1C
:02053E00014278
:02053F0000E4D6
:02054000008732
:0205410000298F
:0205420003CCE8
:02054300036F44
:020544000312A0
:0205450002B5FD
:02054600025859
:0205470001FBB6
:02054800019E12
:0205490001416E
:02054A0000E4CB
:02054B00008826
:02054C00002B82
:02054D0003CEDB
:02054E00037236
:02054F00031592
:0205500002B9EE
:02055100025C4A
:020552000200A5
:0205530001A302
:0205540001475D
:0205550000EBB9
:02055600008F14
:0205570000336F
:0205580003D7C7
:02055900037B22
:02055A00031F7D
:02055B0002C3D9
:02055C00026734
:02055D00020B8F
:02055E0001B0EA
:02055F00015445
:0205600000F8A1
:02056100009DFB
:02056200004156
:0205630003E6AD
:02056400038A08
:02056500032F62
:0205660002D4BD
:02056700027917
:02056800021D72
:0205690001C2CD
:02056A00016727
:02056B00010C81
:02056C0000B1DC
:02056D00005636
:02056E0003FB8D
:02056F0003A1E6
:02057000034640
:0205710002EB9B
:020572000290F5
:0205730002364E
:0205740001DBA9
:02057500018102
:0205760001265C
:0205770000CCB6
:0205780000720F
:02057900001769
:02057A0003BDBF
:02057B00036318
:02057C00030971
:02057D0002AFCB
:02057E00025524
:02057F0001FB7E
:0205800001A1D7
:02058100014730
:0205820000ED8A
:020583000093E3
:02058400003A3B
:0205850003E091
:020586000386EA
:02058700032D42
:0205880002D39C
:02058900027AF4
:02058A0002204D
:02058B0001C7A6
:02058C00016EFE
:02058D00011457
:02058E0000BBB0
:02058F00006208
:02059000000960
:0205910003B0B5
:0205920003570D
:0205930002FE66
:0205940002A5BE
:02059500024C16
:0205960001F36F
:02059700019BC6
:0205980001421E
:0205990000E977
:02059A000091CE
:02059B00003826
:02059C0003E07A
:02059D000387D2
:02059E00032F29
:02059F0002D781
:0205A000027ED9
:0205A100022630
:0205A20001CE88
:0205A3000176DF
:0205A400011E36
:0205A50000C68E
:0205A600006EE5
:0205A70000163C
:0205A80003BE90
:0205A9000366E7
:0205AA00030E3E
:0205AB0002B795
:0205AC00025FEC
:0205AD00020743
:0205AE0001B09A
:0205AF000158F1
:0205B000010147
:0205B10000A99F
:0205B2000052F5
:0205B30003FB48
:0205B40003A39F
:0205B500034CF5
:0205B60002F54C
:0205B700029EA2
:0205B8000247F8
:0205B90001F04F
:0205BA000199A5
:0205BB000142FB
:0205BC0000EB52
:0205BD000094A8
:0205BE00003DFE
:0205BF0003E651
:0205C0000390A6
:0205C1000339FC
:0205C20002E352
:0205C300028CA8
:0205C4000236FD
:0205C50001DF54
:0205C6000189A9
:0205C7000132FF
:0205C80000DC55
:0205C9000086AA
:0205CA000030FF
:0205CB0003DA51
:0205CC000383A7
:0205CD00032DFC
:0205CE0002D752
:0205CF000281A7
:0205D000022CFB
:0205D10001D651
:0205D2000180A6
:0205D300012AFB
:0205D40000D451
:0205D500007FA5
:0205D6000029FA
:0205D70003D44B
:0205D800037EA0
:0205D9000329F4
:0205DA0002D34A
:0205DB00027E9E
:0205DC000228F3
:0205DD0001D348
:0205DE00017E9C
:0205DF000129F0
:0205E00000D445
:0205E100007F99
:0205E200002AED
:0205E30003D53E
:0205E400038092
:0205E500032BE6
:0205E60002D63B
:0205E70002818F
:0205E800022CE3
:0205E90001D837
:0205EA0001838B
:0205EB00012EDF
:0205EC0000DA33
:0205ED00008587
:0205EE000031DA
:0205EF0003DC2B
:0205F00003887E
:0205F1000334D1
:0205F20002E025
:0205F300028B79
:0205F4000237CC
:0205F50001E320
:0205F600018F73
:0205F700013BC6
:0205F80000E71A
:0205F90000936D
:0205FA00003FC0
:0205FB0003EB10
:0205FC00039763
:0205FD000344B5
:0205FE0002F009
:0205FF00029C5C
:020600000249AD
:0206010001F501
:0206020001A253
:02060300014EA6
:0206040000FBF9
:0206050000A74C
:0206060000549E
:020607000001F0
:0206080003AD40
:02060900035A92
:02060A000307E4
:02060B0002B437
:02060C00026189
:02060D00020EDB
:02060E0001BB2E
:02060F00016880
:020610000115D2
:0206110000C225
:02061200007076
:02061300001DC8
:0206140003CA17
:02061500037769
:020616000325BA
:0206170002D20D
:0206180002805E
:02061900022DB0
:02061A0001DB02
:02061B00018953
:02061C000136A5
:02061D0000E4F7
:02061E00009248
:02061F00004099
:0206200003EDE8
:02062100039B39
:0206220003498A
:0206230002F7DC
:0206240002A52D
:0206250002537E
:020626000201CF
:0206270001B020
:02062800015E71
:02062900010CC2
:02062A0000BA14
:02062B00006964
:02062C000017B5
:02062D0003C602
:02062E00037453
:02062F000323A3
:0206300002D1F5
:02063100028045
:02063200022F95
:0206330001DDE7
:02063400018C37
:02063500013B87
:0206360000EAD8
:02063700009928
:02063800004878
:0206390003F7C5
:02063A0003A615
:02063B00035565
:02063C000304B5
:02063D0002B306
:02063E00026256
:02063F000211A6
:0206400001C1F6
:02064100017046
:02064200011F96
:0206430000CFE6
:02064400007E36
:02064500002E85
:0206460003DDD2
:02064700038D21
:02064800033D70
:0206490002ECC1
:02064A00029C10
:02064B00024C5F
:02064C0001FCAF
:02064D0001ABFF
:02064E00015B4E
:02064F00010B9D
:0206500000BBED
:02065100006B3C
:02065200001B8B
:0206530003CCD6
:02065400037C25
:02065500032C74
:0206560002DCC4
:02065700028D12
:02065800023D61
:0206590001EDB1
:02065A00019EFF
:02065B00014E4E
:02065C0000FF9D
:02065D0000AFEC
:02065E0000603A
:02065F00001089
:0206600003C1D4
:02066100037222
:02066200032370
:0206630002D4BF
:0206640002840E
:0206650002355C
:0206660001E6AB
:020667000197F9
:02066800014847
:0206690000F996
:02066A0000AAE4
:02066B00005C31
:02066C00000D7F
:02066D0003BECA
:02066E00036F18
:02066F00032165
:0206700002D2B4
:02067100028302
:0206720002354F
:0206730001E69E
:020674000198EB
:02067500014A38
:0206760000FB87
:0206770000ADD4
:02067800005F21
:0206790000106F
:02067A0003C2B9
:02067B00037406
:02067C00032653
:02067D0002D8A1
:02067E00028AEE
:02067F00023C3B
:0206800001EE89
:0206810001A0D6
:02068200015223
:02068300010470
:0206840000B6BE
:0206850000690A
:02068600001B57
:0206870003CDA1
:020688000380ED
:0206890003323A
:02068A0002E587
:02068B000297D4
:02068C00024A20
:02068D0001FC6E
:02068E0001AFBA
:02068F00016206
:02069000011453
:0206910000C7A0
:02069200007AEC
:02069300002D38
:0206940003E081
:020695000393CD
:02069600034619
:0206970002F966
:0206980002ACB2
:02069900025FFE
:02069A0002124A
:02069B0001C597
:02069C000178E3
:02069D00012C2E
:02069E0000DF7B
:02069F000092C7
:0206A000004612
:0206A10003F95B
:0206A20003ACA7
:0206A3000360F2
:0206A40003133E
:0206A50002C78A
:0206A600027BD5
:0206A700022E21
:0206A80001E26D
:0206A9000196B8
:0206AA00014A03
:0206AB0000FD50
:0206AC0000B19B
:0206AD000065E6
:0206AE00001931
:0206AF0003CD79
:0206B0000381C4
:0206B10003350F
:0206B20002E95B
:0206B300029DA6
:0206B4000252F0
:0206B50002063B
:0206B60001BA87
:0206B700016ED2
:0206B80001231C
:0206B90000D768
:0206BA00008CB2
:0206BB000040FD
:0206BC0003F544
:0206BD0003A98F
:0206BE00035ED9
:0206BF00031224
:0206C00002C76F
:0206C100027CB9
:0206C200023103
:0206C30001E54F
:0206C400019A99
:0206C500014FE3
:0206C60001042D
:0206C70000B978
:0206C800006EC2
:0206C90000230C
:0206CA0003D853
:0206CB00038D9D
:0206CC000342E7
:0206CD0002F732
:0206CE0002AD7B
:0206CF000262C5
:0206D00002170F
:0206D10001CD59
:0206D2000182A3
:0206D3000137ED
:0206D40000ED37
:0206D50000A281
:0206D6000058CA
:0206D700000E13
:0206D80003C35A
:0206D9000379A3
:0206DA00032EED
:0206DB0002E437
:0206DC00029A80
:0206DD000250C9
:0206DE00020612
:0206DF0001BC5C
:0206E0000172A5
:0206E1000127EF
:0206E20000DE38
:0206E300009481
:0206E400004ACA
:0206E500000013
:0206E60003B659
:0206E700036CA2
:0206E8000322EB
:0206E90002D934
:0206EA00028F7D
:0206EB000245C6
:0206EC0001FC0F
:0206ED0001B258
:0206EE000169A0
:0206EF00011FE9
:0206F00000D632
:0206F100008C7B
:0206F2000043C3
:0206F30003FA08
:0206F40003B051
:0206F500036799
:0206F600031EE1
:0206F70002D52A
:0206F800028C72
:0206F9000242BB
:0206FA0001F904
:0206FB0001B04C
:0206FC00016794
:0206FD00011EDC
:0206FE0000D525
:0206FF00008D6C
:020700000044B3
:0207010003FBF8
:0207020003B240
:02070300036988
:020704000321CF
:0207050002D818
:0207060002905F
:020707000247A7
:0207080001FEF0
:0207090001B637
:02070A00016D7F
:02070B000125C6
:02070C0000DD0E
:02070D00009456
:02070E00004C9D
:02070F000004E4
:0207100003BC28
:02071100037370
:02071200032BB7
:0207130002E3FF
:02071400029B46
:0207150002538D
:02071600020BD4
:0207170001C31C
:02071800017B63
:020719000133AA
:02071A0000EBF2
:02071B0000A339
:02071C00005C7F
:02071D000014C6
:02071E0003CC0A
:02071F00038451
:02072000033D97
:0207210002F5DF
:0207220002AE25
:0207230002666C
:02072400021FB2
:0207250001D7FA
:02072600019040
:02072700014887
:020728000101CD
:0207290000BA14
:02072A0000735A
:02072B00002BA1
:02072C0003E4E4
:02072D00039D2A
:02072E00035670
:02072F00030FB6
:0207300002C8FD
:02073100028143
:02073200023A89
:0207330001F3D0
:0207340001AC16
:0207350001655C
:02073600011EA2
:0207370000D7E9
:0207380000912E
:02073900004A74
:02073A000003BA
:02073B0003BDFC
:02073C00037642
:02073D00032F88
:02073E0002E9CE
:02073F0002A214
:02074000025C59
:0207410002159F
:0207420001CFE5
:0207430001892A
:02074400014270
:0207450000FCB6
:0207460000B6FB
:02074700007040
:02074800002986
:0207490003E3C8
:02074A00039D0D
:02074B00035752
:02074C00031197
:02074D0002CBDD
:02074E00028522
:02074F00023F67
:0207500001F9AD
:0207510001B3F2
:02075200016E36
:0207530001287B
:0207540000E2C1
:02075500009C06
:0207560000574A
:0207570000118F
:0207580003CBD1
:02075900038615
:02075A0003405A
:02075B0002FB9F
:02075C0002B5E4
:02075D00027028
:02075E00022A6D
:02075F0001E5B2
:0207600001A0F6
:02076100015A3B
:0207620001157F
:0207630000D0C4
:02076400008B08
:0207650000464C
:02076600000190
:0207670003BBD2
:02076800037616
:0207690003315A
:02076A0002EC9F
:02076B0002A7E3
:02076C00026326
:02076D00021E6A
:02076E0001D9AF
:02076F000194F3
:02077000014F37
:02077100010B7A
:0207720000C6BF
:02077300008103
:02077400003D46
:0207750003F887
:0207760003B3CB
:02077700036F0E
:02077800032A52
:0207790002E696
:02077A0002A2D9
:02077B00025D1D
:02077C00021960
:02077D0001D4A5
:02077E000190E8
:02077F00014C2B
:0207800001086E
:0207810000C4B2
:02078200007FF6
:02078300003B39
:0207840003F779
:0207850003B3BC
:02078600036FFF
:02078700032B42
:0207880002E786
:0207890002A3C9
:02078A0002600B
:02078B00021C4E
:02078C0001D892
:02078D000194D5
:02078E00015018
:02078F00010D5A
:0207900000C99E
:020791000085E1
:02079200004223
:0207930003FE63
:0207940003BBA5
:020795000377E8
:0207960003342A
:0207970002F06E
:0207980002ADB0
:02079900026AF2
:02079A00022635
:02079B0001E378
:02079C0001A0BA
:02079D00015CFD
:02079E0001193F
:02079F0000D682
:0207A0000093C4
:0207A100005006
:0207A200000D48
:0207A30003CA87
:0207A4000387C9
:0207A50003440B
:0207A60003014D
:0207A70002BE90
:0207A800027BD2
:0207A900023814
:0207AA0001F656
:0207AB0001B398
:0207AC000170DA
:0207AD00012D1C
:0207AE0000EB5E
:0207AF0000A8A0
:0207B0000065E2
:0207B100002323
:0207B20003E062
:0207B300039EA3
:0207B400035BE5
:0207B500031926
:0207B60002D768
:0207B7000294AA
:0207B8000252EB
:0207B90002102C
:0207BA0001CD6F
:0207BB00018BB0
:0207BC000149F1
:0207BD00010732
:0207BE0000C574
:0207BF000083B5
:0207C0000041F6
:0207C10003FE35
:0207C20003BC76
:0207C300037BB6
:0207C4000339F7
:0207C50002F739
:0207C60002B57A
:0207C7000273BB
:0207C8000231FC
:0207C90001EF3E
:0207CA0001AE7E
:0207CB00016CBF
:0207CC00012A00
:0207CD0000E941
:0207CE0000A782
:0207CF000065C3
:0207D000002403
:0207D10003E241
:0207D20003A181
:0207D300035FC2
:0207D400031E02
:0207D50002DD43
:0207D600029B84
:0207D700025AC4
:0207D800021904
:0207D90001D746
:0207DA00019686
:0207DB000155C6
:0207DC00011406
:0207DD0000D347
:0207DE00009287
:0207DF000051C7
:0207E000001007
:0207E10003CF44
:0207E200038E84
:0207E300034DC4
:0207E400030C04
:0207E50002CB45
:0207E600028A85
:0207E7000249C5
:0207E800020904
:0207E90001C845
:0207EA00018785
:0207EB000146C5
:0207EC00010604
:0207ED0000C545
:0207EE00008584
:0207EF000044C4
:0207F000000403
:0207F10003C340
:0207F20003837F
:0207F3000342BF
:0207F4000302FE
:0207F50002C13F
:0207F60002817E
:0207F7000241BD
:0207F8000201FC
:0207F90001C03D
:0207FA0001807C
:0207FB000140BB
:0207FC000100FA
:0207FD0000C03A
:0207FE00008079
:0207FF000040B8
:00000001ff
