:020000040000FA
:020000000000FE
:0200010003C03A
:020002000200FA
:020003000142B8
:020004000007F3
:0200050000D326
:020006000228CE
:02000700028A6B
:02000800007F77
:02000900028C67
:02000A000336BB
:02000B000107EB
:02000C0002846C
:02000D000236B9
:02000E0002A846
:02000F0002628B
:0200100003F0FB
:0200110001DC10
:0200120002B337
:020013000103E7
:02001400035790
:02001500003FAA
:02001600024A9C
:020017000007E0
:020018000007DF
:0200190000DB0A
:02001A000115CE
:02001B00034799
:02001C000204DC
:02001D0003E1FD
:02001E0003736A
:02001F00034D8F
:020020000207D5
:020021000238A3
:02002200027664
:02002300015A80
:02002400017D5C
:02002500017860
:0200260003E5F0
:02002700036074
:02002800028351
:0200290003EBE7
:02002A0002369C
:02002B000000D3
:02002C0003E8E7
:02002D00008D44
:02002E00008E42
:02002F00028D40
:020030000129A4
:020031000304C6
:0200320002C109
:020033000303C5
:02003400026E5A
:0200350003A521
:02003600014E79
:02003700020EB7
:02003800008C3A
:02003900036E54
:02003A00015D66
:02003B000100C2
:02003C000100C1
:02003D000007BA
:02003E0000C000
:02003F0001D4EA
:0200400001F0CD
:0200410003C0FA
:0200420001F0CB
:02004300032D8B
:02004400022791
:02004500018C2C
:02004600000AAE
:02004700005364
:0200480001169F
:020049000105AF
:02004A0002D1E1
:02004B00012E84
:02004C0002CFE1
:02004D00026649
:02004E0002AA04
:02004F00024D60
:020050000007A7
:02005100028E1D
:02005200009715
:0200530000DCCF
:02005400021494
:0200550002F7B0
:02005600023F67
:0200570002A7FE
:0200580002E8BC
:0200590001BDE7
:02005A0001E3C0
:02005B0002168B
:02005C0001138E
:02005D00019709
:02005E0002623C
:02005F0002306D
:0200600003C2D9
:0200610001D9C3
:02006200033366
:02006300029405
:0200640002BBDD
:02006500026D2A
:02006600006B2D
:02006700037A1A
:02006800025D37
:0200690003D9B9
:02006A0002B4DE
:02006B0001B3DF
:02006C00039DF2
:02006D00033955
:02006E00034E3F
:02006F0002A5E8
:02007000000787
:02007100023D4E
:0200720000117B
:02007300004D3E
:0200740001BCCD
:02007500032B5B
:02007600036520
:0200770001384E
:02007800037013
:0200790000DCA9
:02007A0000493B
:02007B000088FB
:02007C0000671B
:02007D0002B8C7
:02007E00024935
:02007F0001EE90
:02008000007806
:0200810000B9C4
:020082000184F7
:0200830001ADCD
:02008400000773
:0200850003680E
:0200860002A4D2
:020087000092E5
:0200880000076F
:0200890003DA98
:02008A0002E48E
:02008B0003FA76
:02008C0001F77A
:02008D0003B3BB
:02008E00000769
:02008F0001CEA0
:0200900003E289
:02009100011E4E
:02009200005E0E
:02009300007EED
:02009400005B0F
:0200950002D295
:0200960002C1A5
:0200970003065E
:020098000280E4
:02009900000E57
:02009A000291D1
:02009B0000E87B
:02009C0001F56C
:02009D000099C8
:02009E0003B6A7
:02009F00022F2E
:0200A00002E676
:0200A10000BE9F
:0200A200029EBC
:0200A3000367F1
:0200A400020058
:0200A500014F09
:0200A60000391F
:0200A70001A5B1
:0200A8000079DD
:0200A900039FB3
:0200AA0001FD56
:0200AB00027DD4
:0200AC0000074B
:0200AD000185CB
:0200AE0001E26D
:0200AF00000748
:0200B00002E06C
:0200B1000159F3
:0200B200025EEC
:0200B30000DB70
:0200B40003BD8A
:0200B50001F355
:0200B600026ADC
:0200B700001037
:0200B80001D570
:0200B90002A99A
:0200BA00017BC8
:0200BB00013C06
:0200BC0000DD65
:0200BD000350EE
:0200BE000386B7
:0200BF000072CD
:0200C000010736
:0200C100003805
:0200C20000FA42
:0200C3000240F9
:0200C400030037
:0200C500022F08
:0200C60002C274
:0200C70003B183
:0200C80003F142
:0200C900027AB9
:0200CA000244EE
:0200CB000247EA
:0200CC00017CB5
:0200CD0002DB54
:0200CE00015ED1
:0200CF0000002F
:0200D00001BB72
:0200D1000189A3
:0200D2000266C4
:0200D300034FD9
:0200D400033FE8
:0200D5000134F4
:0200D600002AFE
:0200D700032004
:0200D800011213
:0200D900010222
:0200DA0001EC37
:0200DB0002D150
:0200DC0002B16F
:0200DD00008D94
:0200DE000364B9
:0200DF000239E4
:0200E000000E10
:0200E10003E436
:0200E20000BE5E
:0200E30001A07A
:0200E400018D8C
:0200E50003898D
:0200E60002997D
:0200E70001C155
:0200E80000070F
:0200E9000070A5
:0200EA0002040E
:0200EB0003C749
:0200EC0000C34F
:0200ED0003FE10
:0200EE00008090
:0200EF000151BD
:0200F000017B92
:0200F100000706
:0200F20003FE0B
:0200F300006AA1
:0200F4000057B3
:0200F50002CF38
:0200F60002DD29
:0200F700038E76
:0200F80003EE15
:0200F9000309F9
:0200FA0003EC15
:0200FB0001A55D
:0200FC000343BC
:0200FD0003D32B
:0200FE0002649A
:0200FF000205F8
:0201000001C735
:0201010000B844
:0201020001EB0F
:02010300006E8C
:020104000355A1
:0201050001B047
:02010600029263
:02010700010DE8
:020108000035C0
:02010900031CD5
:02010A0000D61D
:02010B0000777B
:02010C000115DB
:02010D0001C42B
:02010E00019955
:02010F0003AB40
:02011000030FDB
:0201110002DD0D
:02011200022ABF
:02011300000FDB
:0201140003A442
:020115000000E8
:02011600003CAB
:02011700037271
:0201180000BA2B
:02011900032FB2
:02011A0001EAF8
:02011B000007DB
:02011C00009F42
:02011D0002D00E
:02011E0001B42A
:02011F00006777
:020120000207D4
:0201210001AF2C
:02012200027E5B
:02012300039146
:020124000007D2
:0201250002FDD9
:02012600039242
:0201270000E7EF
:02012800021AB9
:02012900024B87
:02012A00009C37
:02012B00002CA6
:02012C00001DB4
:02012D0003913C
:02012E0001A925
:02012F00018845
:0201300002507B
:020131000324A5
:0201320003299F
:02013300018148
:02013400015177
:0201350001BD0A
:0201360001EBDB
:020137000100C5
:020138000220A3
:02013900007450
:02013A000320A0
:02013B00014B76
:02013C00021EA1
:02013D0000BE02
:02013E0000556A
:02013F00000AB4
:020140000306B4
:0201410000724A
:02014200037840
:02014300034077
:0201440002F6C1
:0201450001C2F5
:0201460002D2E3
:02014700014E67
:02014800006352
:02014900033E73
:02014A000109A9
:02014B0000F1C1
:02014C0002258A
:02014D0003CFDE
:02014E0001208E
:02014F0001436A
:02015000036842
:0201510002BEEC
:02015200027336
:0201530001B7F2
:0201540003B9ED
:0201550003AAFB
:0201560000BAED
:02015700021A8A
:0201580002FBA8
:02015900028F13
:02015A0000069D
:02015B0002950B
:02015C00016C34
:02015D0003BFDE
:02015E0000C1DE
:02015F0003A5F6
:0201600003A0FA
:0201610003E5B4
:0201620003AAEE
:02016300022375
:02016400028512
:02016500000692
:0201660001DCBA
:02016700033D56
:02016800036032
:02016900017B18
:02016A0000C6CD
:02016B0000781A
:02016C0003C9C5
:02016D0001F29D
:02016E00022B62
:02016F0003ADDE
:0201700001B2DA
:02017100037217
:02017200002764
:02017300030D7A
:02017400035D29
:02017500005236
:0201760001285E
:02017700011A6B
:0201780003641E
:0201790003423F
:02017A0003F090
:02017B0000ACD6
:02017C0000B2CF
:02017D0003413C
:02017E000394E8
:02017F0000EC92
:020180000286F5
:0201810003A1D8
:02018200037CFC
:02018300015722
:02018400007009
:0201850000096F
:02018600036113
:0201870001B9BC
:02018800025221
:02018900006D07
:02018A00034C24
:02018B0002313F
:02018C00005D14
:02018D0001145B
:02018E000399D3
:02018F00032D3E
:02019000031555
:020191000295D5
:0201920000F07B
:02019300016BFE
:02019400034B1B
:0201950001D493
:02019600004C1B
:0201970001F96C
:02019800021F44
:0201990000065E
:02019A0002F46D
:02019B00023030
:02019C00010060
:02019D0002ACB2
:02019E00027DE0
:02019F0003B9A2
:0201A00001A9B3
:0201A1000396C3
:0201A20000C893
:0201A300008AD0
:0201A400022334
:0201A50000DF79
:0201A600000651
:0201A70002E470
:0201A80000C392
:0201A90000EE66
:0201AA0002B0A1
:0201AB000155FC
:0201AC00002928
:0201AD000277D7
:0201AE00038DBF
:0201AF0002B696
:0201B00003400A
:0201B1000078D4
:0201B20001AC9E
:0201B30002291F
:0201B400013E0A
:0201B50002390D
:0201B6000068DF
:0201B700031B28
:0201B80001A2A2
:0201B900034AF7
:0201BA000366DA
:0201BB000143FE
:0201BC0000340D
:0201BD000388B5
:0201BE000291AC
:0201BF0000A09E
:0201C000010636
:0201C100031524
:0201C200022019
:0201C3000178C1
:0201C4000071C8
:0201C500025CDA
:0201C600028EA7
:0201C700005ADC
:0201C80003141E
:0201C900020F23
:0201CA0000A093
:0201CB00021C14
:0201CC0001D759
:0201CD00032706
:0201CE000161CD
:0201CF0003DA51
:0201D00001E943
:0201D10002E347
:0201D200022009
:0201D30002F533
:0201D40000BB6E
:0201D50002C75F
:0201D6000073B4
:0201D700011510
:0201D80000061F
:0201D900009E86
:0201DA000236EB
:0201DB000026FC
:0201DC0001C858
:0201DD000274AA
:0201DE00018698
:0201DF000257C5
:0201E0000040DD
:0201E100029D7D
:0201E20000C853
:0201E300021CFC
:0201E40001F523
:0201E50003AD68
:0201E60002A273
:0201E700022DE7
:0201E80001AD67
:0201E900007D97
:0201EA0001FB17
:0201EB0001838E
:0201EC0002739C
:0201ED000028E8
:0201EE0002000D
:0201EF000359B2
:0201F000039278
:0201F100020901
:0201F200021DEC
:0201F300032DDA
:0201F400009871
:0201F50001BF48
:0201F600020005
:0201F70000BC4A
:0201F8000154B0
:0201F9000327DA
:0201FA0001986A
:0201FB000006FC
:0201FC0001D32D
:0201FD0002629C
:0201FE000113EB
:0201FF000149B4
:02020000026694
:0202010003CD2B
:0202020000E01A
:020203000103F5
:0202040003995C
:020205000006F1
:0202060001AD48
:0202070003F200
:02020800023BB7
:0202090003EA06
:02020A0000668C
:02020B000312DC
:02020C00035598
:02020D0000945B
:02020E000234B8
:02020F00039C4E
:020210000032BA
:02021100035D8B
:02021200008268
:020213000309DD
:0202140002598D
:0202150001DA0C
:0202160000F3F3
:02021700030CD6
:02021800038D54
:0202190001DF03
:02021A00016A77
:02021B00019749
:02021C0001CF10
:02021D00017C62
:02021E000006D8
:02021F0000D805
:02022000035B7E
:0202210002FADF
:020222000320B7
:0202230003379F
:0202240002A92D
:0202250000E3F4
:02022600014F86
:0202270003587A
:02022800026C66
:0202290001F6DC
:02022A0001626F
:02022B00001CB5
:02022C0001923D
:02022D0001319D
:02022E00026468
:02022F00009B32
:02023000034386
:0202310001C901
:02023200039C2B
:020233000029A0
:0202340002E1E5
:02023500033094
:02023600008640
:02023700025370
:020238000006BE
:02023900010EB4
:02023A0000DBE7
:02023B0002DEE1
:02023C00028737
:02023D00034676
:02023E00008B33
:02023F0001C9F3
:0202400002704A
:0202410001F1C9
:0202420003BFF8
:02024300034A6C
:020244000006B2
:02024500016452
:0202460002D6DE
:0202470003D0E2
:0202480003C4ED
:0202490002268B
:02024A00026947
:02024B000000B1
:02024C00025F4F
:02024D0000FAB5
:02024E00034665
:02024F0000B6F7
:0202500000C0EC
:0202510002D8D1
:02025200027335
:020253000306A0
:020254000007A1
:0202550000ECBB
:02025600012A7B
:0202570000386D
:02025800018B18
:02025900009B08
:02025A0000DEC4
:02025B0001CBD5
:02025C0002D9C5
:02025D00037F1D
:02025E00033566
:02025F0001722A
:0202600001AFEC
:02026100036434
:0202620002098F
:02026300011781
:02026400000692
:02026500024F46
:02026600036C27
:0202670002D5BE
:0202680000068E
:0202690002761B
:02026A0001A1F0
:02026B00010090
:02026C00000D83
:02026D00024449
:02026E0003206B
:02026F00021A71
:0202700002AEDC
:02027100005833
:020272000294F4
:0202730000DCAD
:0202740002ADD9
:02027500038400
:0202760002DBA9
:02027700003154
:0202780003027F
:0202790002CAB7
:02027A00030778
:02027B00033747
:02027C0002D6A8
:02027D0001631B
:02027E00025B21
:02027F00013C40
:020280000186F5
:0202810002B5C4
:02028200004A30
:0202830001C3B5
:02028400029FD7
:02028500025C19
:02028600007CFA
:02028700007DF8
:0202880001E093
:02028900002350
:02028A0002C8A8
:02028B00014F21
:02028C00033934
:02028D00000669
:02028E00033734
:02028F00004D20
:0202900002CAA0
:02029100023039
:02029200020068
:0202930001BCAC
:0202940000E583
:02029500030064
:02029600038DD6
:02029700020F54
:02029800020A58
:02029900030060
:02029A000075ED
:02029B0001EC74
:02029C0002E975
:02029D0002EE6F
:02029E000181DC
:02029F00022635
:0202A0000060FC
:0202A10003B4A4
:0202A20003A7B0
:0202A30003BE98
:0202A400037ED7
:0202A500026CE9
:0202A600000D49
:0202A70003E76B
:0202A8000180D3
:0202A900005DF6
:0202AA0000064C
:0202AB0003FF4F
:0202AC0003D07D
:0202AD0002FE4F
:0202AE0001123B
:0202AF000192BA
:0202B000000547
:0202B10003F355
:0202B20000E367
:0202B300025CEB
:0202B40003E85D
:0202B500010C3A
:0202B6000153F2
:0202B700004500
:0202B8000169DA
:0202B9000049FA
:0202BA00006DD5
:0202BB00015FE1
:0202BC0002A995
:0202BD0003D26A
:0202BE000066D8
:0202BF0003EE4C
:0202C00001F447
:0202C100020138
:0202C20003A196
:0202C300025ED9
:0202C40001C275
:0202C5000158DE
:0202C60000AC8A
:0202C7000348EA
:0202C80000B87C
:0202C9000087AC
:0202CA000240F0
:0202CB000171BF
:0202CC0001A48B
:0202CD000267C6
:0202CE000344E7
:0202CF0003C961
:0202D0000383A6
:0202D10001FE2C
:0202D20002C761
:0202D300016CBC
:0202D400017AAD
:0202D500027EA7
:0202D600000521
:0202D700019F85
:0202D80002D84A
:0202D9000340E0
:0202DA000263BD
:0202DB0003D24C
:0202DC00031A03
:0202DD0003CA52
:0202DE000171AC
:0202DF00039F7B
:0202E00001E239
:0202E10003CB4D
:0202E20000E832
:0202E30000CA4F
:0202E400030015
:0202E500031BF9
:0202E60000AB6B
:0202E7000340D2
:0202E800026BA7
:0202E90001BC56
:0202EA0000C54D
:0202EB000317F7
:0202EC000043CD
:0202ED0003DA32
:0202EE00016DA0
:0202EF0000907D
:0202F00000D23A
:0202F10001C743
:0202F200030007
:0202F3000011F8
:0202F400008A7E
:0202F500000007
:0202F600020400
:0202F700022AD9
:0202F8000005FF
:0202F9000328D8
:0202FA000327D8
:0202FB00039569
:0202FC000005FB
:0202FD00000DF2
:0202FE00033FBC
:0202FF000130CC
:02030000017486
:0203010003A057
:020302000348AE
:020303000002F6
:02030400016294
:0203050002FDF7
:0203060000698C
:02030700013AB9
:020308000107EB
:02030900036689
:02030A0003EB03
:02030B00022EC0
:02030C0001C32B
:02030D000243A9
:02030E000342A8
:02030F00005894
:02031000011BCF
:020311000122C7
:020312000005E4
:02031300015B8C
:0203140000BA2D
:0203150001BA2B
:0203160003F4EE
:0203170002FEE4
:02031800027170
:0203190001E5FC
:02031A0000F2EF
:02031B000331AC
:02031C000039A6
:02031D0003A437
:02031E00010AD2
:02031F000005D7
:02032000002EAD
:02032100011DBC
:02032200026C6B
:0203230003B421
:02032400009146
:02032500009A3C
:02032600036A68
:02032700009C38
:0203280003C907
:02032900008C46
:02032A00027F50
:02032B00013E91
:02032C0000626D
:02032D00038843
:02032E00024982
:02032F0000418B
:02033000010CBE
:02033100004684
:0203320001893F
:02033300007157
:02033400009B2C
:0203350001A322
:0203360003249E
:0203370000BC08
:020338000207BA
:0203390002A020
:02033A00022699
:02033B0000358B
:02033C00006A55
:02033D00026359
:02033E0001BC00
:02033F000213A7
:020340000305B3
:02034100003189
:02034200013583
:0203430001AD0A
:0203440001397D
:0203450003773C
:020346000005B0
:02034700028230
:02034800028C25
:0203490003C2ED
:02034A0001C4EC
:02034B00002F81
:02034C0002A508
:02034D0000C3EB
:02034E00022982
:02034F00027733
:02035000014D5D
:02035100024B5D
:02035200011098
:02035300013D6A
:02035400027332
:02035500005056
:0203560002772C
:0203570000881C
:0203580002237E
:0203590002E9B7
:02035A00027D22
:02035B00007E22
:02035C00008E11
:02035D00024F4D
:02035E0001623A
:02035F00016833
:02036000020594
:0203610002DABE
:0203620003880E
:0203630003B3E2
:0203640002FC99
:0203650001068F
:02036600017321
:0203670003E8A9
:0203680000058E
:02036900016F22
:02036A0003C8C6
:02036B0002B4DA
:02036C0001D6B8
:02036D0000D2BC
:02036E00034B3F
:02036F0000E5A7
:02037000014446
:02037100000C7E
:0203720000E1A8
:0203730003681D
:02037400034440
:02037500001B6B
:020376000191F3
:02037700034A37
:0203780000ED96
:02037900021D63
:02037A00027F00
:02037B0001BAC5
:02037C00037309
:02037D00034E2D
:02037E0000F28B
:02037F00000577
:02038000002C4F
:02038100010D6C
:02038200024F28
:020383000398DD
:02038400008DEA
:0203850000D6A0
:02038600001A5B
:0203870001FE75
:02038800022B46
:0203890000462C
:02038A0003F678
:02038B0000E58B
:02038C0002B7B6
:02038D00011657
:02038E0003A8C2
:02038F00021555
:02039000000566
:02039100012049
:02039200010F59
:020393000378ED
:02039400000562
:02039500025E06
:02039600022B38
:0203970003164B
:0203980000C69D
:0203990002E57B
:02039A00011C44
:02039B00031449
:02039C000076E9
:02039D0000EB73
:02039E00001E3F
:02039F0001B7A4
:0203A0000160FA
:0203A10002C395
:0203A200018ACE
:0203A300015FF8
:0203A40001ED69
:0203A50002DD77
:0203A60003DA78
:0203A700008EC6
:0203A80000A4AF
:0203A90003C788
:0203AA0001A2AE
:0203AB0001DF70
:0203AC00002A25
:0203AD00002E20
:0203AE000196B6
:0203AF00000D3F
:0203B000034008
:0203B10002D96F
:0203B2000285C2
:0203B30001F057
:0203B40000C483
:0203B50002B094
:0203B600035EE4
:0203B700027BC7
:0203B80003B38D
:0203B90002B38D
:0203BA00032915
:0203BB0000BF81
:0203BC00032418
:0203BD00020438
:0203BE00010D2F
:0203BF0003EB4E
:0203C000024CED
:0203C10003DD5A
:0203C200004CED
:0203C3000347EE
:0203C400007BBC
:0203C50003969D
:0203C6000047EE
:0203C700023AF8
:0203C800011F13
:0203C90000A48E
:0203CA000077BA
:0203CB000046EA
:0203CC0003C16B
:0203CD00029696
:0203CE000073BA
:0203CF00010922
:0203D000000526
:0203D100011712
:0203D20003EF37
:0203D300003BED
:0203D40001AB7B
:0203D50003EF34
:0203D60002B66D
:0203D70001B172
:0203D800008F94
:0203D90003001F
:0203DA0000B46D
:0203DB00015BC4
:0203DC0000A778
:0203DD000246D6
:0203DE0001EB31
:0203DF000345D4
:0203E000020514
:0203E10001DC3D
:0203E200027B9C
:0203E300039382
:0203E40000D542
:0203E50001F322
:0203E600029E75
:0203E70002878B
:0203E8000160B2
:0203E90002DA36
:0203EA0002A867
:0203EB00007B95
:0203EC0000050A
:0203ED0000F816
:0203EE00030703
:0203EF0001E427
:0203F0000141C9
:0203F10000D139
:0203F2000046C3
:0203F3000353B2
:0203F40001AB5B
:0203F500030003
:0203F6000306FC
:0203F700017093
:0203F80001F111
:0203F900003CC6
:0203FA000005FC
:0203FB0000FF01
:0203FC0002DE1F
:0203FD000155A8
:0203FE000019E4
:0203FF0002DD1D
:020400000155A4
:020401000335C1
:020402000032C6
:020403000000F7
:020404000253A1
:0204050002DF14
:02040600015A99
:0204070001787A
:0204080002EE02
:02040900017080
:02040A0000B43C
:02040B00006E81
:02040C00005599
:02040D00001CD1
:02040E00037A6F
:02040F000224C5
:0204100003D017
:020411000033B6
:020412000302E3
:0204130003F5EF
:0204140002C024
:02041500031AC8
:0204160000BA2A
:0204170003548C
:0204180002A040
:0204190002538C
:02041A000226B8
:02041B0001CD11
:02041C000100DD
:02041D00037565
:02041E0000E5F7
:02041F000104D6
:02042000038B4C
:020421000031A8
:0204220002AD29
:0204230002B71E
:020424000005D1
:02042500024F84
:02042600014E85
:0204270000B81B
:0204280000478B
:0204290003B01E
:02042A0002AD21
:02042B0000F6D9
:02042C00024389
:02042D00024C7F
:02042E0000CA02
:02042F00017456
:020430000005C5
:02043100003396
:0204320001B90E
:02043300004F78
:0204340003AD16
:02043500038D35
:0204360003A819
:0204370003B808
:0204380003754A
:02043900029827
:02043A0000DDE3
:02043B0001FBC3
:02043C0001AC11
:02043D0003AC0E
:02043E0003B207
:02043F00017941
:0204400000BCFE
:02044100013385
:02044200029B1B
:0204430000AB0C
:02044400032093
:0204450001B400
:02044600002193
:02044700022190
:0204480003703F
:0204490003C8E6
:02044A0002E5C9
:02044B0000812E
:02044C00005757
:02044D00022289
:02044E00019E0D
:02044F00028722
:02045000009614
:0204510003891D
:02045200031A8B
:0204530003069E
:0204540003089B
:0204550002DBC8
:02045600023D65
:0204570000E8BB
:02045800029A06
:02045900030E90
:02045A0002009E
:02045B00032D6F
:02045C0002524A
:02045D00032A70
:02045E00017328
:02045F0000EAB1
:02046000014A4F
:02046100025245
:0204620003BED7
:02046300014A4C
:0204640002B5DF
:0204650003BBD7
:02046600001A7A
:02046700038F01
:0204680001D8B9
:0204690002B1DE
:02046A0001DAB5
:02046B00030F7D
:02046C00020E7E
:02046D000296F5
:02046E00006428
:02046F00033652
:0204700002CBBD
:0204710002E0A7
:02047200033451
:020473000386FE
:020474000394EF
:02047500031C66
:0204760001DDA6
:020477000395EB
:0204780000057D
:0204790002E996
:02047A0000037D
:02047B00030F6D
:02047C0003CFAC
:02047D0002007B
:02047E00016219
:02047F0001B5C5
:0204800002B8C0
:02048100002A4F
:0204820001CBAC
:02048300035B19
:02048400009ADC
:0204850001472D
:02048600012350
:0204870003ED83
:0204880001650C
:02048900014C24
:02048A0003620B
:02048B00036705
:02048C00011C51
:02048D0000412C
:02048E000097D5
:02048F0001DE8C
:0204900003D790
:02049100024324
:0204920000E385
:020493000377ED
:0204940001C2A3
:020495000383DF
:02049600007DE7
:020497000070F3
:02049800031D42
:0204990000471A
:02049A0003AFAE
:02049B00011648
:02049C00003E20
:02049D0000E875
:02049E0002D783
:02049F0001CD8D
:0204A000018BCE
:0204A10001D385
:0204A2000268EE
:0204A300030C48
:0204A4000381D2
:0204A5000389C9
:0204A60002E76B
:0204A700015EF4
:0204A80002AFA1
:0204A900029EB1
:0204AA0000EE62
:0204AB000160EE
:0204AC0003B992
:0204AD0003BA90
:0204AE00012823
:0204AF0003C583
:0204B0000354F3
:0204B1000399AD
:0204B2000056F2
:0204B3000151F5
:0204B400024AFA
:0204B50003083A
:0204B600034CF5
:0204B70002DB66
:0204B8000179C8
:0204B90002E956
:0204BA0002EF4F
:0204BB000150EE
:0204BC0001CF6E
:0204BD0000310C
:0204BE00003903
:0204BF0001AD8D
:0204C0000050EA
:0204C10003E74F
:0204C200003602
:0204C300010234
:0204C400021024
:0204C50003250D
:0204C60000052F
:0204C7000074BF
:0204C8000039F9
:0204C900031816
:0204CA0000D65A
:0204CB000138F6
:0204CC00000529
:0204CD0000FF2E
:0204CE0003EF3A
:0204CF00009893
:0204D00002C068
:0204D100022DFA
:0204D20002A581
:0204D30003EC38
:0204D40001CA5B
:0204D500000421
:0204D6000260C2
:0204D70000A47F
:0204D80002968A
:0204D90003FC22
:0204DA00009D83
:0204DB00003EE1
:0204DC0002A775
:0204DD00039D7D
:0204DE0002E733
:0204DF00004CCF
:0204E000039285
:0204E100008099
:0204E20002DE38
:0204E3000270A5
:0204E400030013
:0204E5000053C2
:0204E6000231E1
:0204E7000061B2
:0204E80002A967
:0204E90000D23F
:0204EA0002A36B
:0204EB0003E329
:0204EC00005AB4
:0204ED0003CF3B
:0204EE00020901
:0204EF0002D138
:0204F00001EE1B
:0204F1000328DE
:0204F2000247BF
:0204F3000314F0
:0204F4000154B1
:0204F50000D233
:0204F6000155AE
:0204F70002A65B
:0204F800008C76
:0204F90002D02F
:0204FA00013BC4
:0204FB00039567
:0204FC0001A657
:0204FD000338C2
:0204FE000012EA
:0204FF0003FEFA
:0205000002C433
:02050100002ECA
:020502000004F3
:020503000210E4
:02050400021AD9
:0205050003EC05
:02050600034EA2
:02050700000BE7
:0205080001EB05
:0205090000B838
:02050A00003BB4
:02050B00003EB0
:02050C00008B62
:02050D0000EC00
:02050E000129C1
:02050F00010DDC
:02051000006188
:0205110002F1F5
:02051200008562
:0205130000E8FE
:0205140003E3FF
:020515000142A1
:0205160000CE15
:0205170002528E
:02051800019848
:02051900026A74
:02051A0000934C
:02051B0003DEFD
:02051C000015C8
:02051D000104D7
:02051E00027465
:02051F000030AA
:020520000204D3
:0205210003BB1A
:02052200011FB7
:0205230001FCD9
:02052400021CB7
:02052500014C87
:0205260003557B
:020527000004CE
:020528000325A9
:0205290000814F
:02052A0003E6E6
:02052B00011EAF
:02052C0003F6D4
:02052D00003894
:02052E0001B218
:02052F00002D9D
:0205300003784E
:02053100035C69
:0205320003A81C
:020533000025A1
:0205340000A223
:0205350000E9DB
:0205360000C8FB
:02053700000AB8
:02053800027C43
:0205390003EBD2
:02053A0000229D
:02053B0002EFCD
:02053C00001E9F
:02053D00037B3E
:02053E0000D5E6
:02053F0003F6C1
:0205400000AD0C
:0205410002C7EF
:02054200020FA6
:02054300025460
:02054400036151
:020545000106AD
:02054600030EA2
:02054700014869
:0205480003802E
:0205490001842B
:02054A0003218B
:02054B00002589
:02054C00005D50
:02054D00039811
:02054E0001A307
:02054F00024B5D
:02055000015E4A
:0205510002ABFB
:020552000200A5
:0205530003297A
:0205540001F6AE
:0205550002356D
:0205560003B3ED
:02055700024060
:0205580001A8F8
:0205590001BBE4
:02055A00024756
:02055B00031B80
:02055C00000499
:02055D0000D3C9
:02055E00015446
:02055F00015841
:0205600000ACED
:02056100032075
:02056200008215
:0205630000A1F5
:02056400034D45
:0205650000553F
:02056600038709
:0205670000B3DF
:0205680003A7E7
:0205690000345C
:02056A00022865
:02056B00015439
:02056C00018507
:02056D00028DFD
:02056E00003A51
:02056F00025C2C
:0205700000C3C6
:02057100033E47
:02057200019EE8
:0205730003B1D2
:0205740001493B
:0205750002354D
:0205760002443D
:02057700014839
:0205780003106E
:02057900036C11
:02057A00022C51
:02057B00032259
:02057C00021D5E
:02057D0002ED8D
:02057E00016317
:02057F00015029
:020580000284F3
:0205810000D0A8
:02058200000473
:0205830003F281
:0205840000690C
:02058500013B38
:02058600023938
:0205870003333C
:0205880003FB73
:0205890000610F
:02058A00003837
:02058B00034F1C
:02058C000178F4
:02058D000285E5
:02058E00024722
:02058F00008EDC
:02059000012E3A
:0205910003F66F
:0205920000B9AE
:0205930003481B
:020594000374EE
:02059500011152
:0205960003EE72
:0205970003DF80
:0205980000B5AC
:0205990002411D
:02059A00005708
:02059B0002C795
:02059C000164F8
:02059D0000005C
:02059E00026DEC
:02059F00007EDC
:0205A000020453
:0205A10002D383
:0205A20002BC99
:0205A3000191C4
:0205A40003272B
:0205A500034E03
:0205A60001D979
:0205A700029CB4
:0205A8000168E8
:0205A90002123C
:0205AA00006AE5
:0205AB00004509
:0205AC000175D7
:0205AD0003CD7C
:0205AE00032028
:0205AF00034106
:0205B000000445
:0205B100013B0C
:0205B20002BA8B
:0205B3000054F2
:0205B40001DC68
:0205B50003261B
:0205B60000043F
:0205B700004BF7
:0205B80003CF6F
:0205B9000261DD
:0205BA0003D765
:0205BB0000043A
:0205BC0002BC7F
:0205BD0003D168
:0205BE00031A1E
:0205BF000068D2
:0205C0000390A6
:0205C1000066D2
:0205C20002BE77
:0205C300026CC8
:0205C4000344EE
:0205C500011B18
:0205C60003C46C
:0205C70003141B
:0205C80002E04F
:0205C90002FA34
:0205CA000339F3
:0205CB000370BB
:0205CC000374B6
:0205CD00031A0F
:0205CE000236F3
:0205CF00009C8E
:0205D000022205
:0205D100029D89
:0205D20001E046
:0205D30003C162
:0205D400001510
:0205D50002B171
:0205D600036AB6
:0205D70002150B
:0205D800028798
:0205D90000958B
:0205DA0000140B
:0205DB0000D945
:0205DC0002BB60
:0205DD00018E8D
:0205DE000127F3
:0205DF00015DBC
:0205E000020413
:0205E10002F224
:0205E20003FD17
:0205E30000FA1C
:0205E40001C054
:0205E5000222F0
:0205E60001F919
:0205E7000119F8
:0205E8000358B6
:0205E900008C84
:0205EA00008B84
:0205EB00032BE0
:0205EC000042CB
:0205ED0003A762
:0205EE00012FDB
:0205EF0000B05A
:0205F000020205
:0205F10000F90F
:0205F200016E98
:0205F3000334CF
:0205F4000225DE
:0205F5000215ED
:0205F60002DB26
:0205F700004FB3
:0205F8000245BA
:0205F90000966A
:0205FA000318E4
:0205FB0001A25B
:0205FC00000AF3
:0205FD000227D3
:0205FE0003D127
:0205FF0000DD1D
:020600000124D3
:02060100007C7B
:0206020002BC38
:0206030003BC36
:0206040003529F
:0206050001569C
:02060600019F52
:020607000004ED
:02060800005D93
:0206090002816C
:02060A000248A4
:02060B00038862
:02060C00021AD0
:02060D0001D614
:02060E00029256
:02060F000026C3
:02061000026A7C
:020611000137AF
:02061200006383
:0206130003C71B
:02061400033AA7
:0206150002944D
:0206160001AE33
:02061700005F82
:0206180002805E
:0206190003E8F4
:02061A0000706E
:02061B0003F0EA
:02061C0002409A
:02061D000338A0
:02061E0002B127
:02061F00008455
:02062000008751
:02062100029540
:0206220002864E
:020623000032A3
:02062400037160
:02062500001DB6
:02062600020DC3
:02062700011CB4
:020628000121AE
:0206290001F5D9
:02062A00037259
:02062B00016F5D
:02062C0003C702
:02062D00025277
:02062E0000E9E1
:02062F00036462
:02063000019F28
:02063100037054
:0206320000B214
:02063300013E86
:0206340000EDD7
:02063500039927
:02063600011AA7
:02063700014B75
:020638000004BC
:02063900011F9F
:02063A00007747
:02063B0001E3D9
:02063C00013F7C
:02063D00026356
:02063E00012990
:02063F00016C4C
:020640000304B1
:0206410001CCEA
:02064200019E17
:02064300025360
:0206440003C5EC
:0206450001CFE3
:02064600004B67
:0206470003129C
:0206480001FEB1
:0206490000EBC4
:02064A0003B2F9
:02064B00022D7E
:02064C00003676
:02064D0001A901
:02064E00025F49
:02064F00023374
:0206500000FEAA
:02065100029D08
:0206520002E9BB
:0206530001BCE8
:0206540002F2B0
:0206550002663B
:0206560003F0AF
:02065700036E30
:0206580000B9E7
:0206590003ACF0
:02065A0000227C
:02065B0001F5A7
:02065C00010299
:02065D00012377
:02065E00023266
:02065F00000B8E
:02066000028A0C
:0206610001880E
:0206620000E2B4
:02066300007223
:0206640000157F
:0206650003A4EC
:0206660002FC94
:0206670001F898
:0206680000731D
:02066900024944
:02066A00035536
:02066B00037317
:02066C00027F0B
:02066D00005338
:02066E0000CCBE
:02066F0003C6C0
:02067000011B6C
:0206710000A9DE
:02067200024A3A
:0206730001DBA9
:0206740003374A
:02067500023B46
:0206760002C2BE
:0206770000A8D9
:0206780003CAB3
:0206790000047B
:02067A0001314C
:02067B00032E4C
:02067C0001D7A4
:02067D00010971
:02067E00009EDC
:02067F00007504
:0206800000690F
:02068100005720
:02068200001B5B
:020683000392E0
:020684000297DB
:0206850001086A
:0206860002C2AE
:0206870003A0CE
:020688000380ED
:02068900023E2F
:02068A0003B7B4
:02068B0003C8A2
:02068C00024D1D
:02068D00032444
:02068E0002293F
:02068F0003392D
:02069000023234
:0206910002F075
:02069200015015
:02069300013034
:02069400026CF6
:0206950000E182
:02069600006EF4
:0206970000EE73
:0206980002401E
:0206990000411E
:02069A0002CD8F
:02069B0001C399
:02069C0001005B
:02069D000061FA
:02069E0003C394
:02069F00030551
:0206A000020452
:0206A100009DBA
:0206A20002AEA6
:0206A300001540
:0206A40000AFA5
:0206A500005BF8
:0206A60002F65A
:0206A700005DF4
:0206A800006FE1
:0206A900030943
:0206AA00000A44
:0206AB000350FA
:0206AC0000B894
:0206AD0000202B
:0206AE000167E2
:0206AF00006BDE
:0206B00001093E
:0206B100032123
:0206B200028FB5
:0206B30003340E
:0206B40000EC58
:0206B5000396AA
:0206B60003102F
:0206B700033A04
:0206B80003F04D
:0206B90001132B
:0206BA00027FBD
:0206BB00001528
:0206BC0001B289
:0206BD00033503
:0206BE00007CBE
:0206BF000167D1
:0206C00001D463
:0206C10001A294
:0206C20000AF87
:0206C30002DB58
:0206C400000430
:0206C50000092A
:0206C60002C967
:0206C70000240D
:0206C80003F736
:0206C90002220B
:0206CA000285A7
:0206CB0000FE2F
:0206CC00016CBF
:0206CD0003AF79
:0206CE0003A582
:0206CF00012FF9
:0206D000002BFD
:0206D1000078AF
:0206D20001F72E
:0206D3000085A0
:0206D400000420
:0206D5000051D2
:0206D600014ED3
:0206D70002D847
:0206D80000D14F
:0206D900031606
:0206DA00018994
:0206DB00000815
:0206DC000273A7
:0206DD0000AB70
:0206DE00028E8A
:0206DF0003FD19
:0206E00000D741
:0206E10000FC1B
:0206E200004CCA
:0206E30002A86B
:0206E40003EE23
:0206E500000013
:0206E60002BC54
:0206E70000040D
:0206E80003B756
:0206E90001B559
:0206EA0001DE2F
:0206EB000013FA
:0206EC000034D8
:0206ED000221E8
:0206EE0001BB4E
:0206EF0002E126
:0206F000017493
:0206F1000155B1
:0206F2000264A0
:0206F300008184
:0206F400038D74
:0206F500036898
:0206F60003F40B
:0206F7000110F0
:0206F800029D61
:0206F900007B84
:0206FA00028D6F
:0206FB0000B14C
:0206FC0002CA30
:0206FD0000B744
:0206FE00025A9E
:0206FF00039363
:020700000044B3
:02070100004DA9
:02070200038E64
:0207030001EB08
:020704000342AE
:0207050003757A
:02070600026689
:0207070003F5F8
:020708000004EB
:02070900027379
:02070A000324C6
:02070B0001F9F2
:02070C0002D217
:02070D00019059
:02070E000216D1
:02070F000044A4
:0207100003FBE9
:02071100011EC7
:02071200038E54
:02071300032CB5
:0207140003D907
:02071500017869
:0207160003EAF4
:020717000310CD
:0207180002CC11
:020719000300DB
:02071A00038E4C
:02071B00005686
:02071C00013C9E
:02071D000221B7
:02071E0002E6F1
:02071F00036E67
:02072000039A3A
:02072100034D86
:0207220002676C
:0207230000CD07
:02072400025E73
:0207250002FED2
:02072600028E41
:0207270000F1DF
:020728000209C4
:0207290001B815
:02072A0003DFEB
:02072B0000626A
:02072C000323A5
:02072D000004C6
:02072E0002E7E0
:02072F0003AE17
:02073000023D88
:0207310002754F
:0207320000388D
:02073300036B56
:0207340003EED2
:0207350001A41D
:02073600007150
:0207370000368A
:0207380000D6E9
:02073900023488
:02073A0000338A
:02073B0002B505
:02073C00019D1D
:02073D0000CEEC
:02073E00002B8E
:02073F0003961F
:0207400002F3C2
:02074100022490
:02074200010CA8
:02074300038E23
:02074400018E24
:0207450002EDC3
:0207460003901E
:02074700035A53
:02074800022D80
:0207490003ECBF
:02074A00007B32
:02074B0003BDEC
:02074C00019515
:02074D0001E7C2
:02074E00009613
:02074F00018423
:02075000009611
:0207510001AFF6
:0207520000B2F3
:02075300018221
:0207540000049F
:02075500001A88
:0207560001A8F8
:0207570000920E
:0207580000BBE4
:02075900020795
:02075A00005A43
:02075B00039603
:02075C0003A1F7
:02075D00005D3D
:02075E0001AEEA
:02075F0003781D
:0207600001A0F6
:0207610000088E
:020762000294FF
:02076300012A69
:0207640003ABE5
:0207650001FD94
:0207660000048D
:0207670001A2ED
:0207680002BECF
:02076900033952
:02076A0002F992
:02076B0001E2A9
:02076C0003D8B0
:02076D0000BFCB
:02076E00007B0E
:02076F0002F096
:02077000000483
:020771000399EA
:020772000195EF
:0207730001DBA8
:02077400005033
:0207750000D9A9
:02077600035A24
:0207770003B7C6
:0207780001D5A9
:020779000198E5
:02077A0002E695
:02077B0001A2D9
:02077C0001B0CA
:02077D0002F781
:02077E00015A1E
:02077F0000BEBA
:0207800001086E
:02078100021C58
:0207820003E092
:0207830002373B
:0207840001076B
:0207850000363C
:0207860003A6C8
:02078700033F2E
:0207880002E38A
:020789000279F3
:02078A0001E686
:02078B00010D5E
:02078C0003D593
:02078D00022345
:02078E0003DB8B
:02078F0000E385
:02079000011F47
:020791000076F0
:0207920002CC97
:0207930000065E
:02079400000A59
:0207950002BDA3
:0207960000045D
:0207970003C499
:0207980001E47A
:02079900024814
:02079A0000D588
:02079B000172E9
:02079C00000457
:02079D00006FEB
:02079E00029ABD
:02079F00026BEB
:0207A00003C68E
:0207A1000292C2
:0207A20002B3A0
:0207A300001143
:0207A400028FC2
:0207A50002153B
:0207A6000287C8
:0207A70003CC81
:0207A80001C985
:0207A9000065E9
:0207AA000384C6
:0207AB00030D3C
:0207AC0002E663
:0207AD0002F454
:0207AE00031E28
:0207AF000349FC
:0207B000035CE8
:0207B100033D06
:0207B20002D172
:0207B30001FE45
:0207B40000AC97
:0207B50002BF81
:0207B600001E23
:0207B70000AF91
:0207B8000059E6
:0207B90003013A
:0207BA00008EAF
:0207BB0000E755
:0207BC0003F048
:0207BD000192A7
:0207BE0001B187
:0207BF00003503
:0207C000010432
:0207C100000432
:0207C200011B19
:0207C300003103
:0207C400012C06
:0207C50003F23D
:0207C600006AC7
:0207C700027AB4
:0207C800020924
:0207C90002FD2F
:0207CA00013EEE
:0207CB0000B27A
:0207CC000140EA
:0207CD0002CD5B
:0207CE000142E6
:0207CF000085A3
:0207D000007DAA
:0207D100011015
:0207D2000226FD
:0207D30003A57C
:0207D4000173AF
:0207D500037AA5
:0207D600019E82
:0207D70003C756
:0207D80001DC42
:0207D90003C457
:0207DA000167B5
:0207DB0002AA70
:0207DC000376A2
:0207DD0003B265
:0207DE000343D3
:0207DF00021303
:0207E00000080F
:0207E10001080D
:0207E20000FC19
:0207E30003CB46
:0207E400015CB6
:0207E50001967B
:0207E6000061B0
:0207E70001A36C
:0207E8000145C9
:0207E900032EDD
:0207EA000346C4
:0207EB00017299
:0207EC00019D6D
:0207ED0003AB5C
:0207EE00038680
:0207EF000115F2
:0207F0000040C7
:0207F10000ED19
:0207F2000305FD
:0207F300026F93
:0207F4000314EC
:0207F50000DA28
:0207F60003A955
:0207F700036A93
:0207F8000004FB
:0207F900015E9F
:0207FA00036199
:0207FB0001F407
:0207FC000100FA
:0207FD00006C8E
:0207FE000020D9
:0207FF000004F4
:00000001ff
