:020000040000FA
:020000000000FE
:02000100001FDE
:0200020001FFFC
:02000300021CDD
:0200040003F007
:0200050001EF09
:02000600018671
:02000700031ADA
:020008000201F3
:0200090000896C
:02000A0003ED04
:02000B0000599A
:02000C0000E60C
:02000D00039B53
:02000E0001658A
:02000F00021DD0
:02001000007F6F
:02001100022DBE
:0200120003AC3D
:02001300006289
:02001400029355
:02001500036185
:0200160002CA1C
:0200170003A53F
:0200180003A142
:0200190003449E
:02001A0001E8FB
:02001B0001BB27
:02001C0003BA25
:02001D0003B42A
:02001E0000429E
:02001F0002CB12
:0200200003815A
:02002100015E7E
:020022000220BA
:02002300024E8B
:020024000130A9
:0200250000D009
:0200260001F7E0
:02002700002FA8
:0200280001BB1A
:02002900039C36
:02002A0001894A
:02002B0001F5DD
:02002C000204CC
:02002D0001923E
:02002E00032BA2
:02002F00000EC1
:020030000027A7
:020031000211BA
:020032000313B6
:02003300031FA9
:0200340000CEFC
:02003500016266
:0200360000C008
:02003700017452
:0200380000AB1B
:02003900023192
:02003A00007351
:02003B00007C47
:02003C0001F1D0
:02003D000313AB
:02003E0000BA06
:02003F00025766
:0200400001F0CD
:02004100001F9E
:02004200000FAD
:02004300037F39
:0200440002BAFE
:02004500009C1D
:02004600028B2B
:0200470000793E
:0200480000E0D6
:0200490000C2F3
:02004A0003A908
:02004B0003A010
:02004C00013A77
:02004D00038727
:02004E00001997
:02004F000300AC
:0200500002CCE0
:0200510000832A
:0200520003ABFE
:02005300023E6B
:0200540000B0FA
:0200550001EABE
:0200560003475E
:0200570000990E
:02005800001E88
:0200590002891A
:02005A0002F7AB
:02005B0002F5AC
:02005C00027927
:02005D0003E5B9
:02005E0000019F
:02005F0002009D
:02006000037625
:02006100005F3E
:02006200031782
:02006300005D3E
:02006400035047
:02006500016D2B
:02006600028E08
:0200670000E9AE
:02006800010E87
:0200690001E6AE
:02006A0000B2E2
:02006B00010989
:02006C0000D6BC
:02006D00005839
:02006E0002206E
:02006F0003107C
:02007000025735
:02007100017418
:02007200003458
:0200730000AAE1
:0200740003394E
:02007500028700
:02007600038500
:0200770001671F
:0200780001A7DE
:02007900000184
:02007A0002750D
:02007B00014042
:02007C0002E19F
:02007D0000126F
:02007E0003CDB0
:02007F00034339
:0200800001E19C
:02008100014E2E
:02008200016516
:02008300003843
:02008400020F69
:02008500016414
:0200860002E393
:0200870001690D
:02008800020173
:0200890003E88A
:02008A000083F1
:02008B0003650B
:02008C00024D23
:02008D00012050
:02008E0001EC83
:02008F0000E689
:02009000006806
:0200910000F07D
:02009200011D4E
:0200930001B3B7
:020094000194D5
:0200950001C2A6
:02009600015B0C
:02009700019CCA
:0200980001DC89
:02009900038DD5
:02009A0002382A
:02009B000380E0
:02009C00031D42
:02009D0002DD82
:02009E0002A2BC
:02009F000060FF
:0200A000001D41
:0200A10003F169
:0200A20000015B
:0200A3000282D7
:0200A40003B4A3
:0200A50001E375
:0200A6000167F0
:0200A70000A1B6
:0200A80003F85B
:0200A90001DD77
:0200AA0002C48E
:0200AB0001272B
:0200AC000185CC
:0200AD00025CF3
:0200AE00002E22
:0200AF00017BD3
:0200B00002C389
:0200B1000283C8
:0200B200013615
:0200B3000151F9
:0200B400034403
:0200B5000177D1
:0200B600004BFD
:0200B70002182D
:0200B800032B18
:0200B90001C67E
:0200BA00021F23
:0200BB00025EE3
:0200BC00029CA4
:0200BD0000E35E
:0200BE00012A15
:0200BF000158E6
:0200C0000141FC
:0200C10002A497
:0200C200012912
:0200C3000265D4
:0200C40001D366
:0200C50000D564
:0200C60002B680
:0200C70000A493
:0200C80001B184
:0200C90002D360
:0200CA0002E34F
:0200CB0002979A
:0200CC00008AA8
:0200CD000131FF
:0200CE0002E34B
:0200CF0001D15D
:0200D000000727
:0200D100016EBE
:0200D20003C663
:0200D30002AB7E
:0200D400038C9B
:0200D50001B078
:0200D6000236F0
:0200D700000E19
:0200D80003FC27
:0200D90000978E
:0200DA000246DC
:0200DB000341DF
:0200DC0003908F
:0200DD00010719
:0200DE000348D5
:0200DF0003C359
:0200E00001B06D
:0200E100021308
:0200E20003B861
:0200E3000335E3
:0200E40002E335
:0200E50002E631
:0200E6000124F3
:0200E7000147CF
:0200E80000BE58
:0200E90002B85B
:0200EA000027ED
:0200EB0003BB55
:0200EC0001E62B
:0200ED0000D43D
:0200EE0000729E
:0200EF000268A5
:0200F0000219F3
:0200F10000A16C
:0200F20000D834
:0200F300034CBC
:0200F4000244C4
:0200F50001BD4B
:0200F60003689D
:0200F70002AC59
:0200F80000A462
:0200F900001CE9
:0200FA00019271
:0200FB000337C9
:0200FC0000E919
:0200FD000035CC
:0200FE000058A8
:0200FF00023BC2
:0201000000718C
:02010100033CBD
:02010200008477
:0201030003DD1A
:02010400028473
:02010500035A9B
:0201060002EA0B
:02010700036390
:0201080000985D
:020109000001F3
:02010A0000B93A
:02010B00037D72
:02010C0002A847
:02010D00023BB3
:02010E0003D01C
:02010F0002A448
:02011000038F5B
:020111000106E5
:02011200031BCD
:0201130003796E
:02011400016781
:0201150001C324
:020116000303E1
:020117000136AF
:020118000201E2
:02011900009E46
:02011A0001DC06
:02011B00001DC5
:02011C00035787
:02011D000111CE
:02011E0000657A
:02011F0001FCE1
:02012000000ECF
:02012100026278
:02012200024E8B
:0201230002B424
:020124000001D8
:020125000030A8
:0201260002C411
:0201270000CA0C
:0201280000D8FD
:02012900030DC4
:02012A00010CC6
:02012B000202CE
:02012C00029F30
:02012D000118B7
:02012E000125A9
:02012F000003CB
:02013000006F5E
:0201310002A822
:02013200006E5D
:020133000100C9
:02013400011BAD
:0201350002FCCA
:02013600025B6A
:02013700006F57
:0201380003E7DB
:0201390000F1D3
:02013A00013191
:02013B0003C6F9
:02013C00014977
:02013D0003C7F6
:02013E0002C6F7
:02013F00034279
:0201400003AC0E
:0201410003E9D0
:02014200015268
:0201430002B305
:02014400004871
:0201450003C2F3
:02014600003F78
:02014700025064
:0201480003F2C0
:02014900009123
:02014A000108AA
:02014B00039D12
:02014C000001B0
:02014D0003535A
:02014E00001B94
:02014F00024963
:02015000033872
:0201510001AA01
:0201520001C9E1
:02015300012584
:0201540002B3F4
:0201550002CFD7
:0201560003386C
:02015700031192
:0201580002E0C3
:02015900008C18
:02015A00036040
:02015B0000039F
:02015C00008120
:02015D0000435D
:02015E00000E91
:02015F00020993
:0201600001B4E8
:0201610003EFAA
:0201620002F3A6
:02016300025444
:02016400030096
:02016500033F56
:0201660002B3E2
:02016700025242
:02016800006C29
:0201690000A8EC
:02016A00000192
:02016B0000C8CA
:02016C0002A2ED
:02016D00028707
:02016E0002C4C9
:02016F0002F696
:02017000000D80
:02017100004943
:02017200033B4D
:0201730001C2C7
:02017400020E79
:02017500039AEB
:02017600033252
:0201770002EC98
:02017800022A59
:02017900019BE8
:02017A00033749
:02017B0002423E
:02017C00034836
:02017D00001C64
:02017E0003DBA1
:02017F0002EA92
:0201800002F289
:0201810002E496
:0201820002F584
:02018300009FDB
:0201840002A0D7
:0201850000FA7E
:0201860000EF88
:0201870001066F
:0201880001056F
:0201890001F57E
:02018A00021C55
:02018B00010071
:02018C00036905
:02018D00035815
:02018E00000E61
:02018F00020963
:02019000030169
:0201910001EC7F
:0201920002FA6F
:020193000393D4
:02019400025B0C
:02019500032D38
:02019600031D47
:020197000078EE
:0201980002BFA4
:0201990002ACB6
:02019A00022C35
:02019B000063FF
:02019C0001AAB6
:02019D00038BD2
:02019E0000C59A
:02019F00014914
:0201A000023B20
:0201A10001F06B
:0201A20003EB6D
:0201A30000E278
:0201A40002BA9D
:0201A5000086D2
:0201A6000288CD
:0201A700022E26
:0201A80002153E
:0201A90002054D
:0201AA0002F25F
:0201AB0002FD53
:0201AC00016DE3
:0201AD0002B896
:0201AE00007BD4
:0201AF00017BD2
:0201B00001A6A6
:0201B100021337
:0201B20000FE4D
:0201B30001C980
:0201B40000FD4C
:0201B5000049FF
:0201B600027FC6
:0201B7000394AF
:0201B80000A4A1
:0201B90003EB56
:0201BA0000C77C
:0201BB0003B986
:0201BC000263DC
:0201BD000387B6
:0201BE00030834
:0201BF0001E558
:0201C0000241FA
:0201C1000359E0
:0201C2000189B1
:0201C300024AEE
:0201C400003207
:0201C50002F343
:0201C6000358DC
:0201C7000349EA
:0201C80001CA6A
:0201C90002F33F
:0201CA0003FB35
:0201CB00032F00
:0201CC0003F23C
:0201CD0002C36B
:0201CE000133FB
:0201CF0001ED40
:0201D00000B07D
:0201D1000250DA
:0201D20000B675
:0201D30002E048
:0201D40000DF4A
:0201D50003D550
:0201D60001FA2C
:0201D70002968E
:0201D800020122
:0201D90001A77C
:0201DA00000122
:0201DB00009B87
:0201DC00000C15
:0201DD0003FF1E
:0201DE000329F3
:0201DF00014DD0
:0201E000033DDD
:0201E10002D644
:0201E200030216
:0201E30003B562
:0201E40001F028
:0201E50003BC59
:0201E600002EE9
:0201E7000364AF
:0201E800028291
:0201E90003B958
:0201EA00023FD2
:0201EB000251BF
:0201EC000134DC
:0201ED000132DD
:0201EE00019C72
:0201EF0002C844
:0201F0000210FB
:0201F10001D239
:0201F200017199
:0201F3000152B7
:0201F40002DD2A
:0201F500007C8C
:0201F600019B6B
:0201F70002A75D
:0201F800010DF7
:0201F900033CC5
:0201FA0000A063
:0201FB0001A65B
:0201FC0003B945
:0201FD000142BD
:0201FE0001A955
:0201FF000150AD
:02020000019962
:0202010000E11A
:02020200027F79
:0202030002C82F
:020204000309EC
:02020500018C6A
:02020600019362
:0202070003589A
:02020800000FE5
:0202090001E70B
:02020A000001F1
:02020B00027A75
:02020C00026589
:02020D0001C826
:02020E0003A447
:02020F0003EBFF
:02021000038762
:02021100005398
:020212000122C7
:0202130001B830
:0202140002CC1A
:020215000207DE
:020216000207DD
:0202170002598A
:02021800037A67
:0202190002DC05
:02021A0002DD03
:02021B0002CC13
:02021C0002E9F5
:02021D0000607F
:02021E00014D90
:02021F0000BA23
:02022000029E3C
:0202210003DCFC
:02022200024593
:02022300009544
:02022400027561
:0202250000785F
:02022600001BBB
:0202270003C70B
:0202280002CE04
:02022900016A68
:02022A0000C111
:02022B0002DEF1
:02022C0002B717
:02022D000026A9
:02022E0003F1DA
:02022F0003BF0B
:020230000222A8
:02023100028F3A
:02023200016267
:0202330003DBEB
:02023400001DAB
:02023500013393
:020236000307BC
:02023700026A59
:02023800010DB6
:0202390001843E
:02023A00034778
:02023B0002AC13
:02023C0000ECD4
:02023D0000209F
:02023E0003417A
:02023F00022992
:02024000018F2C
:02024100030BAD
:020242000113A6
:0202430002F9BE
:0202440000F0C8
:020245000004B3
:02024600022292
:020247000211A2
:0202480003733E
:0202490002C9E8
:02024A00016B46
:02024B00018D23
:02024C0002406E
:02024D00036B41
:02024E0001D0DD
:02024F00030AA0
:02025000018D1E
:0202510000A407
:02025200007337
:0202530001F5B3
:0202540002FBAB
:02025500022F76
:02025600030D96
:0202570001ECB8
:0202580003F3AE
:0202590003227E
:02025A00024C54
:02025B00011888
:02025C0000019F
:02025D0000554A
:02025E00003569
:02025F00029506
:02026000033A5F
:0202610002BDDC
:02026200028612
:0202630000CFCA
:0202640000A3F5
:0202650001DCBA
:02026600012471
:0202670003F69C
:020268000099FB
:0202690002276A
:02026A0000830F
:02026B0000622F
:02026C00034449
:02026D00037814
:02026E00001876
:02026F00010B81
:02027000030485
:02027100038107
:0202720000CDBD
:0202730001FA8E
:0202740002E99D
:02027500004146
:0202760003760D
:0202770002C2C1
:02027800012B58
:02027900027D04
:02027A00034E31
:02027B0000FB86
:02027C0001A8D7
:02027D0000403F
:02027E00007608
:02027F0002C1BA
:0202800000611B
:0202810003591F
:02028200027107
:0202830001393F
:02028400000177
:0202850003E193
:0202860002B2C2
:02028700031260
:02028800006113
:0202890002C2AF
:02028A00031B54
:02028B0003135B
:02028C0001125D
:02028D0000432C
:02028E000090DE
:02028F0002A5C6
:0202900003ED7C
:020291000294D5
:020292000183E6
:02029300006504
:0202940003A2C3
:02029500006007
:020296000085E1
:0202970002B3B0
:02029800024A18
:020299000365FB
:02029A0002DF81
:02029B00024D12
:02029C0000015F
:02029D00030755
:02029E00032833
:02029F0000E776
:0202A0000181DA
:0202A10002EF6A
:0202A20003E176
:0202A30003C492
:0202A40002BC9A
:0202A50001A6B0
:0202A60002173D
:0202A700025EF5
:0202A8000180D3
:0202A900033A16
:0202AA00000151
:0202AB00010050
:0202AC00001739
:0202AD0003E06C
:0202AE0003A8A3
:0202AF000371D9
:0202B00003F455
:0202B100029DAC
:0202B200018EBB
:0202B300039DA9
:0202B4000053F5
:0202B50003ED57
:0202B600035BE8
:0202B700004005
:0202B80000F153
:0202B9000077CC
:0202BA000289B7
:0202BB000394AA
:0202BC0000B48C
:0202BD0003B587
:0202BE00031625
:0202BF00020536
:0202C000005FDD
:0202C10002B188
:0202C200023AFE
:0202C30000E455
:0202C4000149EE
:0202C50002B481
:0202C600011A1B
:0202C700012014
:0202C80000171D
:0202C900000033
:0202CA000385AA
:0202CB0001FF31
:0202CC000373BA
:0202CD0000909F
:0202CE0002B27A
:0202CF0003E04A
:0202D00002CC5E
:0202D10002D257
:0202D20003FA2D
:0202D30002F334
:0202D40001180F
:0202D500006EB9
:0202D60003A083
:0202D70002041F
:0202D800039889
:0202D90001031F
:0202DA0003928D
:0202DB00013CE4
:0202DC00009C84
:0202DD0000F629
:0202DE000236E6
:0202DF0000EB32
:0202E000024CCE
:0202E1000036E5
:0202E200012BEE
:0202E3000053C6
:0202E40001789F
:0202E500010B0B
:0202E6000022F4
:0202E7000075A0
:0202E8000060B4
:0202E90002E42D
:0202EA0003A36C
:0202EB0002E32C
:0202EC00018D82
:0202ED00012AE4
:0202EE0003E724
:0202EF0000927B
:0202F000029B6F
:0202F1000211F8
:0202F20003A760
:0202F30000AE5B
:0202F4000317EE
:0202F500017591
:0202F60002F90B
:0202F70003758D
:0202F8000356AB
:0202F90003AD53
:0202FA000227D9
:0202FB00010FF1
:0202FC00034EAF
:0202FD00006B94
:0202FE00008B73
:0202FF00006E8F
:02030000017486
:02030100019762
:02030200036D89
:02030300022BCB
:02030400019F57
:020305000233C1
:0203060000EB0A
:02030700036A87
:0203080003E808
:02030900013CB5
:02030A0002D51A
:02030B0000BB35
:02030C0003915B
:02030D0000945A
:02030E00019656
:02030F000107E4
:0203100001EBFF
:0203110003E205
:02031200031FC7
:02031300007375
:020314000140A6
:0203150003845F
:0203160001D014
:02031700034F92
:0203180003C020
:02031900037966
:02031A00036579
:02031B000105DA
:02031C00026F6E
:02031D00024F8D
:02031E0003E5F5
:02031F000304D5
:020320000017C4
:020321000018C2
:02032200009841
:0203230003BB1A
:0203240000389F
:0203250001577E
:0203260002F7DC
:0203270001844F
:020328000201D0
:0203290001FFD2
:02032A0003A42A
:02032B0001A42B
:02032C00034785
:02032D0000646A
:02032E00016369
:02032F00033E8B
:02033000037C4C
:02033100003793
:020332000016B3
:02033300025175
:0203340002AE17
:02033500018441
:0203360003B60C
:0203370002B60C
:0203380000863D
:0203390003B20D
:02033A00035866
:02033B0003219C
:02033C0003427A
:02033D0000803E
:02033E00002A93
:02033F00001D9F
:0203400002C1F8
:02034100030AAD
:02034200007940
:0203430003199C
:02034400038034
:0203450002D0E4
:0203460002B5FE
:0203470001664D
:0203480001A30F
:0203490002B8F8
:02034A00007938
:02034B00034469
:02034C000001AE
:02034D00001F8F
:02034E00019814
:02034F0002EDBD
:0203500003297F
:0203510001DCCD
:02035200032284
:02035300039C09
:02035400007235
:0203550003544F
:02035600027A29
:0203570000A004
:02035800010B97
:02035900038619
:02035A00005F42
:02035B00006D33
:02035C00010B93
:02035D00001B83
:02035E0000019C
:02035F0003A9F0
:02036000028118
:02036100007D1D
:02036200021681
:02036300004553
:02036400008C0B
:0203650000ECAA
:0203660003ECA6
:02036700009400
:02036800027120
:02036900019100
:02036A0002840B
:02036B00025E30
:02036C0002B4D9
:02036D00019BF2
:02036E0001ABE1
:02036F0001FF8C
:02037000022F5A
:02037100025731
:02037200031373
:02037300017E09
:0203740003354F
:02037500025331
:02037600017410
:0203770003B2CF
:0203780000AAD9
:0203790000730F
:02037A0003A6D8
:02037B00035B22
:02037C00012559
:02037D00031A61
:02037E0003CAB0
:02037F00024436
:02038000021663
:0203810003492E
:02038200026413
:02038300006C0C
:0203840002E194
:0203850003C1B2
:020386000186EE
:0203870003244D
:02038800000D66
:02038900002F43
:02038A0003F27C
:02038B00003A36
:02038C00026508
:02038D00004E20
:02038E00004825
:02038F0001214A
:02039000022346
:02039100031156
:02039200002742
:02039300021B4B
:02039400021C49
:0203950001D392
:02039600036200
:02039700016300
:0203980002E978
:02039900037FE0
:02039A00032836
:02039B00025FFF
:02039C00021944
:02039D0003BF9C
:02039E00013329
:02039F0000CE8E
:0203A0000160FA
:0203A100023028
:0203A20002FB5C
:0203A30003F560
:0203A40001C690
:0203A5000190C5
:0203A60000E86D
:0203A70001D77C
:0203A80002DF72
:0203A90002F55B
:0203AA000184CC
:0203AB00026AE4
:0203AC0001FB53
:0203AD0000FF4F
:0203AE0000B39A
:0203AF0002C783
:0203B000015EEC
:0203B100031136
:0203B20002EA5D
:0203B3000067E1
:0203B400037BC9
:0203B5000088BE
:0203B6000066DF
:0203B700005DE7
:0203B800022A17
:0203B90003F946
:0203BA000069D8
:0203BB00028DB1
:0203BC0001E559
:0203BD000266D6
:0203BE000075C8
:0203BF0000E854
:0203C000010535
:0203C1000283B5
:0203C200038AAC
:0203C30002B185
:0203C400030034
:0203C50003EE45
:0203C6000163D1
:0203C70003B47D
:0203C80003A987
:0203C9000274BC
:0203CA0001BB75
:0203CB00038F9E
:0203CC000271BC
:0203CD000150DD
:0203CE00038B9F
:0203CF0000EC40
:0203D00001AC7E
:0203D1000271B7
:0203D2000051D8
:0203D30000CD5B
:0203D40001D254
:0203D50001BD68
:0203D6000354CE
:0203D70001CE55
:0203D80000CA59
:0203D9000056CC
:0203DA0000EA37
:0203DB00036CB1
:0203DC00012CF2
:0203DD0003E635
:0203DE0001C15B
:0203DF00014FCC
:0203E000018E8C
:0203E10001E633
:0203E2000228EF
:0203E300029383
:0203E40003CC48
:0203E50002E62E
:0203E600015CB8
:0203E700011102
:0203E8000056BD
:0203E90001E031
:0203EA0000D140
:0203EB0000B35D
:0203EC00017995
:0203ED00037D8E
:0203EE00038486
:0203EF0002BA50
:0203F00002B356
:0203F100016C9D
:0203F2000148C0
:0203F3000113F4
:0203F400000106
:0203F50001AC59
:0203F6000215EE
:0203F70001A65D
:0203F800012ED4
:0203F90001E21F
:0203FA000160A0
:0203FB0001A956
:0203FC000128D6
:0203FD0002AB51
:0203FE00016696
:0203FF0000F408
:020400000155A4
:0204010002EE09
:0204020002886E
:020403000155A1
:0204040000E610
:020405000335BD
:0204060002A052
:0204070001E60C
:02040800002FC3
:020409000104EC
:02040A0000529E
:02040B00026A83
:02040C000001ED
:02040D00022EBD
:02040E00026E7C
:02040F00029E4B
:0204100000FEEC
:020411000034B5
:020412000344A1
:0204130001984E
:0204140002FBE9
:02041500039949
:020416000001E3
:020417000124BE
:0204180000548E
:02041900034599
:02041A00000BD5
:02041B00011DC1
:02041C0001528B
:02041D0003E0FA
:02041E0000627A
:02041F0002CF0A
:02042000038156
:020421000331A5
:0204220002F9DD
:02042300005285
:020424000116BF
:02042500037C56
:02042600021DB5
:0204270003F0E0
:02042800004C86
:0204290002E6E9
:02042A0003D1FC
:02042B0003824A
:02042C0002C903
:02042D0002D6F5
:02042E00013794
:02042F0003D7F1
:020430000101C8
:02043100035B6B
:0204320001ECDB
:020433000015B2
:0204340001972E
:02043500028F34
:0204360003754C
:020437000122A0
:0204380000C9F9
:0204390003FAC4
:02043A0000A11F
:02043B000107B7
:02043C0003D2E9
:02043D000001BC
:02043E0000F1CB
:02043F00025B5E
:02044000005367
:0204410003476F
:020442000003B5
:0204430003AB09
:0204440003C0F3
:02044500021D96
:0204460000F8BC
:0204470002E1D0
:0204480002C4EC
:0204490003E5C9
:02044A0001E3CC
:02044B0000B7F8
:02044C0000B4FA
:02044D00028724
:02044E00033475
:02044F00001C8F
:0204500002F6B2
:0204510001D5D3
:02045200032382
:0204530001A303
:02045400007234
:0204550003039F
:02045600012380
:0204570002F7AA
:0204580000FEA4
:02045900000B96
:02045A00014B54
:02045B00024459
:02045C0000D1CD
:02045D00032674
:02045E0003CECB
:02045F0001ABEF
:0204600003F5A2
:02046100023D5A
:02046200006830
:0204630002B5E0
:0204640001B5E0
:0204650002543F
:0204660001D1C2
:0204670001C3CF
:0204680000147E
:02046900030787
:02046A0001345B
:02046B00018608
:02046C0003404B
:02046D0001F993
:02046E00019EED
:02046F00027019
:02047000010683
:02047100024A3D
:02047200037C09
:02047300022F56
:02047400004D39
:02047500001075
:02047600000A7A
:02047700032060
:020478000088FA
:0204790003CEB0
:02047A0000D2AE
:02047B0003C7B5
:02047C0001324B
:02047D0001EB91
:02047E00032059
:02047F00024E2B
:02048000014732
:02048100022F48
:02048200037DF8
:0204830003F97B
:0204840002BFB5
:02048500033B37
:02048600012C47
:0204870000A5CE
:0204880002066A
:0204890002046B
:02048A0001A6C9
:02048B0002412C
:02048C00017EEF
:02048D00015616
:02048E00001359
:02048F0000501B
:0204900000F971
:02049100014A1E
:0204920000CE9A
:02049300036400
:0204940001382D
:0204950002C89B
:0204960000E084
:02049700009DC6
:02049800036CF3
:02049900030955
:02049A000180DF
:02049B00012A34
:02049C0000B4AA
:02049D00031545
:02049E000395C4
:02049F0001CC8E
:0204A000019FBA
:0204A100034313
:0204A20003391C
:0204A300025401
:0204A40001B2A3
:0204A50002C093
:0204A600033A17
:0204A700012929
:0204A80002E46C
:0204A90003103E
:0204AA00009DB3
:0204AB0002CD80
:0204AC00012B22
:0204AD000391B9
:0204AE00022624
:0204AF00015DED
:0204B00001F851
:0204B100010345
:0204B20003D86D
:0204B300001D2A
:0204B40003C47F
:0204B500010D37
:0204B6000281C1
:0204B70002F948
:0204B8000195AC
:0204B90001C47C
:0204BA000340FD
:0204BB00020F2E
:0204BC000282BA
:0204BD00013309
:0204BE00030B2E
:0204BF00013BFF
:0204C0000141F8
:0204C10000E455
:0204C2000238FE
:0204C30003989C
:0204C40003AE85
:0204C500016BC9
:0204C600000A2A
:0204C70003131D
:0204C8000256DA
:0204C90001ED43
:0204CA00023BF3
:0204CB0003F03C
:0204CC0000012D
:0204CD0003B07A
:0204CE000086A6
:0204CF000057D4
:0204D000013FEA
:0204D10001A484
:0204D2000033F5
:0204D30003E440
:0204D40003F72C
:0204D50003F32F
:0204D60003A978
:0204D7000332EE
:0204D80002F030
:0204D900038B93
:0204DA0001F629
:0204DB000369B3
:0204DC000165B8
:0204DD0001B369
:0204DE000263B7
:0204DF0001CD4D
:0204E000029088
:0204E100039284
:0204E200000117
:0204E3000351C3
:0204E400013DD8
:0204E50001C84C
:0204E600013BD8
:0204E7000025EE
:0204E800035CB3
:0204E90003FC12
:0204EA000368A5
:0204EB000349C3
:0204EC00018E7F
:0204ED00006CA1
:0204EE00025CAE
:0204EF000220E9
:0204F00002BE4A
:0204F100038185
:0204F20003FB0A
:0204F300000106
:0204F40003AF54
:0204F50003679B
:0204F60003CD34
:0204F70001CC36
:0204F80002956B
:0204F900039A64
:0204FA00029569
:0204FB0001837B
:0204FC0002A557
:0204FD0000827B
:0204FE0001E318
:0204FF0001D822
:0205000003B145
:020501000305F0
:0205020003AE46
:0205030001C92C
:0205040001B83C
:02050500001ED6
:0205060001E50D
:020507000036BC
:0205080000826F
:02050900007878
:02050A00020DE0
:02050B00037972
:02050C000336B4
:02050D000001EB
:02050E0000D813
:02050F0000FDED
:0205100003F6F0
:02051100018760
:0205120001BA2C
:0205130000D90D
:02051400037270
:02051500025191
:02051600028958
:02051700016A77
:02051800008859
:0205190001B926
:02051A000313C9
:02051B0002EDEF
:02051C0003E0FA
:02051D0000C616
:02051E0000BB20
:02051F00031BBC
:02052000038155
:0205210001CB0C
:020522000218BD
:0205230000C610
:0205240002745F
:020525000001D3
:02052600028C45
:02052700037659
:02052800005E73
:020529000324A9
:02052A0001E7E7
:02052B000306C5
:02052C000121AB
:02052D000315B4
:02052E000001CA
:02052F00034285
:02053000007455
:02053100037451
:02053200005C6B
:0205330003863D
:02053400018B39
:0205350003427F
:0205360001C200
:02053700026060
:0205380002AF10
:0205390000813F
:02053A0001E7D7
:02053B00012F8E
:02053C0000E5D8
:02053D0003D5E4
:02053E000108B2
:02053F0003C3F4
:02054000038C2A
:02054100002494
:02054200018C2A
:020543000001B5
:0205440003FDB5
:02054500023979
:0205460003AB05
:0205470001842D
:0205480001347C
:02054900006848
:02054A00010AA4
:02054B0001406D
:02054C00036D3D
:02054D0002307A
:02054E00006645
:02054F00012881
:0205500003CBDB
:0205510003DFC6
:02055200013373
:0205530003D0D3
:0205540003FCA6
:0205550002386A
:0205560003425E
:0205570000138F
:0205580001DFC1
:02055900021886
:02055A00026835
:02055B0000B8E6
:02055C00032971
:02055D00001A82
:02055E00022475
:02055F00001A80
:02056000010B8D
:02056100004256
:02056200014452
:0205630003CEC5
:0205640003DCB6
:0205650001A1F2
:02056600018E04
:02056700004A48
:0205680002BBD4
:0205690001FD92
:02056A00036923
:02056B000090FE
:02056C00033E4C
:02056D00017A11
:02056E00018307
:02056F0001D1B8
:0205700001196F
:02057100024541
:02057200007C0B
:02057300031E65
:0205740001C2C2
:02057500003B49
:020576000292EF
:02057700010C75
:0205780000265B
:020579000094EC
:02057A00034636
:02057B0001621B
:02057C00004835
:02057D000190EB
:02057E00030B6D
:02057F0002C2B6
:0205800002F681
:02058100022155
:0205820002F382
:0205830000581E
:02058400017004
:020585000195DE
:0205860000581B
:020587000182EF
:0205880001145C
:02058900034726
:02058A000089E6
:02058B000182EB
:02058C0003105A
:02058D00024921
:02058E00007AF1
:02058F00032641
:02059000000960
:02059100011453
:020592000070F7
:02059300007CEA
:0205940003CF93
:0205950001352E
:0205960003B1AF
:02059700027DE3
:02059800010A56
:0205990002FC62
:02059A0000312E
:02059B0000BDA1
:02059C0000E677
:02059D00012C2F
:02059E00024514
:02059F00011940
:0205A00002C98E
:0205A10000ACAC
:0205A200004D0A
:0205A300036CE7
:0205A400000154
:0205A50000361E
:0205A600026DE4
:0205A700013D14
:0205A8000371DD
:0205A900000848
:0205AA00023A13
:0205AB00016FDE
:0205AC00014804
:0205AD000199B2
:0205AE000269E0
:0205AF0003F750
:0205B00002B493
:0205B1000346FF
:0205B2000288BD
:0205B3000189BC
:0205B400018CB8
:0205B50000093B
:0205B60002AB96
:0205B7000352ED
:0205B800001031
:0205B900032D10
:0205BA00032418
:0205BB0002A597
:0205BC000090AD
:0205BD0003FD3C
:0205BE00003407
:0205BF0000B387
:0205C00001290F
:0205C100017BBC
:0205C20001BF77
:0205C300023FF5
:0205C4000378BA
:0205C500021919
:0205C60003052B
:0205C7000353DC
:0205C800004AE7
:0205C9000365C8
:0205CA000253DA
:0205CB0002F438
:0205CC00035AD0
:0205CD0001CA61
:0205CE0000BC6F
:0205CF0002DB4D
:0205D000030125
:0205D100003DEB
:0205D20001CF57
:0205D3000329FA
:0205D40003EF33
:0205D50003F829
:0205D600034BD5
:0205D700022000
:0205D80000E43D
:0205D9000033ED
:0205DA0000DB44
:0205DB0003DB40
:0205DC000265B6
:0205DD0001D942
:0205DE0003CD4B
:0205DF00020315
:0205E0000273A4
:0205E1000342D3
:0205E20002C74E
:0205E300038C87
:0205E4000049CC
:0205E50003E928
:0205E60001858D
:0205E700006AA8
:0205E8000012FF
:0205E900002AE6
:0205EA00008F80
:0205EB00014DC0
:0205EC0002A16A
:0205ED0000F913
:0205EE0000F219
:0205EF00035AAD
:0205F000012FD9
:0205F100039C69
:0205F200000106
:0205F30003E91A
:0205F4000112F2
:0205F50001679C
:0205F6000306FA
:0205F7000039C9
:0205F800037B83
:0205F900037687
:0205FA000305F7
:0205FB000131CC
:0205FC000130CC
:0205FD00026B8F
:0205FE00007784
:0205FF00031ADD
:020600000249AD
:020601000225D0
:020602000301F2
:02060300015E96
:0206040001EA09
:0206050001846E
:020606000138B9
:020607000240AF
:020608000205E9
:020609000220CD
:02060A00005698
:02060B00029B50
:02060C000311D8
:02060D000009E2
:02060E000001E9
:02060F0001A444
:0206100003CD18
:02061100018561
:020612000200E4
:0206130000A243
:0206140000FCE8
:0206150002CC15
:020616000200E0
:0206170002AF30
:020618000122BD
:0206190001CC12
:02061A00014F8E
:02061B00007A63
:02061C00004894
:02061D0001E2F8
:02061E00029F39
:02061F000001D8
:0206200003B71E
:02062100039F35
:0206220001C114
:02062300005481
:0206240001BA19
:02062500008251
:02062600036966
:0206270001567A
:02062800015E71
:0206290002C10C
:02062A0000EEE0
:02062B00037D4D
:02062C00023397
:02062D000103C7
:02062E000009C1
:02062F00039036
:02063000000DBB
:020631000221A4
:02063200029A2A
:02063300026F54
:0206340002C6FC
:0206350000EFD4
:0206360002655B
:0206370000CFF2
:020638000201BD
:0206390003F7C5
:02063A0000DAE4
:02063B000300BA
:02063C0000E8D4
:02063D00013D7D
:02063E0002D4E4
:02063F0000AE0B
:0206400001F7C0
:020641000205B0
:02064200005A5C
:0206430000A312
:0206440002B6FC
:0206450002941D
:02064600006B47
:02064700009021
:02064800038429
:0206490001F4BA
:02064A0000B6F8
:02064B0000C9E4
:02064C00035950
:02064D0001B9F1
:02064E00016940
:02064F00001297
:0206500003871E
:0206510001C4E2
:0206520000F0B6
:02065300035D45
:0206540003841D
:0206550000099A
:0206560003BBE4
:0206570001910F
:0206580000ABF5
:0206590000554A
:02065A0000039B
:02065B00035149
:02065C00020793
:02065D00001487
:02065E00019207
:02065F0002C2D5
:02066000001187
:02066100021382
:0206620001860F
:02066300035042
:02066400007F15
:02066500024E43
:02066600021C74
:0206670001731D
:02066800020589
:0206690001AEE0
:02066A0002711B
:02066B00027A11
:02066C00001D6F
:02066D0001D8B2
:02066E00025038
:02066F00005138
:0206700002D2B4
:0206710000F196
:0206720001F392
:0206730001473D
:020674000283FF
:0206750001641E
:0206760001D1B0
:0206770003D8A6
:0206780003AECF
:0206790001B0CE
:02067A00026319
:02067B00027506
:02067C0002B9C1
:02067D00002A51
:02067E0003ED8A
:02067F00034C2A
:0206800003B9BC
:0206810002CDA8
:0206820002492B
:02068300001461
:02068400023E34
:0206850002FC75
:0206860000ACC6
:0206870001D29E
:02068800011956
:0206890001531B
:02068A000178F5
:02068B0000A9C4
:02068C00022B3F
:02068D00016BFF
:02068E0001FE6B
:02068F00039DC9
:0206900002293D
:0206910001AABC
:02069200024C18
:02069300006500
:02069400006DF7
:02069500030759
:0206960000F969
:02069700032F2F
:0206980002BDA1
:0206990000DD82
:02069A0002EC70
:02069B000272E9
:02069C00011843
:02069D0000B0AB
:02069E00033027
:02069F0002B4A3
:0206A0000181D6
:0206A10001FC5A
:0206A20002B4A0
:0206A300025BF8
:0206A40003CB86
:0206A500020150
:0206A600002131
:0206A7000174DC
:0206A8000168E7
:0206A9000390BC
:0206AA0003A4A7
:0206AB000184C8
:0206AC0001311A
:0206AD0002D376
:0206AE0002B98F
:0206AF000152F6
:0206B00003370E
:0206B100012323
:0206B20003F74C
:0206B30000B78E
:0206B400008FB5
:0206B50000CD76
:0206B60002E35D
:0206B700006BD6
:0206B80003201D
:0206B90000E35C
:0206BA0003BA81
:0206BB0001CE6E
:0206BC00016FCC
:0206BD00010C2E
:0206BE00033FF8
:0206BF0002C176
:0206C0000270C6
:0206C1000151E5
:0206C200028BA9
:0206C3000167CD
:0206C4000156DD
:0206C50001EA48
:0206C60002DA56
:0206C700000130
:0206C800015CD3
:0206C900030E1E
:0206CA00015DD0
:0206CB0000B37A
:0206CC00019A91
:0206CD0000C665
:0206CE0003081F
:0206CF000159CF
:0206D00000D355
:0206D10002B570
:0206D200005FC7
:0206D3000357CB
:0206D4000143E0
:0206D50003F030
:0206D600014BD6
:0206D7000365B9
:0206D8000072AE
:0206D90002C954
:0206DA0000E638
:0206DB000163B9
:0206DC00030118
:0206DD0000A378
:0206DE00014ECB
:0206DF00002AEF
:0206E000008197
:0206E10001C056
:0206E20003789B
:0206E300015ABA
:0206E400033BD6
:0206E5000113FF
:0206E60002FA16
:0206E700012DE3
:0206E800000A06
:0206E9000011FE
:0206EA0001E528
:0206EB00024BC0
:0206EC000229E1
:0206ED00028881
:0206EE00009377
:0206EF00019771
:0206F000030302
:0206F10002679E
:0206F20001768F
:0206F3000205FE
:0206F4000209F9
:0206F500039A66
:0206F60000F111
:0206F700006A97
:0206F80000827E
:0206F90003D626
:0206FA000126D7
:0206FB000353A7
:0206FC0001609B
:0206FD00027089
:0206FE0001C930
:0206FF0002D225
:020700000111E5
:02070100002FC7
:0207020003F8FA
:0207030000559F
:020704000152A0
:02070500031ED1
:020706000206E9
:02070700027975
:020708000107E7
:0207090002628A
:02070A00035991
:02070B0000E00C
:02070C00000AE1
:02070D00020BDD
:02070E000036B3
:02070F000001E7
:020710000301E3
:0207110002ECF8
:0207120001984C
:0207130000FDE7
:020714000332AE
:02071500026D73
:020716000108D8
:02071700017966
:02071800025A83
:0207190002627A
:02071A00006B72
:02071B00036C6D
:02071C00027F5A
:02071D0000DDFD
:02071E0001DDFB
:02071F0000F9DF
:0207200001C80E
:020721000005D1
:0207220003854D
:02072300004193
:02072400025180
:0207250001ECE5
:02072600036965
:02072700033E8F
:020728000201CC
:02072900006767
:02072A00034684
:02072B00039237
:02072C00025E6B
:02072D0000DEEC
:02072E00006465
:02072F00026264
:0207300000695E
:0207310000289E
:02073200037052
:02073300002E96
:02073400006F54
:0207350002615F
:02073600004E73
:0207370000A11F
:0207380001E3DB
:0207390002BDFF
:02073A0001F4C8
:02073B0002704A
:02073C00033484
:02073D00036354
:02073E00024077
:02073F00032B8A
:0207400001A313
:0207410001466F
:0207420001CFE5
:02074300031A97
:02074400011F93
:0207450003F6B9
:0207460003D4DA
:02074700010EA1
:02074800001798
:02074900017E2F
:02074A0001F2BA
:02074B00024169
:02074C00035652
:02074D00023A6E
:02074E00001396
:02074F0002287E
:0207500001DCCA
:0207510000AFF7
:02075200004164
:02075300024F53
:0207540000B3F0
:0207550001663B
:02075600027E21
:02075700022F6F
:0207580002CBD2
:0207590002C0DC
:02075A00009D00
:02075B00030A8F
:02075C0000D1CA
:02075D0000D6C4
:02075E00021C7B
:02075F0003C3D2
:02076000010A8C
:02076100014A4B
:0207620003FD95
:0207630000B7DD
:02076400032B65
:02076500032A65
:0207660000A0F1
:020767000396F7
:02076800003659
:0207690002C1CB
:02076A00039BEF
:02076B00034049
:02076C00024D3C
:02076D00017811
:02076E000198F0
:02076F00039CE9
:020770000095F2
:0207710001ACD9
:02077200002A5B
:0207730001740F
:02077400030A76
:02077500028AF6
:0207760001AFD1
:02077700024F2F
:02077800025E1F
:0207790003EB90
:02077A0001225A
:02077B00004D2F
:02077C0003CFA9
:02077D00022B4D
:02077E0001FD7B
:02077F0001FF78
:0207800001086E
:0207810002096B
:02078200001065
:0207830002482A
:0207840003F779
:020785000080F2
:0207860003600E
:0207870000333D
:0207880002AEBF
:0207890002A3C9
:02078A0000016C
:02078B0002D09A
:02078C00033830
:02078D000178F1
:02078E0001EF79
:02078F00011453
:02079000037CE8
:0207910001D78E
:0207920000F075
:0207930001AEB5
:0207940001154D
:02079500004121
:02079600006CF5
:0207970002EC72
:02079800012F2F
:0207990000C29C
:02079A00034C0E
:02079B00028ECC
:02079C000066F5
:02079D0002CC8C
:02079E0003D482
:02079F0001ACAB
:0207A000029FB6
:0207A100011144
:0207A2000383CF
:0207A300008EC6
:0207A40002E968
:0207A5000165EC
:0207A60002ED62
:0207A7000289C5
:0207A8000358F4
:0207A9000097B7
:0207AA00019EAE
:0207AB0001DE6D
:0207AC0000E269
:0207AD000253F5
:0207AE0001F058
:0207AF000398AD
:0207B000034004
:0207B10000F94D
:0207B20000F055
:0207B3000369D8
:0207B40000C77C
:0207B5000184BD
:0207B60002350A
:0207B7000389B4
:0207B800024CF1
:0207B9000360DB
:0207BA0003C575
:0207BB000093A9
:0207BC0002FC3D
:0207BD00004EEC
:0207BE0001F048
:0207BF000162D5
:0207C0000041F6
:0207C100003FF7
:0207C200032E04
:0207C30002F63C
:0207C400019A98
:0207C5000135FC
:0207C600000130
:0207C700004BE5
:0207C800007FB0
:0207C90003210A
:0207CA0002CE5D
:0207CB00023DED
:0207CC000040EB
:0207CD0003C166
:0207CE0003C462
:0207CF000367BE
:0207D00001E145
:0207D1000283A1
:0207D20000B76E
:0207D300000024
:0207D40003FB25
:0207D5000060C2
:0207D60000FD24
:0207D70001BC63
:0207D800029E7F
:0207D90003C05B
:0207DA000155C7
:0207DB0003AD6C
:0207DC00032DEB
:0207DD000056C4
:0207DE0003C155
:0207DF000221F5
:0207E0000040D7
:0207E100030310
:0207E2000368AA
:0207E30002848E
:0207E40001868C
:0207E50001B75A
:0207E60000779A
:0207E700033FCE
:0207E80003A369
:0207E900034DBE
:0207EA0000010C
:0207EB00039B6E
:0207EC000011FA
:0207ED00037097
:0207EE0003DF27
:0207EF00039D68
:0207F000010105
:0207F100027B89
:0207F200029370
:0207F30003EB16
:0207F400013CC6
:0207F5000158A9
:0207F6000328D6
:0207F70001AF50
:0207F8000008F7
:0207F900016598
:0207FA000111EB
:0207FB00027189
:0207FC000100FA
:0207FD000051A9
:0207FE000010E9
:0207FF000001F7
:00000001ff
