:020000040000FA
:020000000000FE
:02000100007F7E
:0200020001FFFC
:02000300007E7D
:0200040003FCFB
:02000500007881
:0200060001F205
:02000700006A8D
:0200080003E013
:020009000052A3
:02000A0001C132
:02000B00002DC6
:02000C0003945B
:02000D0003F7F7
:02000E0001559A
:02000F0003AE3E
:020010000301EA
:02001100034F9B
:02001200009656
:0200130002D712
:020014000210D8
:020015000243A4
:02001600036D78
:02001700019056
:0200180000AA3C
:0200190000BB2A
:02001A0001C320
:02001B0003C11F
:02001C0002B62A
:02001D0002A03F
:02001E0003805D
:02001F00015589
:02002000001FBF
:0200210003DDFD
:02002200008F4D
:020023000235A4
:0200240000CE0C
:02002500005A7F
:0200260000D800
:0200270002498C
:0200280000AC2A
:020029000000D5
:02002A0000468E
:02002B00017D55
:02002C0003A32C
:02002D0002BB14
:02002E0002C20C
:02002F0003B814
:02003000019E2F
:0200310000725B
:02003200003597
:0200330000E6E5
:02003400028543
:020035000111B7
:02003600008B3D
:0200370000F1D6
:02003800024480
:02003900008243
:02003A0003AD14
:02003B0003C3FD
:02003C0000C4FE
:02003D0002B00F
:02003E00018639
:02003F00014678
:0200400001F0CD
:02004100038337
:020042000200BA
:02004300016555
:0200440001B306
:0200450002E9CE
:020046000107B0
:02004700000CAB
:0200480003F8BB
:0200490000CBEA
:02004A0002842E
:02004B0001248E
:02004C0000A909
:02004D0001149C
:02004E0002644A
:02004F00009916
:0200500003B3F8
:0200510003B0FA
:0200520000921A
:02005300025752
:0200540000FFAB
:02005500008A1F
:0200560000F8B0
:0200570002485D
:02005800007A2C
:02005900038E14
:02005A0003831E
:02005B0000594A
:02005C00021090
:02005D0000A7FA
:02005E00001E82
:02005F0000752A
:0200600001ABF2
:0200610003C1D9
:0200620002B5E5
:02006300028811
:0200640003395E
:0200650000C8D1
:02006600033560
:02006700027E17
:0200680002A5EF
:0200690003A8EA
:02006A0001880B
:02006B0000444F
:02006C0003DBB4
:02006D00004E43
:02006E00019CF3
:02006F0003C5C7
:0200700002C9C3
:0200710002A6E5
:02007200035E2B
:0200730000EF9C
:0200740003592E
:02007500029CEB
:0200760002B8CE
:0200770003ADD7
:0200780001790C
:02007900001E67
:02007A00039AE7
:02007B0003ED93
:02007C0001176A
:02007D00031767
:02007E0001EE91
:02007F00019BE3
:02008000021E5E
:02008100037604
:0200820001A3D8
:0200830000A5D6
:02008400007CFE
:02008500012652
:0200860002A5D1
:0200870000F87F
:02008800001E58
:0200890000165F
:02008A0000E292
:02008B000280F1
:02008C0000F181
:02008D0000333E
:02008E00004828
:02008F00012D41
:0200900002E389
:02009100016B01
:0200920000C3A9
:0200930000EB80
:0200940001E386
:0200950003AABC
:02009600024125
:0200970001A7BF
:0200980001DC89
:0200990002E083
:02009A0000B1B3
:02009B0003510F
:02009C0002BEA2
:02009D0002F966
:02009E00000060
:02009F0001D589
:0200A0000076E8
:0200A10003E476
:0200A200001D3F
:0200A300012238
:0200A40002F365
:0200A500018FC9
:0200A60000F662
:0200A70001272F
:0200A800022331
:0200A90003E86A
:0200AA000278DA
:0200AB0001D181
:0200AC0001F45D
:0200AD0002DF70
:0200AE000093BD
:0200AF0003103C
:0200B0000254F8
:0200B1000261EA
:0200B200033514
:0200B30000D17A
:0200B400033314
:0200B500025DEA
:0200B600024DF9
:0200B700030440
:0200B8000080C6
:0200B90002C281
:0200BA0001CA79
:0200BB000197AB
:0200BC00022917
:0200BD00037FBF
:0200BE00019AA5
:0200BF00007AC5
:0200C000001D21
:0200C1000084B9
:0200C20001AE8D
:0200C300039B9D
:0200C400024BED
:0200C50001BE7A
:0200C60001F344
:0200C70002EA4B
:0200C80000A393
:0200C900031E14
:0200CA00025AD8
:0200CB000257DA
:0200CC0003151A
:0200CD0000939E
:0200CE0002D25C
:0200CF0001D15D
:0200D000018F9E
:0200D100020D1E
:0200D200034ADF
:0200D3000146E4
:0200D400000129
:0200D500037BAB
:0200D60003B372
:0200D70000A87F
:0200D800025CC8
:0200D90000CD58
:0200DA0003FB26
:0200DB0003E63A
:0200DC00008E94
:0200DD0001F32D
:0200DE0000130D
:0200DF0002F02D
:0200E000028993
:0200E10002DC3F
:0200E20003EC2D
:0200E30001B664
:0200E400003BDF
:0200E500037A9C
:0200E6000374A1
:0200E7000028EF
:0200E80001967F
:0200E90003BD55
:0200EA00029D75
:0200EB000236DB
:0200EC00028987
:0200ED0003937B
:0200EE000157B8
:0200EF0003D23A
:0200F000030506
:0200F10002F01B
:0200F200039178
:0200F30000EB20
:0200F40002FB0D
:0200F50001C147
:0200F600013EC9
:0200F700017195
:0200F800025AAA
:0200F90003F909
:0200FA00024DB5
:0200FB000157AB
:0200FC000115EC
:0200FD00018878
:0200FE0002B04E
:0200FF00008C73
:02010000031CDE
:0201010002609A
:020102000257A2
:020103000302F5
:02010400005F9A
:02010500027086
:020106000133C3
:0201070000A94D
:0201080000D124
:0201090001AA49
:02010A000336BA
:02010B0001737E
:02010C00006190
:02010D000000F0
:02010E0000509F
:02010F0001509D
:020110000301E9
:02011100016289
:02011200007378
:020113000034B6
:0201140000A346
:0201150001C324
:02011600039153
:02011700020DD7
:020118000139AB
:020119000112D1
:02011A00019A48
:02011B0002D010
:02011C0000B32E
:02011D0003439A
:02011E0002815C
:02011F00026C70
:020120000303D7
:02012100004795
:020122000237A2
:0201230000D307
:02012400001CBD
:02012500000FC9
:0201260000AE29
:0201270001F9DC
:0201280003EEE4
:02012900028E44
:02012A0001D9F9
:02012B0001CE03
:02012C00026D62
:02012D0003B518
:02012E0001A826
:02012F0000448A
:02013000038941
:02013100037752
:02013200000EBD
:02013300014E7B
:02013400033690
:0201350001C601
:0201360000FEC9
:0201370000DEE8
:0201380001655F
:0201390002942E
:02013A0000695A
:02013B0002E6DA
:02013C000209B6
:02013D0001D3EC
:02013E0002437A
:02013F00035962
:020140000114A8
:02014100037643
:02014200027C3D
:02014300022890
:0201440002793E
:02014500036F46
:020146000109AD
:0201470003486B
:02014800022B88
:0201490001B102
:02014A0001DCD6
:02014B0002AA06
:02014C00001B96
:02014D00022F7F
:02014E0000E7C8
:02014F0000416D
:02015000003D70
:0201510000DCD0
:02015200021D8C
:020153000000AA
:02015400028423
:0201550001AAFD
:02015600017234
:0201570001DACB
:0201580002E3C0
:02015900008D17
:02015A0002D8C9
:02015B0001C2DF
:02015C00014D53
:02015D00017728
:02015E0002425B
:02015F0003ABF0
:0201600001B4E8
:02016100005C40
:0201620003A3F5
:0201630003890E
:02016400000D8C
:02016500013067
:0201660002F0A5
:02016700014E47
:02016800004A4B
:0201690003E4AD
:02016A00001B78
:02016B0000EFA3
:02016C00025F30
:02016D00006D23
:02016E00031775
:02016F00025D2F
:0201700002404B
:0201710002BECC
:0201720003D9AF
:02017300018EFB
:0201740003DFA7
:0201750002CCBA
:02017600025332
:0201770002750F
:02017800033151
:020179000088FC
:02017A00027908
:02017B0001057C
:02017C00002A57
:02017D0003E895
:02017E0000403F
:02017F0001324B
:0201800002BCBF
:0201810000DF9D
:02018200039BDD
:0201830002F088
:0201840002DD9A
:02018500036213
:02018600007EF9
:02018700023341
:02018800007FF6
:0201890003630E
:02018A0002DD94
:02018B0002EF81
:02018C000398D6
:02018D0000D799
:02018E0002ACC1
:02018F00011855
:02019000001A53
:0201910003B2B7
:0201920003E088
:0201930000A3C7
:0201940001FB6D
:0201950003E97C
:02019600026CF9
:020197000183E2
:02019800012F35
:020199000170F3
:02019A0002441D
:02019B0003ADB2
:02019C0001AAB6
:02019D00003A26
:02019E00035EFE
:02019F00031546
:0201A0000360FA
:0201A100003D1F
:0201A20001AEAC
:0201A30003B1A6
:0201A400024611
:0201A500016EE9
:0201A60001282E
:0201A7000173E2
:0201A800025102
:0201A90003C091
:0201AA0001C092
:0201AB00005200
:0201AC000375D9
:0201AD00032825
:0201AE00036CE0
:0201AF0000410D
:0201B00001A6A6
:0201B100039CAD
:0201B200022128
:0201B300013613
:0201B40000DB6E
:0201B500010F38
:0201B60001D373
:0201B70003251E
:0201B80001073D
:0201B9000377CA
:0201BA000276CB
:0201BB0002043C
:0201BC0002201F
:0201BD0002C975
:0201BE0000013E
:0201BF0001C776
:0201C000001A23
:0201C10002FA40
:0201C2000268D1
:0201C3000263D5
:0201C40002EB4C
:0201C50003FF36
:0201C60001A096
:0201C70003CE65
:0201C8000287AC
:0201C90001CD66
:0201CA00019F93
:0201CB0001FC35
:0201CC0002E54A
:0201CD000059D7
:0201CE000259D4
:0201CF0000E34B
:0201D00003F931
:0201D100039990
:0201D20003C464
:0201D3000079B1
:0201D40001B96F
:0201D5000382A3
:0201D60001D650
:0201D70000B373
:0201D800001A0B
:0201D900000A1A
:0201DA000083A0
:0201DB0001869B
:0201DC0003110D
:0201DD000125FA
:0201DE0003C25A
:0201DF0002E735
:0201E000029586
:0201E10002CA50
:0201E200038890
:0201E30000CD4D
:0201E400029A7D
:0201E50000EE2A
:0201E60003CA4A
:0201E700032DE6
:0201E8000317FB
:0201E900038889
:0201EA00007F94
:0201EB0001FD14
:0201EC00000110
:0201ED00028C82
:0201EE00019C72
:0201EF000132DB
:0201F000014EBE
:0201F10001F01B
:0201F2000317F1
:0201F30000C347
:0201F40002F512
:0201F50001AB5C
:0201F60000E621
:0201F70000A660
:0201F80000EA1B
:0201F90001B251
:0201FA0002FF02
:0201FB0000D032
:0201FC000324DA
:0201FD0001FC03
:0201FE000158A6
:0201FF000137C6
:02020000019962
:02020100027E7B
:0202020003E710
:0202030001D226
:02020400003FB9
:020205000330C4
:0202060002A252
:0202070002965D
:02020800030DE4
:020209000005EE
:02020A00018071
:02020B00037B73
:02020C0001F8F7
:02020D0000F7F8
:02020E00007678
:02020F00007677
:0202100000F8F4
:0202110001F9F1
:02021200037C6B
:02021300017E6A
:020214000001E7
:020215000304E0
:0202160002875D
:0202170002895A
:02021800030BD6
:02021900000DD6
:02021A00018E53
:02021B00038E50
:02021C00020DD1
:02021D00010BD3
:02021E00008856
:02021F0000835A
:0202200000FCE0
:0202210001F4E6
:02022200036A6D
:02022300015E7A
:0202240003D005
:0202250002C015
:02022600022DA7
:020227000217BC
:02022800027F53
:0202290003646C
:02022A0000C60C
:02022B0002A52A
:02022C000100CF
:02022D0003D8F4
:02022E00032C9F
:02022F0002FDCE
:02023000034980
:020231000012B9
:02023200015673
:020233000317AF
:02023400015275
:020235000009BE
:02023600033C87
:0202370002E9DA
:020238000312AF
:0202390003B50B
:02023A0000D3EF
:02023B00026B54
:02023C00007E42
:02023D00030BB1
:02023E000213A9
:02023F00019428
:02024000018F2C
:020241000204B5
:0202420002F2C6
:02024300005A5F
:02024400023C7A
:02024500009621
:0202460003694A
:0202470002B5FE
:02024800027A38
:0202490002B8F9
:02024A00036E41
:02024B00009D14
:02024C0002436B
:02024D0000624D
:02024E0002F8B4
:02024F000207A4
:02025000018D1E
:02025100018A20
:0202520001FFAA
:0202530002EBBC
:02025400004F59
:0202550002297C
:02025600007A2C
:02025700034260
:02025800028022
:0202590002356C
:02025A00026040
:02025B0003019D
:02025C00001888
:02025D0001A5F9
:02025E0003A8F3
:02025F0002217A
:02026000010F8C
:02026100007229
:02026200004B4F
:02026300009900
:02026400015C3B
:02026500029302
:02026600003F57
:02026700026033
:0202680000F69E
:0202690003FF91
:02026A00037D12
:02026B00036F1F
:02026C0003D5B8
:02026D0000AEE1
:02026E0001FB92
:02026F0003BCCE
:0202700001F09B
:020271000098F3
:0202720003B2D5
:02027300034046
:02027400034045
:0202750003B3D1
:020276000099ED
:0202770001F292
:0202780003BCC5
:0202790001F989
:02027A0000A8DA
:02027B0003C9B5
:02027C00035C21
:02027D0003611B
:02027E0003D7A4
:02027F0000BFBE
:02028000021862
:0202810003E296
:02028200021E5A
:0202830000CAAF
:0202840003E78E
:020285000375FF
:020286000374FF
:0202870003E38F
:0202880000C2B2
:0202890002125F
:02028A0003D19E
:02028B0002016E
:02028C0000A0D0
:02028D0003B0BC
:02028E00032E3D
:02028F00031D4D
:02029000037AEF
:02029100004724
:020292000183E6
:02029300032E38
:0202940001481F
:0202950003D094
:0202960002C79D
:02029700022D36
:02029800020161
:0202990002431E
:02029A0002F46C
:02029B0000124F
:02029C00019EC1
:02029D000398C4
:02029E0002005C
:02029F0000D588
:0202A000001844
:0202A10003C791
:0202A20003E473
:0202A300006EEB
:0202A4000165F2
:0202A50002C98C
:0202A600009ABC
:0202A70002D67D
:0202A8000180D3
:0202A9000096BD
:0202AA0000183A
:0202AB0000054C
:0202AC00005FF1
:0202AD00012529
:0202AE000257F5
:0202AF0003F456
:0202B00001FD4E
:0202B1000070DB
:0202B2000350F7
:0202B300029AAD
:0202B400024FF7
:0202B5000270D5
:0202B60002FB49
:0202B70003F151
:0202B8000151F2
:0202B900031C24
:0202BA000151F0
:0202BB0003F04E
:0202BC0002F945
:0202BD00026CD1
:0202BE00024AF2
:0202BF000290AB
:0202C0000341F8
:0202C100005BE0
:0202C20001DE5B
:0202C30003CB6B
:0202C400022115
:0202C50000E057
:0202C60000082E
:0202C70003989A
:0202C80003929F
:0202C90003F43C
:0202CA0000BE74
:0202CB0001F13F
:0202CC00038CA1
:0202CD00018F9F
:0202CE0003FA31
:0202CF0002CD5E
:0202D000020822
:0202D10001AB7F
:0202D20001B574
:0202D300022700
:0202D400030025
:0202D5000040E7
:0202D60001E83D
:0202D70003F62C
:0202D800026BB7
:0202D9000147DB
:0202DA00008A98
:0202DB000033EE
:0202DC000043DD
:0202DD0000B966
:0202DE00019687
:0202DF0002D843
:0202E00000819B
:0202E100028F8A
:0202E200010415
:0202E30003DE38
:0202E400031DF8
:0202E50002C253
:0202E60002CD47
:0202E700033CD6
:0202E800001103
:0202E900014BC7
:0202EA0002EA26
:0202EB0000ED24
:0202EC000356B7
:0202ED000222EB
:0202EE000154B9
:0202EF0000EA23
:0202F00000E428
:0202F1000142C8
:0202F200020404
:0202F300032BDB
:0202F40000B553
:0202F50002A362
:0202F60000F412
:0202F70003A959
:0202F80002C240
:0202F900023DC4
:0202FA00021CE4
:0202FB00025EA1
:0202FC000304F9
:0202FD00000CF3
:0202FE00017687
:0202FF000344B6
:02030000017486
:020301000006F4
:0203020002FBFC
:020303000253A3
:02030400020CE9
:020305000227CD
:0203060002A54E
:0203070003846D
:0203080000C52E
:02030900026789
:02030A00006B86
:02030B0002D11D
:02030C00019856
:02030D0000C02E
:02030E000049A4
:02030F000034B8
:02031000007F6C
:02031100012BBE
:020312000238AF
:0203130003A540
:02031400017373
:0203150003A142
:02031600022FB4
:02031700011EC5
:02031800006D76
:02031900001CC6
:02031A00002BB6
:02031B00009947
:02031C00016876
:02031D00029547
:02031E000023BA
:02031F000210CA
:02032000005C7F
:020321000307D0
:020322000211C6
:02032300017A5D
:02032400014393
:02032500016A6B
:0203260001EFE5
:0203270002D4FE
:020328000016BD
:0203290001B819
:02032A0003B717
:02032B000215B9
:02032C0000D1FE
:02032D0003EAE1
:02032E00036268
:02032F00033891
:02033000036B5D
:0203310003FCCB
:0203320000EADF
:02033300023690
:0203340003DFE5
:0203350001E5E0
:0203360000487D
:020337000309B8
:0203380002269B
:0203390001A021
:02033A00017749
:02033B0001AB14
:02033C00023B82
:02033D00032794
:02033E0000704D
:02033F000215A5
:020340000016A5
:02034100027444
:02034200012D8B
:02034300004276
:0203440003B301
:02034500037F34
:0203460003A80A
:02034700002B89
:02034800010AA8
:0203490002446C
:02034A0003DAD4
:02034B0001CBE4
:02034C00001699
:02034D0002BDEF
:02034E0001BEEE
:02034F00011A91
:0203500000D1DA
:0203510000E2C8
:02035200014E5A
:02035300021492
:02035400033470
:0203550000AFF7
:02035600028320
:0203570000B2F2
:02035800033A66
:02035900021C84
:02035A00015848
:02035B0000EEB2
:02035C0000DDC2
:02035D00012578
:02035E0001C7D5
:02035F0002C2D8
:02036000001685
:0203610001C3D6
:0203620003C9CD
:0203630002286E
:0203640000E0B7
:0203650003F1A2
:02036600035A38
:02036700031B76
:0203680003365A
:0203690003A8E7
:02036A0000721F
:02036B000195FA
:02036C0003107C
:02036D0000E3AB
:02036E00030D7D
:02036F000190FB
:02037000006A21
:02037100039CEB
:02037200032561
:02037300030580
:02037400033D47
:0203750003CDB6
:0203760000B3D2
:0203770001F093
:020378000385FB
:02037900017011
:02037A0003B2CC
:02037B00024B33
:02037C00013A44
:02037D000080FE
:02037E00001D60
:02037F0000106C
:02038000005922
:0203810000F882
:0203820001ED8B
:0203830003383D
:0203840000DA9D
:0203850002D1A3
:02038600011E56
:0203870003C0B1
:0203880002B8B9
:0203890002066A
:02038A0001A8C8
:02038B0001A1CE
:02038C0001EE80
:02038D000291DB
:02038E000388E2
:02038F0000D597
:020390000277F2
:02039100006DFD
:0203920002B8AF
:02039300015710
:02039400004C1B
:020395000394CF
:02039600033131
:0203970003223F
:020398000368F8
:02039900000161
:02039A0000EF72
:02039B0002302E
:02039C0003C696
:02039D0001AFAE
:02039E0003EC6E
:02039F00027CDE
:0203A0000160FA
:0203A1000097C3
:0203A200002237
:0203A300000058
:0203A400003126
:0203A50000B5A1
:0203A600018CC8
:0203A70002B79B
:0203A80000341F
:0203A90002034D
:0203AA0000262B
:0203AB00029BB3
:0203AC000163EB
:0203AD00007DD1
:0203AE0003E961
:0203AF0003A8A1
:0203B00003B890
:0203B100001B2F
:0203B20000D079
:0203B30001D770
:0203B400033014
:0203B50000DA6C
:0203B60002D66D
:0203B70001241F
:0203B80003C37D
:0203B90002B48C
:0203BA0001F64A
:0203BB00018AB5
:0203BC00016ED0
:0203BD0001A499
:0203BE00022B10
:0203BF00030237
:0203C000002B10
:0203C10001A495
:0203C200036FC7
:0203C3000189AE
:0203C40003F53F
:0203C50002B084
:0203C60001BD77
:0203C70001191A
:0203C80000C66D
:0203C90000C36F
:0203CA00011020
:0203CB0001AD82
:0203CC00029994
:0203CD0003D655
:0203CE000163C9
:0203CF00033FEA
:0203D000016BBF
:0203D10003E641
:0203D20002B077
:0203D30001CB5C
:0203D4000134F2
:0203D50000EC3A
:0203D60000F431
:0203D700014BD8
:0203D80001F131
:0203D90002E53B
:0203DA000029F8
:0203DB0001BB64
:0203DC00039C80
:0203DD0001CB52
:0203DE000049D4
:0203DF00031504
:0203E0000230E9
:0203E100019980
:0203E2000150C8
:0203E3000155C2
:0203E40001A96D
:0203E500024ACA
:0203E6000339D9
:0203E70000769E
:0203E800020110
:0203E90003D936
:0203EA0001FF11
:0203EB0000739D
:0203EC000334D8
:0203ED000242CA
:0203EE00019D6F
:0203EF000146C5
:0203F000013CCE
:0203F100017F8A
:0203F200020FF8
:0203F30002EB1B
:0203F4000015F2
:0203F500018B7A
:0203F600034EB4
:0203F700015EA5
:0203F80003BA46
:0203F90002639D
:0203FA000158A8
:0203FB00009967
:0203FC000026D9
:0203FD000000FE
:0203FE000026D7
:0203FF00009765
:020400000155A4
:02040100025E99
:0204020003B441
:020403000155A1
:020404000341B2
:0204050001797B
:0204060003FDF4
:0204070002CC25
:0204080001E60B
:02040900014CA4
:02040A0000FDF3
:02040B0000F9F6
:02040C000140AD
:02040D0001D21A
:02040E0002AE3C
:02040F0003D612
:020410000148A1
:020411000306E0
:02041200010DDA
:02041300035F85
:0204140001FCE9
:0204150000E302
:020416000015CF
:02041700039050
:02041800035689
:02041900036678
:02041A0003C01D
:02041B0000647B
:02041C0001528B
:02041D00028952
:02041E00000BD1
:02041F0001D604
:0204200003EAED
:0204210002498E
:0204220000F0E8
:0204230003E1F3
:02042400031CB7
:02042500029F34
:02042600026C66
:0204270002824F
:0204280002E1EF
:02042900038846
:02042A00007957
:02042B0001B31B
:02042C00033596
:02042D000100CC
:02042E000314B5
:02042F0001705A
:020430000015B5
:020431000302C4
:0204320002378F
:0204330001B511
:02043400017A4B
:0204350001883C
:0204360001DEE5
:02043700027C45
:0204380003625D
:02043900009031
:02043A000206B8
:02043B0003C3F9
:02043C0001C8F5
:02043D000014A9
:02043E0002A812
:02043F00018436
:0204400000A713
:020441000011A8
:0204420003C2F3
:0204430003BBF9
:0204440003FAB9
:02044500008134
:02044600014F64
:0204470002634E
:0204480003BEF1
:02044900016050
:02044A00034964
:02044B00017935
:02044C0003EFBC
:02044D0002AB00
:02044E0001AEFD
:02044F0000F7B4
:02045000008723
:02045100005C4D
:02045200007830
:0204530000DACD
:02045400018223
:02045500027033
:0204560003A4FD
:02045700011E84
:0204580002DDC3
:0204590000E2BF
:02045A00032D70
:02045B0001BDE1
:02045C0000930B
:02045D0003AEEC
:02045E00030F8A
:02045F0002B5E4
:0204600002A0F8
:0204610002D0C7
:02046200034550
:02046300000097
:0204640000FF97
:02046500024350
:0204660003CDC4
:02046700019AF8
:0204680003ADE2
:0204690002048B
:02046A0000A0F0
:02046B0003800C
:02046C0002A5E7
:02046D00020E7D
:02046E0001BCCF
:02046F0001ADDD
:0204700001E3A6
:02047100025D2A
:02047200031B6A
:02047300001D6A
:02047400016322
:0204750002ED96
:0204760000BBC9
:0204770002CCB5
:0204780001225F
:0204790003BAC4
:02047A000297E7
:02047B0001B6C8
:02047C00011964
:02047D0000C0BD
:02047E0000AAD2
:02047F0000D7A4
:02048000014732
:0204810001FB7D
:0204820002F185
:02048300002A4D
:0204840001A7CE
:0204850003660C
:0204860001680B
:0204870003ACC4
:0204880002343C
:0204890000FE73
:02048A00000A66
:02048B00035913
:02048C0002EB81
:02048D0002BFAC
:02048E0002D595
:02048F00032D3B
:0204900003C7A0
:0204910000A4C5
:0204920001C3A4
:02049300032341
:0204940000C6A0
:0204950002AAB9
:0204960000D193
:02049700033927
:0204980001E27F
:0204990000CE93
:02049A0003FA63
:02049B000369F3
:02049C00031942
:02049D00030A50
:02049E00033C1D
:02049F0003B0A8
:0204A0000065F5
:0204A100015BFD
:0204A2000292C4
:0204A300000A4D
:0204A40001C392
:0204A50003BD95
:0204A60001F85B
:0204A7000074DF
:0204A80003301F
:0204A900022D22
:0204AA00016BE4
:0204AB0000E966
:0204AC0000A7A7
:0204AD0000A6A7
:0204AE0000E666
:0204AF000165E5
:0204B000022523
:0204B100032521
:0204B2000066E2
:0204B30001E660
:0204B40003A69D
:0204B50001A69E
:0204B60003E65B
:0204B7000266DB
:0204B80001261B
:0204B90000251C
:0204BA000364D9
:0204BB0002E35A
:0204BC0002A19B
:0204BD00029F9C
:0204BE0002DC5E
:0204BF000358E0
:0204C000001426
:0204C100010E2A
:0204C2000249ED
:0204C30003C272
:0204C400017ABB
:0204C5000371C1
:0204C60001A88B
:0204C700001D16
:0204C80002D15F
:0204C90001C36D
:0204CA0000F53B
:0204CB000065CA
:0204CC0000141A
:0204CD0000012C
:0204CE00002C00
:0204CF00009794
:0204D000013FEA
:0204D100022601
:0204D200034BDA
:0204D30000AE79
:0204D4000250D4
:0204D5000030F5
:0204D600024DD5
:0204D70000A97A
:0204D8000342DD
:0204D900021906
:0204DA00012FF0
:0204DB0000829D
:0204DC0000120C
:0204DD0003E03A
:0204DE0003EC2D
:0204DF000036E5
:0204E00000BC5E
:0204E100018197
:0204E200028294
:0204E30003C153
:0204E400013DD8
:0204E50002F71C
:0204E60000ED27
:0204E7000321EF
:0204E800019180
:0204E900003FD2
:0204EA000329E4
:0204EB000250BD
:0204EC0001B558
:0204ED000155B7
:0204EE000133D8
:0204EF00014DBD
:0204F00001A465
:0204F1000237D0
:0204F2000307FE
:0204F3000013F4
:0204F400015CA9
:0204F50002E122
:0204F60000A262
:0204F700029F62
:0204F80000D929
:0204F900034EB0
:0204FA000200FE
:0204FB0000ED12
:0204FC000017E7
:0204FD00037C7E
:0204FE00031EDB
:0204FF0002FAFF
:020500000313E3
:0205010003688D
:0205020003F8FC
:0205030000C333
:0205040001CA2A
:02050500030CE5
:02050600008A69
:020507000244AC
:020508000038B9
:02050900026886
:02050A0000D31C
:02050B00037972
:02050C00025A91
:02050D00017675
:02050E0000CD1E
:02050F00005F8B
:02051000002CBD
:020511000033B5
:02051200007671
:0205130000F3F3
:0205140001AA3A
:02051500029D45
:0205160003CA16
:020517000131B0
:0205180002D30C
:0205190000AF31
:02051A0002C617
:02051B000116C7
:02051C0003A238
:02051D00026773
:02051E00016674
:02051F0000A03A
:020520000013C6
:0205210003C015
:0205220003A82C
:0205230003C90A
:020524000024B1
:0205250000B91B
:0205260001874B
:02052700029040
:0205280003D1FD
:02052900014D82
:02052A000301CB
:02052B0000F0DE
:02052C000317B3
:02052D00017952
:02052E000013B8
:02052F0002E7E1
:0205300001F3D5
:0205310001398E
:0205320000B80F
:02053300007155
:02053400006263
:02053500008C38
:0205360000EFD4
:02053700018B36
:02053800025F60
:02053900036C51
:02053A0000B30C
:02053B0002318B
:02053C0003E9D1
:02053D0001D8E3
:02053E000001BA
:02053F00026157
:0205400000FBBE
:0205410003CCE9
:0205420002D6DF
:0205430002189C
:02054400019222
:0205450001456E
:02054600012F83
:0205470001525F
:0205480001AC04
:02054900023F6F
:02054A000309A3
:02054B00000CA2
:02054C00014666
:02054D0002B7F3
:02054E0000614A
:02054F00024266
:02055000005B4E
:0205510002ABFB
:02055200013373
:0205530003F2B1
:0205540002E9BA
:0205550002178B
:02055600017C26
:02055700011988
:0205580000EDB4
:0205590000F8A8
:02055A00013A64
:02055B0001B3EA
:02055C00026437
:02055D00034B4E
:02055E00006932
:02055F0001BEDB
:02056000034A4C
:02056100010C8B
:0205620003068E
:0205630001365F
:02056400039CF6
:02056500023A58
:02056600010D85
:0205670000187A
:02056800035836
:0205690002D0BE
:02056A00027D10
:02056B0002612B
:02056C00027B10
:02056D0002CBBF
:02056E00035236
:02056F00000E7C
:02057000010187
:0205710002295D
:020572000388FC
:02057300011C69
:0205740002E79C
:0205750000E79D
:02057600031D63
:020577000189F8
:02057800002A57
:0205790003017C
:02057A00020E6F
:02057B0001502D
:02057C0000C8B5
:02057D00007507
:02057E00005823
:02057F0000700A
:0205800000BDBC
:02058100014037
:0205820001F87E
:0205830002E490
:0205840000076E
:02058500015E15
:0205860002EA87
:0205870000ABC7
:0205880002A1CE
:0205890000CDA3
:02058A00032D3F
:02058B0001C1AC
:02058C00008BE2
:02058D000389E0
:02058E0002BCAD
:02058F00022444
:0205900001C0A8
:020591000190D7
:020592000196D0
:0205930001CF96
:02059400023D26
:0205950002E082
:0205960003B6AA
:0205970000C1A1
:0205980002015E
:020599000374E9
:02059A00011C42
:02059B0002F765
:02059C00010755
:02059D00034B0E
:02059E0001C298
:02059F00006EEC
:0205A000034D09
:0205A1000260F6
:0205A20001A7AF
:0205A300012233
:0205A40000D085
:0205A50000B2A2
:0205A60000C88B
:0205A700011140
:0205A800018EC2
:0205A900023E10
:0205AA0003222A
:0205AB00003915
:0205AC000183C9
:0205AD00030049
:0205AE0000B19A
:0205AF000295B3
:0205B00000AD9C
:0205B10002F74F
:0205B2000174D2
:0205B300002521
:0205B40003083A
:0205B500021E24
:0205B6000168DA
:0205B70000E45E
:0205B8000092AF
:0205B9000074CC
:0205BA000088B7
:0205BB0000D06E
:0205BC000149F3
:0205BD0001F546
:0205BE0002D465
:0205BF0003E651
:0205C00001290F
:0205C10002A096
:0205C2000048EF
:0205C300022311
:0205C400003005
:0205C5000270C2
:0205C60000E152
:0205C7000385AA
:0205C800025BD4
:0205C9000163CC
:0205CA00009D92
:0205CB00000925
:0205CC0003A783
:0205CD000377B2
:0205CE000379AF
:0205CF0003AD7A
:0205D000001217
:0205D10000A97F
:0205D2000172B4
:0205D300026CB8
:0205D400039989
:0205D50000F62E
:0205D60002859C
:0205D7000046DC
:0205D8000238E7
:0205D900005CC4
:0205DA0002B16C
:0205DB000137E6
:0205DC0003EE2C
:0205DD0002D743
:0205DE0001F129
:0205DF00013CDD
:0205E00000B861
:0205E1000065B3
:0205E2000043D4
:0205E3000053C3
:0205E400009382
:0205E50001040F
:0205E60001A66C
:0205E700027997
:0205E800037C92
:0205E90000B15F
:0205EA000216F7
:0205EB0003AB60
:0205EC0001729A
:0205ED000368A1
:0205EE0001907A
:0205EF0003E81F
:0205F000027097
:0205F1000129DE
:0205F2000012F5
:0205F300032BD8
:0205F40002758E
:0205F50001EF14
:0205F600019969
:0205F70001748D
:0205F800017E82
:0205F90001B946
:0205FA000223DA
:0205FB0002BE3E
:0205FC00038971
:0205FD00008379
:0205FE0001AD4D
:0205FF000308EF
:02060000009266
:02060100024CA9
:020602000035C1
:02060300024EA5
:0206040000975D
:020605000310E0
:0206060001B839
:02060700009061
:02060800039756
:0206090002CD20
:02060A000233B9
:02060B0001C824
:02060C00018D5E
:02060D00018169
:02060E0001A445
:02060F0001F7F1
:0206100002786E
:020611000329BB
:020612000009DD
:020613000117CD
:0206140002558D
:0206150003C21E
:02061600015E83
:020617000329B5
:020618000122BD
:02061900034A92
:02061A0001A23B
:02061B000027B6
:02061C0002DCFE
:02061D0001BF1B
:02061E0000D109
:02061F000012C7
:02062000038154
:02062100031EB6
:0206220002EAEA
:0206230002E5EE
:02062400030DC4
:0206250003656B
:0206260003EAE5
:02062700009E33
:0206280001804F
:0206290002903D
:02062A0003CEFD
:02062B00013B91
:02062C0002D5F5
:02062D00009E2D
:02062E00029533
:02062F0000B910
:02063000030CB9
:02063100018C3A
:02063200003B8B
:020633000317AB
:020634000221A1
:0206350001586A
:0206360000BE04
:02063700005170
:020638000012AE
:020639000000BF
:02063A00001CA2
:02063B00006558
:02063C0000DCE0
:02063D0001803A
:02063E00025266
:02063F00035165
:02064000007D3B
:0206410001D7DF
:02064200035E55
:020643000112A2
:0206440002F3BF
:020645000102B0
:02064600033E71
:0206470001A60A
:02064800003C74
:0206490002FFAE
:02064A0001EEBF
:02064B00010BA1
:02064C00005557
:02064D0003CBDD
:02064E00036E39
:02064F00033E68
:02065000033B6A
:02065100036440
:0206520003BAE9
:02065300003D68
:0206540000ECB8
:0206550001C8DA
:0206560002D0D0
:0206570000059C
:02065800016738
:0206590002F4A9
:02065A0000AFEF
:02065B00029506
:02065C0000A8F4
:02065D0002E7B2
:02065E00015247
:02065F0003EAAC
:0206600002ADE9
:02066100019DF9
:0206620000B9DD
:02066300000194
:0206640003751C
:0206650003147C
:0206660002E0B0
:0206670002D8B7
:0206680002FC92
:02066900034B41
:02066A0003C6C5
:02066B00006D20
:02066C0001404B
:02066D00023F4A
:02066E0003691E
:02066F0000BECB
:02067000024046
:0206710003ED97
:0206720001C5C0
:0206730003C9B9
:0206740001F88B
:02067500005330
:0206760002D9A7
:02067700018BF5
:02067800006719
:0206790003700C
:02067A0002A3D9
:02067B0002017A
:02067C00018BF0
:02067D0001403A
:02067E00012059
:02067F00012B4D
:02068000016116
:0206810001C2B4
:02068200024E26
:0206830003046E
:0206840003E68B
:0206850000F380
:02068600022A46
:02068700038CE2
:02068800011956
:0206890002D19C
:02068A0000B3BB
:02068B0002C0AB
:02068C0000F874
:02068D00035A0E
:02068E0001E782
:02068F00009ECB
:020690000380E5
:02069100028CD9
:0206920001C3A2
:02069300012440
:0206940000AFB5
:020695000065FE
:0206960000451D
:02069700004F12
:020698000083DD
:0206990000E27D
:02069A00016AF3
:02069B00021D3E
:02069C0002FA60
:02069D0000015A
:02069E00013128
:02069F00028CCB
:0206A000001147
:0206A10001C096
:0206A2000398BB
:0206A300019BB9
:0206A40003C78A
:0206A500021D34
:0206A600009CB6
:0206A700034608
:0206A800021935
:0206A900011539
:0206AA00003C12
:0206AB00038BBF
:0206AC00030544
:0206AD0002A8A1
:0206AE000274D4
:0206AF00026ADD
:0206B0000289BD
:0206B10002D174
:0206B200034300
:0206B30003DE64
:0206B40000A3A1
:0206B5000190B2
:0206B60002A799
:0206B70003E757
:0206B8000150EF
:0206B90002E35A
:0206BA00009EA0
:0206BB000283B8
:0206BC000090AC
:0206BD0002C673
:0206BE00012613
:0206BF0003AE88
:0206C000025FD7
:0206C1000139FD
:0206C200003CFA
:0206C3000367CB
:0206C40002BC76
:0206C5000239F8
:0206C60001DE53
:0206C70001AD83
:0206C80001A38C
:0206C90001C36B
:0206CA00020B21
:0206CB00027CAF
:0206CC00031514
:0206CD0003D652
:0206CE0000C06A
:0206CF0001D355
:0206D000030E17
:0206D1000071B6
:0206D20001FC29
:0206D30003B072
:0206D400018C97
:0206D500039090
:0206D60001BC65
:0206D700001011
:0206D800028D91
:0206D9000131ED
:0206DA0003FE1D
:0206DB0002F328
:0206DC00020F0B
:0206DD000154C6
:0206DE0000C05A
:0206DF000054C5
:0206E000001107
:0206E10003F51F
:0206E200000115
:0206E3000034E1
:0206E400008F85
:0206E5000113FF
:0206E60001BD54
:0206E70002907F
:0206E800038984
:0206E90000AB64
:0206EA0001F419
:0206EB000365A5
:0206EC0000FD0F
:0206ED0002BC4D
:0206EE0000A367
:0206EF0002B156
:0206F00000E721
:0206F1000344C0
:0206F20001C83D
:0206F300007491
:0206F4000346BB
:0206F5000240C1
:0206F6000161A0
:0206F70000AA57
:0206F8000019E7
:0206F90003B04C
:0206FA00036D8E
:0206FB000352A8
:0206FC00035D9C
:0206FD00039068
:0206FE0003E90E
:0206FF00006990
:020700000111E5
:0207010001DF16
:0207020002D320
:0207030003EF02
:020704000131C1
:02070500029A56
:02070600002AC7
:0207070001E00F
:0207080003BE2E
:0207090001C12C
:02070A0003EBFF
:02070B00023CAE
:02070C0000B338
:02070D00035196
:02070E000215D2
:02070F000100E7
:020710000010D7
:0207110003489B
:0207120002A53E
:020713000229B9
:0207140001D30F
:0207150001A43D
:02071600019A46
:0207170001B728
:0207180001FAE4
:02071900026379
:02071A0002F2E9
:02071B0003A831
:02071C00008358
:02071D00018455
:02071E0002AB2C
:02071F0003F8DD
:02072000016B6B
:020721000304CF
:0207220000C312
:0207230002A82A
:0207240000B221
:0207250002E2EE
:02072600013898
:0207270003B419
:02072800025578
:02072900011CB1
:02072A000008C5
:02072B00031BAE
:02072C00025277
:02072D0001B019
:02072E00013296
:02072F0000DAEE
:0207300000A81F
:02073100009B2B
:0207320000B411
:0207330000F1D3
:0207340001546E
:0207350001DDE4
:02073600028B34
:02073700035E5F
:02073800005669
:0207390001734A
:02073A0002B605
:02073B00001D9F
:02073C0001AA10
:02073D00035C5B
:02073E00013385
:02073F00032E87
:02074000014F67
:0207410003951E
:020742000200B3
:02074300008F25
:0207440003446C
:02074500021D93
:02074600011B95
:02074700003E72
:02074800038626
:0207490002F2BA
:02074A00028427
:02074B00023971
:02074C00021495
:02074D00021395
:02074E00023770
:02074F00027F27
:0207500002ECB9
:02075100037D26
:02075200003372
:02075300010D96
:02075400020C95
:02075500032F70
:0207560000762B
:0207570001E2BD
:0207580003722A
:02075900012677
:02075A0002FF9C
:02075B0000FBA1
:02075C00031C7C
:02075D00016237
:02075E0003CBCB
:02075F0002583E
:02076000010A8C
:0207610003E0B3
:0207620002D9BA
:0207630001F79C
:0207640001385A
:02076500009EF4
:02076600002869
:0207670003D5B8
:0207680003A6E6
:02076900039BF0
:02076A0003B4D6
:02076B0003F198
:02076C0000513A
:02076D0000D6B4
:02076E00017E0A
:02076F0002493D
:0207700003394B
:02077100004B3B
:02077200018202
:0207730002DCA6
:02077400005A29
:0207750001FB86
:0207760003BFBF
:0207770001A7D8
:0207780003B3C9
:0207790001E29B
:02077A00003449
:02077B0002AAD0
:02077C00014337
:02077D0003FF78
:02077E0002DF98
:02077F0001E295
:0207800001086E
:02078100005125
:0207820003BDB5
:02078300034D24
:02078400030070
:0207850002D69A
:0207860002CEA1
:0207870002EA84
:02078800032943
:02078900038BE0
:02078A0000105D
:02078B0000B8B4
:02078C000182E8
:02078D000270F8
:02078E000380E6
:02078F0000B4B4
:02079000020A5B
:020791000383E0
:02079200011E46
:0207930002DD85
:0207940000BEA5
:0207950002C19F
:0207960000E879
:0207970003302D
:02079800019CC2
:02079900002A34
:02079A0002DB80
:02079B0001AEAD
:02079C0000A4B7
:02079D0003BC9B
:02079E0002F661
:02079F00025303
:0207A00001D284
:0207A1000174E1
:0207A20001381C
:0207A300011F34
:0207A40001272B
:0207A5000152FF
:0207A600019FB1
:0207A700020E40
:0207A80002A0AD
:0207A9000354F7
:0207AA00002924
:0207AB0001212A
:0207AC00023B0E
:0207AD000377D0
:0207AE0000D574
:0207AF000255F1
:0207B00003F74D
:0207B10001BB8A
:0207B20003A1A1
:0207B30001A99A
:0207B40003D36D
:0207B500021E22
:0207B600008CB5
:0207B700031B22
:0207B80001CC72
:0207B900009EA0
:0207BA000393A7
:0207BB0002A991
:0207BC0001E05A
:0207BD00013AFF
:0207BE0000B584
:0207BF000052E6
:0207C000001027
:0207C10003F043
:0207C20003F141
:0207C300001420
:0207C4000058DB
:0207C50000BD75
:0207C6000145EB
:0207C70001ED42
:0207C80002B776
:0207C90003A289
:0207CA0000AF7E
:0207CB0001DD4E
:0207CC00032CFC
:0207CD00009C8E
:0207CE00022EF9
:0207CF0003E144
:0207D00001B571
:0207D10003AA79
:0207D20001C064
:0207D30003F72A
:0207D4000250D1
:0207D50000C959
:0207D6000364BA
:0207D700021FFF
:0207D80000FC23
:0207D90003F922
:0207DA00031802
:0207DB000257C3
:0207DC0001B763
:0207DD000138E1
:0207DE0000DA3F
:0207DF00009D7B
:0207E000008196
:0207E100008591
:0207E20000AA6B
:0207E30000EF25
:0207E4000156BC
:0207E50001DD34
:0207E60002858A
:0207E700034DC0
:0207E8000036D9
:0207E900013FCE
:0207EA000269A2
:0207EB0003B455
:0207EC00011FEB
:0207ED0002AA5E
:0207EE000056B3
:0207EF000223E3
:0207F0000010F7
:0207F100021DE7
:0207F200004ABB
:0207F30002986A
:0207F4000106FC
:0207F50003956A
:0207F6000243BC
:0207F7000112ED
:0207F8000002FD
:0207F9000311EA
:0207FA000240BB
:0207FB0001906B
:0207FC000100FA
:0207FD0000906A
:0207FE000040B9
:0207FF000010E8
:00000001ff
