:020000040000FA
:01000000807F
:01000100807E
:01000200807D
:01000300807C
:01000400807B
:010005008179
:010006008178
:010007008177
:010008008176
:010009008274
:01000A008273
:01000B008272
:01000C008271
:01000D00836F
:01000E00836E
:01000F00836D
:01001000836C
:01001100846A
:010012008469
:010013008468
:010014008467
:010015008565
:010016008564
:010017008563
:010018008562
:010019008660
:01001A00865F
:01001B00865E
:01001C00865D
:01001D00875B
:01001E00875A
:01001F008759
:010020008758
:010021008757
:010022008855
:010023008854
:010024008853
:010025008852
:010026008950
:01002700894F
:01002800894E
:01002900894D
:01002A00894C
:01002B008A4A
:01002C008A49
:01002D008A48
:01002E008A47
:01002F008B45
:010030008B44
:010031008B43
:010032008B42
:010033008B41
:010034008C3F
:010035008C3E
:010036008C3D
:010037008C3C
:010038008D3A
:010039008D39
:01003A008D38
:01003B008D37
:01003C008D36
:01003D008E34
:01003E008E33
:01003F008E32
:010040008E31
:010041008F2F
:010042008F2E
:010043008F2D
:010044008F2C
:010045008F2B
:010046009029
:010047009028
:010048009027
:010049009026
:01004A009025
:01004B009123
:01004C009122
:01004D009121
:01004E009120
:01004F00911F
:01005000921D
:01005100921C
:01005200921B
:01005300921A
:010054009318
:010055009317
:010056009316
:010057009315
:010058009314
:010059009412
:01005A009411
:01005B009410
:01005C00940F
:01005D00940E
:01005E00950C
:01005F00950B
:01006000950A
:010061009509
:010062009508
:010063009606
:010064009605
:010065009604
:010066009603
:010067009602
:010068009700
:0100690097FF
:01006A0097FE
:01006B0097FD
:01006C0097FC
:01006D0097FB
:01006E0098F9
:01006F0098F8
:0100700098F7
:0100710098F6
:0100720098F5
:0100730099F3
:0100740099F2
:0100750099F1
:0100760099F0
:0100770099EF
:010078009AED
:010079009AEC
:01007A009AEB
:01007B009AEA
:01007C009AE9
:01007D009BE7
:01007E009BE6
:01007F009BE5
:010080009BE4
:010081009BE3
:010082009BE2
:010083009CE0
:010084009CDF
:010085009CDE
:010086009CDD
:010087009CDC
:010088009DDA
:010089009DD9
:01008A009DD8
:01008B009DD7
:01008C009DD6
:01008D009DD5
:01008E009ED3
:01008F009ED2
:010090009ED1
:010091009ED0
:010092009ECF
:010093009ECE
:010094009FCC
:010095009FCB
:010096009FCA
:010097009FC9
:010098009FC8
:01009900A0C6
:01009A00A0C5
:01009B00A0C4
:01009C00A0C3
:01009D00A0C2
:01009E00A0C1
:01009F00A1BF
:0100A000A1BE
:0100A100A1BD
:0100A200A1BC
:0100A300A1BB
:0100A400A1BA
:0100A500A2B8
:0100A600A2B7
:0100A700A2B6
:0100A800A2B5
:0100A900A2B4
:0100AA00A2B3
:0100AB00A3B1
:0100AC00A3B0
:0100AD00A3AF
:0100AE00A3AE
:0100AF00A3AD
:0100B000A3AC
:0100B100A4AA
:0100B200A4A9
:0100B300A4A8
:0100B400A4A7
:0100B500A4A6
:0100B600A4A5
:0100B700A5A3
:0100B800A5A2
:0100B900A5A1
:0100BA00A5A0
:0100BB00A59F
:0100BC00A59E
:0100BD00A69C
:0100BE00A69B
:0100BF00A69A
:0100C000A699
:0100C100A698
:0100C200A697
:0100C300A795
:0100C400A794
:0100C500A793
:0100C600A792
:0100C700A791
:0100C800A790
:0100C900A78F
:0100CA00A88D
:0100CB00A88C
:0100CC00A88B
:0100CD00A88A
:0100CE00A889
:0100CF00A888
:0100D000A986
:0100D100A985
:0100D200A984
:0100D300A983
:0100D400A982
:0100D500A981
:0100D600A980
:0100D700AA7E
:0100D800AA7D
:0100D900AA7C
:0100DA00AA7B
:0100DB00AA7A
:0100DC00AA79
:0100DD00AB77
:0100DE00AB76
:0100DF00AB75
:0100E000AB74
:0100E100AB73
:0100E200AB72
:0100E300AB71
:0100E400AC6F
:0100E500AC6E
:0100E600AC6D
:0100E700AC6C
:0100E800AC6B
:0100E900AC6A
:0100EA00AC69
:0100EB00AD67
:0100EC00AD66
:0100ED00AD65
:0100EE00AD64
:0100EF00AD63
:0100F000AD62
:0100F100AD61
:0100F200AE5F
:0100F300AE5E
:0100F400AE5D
:0100F500AE5C
:0100F600AE5B
:0100F700AE5A
:0100F800AE59
:0100F900AF57
:0100FA00AF56
:0100FB00AF55
:0100FC00AF54
:0100FD00AF53
:0100FE00AF52
:0100FF00AF51
:01010000B04E
:01010100B04D
:01010200B04C
:01010300B04B
:01010400B04A
:01010500B049
:01010600B048
:01010700B146
:01010800B145
:01010900B144
:01010A00B143
:01010B00B142
:01010C00B141
:01010D00B140
:01010E00B23E
:01010F00B23D
:01011000B23C
:01011100B23B
:01011200B23A
:01011300B239
:01011400B238
:01011500B237
:01011600B335
:01011700B334
:01011800B333
:01011900B332
:01011A00B331
:01011B00B330
:01011C00B32F
:01011D00B32E
:01011E00B42C
:01011F00B42B
:01012000B42A
:01012100B429
:01012200B428
:01012300B427
:01012400B426
:01012500B524
:01012600B523
:01012700B522
:01012800B521
:01012900B520
:01012A00B51F
:01012B00B51E
:01012C00B51D
:01012D00B61B
:01012E00B61A
:01012F00B619
:01013000B618
:01013100B617
:01013200B616
:01013300B615
:01013400B614
:01013500B712
:01013600B711
:01013700B710
:01013800B70F
:01013900B70E
:01013A00B70D
:01013B00B70C
:01013C00B70B
:01013D00B809
:01013E00B808
:01013F00B807
:01014000B806
:01014100B805
:01014200B804
:01014300B803
:01014400B802
:01014500B801
:01014600B9FF
:01014700B9FE
:01014800B9FD
:01014900B9FC
:01014A00B9FB
:01014B00B9FA
:01014C00B9F9
:01014D00B9F8
:01014E00BAF6
:01014F00BAF5
:01015000BAF4
:01015100BAF3
:01015200BAF2
:01015300BAF1
:01015400BAF0
:01015500BAEF
:01015600BAEE
:01015700BBEC
:01015800BBEB
:01015900BBEA
:01015A00BBE9
:01015B00BBE8
:01015C00BBE7
:01015D00BBE6
:01015E00BBE5
:01015F00BCE3
:01016000BCE2
:01016100BCE1
:01016200BCE0
:01016300BCDF
:01016400BCDE
:01016500BCDD
:01016600BCDC
:01016700BCDB
:01016800BDD9
:01016900BDD8
:01016A00BDD7
:01016B00BDD6
:01016C00BDD5
:01016D00BDD4
:01016E00BDD3
:01016F00BDD2
:01017000BDD1
:01017100BECF
:01017200BECE
:01017300BECD
:01017400BECC
:01017500BECB
:01017600BECA
:01017700BEC9
:01017800BEC8
:01017900BEC7
:01017A00BEC6
:01017B00BFC4
:01017C00BFC3
:01017D00BFC2
:01017E00BFC1
:01017F00BFC0
:01018000BFBF
:01018100BFBE
:01018200BFBD
:01018300BFBC
:01018400C0BA
:01018500C0B9
:01018600C0B8
:01018700C0B7
:01018800C0B6
:01018900C0B5
:01018A00C0B4
:01018B00C0B3
:01018C00C0B2
:01018D00C0B1
:01018E00C1AF
:01018F00C1AE
:01019000C1AD
:01019100C1AC
:01019200C1AB
:01019300C1AA
:01019400C1A9
:01019500C1A8
:01019600C1A7
:01019700C2A5
:01019800C2A4
:01019900C2A3
:01019A00C2A2
:01019B00C2A1
:01019C00C2A0
:01019D00C29F
:01019E00C29E
:01019F00C29D
:0101A000C29C
:0101A100C39A
:0101A200C399
:0101A300C398
:0101A400C397
:0101A500C396
:0101A600C395
:0101A700C394
:0101A800C393
:0101A900C392
:0101AA00C391
:0101AB00C390
:0101AC00C48E
:0101AD00C48D
:0101AE00C48C
:0101AF00C48B
:0101B000C48A
:0101B100C489
:0101B200C488
:0101B300C487
:0101B400C486
:0101B500C485
:0101B600C583
:0101B700C582
:0101B800C581
:0101B900C580
:0101BA00C57F
:0101BB00C57E
:0101BC00C57D
:0101BD00C57C
:0101BE00C57B
:0101BF00C57A
:0101C000C579
:0101C100C677
:0101C200C676
:0101C300C675
:0101C400C674
:0101C500C673
:0101C600C672
:0101C700C671
:0101C800C670
:0101C900C66F
:0101CA00C66E
:0101CB00C66D
:0101CC00C76B
:0101CD00C76A
:0101CE00C769
:0101CF00C768
:0101D000C767
:0101D100C766
:0101D200C765
:0101D300C764
:0101D400C763
:0101D500C762
:0101D600C761
:0101D700C85F
:0101D800C85E
:0101D900C85D
:0101DA00C85C
:0101DB00C85B
:0101DC00C85A
:0101DD00C859
:0101DE00C858
:0101DF00C857
:0101E000C856
:0101E100C855
:0101E200C953
:0101E300C952
:0101E400C951
:0101E500C950
:0101E600C94F
:0101E700C94E
:0101E800C94D
:0101E900C94C
:0101EA00C94B
:0101EB00C94A
:0101EC00C949
:0101ED00C948
:0101EE00CA46
:0101EF00CA45
:0101F000CA44
:0101F100CA43
:0101F200CA42
:0101F300CA41
:0101F400CA40
:0101F500CA3F
:0101F600CA3E
:0101F700CA3D
:0101F800CA3C
:0101F900CA3B
:0101FA00CB39
:0101FB00CB38
:0101FC00CB37
:0101FD00CB36
:0101FE00CB35
:0101FF00CB34
:01020000CB32
:01020100CB31
:01020200CB30
:01020300CB2F
:01020400CB2E
:01020500CB2D
:01020600CC2B
:01020700CC2A
:01020800CC29
:01020900CC28
:01020A00CC27
:01020B00CC26
:01020C00CC25
:01020D00CC24
:01020E00CC23
:01020F00CC22
:01021000CC21
:01021100CC20
:01021200CD1E
:01021300CD1D
:01021400CD1C
:01021500CD1B
:01021600CD1A
:01021700CD19
:01021800CD18
:01021900CD17
:01021A00CD16
:01021B00CD15
:01021C00CD14
:01021D00CD13
:01021E00CD12
:01021F00CE10
:01022000CE0F
:01022100CE0E
:01022200CE0D
:01022300CE0C
:01022400CE0B
:01022500CE0A
:01022600CE09
:01022700CE08
:01022800CE07
:01022900CE06
:01022A00CE05
:01022B00CE04
:01022C00CF02
:01022D00CF01
:01022E00CF00
:01022F00CFFF
:01023000CFFE
:01023100CFFD
:01023200CFFC
:01023300CFFB
:01023400CFFA
:01023500CFF9
:01023600CFF8
:01023700CFF7
:01023800CFF6
:01023900CFF5
:01023A00D0F3
:01023B00D0F2
:01023C00D0F1
:01023D00D0F0
:01023E00D0EF
:01023F00D0EE
:01024000D0ED
:01024100D0EC
:01024200D0EB
:01024300D0EA
:01024400D0E9
:01024500D0E8
:01024600D0E7
:01024700D1E5
:01024800D1E4
:01024900D1E3
:01024A00D1E2
:01024B00D1E1
:01024C00D1E0
:01024D00D1DF
:01024E00D1DE
:01024F00D1DD
:01025000D1DC
:01025100D1DB
:01025200D1DA
:01025300D1D9
:01025400D1D8
:01025500D1D7
:01025600D2D5
:01025700D2D4
:01025800D2D3
:01025900D2D2
:01025A00D2D1
:01025B00D2D0
:01025C00D2CF
:01025D00D2CE
:01025E00D2CD
:01025F00D2CC
:01026000D2CB
:01026100D2CA
:01026200D2C9
:01026300D2C8
:01026400D3C6
:01026500D3C5
:01026600D3C4
:01026700D3C3
:01026800D3C2
:01026900D3C1
:01026A00D3C0
:01026B00D3BF
:01026C00D3BE
:01026D00D3BD
:01026E00D3BC
:01026F00D3BB
:01027000D3BA
:01027100D3B9
:01027200D3B8
:01027300D4B6
:01027400D4B5
:01027500D4B4
:01027600D4B3
:01027700D4B2
:01027800D4B1
:01027900D4B0
:01027A00D4AF
:01027B00D4AE
:01027C00D4AD
:01027D00D4AC
:01027E00D4AB
:01027F00D4AA
:01028000D4A9
:01028100D4A8
:01028200D4A7
:01028300D5A5
:01028400D5A4
:01028500D5A3
:01028600D5A2
:01028700D5A1
:01028800D5A0
:01028900D59F
:01028A00D59E
:01028B00D59D
:01028C00D59C
:01028D00D59B
:01028E00D59A
:01028F00D599
:01029000D598
:01029100D597
:01029200D695
:01029300D694
:01029400D693
:01029500D692
:01029600D691
:01029700D690
:01029800D68F
:01029900D68E
:01029A00D68D
:01029B00D68C
:01029C00D68B
:01029D00D68A
:01029E00D689
:01029F00D688
:0102A000D687
:0102A100D686
:0102A200D685
:0102A300D783
:0102A400D782
:0102A500D781
:0102A600D780
:0102A700D77F
:0102A800D77E
:0102A900D77D
:0102AA00D77C
:0102AB00D77B
:0102AC00D77A
:0102AD00D779
:0102AE00D778
:0102AF00D777
:0102B000D776
:0102B100D775
:0102B200D774
:0102B300D773
:0102B400D871
:0102B500D870
:0102B600D86F
:0102B700D86E
:0102B800D86D
:0102B900D86C
:0102BA00D86B
:0102BB00D86A
:0102BC00D869
:0102BD00D868
:0102BE00D867
:0102BF00D866
:0102C000D865
:0102C100D864
:0102C200D863
:0102C300D862
:0102C400D861
:0102C500D95F
:0102C600D95E
:0102C700D95D
:0102C800D95C
:0102C900D95B
:0102CA00D95A
:0102CB00D959
:0102CC00D958
:0102CD00D957
:0102CE00D956
:0102CF00D955
:0102D000D954
:0102D100D953
:0102D200D952
:0102D300D951
:0102D400D950
:0102D500D94F
:0102D600D94E
:0102D700DA4C
:0102D800DA4B
:0102D900DA4A
:0102DA00DA49
:0102DB00DA48
:0102DC00DA47
:0102DD00DA46
:0102DE00DA45
:0102DF00DA44
:0102E000DA43
:0102E100DA42
:0102E200DA41
:0102E300DA40
:0102E400DA3F
:0102E500DA3E
:0102E600DA3D
:0102E700DA3C
:0102E800DA3B
:0102E900DA3A
:0102EA00DB38
:0102EB00DB37
:0102EC00DB36
:0102ED00DB35
:0102EE00DB34
:0102EF00DB33
:0102F000DB32
:0102F100DB31
:0102F200DB30
:0102F300DB2F
:0102F400DB2E
:0102F500DB2D
:0102F600DB2C
:0102F700DB2B
:0102F800DB2A
:0102F900DB29
:0102FA00DB28
:0102FB00DB27
:0102FC00DB26
:0102FD00DC24
:0102FE00DC23
:0102FF00DC22
:01030000DC20
:01030100DC1F
:01030200DC1E
:01030300DC1D
:01030400DC1C
:01030500DC1B
:01030600DC1A
:01030700DC19
:01030800DC18
:01030900DC17
:01030A00DC16
:01030B00DC15
:01030C00DC14
:01030D00DC13
:01030E00DC12
:01030F00DC11
:01031000DC10
:01031100DD0E
:01031200DD0D
:01031300DD0C
:01031400DD0B
:01031500DD0A
:01031600DD09
:01031700DD08
:01031800DD07
:01031900DD06
:01031A00DD05
:01031B00DD04
:01031C00DD03
:01031D00DD02
:01031E00DD01
:01031F00DD00
:01032000DDFF
:01032100DDFE
:01032200DDFD
:01032300DDFC
:01032400DDFB
:01032500DEF9
:01032600DEF8
:01032700DEF7
:01032800DEF6
:01032900DEF5
:01032A00DEF4
:01032B00DEF3
:01032C00DEF2
:01032D00DEF1
:01032E00DEF0
:01032F00DEEF
:01033000DEEE
:01033100DEED
:01033200DEEC
:01033300DEEB
:01033400DEEA
:01033500DEE9
:01033600DEE8
:01033700DEE7
:01033800DEE6
:01033900DEE5
:01033A00DEE4
:01033B00DFE2
:01033C00DFE1
:01033D00DFE0
:01033E00DFDF
:01033F00DFDE
:01034000DFDD
:01034100DFDC
:01034200DFDB
:01034300DFDA
:01034400DFD9
:01034500DFD8
:01034600DFD7
:01034700DFD6
:01034800DFD5
:01034900DFD4
:01034A00DFD3
:01034B00DFD2
:01034C00DFD1
:01034D00DFD0
:01034E00DFCF
:01034F00DFCE
:01035000DFCD
:01035100E0CB
:01035200E0CA
:01035300E0C9
:01035400E0C8
:01035500E0C7
:01035600E0C6
:01035700E0C5
:01035800E0C4
:01035900E0C3
:01035A00E0C2
:01035B00E0C1
:01035C00E0C0
:01035D00E0BF
:01035E00E0BE
:01035F00E0BD
:01036000E0BC
:01036100E0BB
:01036200E0BA
:01036300E0B9
:01036400E0B8
:01036500E0B7
:01036600E0B6
:01036700E0B5
:01036800E1B3
:01036900E1B2
:01036A00E1B1
:01036B00E1B0
:01036C00E1AF
:01036D00E1AE
:01036E00E1AD
:01036F00E1AC
:01037000E1AB
:01037100E1AA
:01037200E1A9
:01037300E1A8
:01037400E1A7
:01037500E1A6
:01037600E1A5
:01037700E1A4
:01037800E1A3
:01037900E1A2
:01037A00E1A1
:01037B00E1A0
:01037C00E19F
:01037D00E19E
:01037E00E19D
:01037F00E19C
:01038000E29A
:01038100E299
:01038200E298
:01038300E297
:01038400E296
:01038500E295
:01038600E294
:01038700E293
:01038800E292
:01038900E291
:01038A00E290
:01038B00E28F
:01038C00E28E
:01038D00E28D
:01038E00E28C
:01038F00E28B
:01039000E28A
:01039100E289
:01039200E288
:01039300E287
:01039400E286
:01039500E285
:01039600E284
:01039700E283
:01039800E282
:01039900E380
:01039A00E37F
:01039B00E37E
:01039C00E37D
:01039D00E37C
:01039E00E37B
:01039F00E37A
:0103A000E379
:0103A100E378
:0103A200E377
:0103A300E376
:0103A400E375
:0103A500E374
:0103A600E373
:0103A700E372
:0103A800E371
:0103A900E370
:0103AA00E36F
:0103AB00E36E
:0103AC00E36D
:0103AD00E36C
:0103AE00E36B
:0103AF00E36A
:0103B000E369
:0103B100E368
:0103B200E367
:0103B300E465
:0103B400E464
:0103B500E463
:0103B600E462
:0103B700E461
:0103B800E460
:0103B900E45F
:0103BA00E45E
:0103BB00E45D
:0103BC00E45C
:0103BD00E45B
:0103BE00E45A
:0103BF00E459
:0103C000E458
:0103C100E457
:0103C200E456
:0103C300E455
:0103C400E454
:0103C500E453
:0103C600E452
:0103C700E451
:0103C800E450
:0103C900E44F
:0103CA00E44E
:0103CB00E44D
:0103CC00E44C
:0103CD00E44B
:0103CE00E549
:0103CF00E548
:0103D000E547
:0103D100E546
:0103D200E545
:0103D300E544
:0103D400E543
:0103D500E542
:0103D600E541
:0103D700E540
:0103D800E53F
:0103D900E53E
:0103DA00E53D
:0103DB00E53C
:0103DC00E53B
:0103DD00E53A
:0103DE00E539
:0103DF00E538
:0103E000E537
:0103E100E536
:0103E200E535
:0103E300E534
:0103E400E533
:0103E500E532
:0103E600E531
:0103E700E530
:0103E800E52F
:0103E900E52E
:0103EA00E52D
:0103EB00E62B
:0103EC00E62A
:0103ED00E629
:0103EE00E628
:0103EF00E627
:0103F000E626
:0103F100E625
:0103F200E624
:0103F300E623
:0103F400E622
:0103F500E621
:0103F600E620
:0103F700E61F
:0103F800E61E
:0103F900E61D
:0103FA00E61C
:0103FB00E61B
:0103FC00E61A
:0103FD00E619
:0103FE00E618
:0103FF00E617
:01040000E615
:01040100E614
:01040200E613
:01040300E612
:01040400E611
:01040500E610
:01040600E60F
:01040700E60E
:01040800E60D
:01040900E70B
:01040A00E70A
:01040B00E709
:01040C00E708
:01040D00E707
:01040E00E706
:01040F00E705
:01041000E704
:01041100E703
:01041200E702
:01041300E701
:01041400E700
:01041500E7FF
:01041600E7FE
:01041700E7FD
:01041800E7FC
:01041900E7FB
:01041A00E7FA
:01041B00E7F9
:01041C00E7F8
:01041D00E7F7
:01041E00E7F6
:01041F00E7F5
:01042000E7F4
:01042100E7F3
:01042200E7F2
:01042300E7F1
:01042400E7F0
:01042500E7EF
:01042600E7EE
:01042700E7ED
:01042800E7EC
:01042900E8EA
:01042A00E8E9
:01042B00E8E8
:01042C00E8E7
:01042D00E8E6
:01042E00E8E5
:01042F00E8E4
:01043000E8E3
:01043100E8E2
:01043200E8E1
:01043300E8E0
:01043400E8DF
:01043500E8DE
:01043600E8DD
:01043700E8DC
:01043800E8DB
:01043900E8DA
:01043A00E8D9
:01043B00E8D8
:01043C00E8D7
:01043D00E8D6
:01043E00E8D5
:01043F00E8D4
:01044000E8D3
:01044100E8D2
:01044200E8D1
:01044300E8D0
:01044400E8CF
:01044500E8CE
:01044600E8CD
:01044700E8CC
:01044800E8CB
:01044900E8CA
:01044A00E9C8
:01044B00E9C7
:01044C00E9C6
:01044D00E9C5
:01044E00E9C4
:01044F00E9C3
:01045000E9C2
:01045100E9C1
:01045200E9C0
:01045300E9BF
:01045400E9BE
:01045500E9BD
:01045600E9BC
:01045700E9BB
:01045800E9BA
:01045900E9B9
:01045A00E9B8
:01045B00E9B7
:01045C00E9B6
:01045D00E9B5
:01045E00E9B4
:01045F00E9B3
:01046000E9B2
:01046100E9B1
:01046200E9B0
:01046300E9AF
:01046400E9AE
:01046500E9AD
:01046600E9AC
:01046700E9AB
:01046800E9AA
:01046900E9A9
:01046A00E9A8
:01046B00E9A7
:01046C00E9A6
:01046D00EAA4
:01046E00EAA3
:01046F00EAA2
:01047000EAA1
:01047100EAA0
:01047200EA9F
:01047300EA9E
:01047400EA9D
:01047500EA9C
:01047600EA9B
:01047700EA9A
:01047800EA99
:01047900EA98
:01047A00EA97
:01047B00EA96
:01047C00EA95
:01047D00EA94
:01047E00EA93
:01047F00EA92
:01048000EA91
:01048100EA90
:01048200EA8F
:01048300EA8E
:01048400EA8D
:01048500EA8C
:01048600EA8B
:01048700EA8A
:01048800EA89
:01048900EA88
:01048A00EA87
:01048B00EA86
:01048C00EA85
:01048D00EA84
:01048E00EA83
:01048F00EA82
:01049000EA81
:01049100EA80
:01049200EB7E
:01049300EB7D
:01049400EB7C
:01049500EB7B
:01049600EB7A
:01049700EB79
:01049800EB78
:01049900EB77
:01049A00EB76
:01049B00EB75
:01049C00EB74
:01049D00EB73
:01049E00EB72
:01049F00EB71
:0104A000EB70
:0104A100EB6F
:0104A200EB6E
:0104A300EB6D
:0104A400EB6C
:0104A500EB6B
:0104A600EB6A
:0104A700EB69
:0104A800EB68
:0104A900EB67
:0104AA00EB66
:0104AB00EB65
:0104AC00EB64
:0104AD00EB63
:0104AE00EB62
:0104AF00EB61
:0104B000EB60
:0104B100EB5F
:0104B200EB5E
:0104B300EB5D
:0104B400EB5C
:0104B500EB5B
:0104B600EB5A
:0104B700EB59
:0104B800EB58
:0104B900EB57
:0104BA00EC55
:0104BB00EC54
:0104BC00EC53
:0104BD00EC52
:0104BE00EC51
:0104BF00EC50
:0104C000EC4F
:0104C100EC4E
:0104C200EC4D
:0104C300EC4C
:0104C400EC4B
:0104C500EC4A
:0104C600EC49
:0104C700EC48
:0104C800EC47
:0104C900EC46
:0104CA00EC45
:0104CB00EC44
:0104CC00EC43
:0104CD00EC42
:0104CE00EC41
:0104CF00EC40
:0104D000EC3F
:0104D100EC3E
:0104D200EC3D
:0104D300EC3C
:0104D400EC3B
:0104D500EC3A
:0104D600EC39
:0104D700EC38
:0104D800EC37
:0104D900EC36
:0104DA00EC35
:0104DB00EC34
:0104DC00EC33
:0104DD00EC32
:0104DE00EC31
:0104DF00EC30
:0104E000EC2F
:0104E100EC2E
:0104E200EC2D
:0104E300EC2C
:0104E400ED2A
:0104E500ED29
:0104E600ED28
:0104E700ED27
:0104E800ED26
:0104E900ED25
:0104EA00ED24
:0104EB00ED23
:0104EC00ED22
:0104ED00ED21
:0104EE00ED20
:0104EF00ED1F
:0104F000ED1E
:0104F100ED1D
:0104F200ED1C
:0104F300ED1B
:0104F400ED1A
:0104F500ED19
:0104F600ED18
:0104F700ED17
:0104F800ED16
:0104F900ED15
:0104FA00ED14
:0104FB00ED13
:0104FC00ED12
:0104FD00ED11
:0104FE00ED10
:0104FF00ED0F
:01050000ED0D
:01050100ED0C
:01050200ED0B
:01050300ED0A
:01050400ED09
:01050500ED08
:01050600ED07
:01050700ED06
:01050800ED05
:01050900ED04
:01050A00ED03
:01050B00ED02
:01050C00ED01
:01050D00ED00
:01050E00EDFF
:01050F00EDFE
:01051000EDFD
:01051100EEFB
:01051200EEFA
:01051300EEF9
:01051400EEF8
:01051500EEF7
:01051600EEF6
:01051700EEF5
:01051800EEF4
:01051900EEF3
:01051A00EEF2
:01051B00EEF1
:01051C00EEF0
:01051D00EEEF
:01051E00EEEE
:01051F00EEED
:01052000EEEC
:01052100EEEB
:01052200EEEA
:01052300EEE9
:01052400EEE8
:01052500EEE7
:01052600EEE6
:01052700EEE5
:01052800EEE4
:01052900EEE3
:01052A00EEE2
:01052B00EEE1
:01052C00EEE0
:01052D00EEDF
:01052E00EEDE
:01052F00EEDD
:01053000EEDC
:01053100EEDB
:01053200EEDA
:01053300EED9
:01053400EED8
:01053500EED7
:01053600EED6
:01053700EED5
:01053800EED4
:01053900EED3
:01053A00EED2
:01053B00EED1
:01053C00EED0
:01053D00EECF
:01053E00EECE
:01053F00EECD
:01054000EECC
:01054100EFCA
:01054200EFC9
:01054300EFC8
:01054400EFC7
:01054500EFC6
:01054600EFC5
:01054700EFC4
:01054800EFC3
:01054900EFC2
:01054A00EFC1
:01054B00EFC0
:01054C00EFBF
:01054D00EFBE
:01054E00EFBD
:01054F00EFBC
:01055000EFBB
:01055100EFBA
:01055200EFB9
:01055300EFB8
:01055400EFB7
:01055500EFB6
:01055600EFB5
:01055700EFB4
:01055800EFB3
:01055900EFB2
:01055A00EFB1
:01055B00EFB0
:01055C00EFAF
:01055D00EFAE
:01055E00EFAD
:01055F00EFAC
:01056000EFAB
:01056100EFAA
:01056200EFA9
:01056300EFA8
:01056400EFA7
:01056500EFA6
:01056600EFA5
:01056700EFA4
:01056800EFA3
:01056900EFA2
:01056A00EFA1
:01056B00EFA0
:01056C00EF9F
:01056D00EF9E
:01056E00EF9D
:01056F00EF9C
:01057000EF9B
:01057100EF9A
:01057200EF99
:01057300EF98
:01057400EF97
:01057500F095
:01057600F094
:01057700F093
:01057800F092
:01057900F091
:01057A00F090
:01057B00F08F
:01057C00F08E
:01057D00F08D
:01057E00F08C
:01057F00F08B
:01058000F08A
:01058100F089
:01058200F088
:01058300F087
:01058400F086
:01058500F085
:01058600F084
:01058700F083
:01058800F082
:01058900F081
:01058A00F080
:01058B00F07F
:01058C00F07E
:01058D00F07D
:01058E00F07C
:01058F00F07B
:01059000F07A
:01059100F079
:01059200F078
:01059300F077
:01059400F076
:01059500F075
:01059600F074
:01059700F073
:01059800F072
:01059900F071
:01059A00F070
:01059B00F06F
:01059C00F06E
:01059D00F06D
:01059E00F06C
:01059F00F06B
:0105A000F06A
:0105A100F069
:0105A200F068
:0105A300F067
:0105A400F066
:0105A500F065
:0105A600F064
:0105A700F063
:0105A800F062
:0105A900F061
:0105AA00F060
:0105AB00F05F
:0105AC00F05E
:0105AD00F15C
:0105AE00F15B
:0105AF00F15A
:0105B000F159
:0105B100F158
:0105B200F157
:0105B300F156
:0105B400F155
:0105B500F154
:0105B600F153
:0105B700F152
:0105B800F151
:0105B900F150
:0105BA00F14F
:0105BB00F14E
:0105BC00F14D
:0105BD00F14C
:0105BE00F14B
:0105BF00F14A
:0105C000F149
:0105C100F148
:0105C200F147
:0105C300F146
:0105C400F145
:0105C500F144
:0105C600F143
:0105C700F142
:0105C800F141
:0105C900F140
:0105CA00F13F
:0105CB00F13E
:0105CC00F13D
:0105CD00F13C
:0105CE00F13B
:0105CF00F13A
:0105D000F139
:0105D100F138
:0105D200F137
:0105D300F136
:0105D400F135
:0105D500F134
:0105D600F133
:0105D700F132
:0105D800F131
:0105D900F130
:0105DA00F12F
:0105DB00F12E
:0105DC00F12D
:0105DD00F12C
:0105DE00F12B
:0105DF00F12A
:0105E000F129
:0105E100F128
:0105E200F127
:0105E300F126
:0105E400F125
:0105E500F124
:0105E600F123
:0105E700F122
:0105E800F121
:0105E900F120
:0105EA00F21E
:0105EB00F21D
:0105EC00F21C
:0105ED00F21B
:0105EE00F21A
:0105EF00F219
:0105F000F218
:0105F100F217
:0105F200F216
:0105F300F215
:0105F400F214
:0105F500F213
:0105F600F212
:0105F700F211
:0105F800F210
:0105F900F20F
:0105FA00F20E
:0105FB00F20D
:0105FC00F20C
:0105FD00F20B
:0105FE00F20A
:0105FF00F209
:01060000F207
:01060100F206
:01060200F205
:01060300F204
:01060400F203
:01060500F202
:01060600F201
:01060700F200
:01060800F2FF
:01060900F2FE
:01060A00F2FD
:01060B00F2FC
:01060C00F2FB
:01060D00F2FA
:01060E00F2F9
:01060F00F2F8
:01061000F2F7
:01061100F2F6
:01061200F2F5
:01061300F2F4
:01061400F2F3
:01061500F2F2
:01061600F2F1
:01061700F2F0
:01061800F2EF
:01061900F2EE
:01061A00F2ED
:01061B00F2EC
:01061C00F2EB
:01061D00F2EA
:01061E00F2E9
:01061F00F2E8
:01062000F2E7
:01062100F2E6
:01062200F2E5
:01062300F2E4
:01062400F2E3
:01062500F2E2
:01062600F2E1
:01062700F2E0
:01062800F2DF
:01062900F2DE
:01062A00F2DD
:01062B00F2DC
:01062C00F3DA
:01062D00F3D9
:01062E00F3D8
:01062F00F3D7
:01063000F3D6
:01063100F3D5
:01063200F3D4
:01063300F3D3
:01063400F3D2
:01063500F3D1
:01063600F3D0
:01063700F3CF
:01063800F3CE
:01063900F3CD
:01063A00F3CC
:01063B00F3CB
:01063C00F3CA
:01063D00F3C9
:01063E00F3C8
:01063F00F3C7
:01064000F3C6
:01064100F3C5
:01064200F3C4
:01064300F3C3
:01064400F3C2
:01064500F3C1
:01064600F3C0
:01064700F3BF
:01064800F3BE
:01064900F3BD
:01064A00F3BC
:01064B00F3BB
:01064C00F3BA
:01064D00F3B9
:01064E00F3B8
:01064F00F3B7
:01065000F3B6
:01065100F3B5
:01065200F3B4
:01065300F3B3
:01065400F3B2
:01065500F3B1
:01065600F3B0
:01065700F3AF
:01065800F3AE
:01065900F3AD
:01065A00F3AC
:01065B00F3AB
:01065C00F3AA
:01065D00F3A9
:01065E00F3A8
:01065F00F3A7
:01066000F3A6
:01066100F3A5
:01066200F3A4
:01066300F3A3
:01066400F3A2
:01066500F3A1
:01066600F3A0
:01066700F39F
:01066800F39E
:01066900F39D
:01066A00F39C
:01066B00F39B
:01066C00F39A
:01066D00F399
:01066E00F398
:01066F00F397
:01067000F396
:01067100F395
:01067200F394
:01067300F393
:01067400F392
:01067500F391
:01067600F48F
:01067700F48E
:01067800F48D
:01067900F48C
:01067A00F48B
:01067B00F48A
:01067C00F489
:01067D00F488
:01067E00F487
:01067F00F486
:01068000F485
:01068100F484
:01068200F483
:01068300F482
:01068400F481
:01068500F480
:01068600F47F
:01068700F47E
:01068800F47D
:01068900F47C
:01068A00F47B
:01068B00F47A
:01068C00F479
:01068D00F478
:01068E00F477
:01068F00F476
:01069000F475
:01069100F474
:01069200F473
:01069300F472
:01069400F471
:01069500F470
:01069600F46F
:01069700F46E
:01069800F46D
:01069900F46C
:01069A00F46B
:01069B00F46A
:01069C00F469
:01069D00F468
:01069E00F467
:01069F00F466
:0106A000F465
:0106A100F464
:0106A200F463
:0106A300F462
:0106A400F461
:0106A500F460
:0106A600F45F
:0106A700F45E
:0106A800F45D
:0106A900F45C
:0106AA00F45B
:0106AB00F45A
:0106AC00F459
:0106AD00F458
:0106AE00F457
:0106AF00F456
:0106B000F455
:0106B100F454
:0106B200F453
:0106B300F452
:0106B400F451
:0106B500F450
:0106B600F44F
:0106B700F44E
:0106B800F44D
:0106B900F44C
:0106BA00F44B
:0106BB00F44A
:0106BC00F449
:0106BD00F448
:0106BE00F447
:0106BF00F446
:0106C000F445
:0106C100F444
:0106C200F443
:0106C300F442
:0106C400F441
:0106C500F440
:0106C600F43F
:0106C700F53D
:0106C800F53C
:0106C900F53B
:0106CA00F53A
:0106CB00F539
:0106CC00F538
:0106CD00F537
:0106CE00F536
:0106CF00F535
:0106D000F534
:0106D100F533
:0106D200F532
:0106D300F531
:0106D400F530
:0106D500F52F
:0106D600F52E
:0106D700F52D
:0106D800F52C
:0106D900F52B
:0106DA00F52A
:0106DB00F529
:0106DC00F528
:0106DD00F527
:0106DE00F526
:0106DF00F525
:0106E000F524
:0106E100F523
:0106E200F522
:0106E300F521
:0106E400F520
:0106E500F51F
:0106E600F51E
:0106E700F51D
:0106E800F51C
:0106E900F51B
:0106EA00F51A
:0106EB00F519
:0106EC00F518
:0106ED00F517
:0106EE00F516
:0106EF00F515
:0106F000F514
:0106F100F513
:0106F200F512
:0106F300F511
:0106F400F510
:0106F500F50F
:0106F600F50E
:0106F700F50D
:0106F800F50C
:0106F900F50B
:0106FA00F50A
:0106FB00F509
:0106FC00F508
:0106FD00F507
:0106FE00F506
:0106FF00F505
:01070000F503
:01070100F502
:01070200F501
:01070300F500
:01070400F5FF
:01070500F5FE
:01070600F5FD
:01070700F5FC
:01070800F5FB
:01070900F5FA
:01070A00F5F9
:01070B00F5F8
:01070C00F5F7
:01070D00F5F6
:01070E00F5F5
:01070F00F5F4
:01071000F5F3
:01071100F5F2
:01071200F5F1
:01071300F5F0
:01071400F5EF
:01071500F5EE
:01071600F5ED
:01071700F5EC
:01071800F5EB
:01071900F5EA
:01071A00F5E9
:01071B00F5E8
:01071C00F5E7
:01071D00F5E6
:01071E00F5E5
:01071F00F5E4
:01072000F5E3
:01072100F5E2
:01072200F6E0
:01072300F6DF
:01072400F6DE
:01072500F6DD
:01072600F6DC
:01072700F6DB
:01072800F6DA
:01072900F6D9
:01072A00F6D8
:01072B00F6D7
:01072C00F6D6
:01072D00F6D5
:01072E00F6D4
:01072F00F6D3
:01073000F6D2
:01073100F6D1
:01073200F6D0
:01073300F6CF
:01073400F6CE
:01073500F6CD
:01073600F6CC
:01073700F6CB
:01073800F6CA
:01073900F6C9
:01073A00F6C8
:01073B00F6C7
:01073C00F6C6
:01073D00F6C5
:01073E00F6C4
:01073F00F6C3
:01074000F6C2
:01074100F6C1
:01074200F6C0
:01074300F6BF
:01074400F6BE
:01074500F6BD
:01074600F6BC
:01074700F6BB
:01074800F6BA
:01074900F6B9
:01074A00F6B8
:01074B00F6B7
:01074C00F6B6
:01074D00F6B5
:01074E00F6B4
:01074F00F6B3
:01075000F6B2
:01075100F6B1
:01075200F6B0
:01075300F6AF
:01075400F6AE
:01075500F6AD
:01075600F6AC
:01075700F6AB
:01075800F6AA
:01075900F6A9
:01075A00F6A8
:01075B00F6A7
:01075C00F6A6
:01075D00F6A5
:01075E00F6A4
:01075F00F6A3
:01076000F6A2
:01076100F6A1
:01076200F6A0
:01076300F69F
:01076400F69E
:01076500F69D
:01076600F69C
:01076700F69B
:01076800F69A
:01076900F699
:01076A00F698
:01076B00F697
:01076C00F696
:01076D00F695
:01076E00F694
:01076F00F693
:01077000F692
:01077100F691
:01077200F690
:01077300F68F
:01077400F68E
:01077500F68D
:01077600F68C
:01077700F68B
:01077800F68A
:01077900F689
:01077A00F688
:01077B00F687
:01077C00F686
:01077D00F685
:01077E00F684
:01077F00F683
:01078000F682
:01078100F681
:01078200F680
:01078300F67F
:01078400F67E
:01078500F67D
:01078600F67C
:01078700F67B
:01078800F67A
:01078900F679
:01078A00F777
:01078B00F776
:01078C00F775
:01078D00F774
:01078E00F773
:01078F00F772
:01079000F771
:01079100F770
:01079200F76F
:01079300F76E
:01079400F76D
:01079500F76C
:01079600F76B
:01079700F76A
:01079800F769
:01079900F768
:01079A00F767
:01079B00F766
:01079C00F765
:01079D00F764
:01079E00F763
:01079F00F762
:0107A000F761
:0107A100F760
:0107A200F75F
:0107A300F75E
:0107A400F75D
:0107A500F75C
:0107A600F75B
:0107A700F75A
:0107A800F759
:0107A900F758
:0107AA00F757
:0107AB00F756
:0107AC00F755
:0107AD00F754
:0107AE00F753
:0107AF00F752
:0107B000F751
:0107B100F750
:0107B200F74F
:0107B300F74E
:0107B400F74D
:0107B500F74C
:0107B600F74B
:0107B700F74A
:0107B800F749
:0107B900F748
:0107BA00F747
:0107BB00F746
:0107BC00F745
:0107BD00F744
:0107BE00F743
:0107BF00F742
:0107C000F741
:0107C100F740
:0107C200F73F
:0107C300F73E
:0107C400F73D
:0107C500F73C
:0107C600F73B
:0107C700F73A
:0107C800F739
:0107C900F738
:0107CA00F737
:0107CB00F736
:0107CC00F735
:0107CD00F734
:0107CE00F733
:0107CF00F732
:0107D000F731
:0107D100F730
:0107D200F72F
:0107D300F72E
:0107D400F72D
:0107D500F72C
:0107D600F72B
:0107D700F72A
:0107D800F729
:0107D900F728
:0107DA00F727
:0107DB00F726
:0107DC00F725
:0107DD00F724
:0107DE00F723
:0107DF00F722
:0107E000F721
:0107E100F720
:0107E200F71F
:0107E300F71E
:0107E400F71D
:0107E500F71C
:0107E600F71B
:0107E700F71A
:0107E800F719
:0107E900F718
:0107EA00F717
:0107EB00F716
:0107EC00F715
:0107ED00F714
:0107EE00F713
:0107EF00F712
:0107F000F711
:0107F100F710
:0107F200F70F
:0107F300F70E
:0107F400F70D
:0107F500F70C
:0107F600F70B
:0107F700F70A
:0107F800F709
:0107F900F708
:0107FA00F707
:0107FB00F706
:0107FC00F705
:0107FD00F704
:0107FE00F703
:0107FF00F702
:00000001ff
