:020000040000FA
:0200000003FFFC
:020001000340BA
:0200020002807A
:0200030001C139
:020004000102F7
:020005000044B5
:0200060003866F
:0200070002C92C
:02000800020BE9
:02000900014FA5
:02000A00009262
:02000B0003D61A
:02000C00031AD5
:02000D00025F90
:02000E0001A44B
:02000F0000E906
:02001000002FBF
:02001100037575
:0200120002BB2F
:020013000202E7
:020014000149A0
:02001500009158
:0200160003D90C
:020017000321C3
:0200180002697B
:0200190001B232
:02001A0000FCE8
:02001B0000459E
:02001C00038F50
:02001D0002DA05
:02001E000224BA
:02001F00016F6F
:0200200000BB23
:020021000006D7
:02002200035287
:02002300029F3A
:0200240001ECED
:0200250001399F
:02002600008652
:0200270003D400
:020028000322B1
:02002900027063
:02002A0001BF14
:02002B00010EC4
:02002C00005E74
:02002D0003AE20
:02002E0002FED0
:02002F00024E7F
:02003000019F2E
:0200310000F0DD
:0200320000428A
:02003300039434
:0200340002E6E2
:0200350002388F
:02003600018B3C
:0200370000DEE9
:02003800003294
:0200390003863C
:02003A0002DAE8
:02003B00022E93
:02003C0001833E
:02003D0000D8E9
:02003E00002D93
:02003F00038339
:0200400002D9E3
:0200410002308B
:02004200018635
:0200430000DDDE
:02004400003585
:02004500038C2A
:0200460002E4D2
:02004700023D78
:02004800019520
:0200490000EEC7
:02004A0000486C
:02004B0003A10F
:02004C0002FBB5
:02004D0002555A
:02004E0001B0FF
:02004F00010BA3
:02005000006648
:0200510003C1E9
:02005200031D8C
:02005300027930
:0200540001D5D4
:02005500013276
:02005600008F19
:0200570003ECB8
:02005800034A59
:0200590002A8FB
:02005A0002069C
:02005B0001643E
:02005C0000C3DF
:02005D0000227F
:02005E0003821B
:02005F0002E1BC
:0200600002415B
:0200610001A2FA
:02006200010299
:02006300006338
:0200640003C4D3
:02006500032670
:0200660002880E
:0200670001EAAC
:02006800014C49
:0200690000AFE6
:02006A00001282
:02006B0003751B
:02006C0002D8B8
:02006D00023C53
:02006E0001A0EF
:02006F00010589
:02007000006925
:0200710003CEBC
:02007200033455
:020073000299F0
:0200740001FF8A
:02007500016523
:0200760000CCBC
:02007700003255
:020078000399EA
:02007900030082
:02007A0002681A
:02007B0001D0B2
:02007C00013849
:02007D0000A0E1
:02007E00000977
:02007F0003720A
:0200800002DBA1
:02008100024536
:0200820001AECD
:02008300011862
:020084000083F7
:0200850003ED89
:0200860003581D
:0200870002C3B2
:02008800022F45
:02008900019ADA
:02008A0001066D
:02008B00007201
:02008C0003DF90
:02008D00034C22
:02008E0002B9B5
:02008F00022647
:020090000194D9
:0200910001016B
:020092000070FC
:0200930003DE8A
:02009400034D1A
:0200950002BBAC
:02009600022B3B
:02009700019ACC
:02009800010A5B
:02009900007AEB
:02009A0003EA77
:02009B00035A06
:02009C0002CB95
:02009D00023C23
:02009E0001ADB2
:02009F00011F3F
:0200A0000090CE
:0200A10000035A
:0200A2000375E4
:0200A30002E772
:0200A400025AFE
:0200A50001CD8B
:0200A600014017
:0200A70000B4A3
:0200A80000282E
:0200A900039CB6
:0200AA00031041
:0200AB000285CC
:0200AC0001FA57
:0200AD00016FE1
:0200AE0000E46C
:0200AF000059F6
:0200B00003CF7C
:0200B100034505
:0200B20002BC8E
:0200B300023217
:0200B40001A9A0
:0200B500012028
:0200B6000097B1
:0200B700000F38
:0200B8000387BC
:0200B90002FF44
:0200BA000277CB
:0200BB0001EF53
:0200BC000168D9
:0200BD0000E160
:0200BE00005AE6
:0200BF0003D468
:0200C000034EED
:0200C10002C873
:0200C2000242F8
:0200C30001BC7E
:0200C400013702
:0200C50000B287
:0200C600002D0B
:0200C70003A88C
:0200C80003240F
:0200C90002A093
:0200CA00021C16
:0200CB0001989A
:0200CC0001151C
:0200CD0000929F
:0200CE00000F21
:0200CF00038CA0
:0200D000030922
:0200D1000287A4
:0200D200020525
:0200D3000183A7
:0200D400010227
:0200D5000080A9
:0200D60003FF26
:0200D700037EA6
:0200D80002FE26
:0200D900027DA6
:0200DA0001FD26
:0200DB00017DA5
:0200DC0000FD25
:0200DD00007EA3
:0200DE0003FE1F
:0200DF00037F9D
:0200E00003001B
:0200E100028299
:0200E200020317
:0200E300018595
:0200E400010712
:0200E500008990
:0200E600000C0C
:0200E700038E86
:0200E800031102
:0200E90002947F
:0200EA000218FA
:0200EB00019B77
:0200EC00011FF2
:0200ED0000A36E
:0200EE000027E9
:0200EF0003AC60
:0200F0000330DB
:0200F10002B556
:0200F200023AD0
:0200F30001C04A
:0200F4000145C4
:0200F50000CB3E
:0200F6000051B7
:0200F70003D72D
:0200F800035DA6
:0200F90002E41F
:0200FA00026B97
:0200FB0001F111
:0200FC00017988
:0200FD00010000
:0200FE00008878
:0200FF000010EF
:02010000039862
:020101000320D9
:0201020002A851
:020103000231C7
:0201040001BA3E
:020105000143B4
:0201060000CC2B
:020107000056A0
:0201080003DF13
:02010900036988
:02010A0002F3FE
:02010B00027E72
:02010C000208E7
:02010D0001935C
:02010E00011ED0
:02010F0000A945
:020110000034B9
:0201110003C029
:02011200034B9D
:0201130002D711
:02011400026384
:0201150001F0F7
:02011600017C6A
:020117000109DC
:0201180000964F
:020119000023C1
:02011A0003B030
:02011B00033EA1
:02011C0002CB14
:02011D00025985
:02011E0001E7F7
:02011F00017667
:020120000104D8
:02012100009349
:020122000022B9
:0201230003B126
:02012400034096
:0201250002CF07
:02012600025F76
:0201270001EFE6
:02012800017F55
:02012900010FC4
:02012A00009F34
:02012B000030A2
:02012C0003C10D
:02012D0003527B
:02012E0002E3EA
:02012F00027458
:020130000206C5
:02013100019734
:020132000129A1
:0201330000BB0F
:02013400004E7B
:0201350003E0E5
:02013600037351
:020137000306BD
:0201380002992A
:02013900022C96
:02013A0001BF03
:02013B0001536E
:02013C0000E7DA
:02013D00007B45
:02013E00000FB0
:02013F0003A318
:02014000033783
:0201410002CCEE
:02014200026158
:0201430001F6C3
:02014400018B2D
:02014500012196
:0201460000B601
:02014700004C6A
:0201480003E2D0
:02014900037839
:02014A00030EA2
:02014B0002A50B
:02014C00023B74
:02014D0001D2DD
:02014E00016945
:02014F000100AD
:02015000009815
:02015100002F7D
:0201520003C7E1
:02015300035F48
:0201540002F7B0
:02015500028F17
:0201560002277E
:0201570001C0E5
:0201580001594B
:0201590000F2B2
:02015A00008B18
:02015B0000247E
:02015C0003BDE1
:02015D00035746
:02015E0002F1AC
:02015F00028B11
:02016000022576
:0201610001BFDC
:02016200015A40
:0201630000F4A6
:02016400008F0A
:02016500002A6E
:0201660003C5CF
:02016700036033
:0201680002FC97
:020169000297FB
:02016A0002335E
:02016B0001CFC2
:02016C00016B25
:02016D00010887
:02016E0000A4EB
:02016F0000414D
:0201700003DDAD
:02017100037A0F
:02017200031771
:0201730002B5D3
:02017400025235
:0201750001F097
:02017600018EF8
:02017700012B5A
:0201780000CABB
:0201790000681C
:02017A0000067D
:02017B0003A5DA
:02017C0003433B
:02017D0002E29C
:02017E000281FC
:02017F0002215B
:0201800001C0BC
:0201810001601B
:0201820000FF7C
:02018300009FDB
:02018400003F3A
:0201850003DF96
:020186000380F4
:02018700032053
:0201880002C1B2
:02018900026111
:02018A0002026F
:02018B0001A3CE
:02018C0001452B
:02018D0000E68A
:02018E000088E7
:02018F00002945
:0201900003CB9F
:02019100036DFC
:02019200030F59
:0201930002B2B6
:02019400025413
:0201950001F770
:02019600019ACC
:02019700013D28
:0201980000E085
:020199000083E1
:02019A0000263D
:02019B0003CA95
:02019C00036EF0
:02019D0003114C
:02019E0002B5A8
:02019F00025A02
:0201A00001FE5E
:0201A10001A2B9
:0201A200014713
:0201A30000EC6E
:0201A4000090C9
:0201A500003622
:0201A60003DB79
:0201A7000380D3
:0201A80003252D
:0201A90002CB87
:0201AA000271E0
:0201AB00021739
:0201AC0001BD93
:0201AD000163EC
:0201AE00010945
:0201AF0000B09E
:0201B0000057F6
:0201B10003FD4C
:0201B20003A4A4
:0201B300034BFC
:0201B40002F255
:0201B500029AAC
:0201B600024104
:0201B70001E95C
:0201B8000191B3
:0201B90001390A
:0201BA0000E162
:0201BB000089B9
:0201BC00003110
:0201BD0003DA63
:0201BE000382BA
:0201BF00032B10
:0201C00002D467
:0201C100027DBD
:0201C200022613
:0201C30001D069
:0201C4000179BF
:0201C500012314
:0201C60000CC6B
:0201C7000076C0
:0201C800002015
:0201C90003CA67
:0201CA000375BB
:0201CB00031F10
:0201CC0002CA65
:0201CD000274BA
:0201CE00021F0E
:0201CF0001CA63
:0201D0000175B7
:0201D10001210A
:0201D20000CC5F
:0201D3000077B3
:0201D400002306
:0201D50003CF56
:0201D600037BA9
:0201D7000327FC
:0201D80002D350
:0201D900027FA3
:0201DA00022CF5
:0201DB0001D849
:0201DC0001859B
:0201DD000132ED
:0201DE0000DF40
:0201DF00008C92
:0201E0000039E4
:0201E10003E732
:0201E200039484
:0201E3000342D5
:0201E40002EF28
:0201E500029D79
:0201E600024BCA
:0201E70001F91C
:0201E80001A86C
:0201E9000156BD
:0201EA0001050D
:0201EB0000B35F
:0201EC000062AF
:0201ED000011FF
:0201EE0003C04C
:0201EF00036F9C
:0201F000031FEB
:0201F10002CE3C
:0201F200027E8B
:0201F300022DDB
:0201F40001DD2B
:0201F500018D7A
:0201F600013DC9
:0201F70000ED19
:0201F800009D68
:0201F900004EB6
:0201FA0003FE02
:0201FB0003AF50
:0201FC0003609E
:0201FD000311EC
:0201FE0002C23B
:0201FF00027389
:020200000224D6
:0202010001D624
:02020200018772
:020203000139BF
:0202040000EB0D
:02020500009D5A
:02020600004FA7
:020207000001F4
:0202080003B33E
:0202090003668A
:02020A000318D7
:02020B0002CB24
:02020C00027D71
:02020D000230BD
:02020E0001E30A
:02020F00019656
:02021000014AA1
:0202110000FDEE
:0202120000B03A
:02021300006485
:020214000018D0
:0202150003CC18
:02021600038063
:020217000334AE
:0202180002E8FA
:02021900029C45
:02021A00025090
:02021B000205DA
:02021C0001BA25
:02021D00016E70
:02021E000123BA
:02021F0000D805
:02022000008D4F
:02022100004398
:0202220003F8DF
:0202230003AD29
:02022400036372
:020225000319BB
:0202260002CE06
:0202270002844F
:02022800023A98
:0202290001F1E1
:02022A0001A72A
:02022B00015D73
:02022C000114BB
:02022D0000CA05
:02022E0000814D
:02022F00003895
:0202300003EFDA
:0202310003A622
:02023200035D6A
:020233000314B2
:0202340002CCFA
:02023500028342
:02023600023B89
:0202370001F2D2
:0202380001AA19
:02023900016260
:02023A00011AA7
:02023B0000D2EF
:02023C00008B35
:02023D0000437C
:02023E0003FBC0
:02023F0003B406
:02024000036D4C
:02024100032692
:0202420002DEDA
:02024300029720
:02024400025165
:02024500020AAB
:0202460001C3F2
:02024700017D37
:0202480001367D
:0202490000F0C3
:02024A0000AA08
:02024B0000644D
:02024C00001E92
:02024D0003D8D4
:02024E00039219
:02024F00034C5E
:020250000307A2
:0202510002C1E8
:02025200027C2C
:02025300023671
:0202540001F1B6
:0202550001ACFA
:0202560001673E
:02025700012282
:0202580000DEC6
:0202590000990A
:02025A0000544E
:02025B00001091
:02025C0003CCD1
:02025D00038715
:02025E00034358
:02025F0002FF9C
:0202600002BBDF
:02026100027821
:02026200023464
:0202630001F0A8
:0202640001ADEA
:0202650001692D
:0202660001266F
:0202670000E3B2
:0202680000A0F4
:02026900005D36
:02026A00001A78
:02026B0003D7B7
:02026C000394F9
:02026D0003523A
:02026E00030F7C
:02026F0002CDBE
:02027000028A00
:02027100024841
:02027200020682
:0202730001C4C4
:02027400018205
:02027500014046
:0202760000FF87
:0202770000BDC8
:02027800007B09
:02027900003A49
:02027A0003F986
:02027B0003B7C7
:02027C00037607
:02027D00033547
:02027E0002F488
:02027F0002B3C8
:02028000027307
:02028100023247
:0202820001F188
:0202830001B1C7
:02028400017106
:02028500013046
:0202860000F086
:0202870000B0C5
:02028800007004
:02028900003043
:02028A0003F07F
:02028B0003B1BD
:02028C000371FC
:02028D0003323A
:02028E0002F27A
:02028F0002B3B8
:020290000274F6
:02029100023534
:0202920001F574
:0202930001B7B1
:020294000178EF
:0202950001392D
:0202960000FA6C
:0202970000BCA9
:02029800007DE7
:02029900003F24
:02029A00000062
:02029B0003C29C
:02029C000384D9
:02029D00034616
:02029E00030853
:02029F0002CA91
:0202A000028DCD
:0202A100024F0A
:0202A200021147
:0202A30001D484
:0202A4000196C1
:0202A5000159FD
:0202A600011C39
:0202A70000DF76
:0202A80000A2B2
:0202A9000065EE
:0202AA0000282A
:0202AB0003EB63
:0202AC0003AF9E
:0202AD000372DA
:0202AE00033516
:0202AF0002F952
:0202B00002BD8D
:0202B1000281C8
:0202B200024404
:0202B30002083F
:0202B40001CC7B
:0202B5000190B6
:0202B6000155F0
:0202B70001192B
:0202B80000DD67
:0202B90000A2A1
:0202BA000066DC
:0202BB00002B16
:0202BC0003F04D
:0202BD0003B587
:0202BE000379C2
:0202BF00033EFC
:0202C000030336
:0202C10002C970
:0202C200028EAA
:0202C3000253E4
:0202C40002191D
:0202C50001DE58
:0202C60001A491
:0202C7000169CB
:0202C800012F04
:0202C90000F53E
:0202CA0000BB77
:0202CB000081B0
:0202CC000047E9
:0202CD00000D22
:0202CE0003D358
:0202CF00039A90
:0202D0000360C9
:0202D100032701
:0202D20002ED3B
:0202D30002B473
:0202D400027BAB
:0202D5000241E4
:0202D60002081C
:0202D70001CF55
:0202D80001968D
:0202D900015EC4
:0202DA000125FC
:0202DB0000EC35
:0202DC0000B46C
:0202DD00007BA4
:0202DE000043DB
:0202DF00000A13
:0202E00003D247
:0202E100039A7E
:0202E2000362B5
:0202E300032AEC
:0202E40002F224
:0202E50002BA5B
:0202E600028292
:0202E700024AC9
:0202E8000213FF
:0202E90001DB37
:0202EA0001A46D
:0202EB00016CA4
:0202EC000135DA
:0202ED0000FE11
:0202EE0000C747
:0202EF0000907D
:0202F0000059B3
:0202F1000022E9
:0202F20003EB1C
:0202F30003B452
:0202F400037D88
:0202F5000347BD
:0202F6000310F3
:0202F70002DA29
:0202F80002A45E
:0202F900026D94
:0202FA000237C9
:0202FB000201FE
:0202FC0001CB34
:0202FD00019569
:0202FE00015F9E
:0202FF000129D3
:0203000000F308
:0203010000BE3C
:02030200008871
:020303000053A5
:02030400001DDA
:0203050003E80B
:0203060003B240
:02030700037D74
:020308000348A8
:020309000313DC
:02030A0002DE11
:02030B0002A945
:02030C00027479
:02030D00023FAD
:02030E00020BE0
:02030F0001D615
:0203100001A248
:02031100016D7C
:020312000139AF
:020313000104E3
:0203140000D017
:02031500009C4A
:0203160000687D
:020317000034B0
:020318000000E3
:0203190003CC13
:02031A00039846
:02031B00036479
:02031C000331AB
:02031D0002FDDF
:02031E0002CA11
:02031F00029644
:02032000026376
:020321000230A8
:0203220001FCDC
:0203230001C90E
:02032400019640
:02032500016372
:020326000130A4
:0203270000FDD7
:0203280000CA09
:0203290000983A
:02032A0000656C
:02032B0000329E
:02032C000000CF
:02032D0003CDFE
:02032E00039B2F
:02032F00036960
:02033000033791
:020331000304C3
:0203320002D2F5
:0203330002A026
:02033400026E57
:02033500023C88
:02033600020BB8
:0203370001D9EA
:0203380001A71B
:0203390001764B
:02033A0001447C
:02033B000113AC
:02033C0000E1DE
:02033D0000B00E
:02033E00007F3E
:02033F00004D6F
:02034000001C9F
:0203410003EBCC
:0203420003BAFC
:0203430003892C
:0203440003585C
:0203450003288B
:0203460002F7BC
:0203470002C6EC
:0203480002961B
:0203490002654B
:02034A0002357A
:02034B000204AA
:02034C0001D4DA
:02034D0001A409
:02034E00017339
:02034F00014368
:02035000011397
:0203510000E3C7
:0203520000B3F6
:02035300008424
:02035400005453
:02035500002482
:0203560003F4AE
:0203570003C5DC
:0203580003950B
:02035900036639
:02035A00033668
:02035B00030796
:02035C0002D8C5
:02035D0002A9F3
:02035E00027922
:02035F00024A50
:02036000021B7E
:0203610001ECAD
:0203620001BEDA
:02036300018F08
:02036400016036
:02036500013164
:02036600010391
:0203670000D4C0
:0203680000A6ED
:0203690000771B
:02036A00004948
:02036B00001B75
:02036C0003ECA0
:02036D0003BECD
:02036E000390FA
:02036F00036227
:02037000033454
:02037100030681
:0203720002D8AF
:0203730002AADC
:02037400027D08
:02037500024F35
:02037600022162
:0203770001F48F
:0203780001C6BC
:020379000199E8
:02037A00016C14
:02037B00013E41
:02037C0001116D
:02037D0000E49A
:02037E0000B7C6
:02037F00008AF2
:02038000005D1E
:0203810000304A
:02038200000376
:0203830003D69F
:0203840003A9CB
:02038500037DF6
:02038600035022
:0203870003234E
:0203880002F77A
:0203890002CAA6
:02038A00029ED1
:02038B000272FC
:02038C00024528
:02038D00021953
:02038E0001ED7F
:02038F0001C1AA
:020390000195D5
:02039100016900
:02039200013D2B
:02039300011156
:0203940000E582
:0203950000BAAC
:02039600008ED7
:02039700006202
:0203980000372C
:02039900000B57
:02039A0003E07E
:02039B0003B5A8
:02039C000389D3
:02039D00035EFD
:02039E00033327
:02039F00030851
:0203A00002DD7C
:0203A10002B1A7
:0203A2000287D0
:0203A300025CFA
:0203A400023124
:0203A50002064E
:0203A60001DB79
:0203A70001B1A2
:0203A8000186CC
:0203A900015BF6
:0203AA0001311F
:0203AB00010649
:0203AC0000DC73
:0203AD0000B29C
:0203AE000087C6
:0203AF00005DEF
:0203B000003318
:0203B100000941
:0203B20003DF67
:0203B30003B590
:0203B400038BB9
:0203B5000361E2
:0203B60003370B
:0203B700030D34
:0203B80002E35E
:0203B90002BA86
:0203BA000290AF
:0203BB000267D7
:0203BC00023D00
:0203BD00021428
:0203BE0001EA52
:0203BF0001C17A
:0203C0000198A2
:0203C100016ECB
:0203C2000145F3
:0203C300011C1B
:0203C40000F344
:0203C50000CA6C
:0203C60000A194
:0203C7000078BC
:0203C800004FE4
:0203C90000270B
:0203CA0003FE30
:0203CB0003D558
:0203CC0003AC80
:0203CD000384A7
:0203CE00035BCF
:0203CF000333F6
:0203D000030A1E
:0203D10002E246
:0203D20002BA6D
:0203D300029294
:0203D4000269BC
:0203D5000241E3
:0203D60002190A
:0203D70001F132
:0203D80001C959
:0203D90001A180
:0203DA000179A7
:0203DB000151CE
:0203DC00012AF4
:0203DD0001021B
:0203DE0000DA43
:0203DF0000B369
:0203E000008B90
:0203E1000063B7
:0203E200003CDD
:0203E300001503
:0203E40003ED27
:0203E50003C64D
:0203E600039F73
:0203E70003779A
:0203E8000350C0
:0203E9000329E6
:0203EA0003020C
:0203EB0002DB33
:0203EC0002B459
:0203ED00028D7F
:0203EE000266A5
:0203EF000240CA
:0203F0000219F0
:0203F10001F217
:0203F20001CB3D
:0203F30001A562
:0203F400017E88
:0203F5000158AD
:0203F6000131D3
:0203F700010BF8
:0203F80000E51E
:0203F90000BE44
:0203FA00009869
:0203FB0000728E
:0203FC00004CB3
:0203FD000026D8
:0203FE000000FD
:0203FF0003DA1F
:0204000003B443
:02040100038E68
:0204020003688D
:020403000342B2
:02040400031CD7
:0204050002F7FC
:0204060002D121
:0204070002AB46
:0204080002866A
:0204090002608F
:02040A00023BB3
:02040B000215D8
:02040C0001F0FD
:02040D0001CB21
:02040E0001A546
:02040F0001806A
:02041000015B8E
:020411000136B2
:020412000111D6
:0204130000ECFB
:0204140000C71F
:0204150000A243
:02041600007D67
:0204170000588B
:020418000033AF
:02041900000FD2
:02041A0003EAF3
:02041B0003C517
:02041C0003A13A
:02041D00037C5E
:02041E00035881
:02041F000333A5
:02042000030FC8
:0204210002EBEC
:0204220002C610
:0204230002A233
:02042400027E56
:02042500025A79
:0204260002359D
:020427000211C0
:0204280001EDE4
:0204290001C907
:02042A0001A52A
:02042B0001814D
:02042C00015E6F
:02042D00013A92
:02042E000116B5
:02042F0000F2D9
:0204300000CFFB
:0204310000AB1E
:02043200008741
:02043300006463
:02043400004086
:02043500001DA8
:0204360003FAC7
:0204370003D6EA
:0204380003B30C
:0204390003902E
:02043A00036C51
:02043B00034973
:02043C00032695
:02043D000303B7
:02043E0002E0DA
:02043F0002BDFC
:02044000029A1E
:02044100027740
:02044200025462
:02044300023283
:02044400020FA5
:0204450001ECC8
:0204460001C9EA
:0204470001A70B
:0204480001842D
:0204490001624E
:02044A00013F70
:02044B00011D91
:02044C0000FAB4
:02044D0000D8D5
:02044E0000B6F6
:02044F00009318
:02045000007139
:02045100004F5A
:02045200002D7B
:02045300000B9C
:0204540003E8BB
:0204550003C6DC
:0204560003A4FD
:0204570003831D
:0204580003613E
:02045900033F5F
:02045A00031D80
:02045B0002FBA2
:02045C0002D9C3
:02045D0002B8E3
:02045E00029604
:02045F00027524
:02046000025345
:02046100023166
:02046200021086
:0204630001EFA7
:0204640001CDC8
:0204650001ACE8
:02046600018B08
:02046700016929
:02046800014849
:02046900012769
:02046A00010689
:02046B0000E5AA
:02046C0000C4CA
:02046D0000A3EA
:02046E0000820A
:02046F0000612A
:0204700000404A
:02047100001F6A
:0204720003FE87
:0204730003DDA7
:0204740003BDC6
:02047500039CE6
:02047600037B06
:02047700035B25
:02047800033A45
:02047900031A64
:02047A0002F985
:02047B0002D9A4
:02047C0002B8C4
:02047D000298E3
:02047E00027802
:02047F00025722
:02048000023741
:02048100021760
:0204820001F780
:0204830001D79F
:0204840001B7BE
:020485000197DD
:020486000177FC
:0204870001571B
:0204880001373A
:02048900011759
:02048A0000F779
:02048B0000D798
:02048C0000B8B6
:02048D000098D5
:02048E000078F4
:02048F00005912
:02049000003931
:02049100001950
:0204920003FA6B
:0204930003DA8A
:0204940003BBA8
:02049500039CC6
:02049600037CE5
:02049700035D03
:02049800033E21
:02049900031E40
:02049A0002FF5F
:02049B0002E07D
:02049C0002C19B
:02049D0002A2B9
:02049E000283D7
:02049F000264F5
:0204A000024513
:0204A100022631
:0204A20002074F
:0204A30001E86E
:0204A40001C98C
:0204A50001AAAA
:0204A600018CC7
:0204A700016DE5
:0204A800014E03
:0204A900013020
:0204AA0001113E
:0204AB0000F35C
:0204AC0000D47A
:0204AD0000B697
:0204AE000097B5
:0204AF000079D2
:0204B000005AF0
:0204B100003C0D
:0204B200001E2A
:0204B30003FF45
:0204B40003E162
:0204B50003C37F
:0204B60003A59C
:0204B7000387B9
:0204B8000369D6
:0204B900034BF3
:0204BA00032D10
:0204BB00030F2D
:0204BC0002F14B
:0204BD0002D368
:0204BE0002B585
:0204BF000297A2
:0204C0000279BF
:0204C100025CDB
:0204C200023EF8
:0204C300022015
:0204C400020331
:0204C50001E54F
:0204C60001C86B
:0204C70001AA88
:0204C800018DA4
:0204C900016FC1
:0204CA000152DD
:0204CB000134FA
:0204CC00011716
:0204CD0000FA33
:0204CE0000DC50
:0204CF0000BF6C
:0204D00000A288
:0204D1000085A4
:0204D2000068C0
:0204D300004BDC
:0204D400002DF9
:0204D500001015
:0204D60003F32E
:0204D70003D749
:0204D80003BA65
:0204D900039D81
:0204DA0003809D
:0204DB000363B9
:0204DC000346D5
:0204DD00032AF0
:0204DE00030D0C
:0204DF0002F029
:0204E00002D444
:0204E10002B760
:0204E200029A7C
:0204E300027E97
:0204E4000261B3
:0204E5000245CE
:0204E6000228EA
:0204E700020C05
:0204E80001F021
:0204E90001D33D
:0204EA0001B758
:0204EB00019B73
:0204EC00017F8E
:0204ED000162AA
:0204EE000146C5
:0204EF00012AE0
:0204F000010EFB
:0204F10000F217
:0204F20000D632
:0204F30000BA4D
:0204F400009E68
:0204F500008283
:0204F60000669E
:0204F700004AB9
:0204F800002FD3
:0204F9000013EE
:0204FA0003F706
:0204FB0003DB21
:0204FC0003C03B
:0204FD0003A456
:0204FE00038871
:0204FF00036D8B
:020500000351A5
:020501000336BF
:02050200031ADA
:0205030002FFF5
:0205040002E310
:0205050002C82A
:0205060002AD44
:0205070002915F
:02050800027679
:02050900025B93
:02050A00023FAE
:02050B000224C8
:02050C000209E2
:02050D0001EEFD
:02050E0001D317
:02050F0001B831
:02051000019D4B
:02051100018265
:0205120001677F
:02051300014C99
:020514000131B3
:020515000116CD
:0205160000FBE8
:0205170000E101
:0205180000C61B
:0205190000AB35
:02051A0000904F
:02051B00007668
:02051C00005B82
:02051D0000409C
:02051E000026B5
:02051F00000BCF
:0205200003F1E5
:0205210003D6FF
:0205220003BC18
:0205230003A132
:0205240003874B
:02052500036D64
:0205260003527E
:02052700033897
:02052800031EB0
:020529000303CA
:02052A0002E9E4
:02052B0002CFFD
:02052C0002B516
:02052D00029B2F
:02052E00028148
:02052F00026761
:02053000024D7A
:02053100023393
:020532000219AC
:0205330001FFC6
:0205340001E5DF
:0205350001CBF8
:0205360001B111
:0205370001972A
:02053800017E42
:0205390001645B
:02053A00014A74
:02053B0001318C
:02053C000117A5
:02053D0000FDBF
:02053E0000E4D7
:02053F0000CAF0
:0205400000B108
:02054100009721
:02054200007E39
:02054300006452
:02054400004B6A
:02054500003183
:0205460000189B
:0205470003FFB0
:0205480003E5C9
:0205490003CCE1
:02054A0003B3F9
:02054B00039A11
:02054C00038129
:02054D00036742
:02054E00034E5A
:02054F00033572
:02055000031C8A
:020551000303A2
:0205520002EABB
:0205530002D1D3
:0205540002B8EB
:02055500029F03
:0205560002861B
:02055700026E32
:0205580002554A
:02055900023C62
:02055A0002237A
:02055B00020B91
:02055C0001F2AA
:02055D0001D9C2
:02055E0001C0DA
:02055F0001A8F1
:02056000018F09
:02056100017720
:02056200015E38
:0205630001464F
:02056400012D67
:0205650001157E
:0205660000FC97
:0205670000E4AE
:0205680000CCC5
:0205690000B3DD
:02056A00009BF4
:02056B0000830B
:02056C00006A23
:02056D0000523A
:02056E00003A51
:02056F00002268
:02057000000A7F
:0205710003F293
:0205720003DAAA
:0205730003C1C2
:0205740003A9D9
:020575000391F0
:02057600037A06
:0205770003621D
:02057800034A34
:0205790003324B
:02057A00031A62
:02057B00030279
:02057C0002EA91
:02057D0002D3A7
:02057E0002BBBE
:02057F0002A3D5
:02058000028BEC
:02058100027402
:02058200025C19
:02058300024430
:02058400022D46
:0205850002155D
:0205860001FE74
:0205870001E68B
:0205880001CFA1
:0205890001B7B8
:02058A0001A0CE
:02058B000189E4
:02058C000171FB
:02058D00015A11
:02058E00014327
:02058F00012B3E
:02059000011454
:0205910000FD6B
:0205920000E681
:0205930000CE98
:0205940000B7AE
:0205950000A0C4
:020596000089DA
:020597000072F0
:02059800005B06
:0205990000441C
:02059A00002D32
:02059B00001648
:02059C0003FF5B
:02059D0003E871
:02059E0003D187
:02059F0003BA9D
:0205A00003A4B2
:0205A100038DC8
:0205A2000376DE
:0205A300035FF4
:0205A40003480A
:0205A50003321F
:0205A600031B35
:0205A70003044B
:0205A80002EE61
:0205A90002D777
:0205AA0002C18C
:0205AB0002AAA2
:0205AC000294B7
:0205AD00027DCD
:0205AE000267E2
:0205AF000250F8
:0205B000023A0D
:0205B100022323
:0205B200020D38
:0205B30001F74E
:0205B40001E064
:0205B50001CA79
:0205B60001B48E
:0205B700019EA3
:0205B8000187B9
:0205B9000171CE
:0205BA00015BE3
:0205BB000145F8
:0205BC00012F0D
:0205BD00011922
:0205BE00010337
:0205BF0000EC4E
:0205C00000D663
:0205C10000C078
:0205C20000AB8C
:0205C3000095A1
:0205C400007FB6
:0205C5000069CB
:0205C6000053E0
:0205C700003DF5
:0205C80000270A
:0205C90000111F
:0205CA0003FC30
:0205CB0003E645
:0205CC0003D05A
:0205CD0003BB6E
:0205CE0003A583
:0205CF00038F98
:0205D000037AAC
:0205D1000364C1
:0205D200034ED6
:0205D3000339EA
:0205D4000323FF
:0205D500030E13
:0205D60002F829
:0205D70002E33D
:0205D80002CE51
:0205D90002B866
:0205DA0002A37A
:0205DB00028D8F
:0205DC000278A3
:0205DD000263B7
:0205DE00024ECB
:0205DF000238E0
:0205E0000223F4
:0205E100020E08
:0205E20001F91D
:0205E30001E332
:0205E40001CE46
:0205E50001B95A
:0205E60001A46E
:0205E700018F82
:0205E800017A96
:0205E9000165AA
:0205EA000150BE
:0205EB00013BD2
:0205EC000126E6
:0205ED000111FA
:0205EE0000FC0F
:0205EF0000E723
:0205F00000D336
:0205F10000BE4A
:0205F20000A95E
:0205F300009472
:0205F400007F86
:0205F500006B99
:0205F6000056AD
:0205F7000041C1
:0205F800002DD4
:0205F9000018E8
:0205FA000003FC
:0205FB0003EF0C
:0205FC0003DA20
:0205FD0003C633
:0205FE0003B147
:0205FF00039D5A
:0206000003886D
:02060100037480
:02060200035F94
:02060300034BA7
:020604000336BB
:020605000322CE
:02060600030EE1
:0206070002F9F6
:0206080002E509
:0206090002D11C
:02060A0002BD2F
:02060B0002A843
:02060C00029456
:02060D00028069
:02060E00026C7C
:02060F0002588F
:020610000243A3
:02061100022FB6
:02061200021BC9
:020613000207DC
:0206140001F3F0
:0206150001DF03
:0206160001CB16
:0206170001B729
:0206180001A33C
:02061900018F4F
:02061A00017B62
:02061B00016874
:02061C00015487
:02061D0001409A
:02061E00012CAD
:02061F000118C0
:020620000105D2
:0206210000F1E6
:0206220000DDF9
:0206230000C90C
:0206240000B61E
:0206250000A231
:02062600008E44
:02062700007B56
:02062800006769
:0206290000547B
:02062A0000408E
:02062B00002DA0
:02062C000019B3
:02062D000006C5
:02062E0003F2D5
:02062F0003DFE7
:0206300003CBFA
:0206310003B80C
:0206320003A41F
:02063300039131
:02063400037E43
:02063500036A56
:02063600035768
:0206370003447A
:0206380003318C
:02063900031D9F
:02063A00030AB1
:02063B0002F7C4
:02063C0002E4D6
:02063D0002D1E8
:02063E0002BEFA
:02063F0002AA0D
:0206400002971F
:02064100028431
:02064200027143
:02064300025E55
:02064400024B67
:02064500023879
:0206460002258B
:0206470002129D
:0206480001FFB0
:0206490001EDC1
:02064A0001DAD3
:02064B0001C7E5
:02064C0001B4F7
:02064D0001A109
:02064E00018E1B
:02064F00017C2C
:0206500001693E
:02065100015650
:02065200014362
:02065300013173
:02065400011E85
:02065500010B97
:0206560000F9A9
:0206570000E6BB
:0206580000D4CC
:0206590000C1DE
:02065A0000AEF0
:02065B00009C01
:02065C00008913
:02065D00007724
:02065E00006436
:02065F00005247
:02066000004058
:02066100002D6A
:02066200001B7B
:0206630000088D
:0206640003F69B
:0206650003E4AC
:0206660003D1BE
:0206670003BFCF
:0206680003ADE0
:02066900039BF1
:02066A00038803
:02066B00037614
:02066C00036425
:02066D00035236
:02066E00034047
:02066F00032E58
:02067000031B6A
:0206710003097B
:0206720002F78D
:0206730002E59E
:0206740002D3AF
:0206750002C1C0
:0206760002AFD1
:02067700029DE2
:02067800028BF3
:02067900027904
:02067A00026715
:02067B00025625
:02067C00024436
:02067D00023247
:02067E00022058
:02067F00020E69
:0206800001FC7B
:0206810001EB8B
:0206820001D99C
:0206830001C7AD
:0206840001B5BE
:0206850001A4CE
:020686000192DF
:020687000180F0
:02068800016F00
:02068900015D11
:02068A00014B22
:02068B00013A32
:02068C00012843
:02068D00011753
:02068E00010564
:02068F0000F475
:0206900000E286
:0206910000D196
:0206920000BFA7
:0206930000AEB7
:02069400009CC8
:02069500008BD8
:02069600007AE8
:020697000068F9
:02069800005709
:0206990000451A
:02069A0000342A
:02069B0000233A
:02069C0000124A
:02069D0000005B
:02069E0003EF68
:02069F0003DE78
:0206A00003CD88
:0206A10003BC98
:0206A20003AAA9
:0206A3000399B9
:0206A4000388C9
:0206A5000377D9
:0206A6000366E9
:0206A7000355F9
:0206A800034409
:0206A900033319
:0206AA00032229
:0206AB00031139
:0206AC00030049
:0206AD0002EF5A
:0206AE0002DE6A
:0206AF0002CD7A
:0206B00002BC8A
:0206B10002AB9A
:0206B200029AAA
:0206B3000289BA
:0206B4000279C9
:0206B5000268D9
:0206B6000257E9
:0206B7000246F9
:0206B800023509
:0206B900022518
:0206BA00021428
:0206BB00020338
:0206BC0001F249
:0206BD0001E258
:0206BE0001D168
:0206BF0001C177
:0206C00001B087
:0206C100019F97
:0206C200018FA6
:0206C300017EB6
:0206C400016EC5
:0206C500015DD5
:0206C600014DE4
:0206C700013CF4
:0206C800012C03
:0206C900011B13
:0206CA00010B22
:0206CB0000FA33
:0206CC0000EA42
:0206CD0000D952
:0206CE0000C961
:0206CF0000B970
:0206D00000A880
:0206D10000988F
:0206D20000889E
:0206D3000077AE
:0206D4000067BD
:0206D5000057CC
:0206D6000047DB
:0206D7000036EB
:0206D8000026FA
:0206D900001609
:0206DA00000618
:0206DB0003F624
:0206DC0003E633
:0206DD0003D543
:0206DE0003C552
:0206DF0003B561
:0206E00003A570
:0206E10003957F
:0206E20003858E
:0206E30003759D
:0206E4000365AC
:0206E5000355BB
:0206E6000345CA
:0206E7000335D9
:0206E8000325E8
:0206E9000315F7
:0206EA00030506
:0206EB0002F516
:0206EC0002E624
:0206ED0002D633
:0206EE0002C642
:0206EF0002B651
:0206F00002A660
:0206F10002966F
:0206F20002877D
:0206F30002778C
:0206F40002679B
:0206F5000257AA
:0206F6000248B8
:0206F7000238C7
:0206F8000228D6
:0206F9000219E4
:0206FA000209F3
:0206FB0001F903
:0206FC0001EA11
:0206FD0001DA20
:0206FE0001CB2E
:0206FF0001BB3D
:0207000001AC4A
:02070100019C59
:02070200018D67
:02070300017D76
:02070400016E84
:02070500015E93
:02070600014FA1
:02070700013FB0
:020708000130BE
:020709000120CD
:02070A000111DB
:02070B000102E9
:02070C0000F2F9
:02070D0000E307
:02070E0000D415
:02070F0000C424
:0207100000B532
:0207110000A640
:0207120000974E
:0207130000875D
:0207140000786B
:02071500006979
:02071600005A87
:02071700004B95
:02071800003BA4
:02071900002CB2
:02071A00001DC0
:02071B00000ECE
:02071C0003FFD9
:02071D0003F0E7
:02071E0003E1F5
:02071F0003D203
:0207200003C311
:0207210003B41F
:0207220003A52D
:0207230003963B
:02072400038749
:02072500037857
:02072600036965
:02072700035A73
:02072800034B81
:02072900033C8F
:02072A00032D9D
:02072B00031EAB
:02072C00030FB9
:02072D000301C6
:02072E0002F2D5
:02072F0002E3E3
:0207300002D4F1
:0207310002C5FF
:0207320002B70C
:0207330002A81A
:02073400029928
:02073500028A36
:02073600027C43
:02073700026D51
:02073800025E5F
:0207390002506C
:02073A0002417A
:02073B00023387
:02073C00022495
:02073D000215A3
:02073E000207B0
:02073F0001F8BF
:0207400001EACC
:0207410001DBDA
:0207420001CDE7
:0207430001BEF5
:0207440001B002
:0207450001A110
:0207460001931D
:0207470001842B
:02074800017638
:02074900016746
:02074A00015953
:02074B00014B60
:02074C00013C6E
:02074D00012E7B
:02074E00012088
:02074F00011196
:020750000103A3
:0207510000F5B1
:0207520000E6BF
:0207530000D8CC
:0207540000CAD9
:0207550000BCE6
:0207560000ADF4
:02075700009F01
:0207580000910E
:0207590000831B
:02075A00007528
:02075B00006636
:02075C00005843
:02075D00004A50
:02075E00003C5D
:02075F00002E6A
:02076000002077
:02076100001284
:02076200000491
:0207630003F69B
:0207640003E8A8
:0207650003DAB5
:0207660003CCC2
:0207670003BECF
:0207680003B0DC
:0207690003A2E9
:02076A000394F6
:02076B00038603
:02076C00037810
:02076D00036A1D
:02076E00035C2A
:02076F00034E37
:02077000034143
:02077100033350
:0207720003255D
:0207730003176A
:02077400030977
:0207750002FB85
:0207760002EE91
:0207770002E09E
:0207780002D2AB
:0207790002C4B8
:02077A0002B7C4
:02077B0002A9D1
:02077C00029BDE
:02077D00028EEA
:02077E000280F7
:02077F00027204
:02078000026510
:0207810002571D
:02078200024A29
:02078300023C36
:02078400022E43
:0207850002214F
:0207860002135C
:02078700020668
:0207880001F876
:0207890001EB82
:02078A0001DD8F
:02078B0001D09B
:02078C0001C2A8
:02078D0001B5B4
:02078E0001A7C1
:02078F00019ACD
:02079000018CDA
:02079100017FE6
:020792000172F2
:020793000164FF
:0207940001570B
:02079500014A17
:02079600013C24
:02079700012F30
:0207980001223C
:02079900011449
:02079A00010755
:02079B0000FA62
:02079C0000ED6E
:02079D0000DF7B
:02079E0000D287
:02079F0000C593
:0207A00000B89F
:0207A10000AAAC
:0207A200009DB8
:0207A3000090C4
:0207A4000083D0
:0207A5000076DC
:0207A6000069E8
:0207A700005CF4
:0207A800004F00
:0207A90000410D
:0207AA00003419
:0207AB00002725
:0207AC00001A31
:0207AD00000D3D
:0207AE00000049
:0207AF0003F352
:0207B00003E65E
:0207B10003D96A
:0207B20003CC76
:0207B30003BF82
:0207B40003B28E
:0207B50003A59A
:0207B6000399A5
:0207B700038CB1
:0207B800037FBD
:0207B9000372C9
:0207BA000365D5
:0207BB000358E1
:0207BC00034BED
:0207BD00033FF8
:0207BE00033204
:0207BF00032510
:0207C00003181C
:0207C100030B28
:0207C20002FF34
:0207C30002F240
:0207C40002E54C
:0207C50002D858
:0207C60002CC63
:0207C70002BF6F
:0207C80002B27B
:0207C90002A686
:0207CA00029992
:0207CB00028C9E
:0207CC000280A9
:0207CD000273B5
:0207CE000266C1
:0207CF00025ACC
:0207D000024DD8
:0207D1000241E3
:0207D2000234EF
:0207D3000228FA
:0207D400021B06
:0207D500020F11
:0207D60002021D
:0207D70001F629
:0207D80001E935
:0207D90001DD40
:0207DA0001D04C
:0207DB0001C457
:0207DC0001B763
:0207DD0001AB6E
:0207DE00019E7A
:0207DF00019285
:0207E000018690
:0207E10001799C
:0207E200016DA7
:0207E3000160B3
:0207E4000154BE
:0207E5000148C9
:0207E600013CD4
:0207E700012FE0
:0207E8000123EB
:0207E9000117F6
:0207EA00010A02
:0207EB0000FE0E
:0207EC0000F219
:0207ED0000E624
:0207EE0000D930
:0207EF0000CD3B
:0207F00000C146
:0207F10000B551
:0207F20000A95C
:0207F300009C68
:0207F400009073
:0207F50000847E
:0207F600007889
:0207F700006C94
:0207F80000609F
:0207F9000054AA
:0207FA000048B5
:0207FB00003CC0
:0207FC000030CB
:0207FD000024D6
:0207FE000018E1
:0207FF00000CEC
:00000001ff
