:020000040000FA
:020000000000FE
:0200010000FFFE
:0200020001FEFD
:0200030002FDFC
:0200040003FBFC
:0200050000F801
:0200060001F403
:0200070002F005
:0200080003EC07
:0200090000E60F
:02000A0001E112
:02000B0002DA17
:02000C0003D31C
:02000D0000CB26
:02000E0001C32C
:02000F0002BA33
:0200100003B13A
:0200110000A746
:02001200019C4F
:02001300029158
:02001400038562
:02001500007970
:02001600016C7B
:02001700025E87
:02001800035093
:020019000041A4
:02001A000132B1
:02001B000222BF
:02001C000311CE
:02001D000000E1
:02001E0000EEF2
:02001F0001DC02
:0200200002C913
:0200210003B624
:0200220000A23A
:02002300018D4D
:02002400027860
:02002500036373
:02002600004C8C
:020027000136A0
:02002800021EB6
:020029000307CB
:02002A0003EEE3
:02002B0000D5FE
:02002C0001BC15
:02002D0002A22D
:02002E00038746
:02002F00006C63
:0200300001507D
:02003100023497
:020032000317B2
:0200330003FACE
:0200340000DCEE
:0200350001BD0B
:02003600029E28
:02003700037F45
:02003800005F67
:02003900013E86
:02003A00021DA5
:02003B0002FBC6
:02003C0003D9E6
:02003D0000B70A
:02003E0001932C
:02003F0002704D
:02004000034B70
:02004100002796
:020042000101BA
:0200430001DCDE
:0200440002B503
:02004500038E28
:02004600006751
:02004700013F77
:0200480002179D
:0200490002EEC5
:02004A0003C5EC
:02004B00009B18
:02004C00017041
:02004D0002456A
:02004E00031A93
:02004F0003EEBE
:0200500000C2EC
:02005100019517
:02005200026842
:02005300033A6E
:02005400000B9F
:0200550000DCCD
:0200560001ADFA
:02005700027D28
:02005800034D56
:02005900001C89
:02005A0000EBB9
:02005B0001B9E9
:02005C00028719
:02005D0003544A
:02005E0000217F
:02005F0000EDB2
:0200600001B9E4
:02006100028417
:02006200034F4A
:02006300001A81
:0200640000E4B6
:0200650001ADEB
:02006600027620
:02006700033E56
:0200680000078F
:0200690000CEC7
:02006A000195FE
:02006B00025C35
:02006C0003226D
:02006D0003E8A6
:02006E0000ADE3
:02006F0001721C
:02007000023755
:0200710002FA91
:0200720003BECB
:0200730000810A
:02007400014445
:02007500020681
:0200760002C7BF
:020077000389FB
:0200780000493D
:02007900010A7A
:02007A0001CAB9
:02007B000289F8
:02007C00034837
:02007D0000077A
:02007E0000C5BB
:02007F000183FB
:0200800002403C
:0200810002FD7E
:0200820003B9C0
:02008300007506
:02008400013148
:0200850001EC8C
:0200860002A7CF
:02008700036113
:02008800001B5B
:0200890000D4A1
:02008A00018DE6
:02008B0002462B
:02008C0002FE72
:02008D0003B5B9
:02008E00006D03
:02008F0001244A
:0200900001DA93
:020091000290DB
:02009200034623
:0200930003FB6D
:0200940000B0BA
:02009500016404
:0200960002184E
:0200970002CC99
:02009800037FE4
:02009900003233
:02009A0000E480
:02009B000196CC
:02009C00024818
:02009D0002F966
:02009E0003A9B4
:02009F00005A05
:0200A000010A53
:0200A10001B9A3
:0200A2000268F2
:0200A300031741
:0200A40003C691
:0200A5000073E6
:0200A600012136
:0200A70001CE88
:0200A800027BD9
:0200A90003272B
:0200AA0003D47D
:0200AB00007FD4
:0200AC00012A27
:0200AD0001D57B
:0200AE000280CE
:0200AF00032A22
:0200B00003D477
:0200B100007DD0
:0200B200012625
:0200B30001CE7C
:0200B4000277D1
:0200B500031E28
:0200B60003C67F
:0200B700006DDA
:0200B800011431
:0200B90001BA8A
:0200BA000260E2
:0200BB0003053B
:0200BC0003AB94
:0200BD00004FF2
:0200BE0000F44C
:0200BF000198A6
:0200C000023C00
:0200C10002DF5C
:0200C2000382B7
:0200C300002516
:0200C40000C773
:0200C5000169CF
:0200C600020B2B
:0200C70002AC89
:0200C800034DE6
:0200C90003ED45
:0200CA00008DA7
:0200CB00012D05
:0200CC0001CC65
:0200CD00026BC4
:0200CE00030A23
:0200CF0003A983
:0200D0000046E8
:0200D10000E449
:0200D2000181AA
:0200D300021E0B
:0200D40002BB6D
:0200D5000357CF
:0200D60003F332
:0200D700008F98
:0200D800012AFB
:0200D90001C55F
:0200DA00025FC3
:0200DB0002FA27
:0200DC0003948B
:0200DD00002DF4
:0200DE0000C65A
:0200DF00015FBF
:0200E00001F825
:0200E10002908B
:0200E2000328F1
:0200E30003BF59
:0200E4000056C4
:0200E50000ED2C
:0200E600018493
:0200E700021AFB
:0200E80002B064
:0200E9000345CD
:0200EA0003DA37
:0200EB00006FA4
:0200EC0001040D
:0200ED00019878
:0200EE00022CE2
:0200EF0002C04D
:0200F0000353B8
:0200F10003E624
:0200F200007993
:0200F300010BFF
:0200F400019D6C
:0200F500022ED9
:0200F60002C046
:0200F7000351B3
:0200F80003E221
:0200F900007293
:0200FA00010201
:0200FB00019270
:0200FC000221DF
:0200FD0002B04F
:0200FE00033FBE
:0200FF0003CE2E
:02010000005CA1
:0201010000EA12
:02010200017783
:020103000205F3
:02010400029265
:02010500031ED7
:0201060003AB49
:020107000037BF
:0201080000C332
:02010900014EA5
:02010A0001D919
:02010B0002648C
:02010C0002EF00
:02010D00037974
:02010E000003EC
:02010F00008D61
:020110000116D6
:02011100019F4C
:020112000228C1
:0201130002B038
:020114000339AD
:0201150003C124
:0201160000489F
:0201170000CF17
:0201180001568E
:0201190001DD06
:02011A0002647D
:02011B0002EAF6
:02011C0003706E
:02011D0003F5E8
:02011E00007B64
:02011F000100DD
:02012000018458
:020121000209D1
:02012200028D4C
:020123000311C6
:02012400039442
:020125000018C0
:02012600009B3C
:02012700011EB7
:0201280001A034
:020129000222B0
:02012A0002A42D
:02012B000326A9
:02012C0003A727
:02012D000028A8
:02012E0000A926
:02012F00012AA3
:0201300001AA22
:02013100022AA0
:0201320002AA1F
:0201330003299E
:0201340003A81E
:020135000027A1
:0201360000A621
:020137000124A1
:0201380001A222
:020139000220A2
:02013A00029E23
:02013B00031BA4
:02013C00039826
:02013D000015AB
:02013E0000922D
:02013F00010EAF
:02014000018A32
:020141000206B4
:02014200028138
:0201430002FCBC
:0201440003773F
:0201450003F2C3
:02014600006D4A
:0201470000E7CF
:02014800016153
:0201490001DAD9
:02014A0002545D
:02014B0002CDE3
:02014C00034668
:02014D0003BEEF
:02014E00003778
:02014F0000AFFF
:02015000012785
:02015100019E0D
:02015200021693
:02015300028D1B
:020154000304A2
:02015500037B2A
:0201560003F1B3
:0201570000673F
:0201580000DDC8
:02015900015350
:02015A0001C8DA
:02015B00023D63
:02015C0002B2ED
:02015D00032776
:02015E00039B01
:02015F0000108E
:02016000008419
:0201610000F7A5
:02016200016B2F
:0201630001DEBB
:02016400025146
:0201650002C4D2
:0201660003365E
:0201670003A8EB
:02016800001A7B
:02016900008C08
:02016A0000FE95
:02016B00016F22
:02016C0001E0B0
:02016D0002513D
:02016E0002C2CB
:02016F00033259
:0201700003A2E8
:0201710000127A
:02017200008209
:0201730000F199
:02017400016127
:0201750001D0B7
:02017600023F46
:0201770002ADD7
:02017800031B67
:02017900038AF7
:02017A0003F789
:02017B0000651D
:02017C0000D3AE
:02017D0001403F
:02017E0001ADD1
:02017F00021963
:020180000286F5
:0201810002F288
:02018200035E1A
:0201830003CAAD
:02018400003643
:0201850000A1D7
:02018600010C6A
:020187000177FE
:0201880001E292
:02018900024D25
:02018A0002B7BA
:02018B0003214E
:02018C00038BE3
:02018D0003F578
:02018E00005E11
:02018F0000C7A7
:0201900001303C
:020191000199D2
:02019200020267
:02019300026AFE
:0201940002D295
:02019500033A2B
:0201960003A2C2
:0201970000095D
:020198000071F4
:0201990000D88C
:02019A00013F23
:02019B0001A5BC
:02019C00020C53
:02019D000272EC
:02019E0002D885
:02019F00033E1D
:0201A00003A4B6
:0201A100000953
:0201A200006FEC
:0201A30000D486
:0201A400013820
:0201A500019DBA
:0201A600020154
:0201A7000266EE
:0201A80002CA89
:0201A900032E23
:0201AA000391BF
:0201AB0003F55A
:0201AC000058F9
:0201AD0000BB95
:0201AE00011E30
:0201AF000180CD
:0201B00001E369
:0201B100024505
:0201B20002A7A2
:0201B30003093E
:0201B400036ADC
:0201B50003CC79
:0201B600002D1A
:0201B700008EB8
:0201B80000EF56
:0201B900014FF4
:0201BA0001B092
:0201BB00021030
:0201BC000270CF
:0201BD0002D06E
:0201BE0003300C
:0201BF00038FAC
:0201C00003EF4B
:0201C100004EEE
:0201C20000AD8E
:0201C300010B2E
:0201C400016ACE
:0201C50001C86F
:0201C60002260F
:0201C7000284B0
:0201C80002E251
:0201C9000340F1
:0201CA00039D93
:0201CB0003FA35
:0201CC000058D9
:0201CD0000B47C
:0201CE0001111D
:0201CF00016DC0
:0201D00001CA62
:0201D100022604
:0201D2000282A7
:0201D30002DE4A
:0201D4000339ED
:0201D500039590
:0201D60003F034
:0201D700004BDB
:0201D80000A67F
:0201D900010023
:0201DA00015BC7
:0201DB0001B56C
:0201DC00020F10
:0201DD000269B5
:0201DE0002C35A
:0201DF00031DFE
:0201E0000376A4
:0201E10003CF4A
:0201E2000028F3
:0201E300008199
:0201E40000DA3F
:0201E5000132E5
:0201E600018B8B
:0201E70001E332
:0201E800023BD8
:0201E90002937F
:0201EA0002EB26
:0201EB000342CD
:0201EC00039975
:0201ED0003F11C
:0201EE000048C7
:0201EF00009E70
:0201F00000F518
:0201F100014CBF
:0201F20001A268
:0201F30001F811
:0201F400024EB9
:0201F50002A462
:0201F60002F90C
:0201F700034FB4
:0201F80003A45E
:0201F90003F908
:0201FA00004EB5
:0201FB0000A35F
:0201FC0000F809
:0201FD00014CB3
:0201FE0001A05E
:0201FF0001F409
:020200000249B1
:02020100029C5D
:0202020002F008
:020203000343B3
:0202040003975E
:0202050003EA0A
:02020600003DB9
:02020700009065
:0202080000E212
:020209000135BD
:02020A0001876A
:02020B0001D917
:02020C00022BC3
:02020D00027D70
:02020E0002CF1D
:02020F000321C9
:02021000037277
:0202110003C325
:020212000014D6
:02021300006584
:0202140000B632
:020215000107DF
:0202160001578E
:0202170001A73D
:0202180001F7EC
:0202190002479A
:02021A00029749
:02021B0002E7F8
:02021C000336A7
:02021D00038656
:02021E0003D506
:02021F000024B9
:02022000007369
:0202210000C219
:020222000110C9
:02022300015F79
:0202240001AD2A
:0202250001FBDB
:0202260002498B
:0202270002973C
:0202280002E5ED
:0202290003329E
:02022A0003804F
:02022B0003CD01
:02022C00001AB6
:02022D00006768
:02022E0000B41A
:02022F000100CC
:02023000014D7E
:02023100019931
:0202320001E6E3
:02023300023295
:02023400027E48
:0202350002C9FC
:020236000315AE
:02023700036161
:0202380003AC15
:0202390003F7C9
:02023A00004280
:02023B00008D34
:02023C0000D8E8
:02023D0001239B
:02023E00016D50
:02023F0001B705
:020240000202B8
:02024100024C6D
:02024200029622
:0202430002DFD8
:0202440003298C
:02024500037341
:0202460003BCF7
:020247000005B0
:02024800004E66
:0202490000971C
:02024A0000E0D2
:02024B00012987
:02024C0001713E
:02024D0001BAF4
:02024E000202AA
:02024F00024A61
:02025000029218
:0202510002DACF
:02025200032285
:0202530003693D
:0202540003B1F4
:0202550003F8AC
:02025600003F67
:0202570000861F
:0202580000CDD7
:0202590001148E
:02025A00015B46
:02025B0001A1FF
:02025C0001E7B8
:02025D00022E6F
:02025E00027428
:02025F0002BAE1
:02026000030099
:02026100034553
:02026200038B0C
:0202630003D0C6
:02026400001682
:02026500005B3C
:0202660000A0F6
:0202670000E5B0
:02026800012A69
:02026900016E24
:02026A0001B3DE
:02026B0001F799
:02026C00023C52
:02026D0002800D
:02026E0002C4C8
:02026F00030882
:02027000034C3D
:02027100038FF9
:0202720003D3B4
:02027300001673
:0202740000592F
:02027500009DEA
:0202760000E0A6
:02027700012361
:0202780001651E
:0202790001A8DA
:02027A0001EA97
:02027B00022D52
:02027C00026F0F
:02027D0002B1CC
:02027E0002F389
:02027F00033545
:02028000037702
:0202810003B9BF
:0202820003FA7D
:02028300003C3D
:02028400007DFB
:0202850000BEB9
:0202860000FF77
:02028700014034
:020288000181F2
:0202890001C2B0
:02028A0002026E
:02028B0002432C
:02028C000283EB
:02028D0002C3AA
:02028E00030368
:02028F00034327
:020290000383E6
:0202910003C3A5
:02029200000367
:02029300004227
:020294000081E7
:0202950000C1A6
:02029600010065
:02029700013F25
:02029800017EE5
:0202990001BDA5
:02029A0001FB66
:02029B00023A25
:02029C000278E6
:02029D0002B7A6
:02029E0002F567
:02029F00033327
:0202A0000371E8
:0202A10003AFA9
:0202A20003ED6A
:0202A300002A2F
:0202A4000068F0
:0202A50000A5B2
:0202A60000E373
:0202A700012034
:0202A800015DF6
:0202A900019AB8
:0202AA0001D77A
:0202AB0002143B
:0202AC000250FE
:0202AD00028DC0
:0202AE0002C983
:0202AF00030644
:0202B000034207
:0202B100037ECA
:0202B20003BA8D
:0202B30003F650
:0202B400003216
:0202B500006DDA
:0202B60000A99D
:0202B70000E461
:0202B800012023
:0202B900015BE7
:0202BA000196AB
:0202BB0001D16F
:0202BC00020C32
:0202BD000247F6
:0202BE000282BA
:0202BF0002BC7F
:0202C00002F743
:0202C100033107
:0202C200036BCC
:0202C30003A591
:0202C40003DF56
:0202C50000191E
:0202C6000053E3
:0202C700008DA8
:0202C80000C76D
:0202C900010032
:0202CA00013AF7
:0202CB000173BD
:0202CC0001AC83
:0202CD0001E549
:0202CE00021E0E
:0202CF000257D4
:0202D00002909A
:0202D10002C960
:0202D200030126
:0202D300033AEC
:0202D4000372B3
:0202D50003AB79
:0202D60003E340
:0202D700001B0A
:0202D8000053D1
:0202D900008B98
:0202DA0000C35F
:0202DB0000FA27
:0202DC000132ED
:0202DD000169B5
:0202DE0001A17C
:0202DF0001D844
:0202E000020F0B
:0202E1000246D3
:0202E200027D9B
:0202E30002B463
:0202E40002EB2B
:0202E5000322F2
:0202E6000358BB
:0202E700038F83
:0202E80003C54C
:0202E90003FC14
:0202EA000032E0
:0202EB000068A9
:0202EC00009E72
:0202ED0000D43B
:0202EE00010A03
:0202EF00013FCD
:0202F000017596
:0202F10001AB5F
:0202F20001E029
:0202F3000216F1
:0202F400024BBB
:0202F500028085
:0202F60002B54F
:0202F70002EA19
:0202F800031FE2
:0202F9000354AC
:0202FA00038877
:0202FB0003BD41
:0202FC0003F10C
:0202FD000026D9
:0202FE00005AA4
:0202FF00008E6F
:0203000000C338
:0203010000F703
:02030200012ACE
:02030300015E99
:02030400019264
:0203050001C62F
:0203060001F9FB
:02030700022DC5
:02030800026091
:0203090002945C
:02030A0002C728
:02030B0002FAF4
:02030C00032DBF
:02030D0003608B
:02030E00039357
:02030F0003C623
:0203100003F8F0
:02031100002BBF
:02031200005D8C
:02031300009058
:0203140000C225
:0203150000F4F2
:020316000126BE
:0203170001588B
:02031800018A58
:0203190001BC25
:02031A0001EEF2
:02031B000220BE
:02031C0002518C
:02031D00028359
:02031E0002B427
:02031F0002E6F4
:020320000317C1
:0203210003488F
:0203220003795D
:0203230003AA2B
:0203240003DBF9
:02032500000CCA
:02032600003D98
:02032700006E66
:02032800009E35
:0203290000CF03
:02032A0000FFD2
:02032B00012FA0
:02032C0001606E
:02032D0001903D
:02032E0001C00C
:02032F0001F0DB
:020330000220A9
:02033100024F79
:02033200027F48
:0203330002AF17
:0203340002DEE7
:02033500030EB5
:02033600033D85
:02033700036D54
:02033800039C24
:0203390003CBF4
:02033A0003FAC4
:02033B00002997
:02033C00005867
:02033D00008737
:02033E0000B607
:02033F0000E4D8
:020340000113A7
:02034100014178
:02034200017048
:02034300019E19
:0203440001CCEA
:0203450001FBBA
:0203460002298A
:0203470002575B
:0203480002852C
:0203490002B3FD
:02034A0002E0CF
:02034B00030E9F
:02034C00033C70
:02034D00036942
:02034E00039713
:02034F0003C4E5
:0203500003F2B6
:02035100001F8B
:02035200004C5D
:0203530000792F
:0203540000A601
:0203550000D3D3
:020356000100A4
:02035700012D76
:02035800015949
:0203590001861B
:02035A0001B2EE
:02035B0001DFC0
:02035C00020B92
:02035D00023864
:02035E00026437
:02035F0002900A
:0203600002BCDD
:0203610002E8B0
:02036200031482
:02036300034055
:02036400036C28
:020365000397FC
:0203660003C3CF
:0203670003EFA2
:02036800001A79
:0203690000464C
:02036A00007120
:02036B00009CF4
:02036C0000C7C8
:02036D0000F29C
:02036E00011D6F
:02036F00014843
:02037000017317
:02037100019EEB
:0203720001C9BF
:0203730001F493
:02037400021E67
:0203750002493B
:02037600027310
:02037700029EE4
:0203780002C8B9
:0203790002F28E
:02037A00031C62
:02037B00034637
:02037C0003700C
:02037D00039AE1
:02037E0003C4B6
:02037F0003EE8B
:02038000001863
:02038100004139
:02038200006B0E
:020383000095E3
:0203840000BEB9
:0203850000E78F
:02038600011163
:02038700013A39
:0203880001630F
:02038900018CE5
:02038A0001B5BB
:02038B0001DE91
:02038C00020766
:02038D0002303C
:02038E00025912
:02038F000281E9
:0203900002AABF
:0203910002D395
:0203920002FB6C
:02039300032441
:02039400034C18
:020395000374EF
:02039600039CC6
:0203970003C59C
:0203980003ED73
:0203990000154D
:02039A00003D24
:02039B000064FC
:02039C00008CD3
:02039D0000B4AA
:02039E0000DC81
:02039F00010358
:0203A000012B2F
:0203A100015207
:0203A200017ADE
:0203A30001A1B6
:0203A40001C88E
:0203A50001F065
:0203A60002173C
:0203A700023E14
:0203A8000265EC
:0203A900028CC4
:0203AA0002B39C
:0203AB0002D975
:0203AC0003004C
:0203AD00032724
:0203AE00034EFC
:0203AF000374D5
:0203B000039BAD
:0203B10003C186
:0203B20003E75F
:0203B300000E3A
:0203B400003413
:0203B500005AEC
:0203B6000080C5
:0203B70000A69E
:0203B80000CC77
:0203B90000F250
:0203BA00011828
:0203BB00013E01
:0203BC000164DA
:0203BD000189B4
:0203BE0001AF8D
:0203BF0001D467
:0203C00001FA40
:0203C100021F19
:0203C2000245F2
:0203C300026ACC
:0203C400028FA6
:0203C50002B480
:0203C60002DA59
:0203C70002FF33
:0203C80003240C
:0203C9000349E6
:0203CA00036DC1
:0203CB0003929B
:0203CC0003B775
:0203CD0003DC4F
:0203CE0000002D
:0203CF00002507
:0203D0000049E2
:0203D100006EBC
:0203D200009297
:0203D30000B771
:0203D40000DB4C
:0203D50000FF27
:0203D600012301
:0203D7000147DC
:0203D800016BB7
:0203D900018F92
:0203DA0001B36D
:0203DB0001D748
:0203DC0001FB23
:0203DD00021EFE
:0203DE000242D9
:0203DF000266B4
:0203E000028990
:0203E10002AD6B
:0203E20002D047
:0203E30002F422
:0203E4000317FD
:0203E500033AD9
:0203E600035DB5
:0203E700038190
:0203E80003A46C
:0203E90003C748
:0203EA0003EA24
:0203EB00000D03
:0203EC00002FE0
:0203ED000052BC
:0203EE00007598
:0203EF00009874
:0203F00000BA51
:0203F10000DD2D
:0203F20000FF0A
:0203F3000122E5
:0203F4000144C2
:0203F50001679E
:0203F60001897B
:0203F70001AB58
:0203F80001CD35
:0203F90001EF12
:0203FA000212ED
:0203FB000234CA
:0203FC000255A8
:0203FD00027785
:0203FE00029962
:0203FF0002BB3F
:0204000002DD1B
:0204010002FEF9
:020402000320D5
:020403000342B2
:02040400036390
:0204050003856D
:0204060003A64B
:0204070003C729
:0204080003E906
:02040900000AE7
:02040A00002BC5
:02040B00004CA3
:02040C00006D81
:02040D00008E5F
:02040E0000AF3D
:02040F0000D01B
:0204100000F1F9
:020411000112D6
:020412000133B4
:02041300015393
:02041400017471
:0204150001954F
:0204160001B52E
:0204170001D60C
:0204180001F6EB
:020419000217C8
:02041A000237A7
:02041B00025786
:02041C00027864
:02041D00029843
:02041E0002B822
:02041F0002D801
:0204200002F8E0
:020421000318BE
:0204220003389D
:0204230003587C
:0204240003785B
:0204250003973B
:0204260003B71A
:0204270003D7F9
:0204280003F6D9
:020429000016BB
:02042A0000369A
:02042B0000557A
:02042C0000745A
:02042D00009439
:02042E0000B319
:02042F0000D2F9
:0204300000F2D8
:020431000111B7
:02043200013097
:02043300014F77
:02043400016E57
:02043500018D37
:0204360001AC17
:0204370001CBF7
:0204380001EAD7
:020439000208B7
:02043A00022797
:02043B00024677
:02043C00026458
:02043D00028338
:02043E0002A119
:02043F0002C0F9
:0204400002DEDA
:0204410002FDBA
:02044200031B9A
:0204430003397B
:0204440003585B
:0204450003763C
:0204460003941D
:0204470003B2FE
:0204480003D0DF
:0204490003EEC0
:02044A00000CA4
:02044B00002A85
:02044C00004866
:02044D00006647
:02044E00008428
:02044F0000A10A
:0204500000BFEB
:0204510000DCCD
:0204520000FAAE
:0204530001188E
:02045400013570
:02045500015351
:02045600017033
:02045700018D15
:0204580001ABF6
:0204590001C8D8
:02045A0001E5BA
:02045B0002029B
:02045C00021F7D
:02045D00023C5F
:02045E00025941
:02045F00027623
:02046000029305
:0204610002B0E7
:0204620002CDC9
:0204630002EAAB
:0204640003078C
:0204650003236F
:02046600034051
:02046700035C34
:02046800037916
:020469000396F8
:02046A0003B2DB
:02046B0003CEBE
:02046C0003EBA0
:02046D00000786
:02046E00002468
:02046F0000404B
:02047000005C2E
:02047100007811
:020472000094F4
:0204730000B0D7
:0204740000CCBA
:0204750000E89D
:0204760001047F
:02047700012062
:02047800013C45
:02047900015828
:02047A0001740B
:02047B00018FEF
:02047C0001ABD2
:02047D0001C7B5
:02047E0001E299
:02047F0001FE7C
:0204800002195F
:02048100023542
:02048200025026
:02048300026B0A
:020484000287ED
:0204850002A2D1
:0204860002BDB5
:0204870002D998
:0204880002F47C
:02048900030F5F
:02048A00032A43
:02048B00034527
:02048C0003600B
:02048D00037BEF
:02048E000396D3
:02048F0003B1B7
:0204900003CC9B
:0204910003E680
:02049200000167
:02049300001C4B
:0204940000372F
:02049500005114
:02049600006CF8
:020497000086DD
:0204980000A1C1
:0204990000BBA6
:02049A0000D68A
:02049B0000F06F
:02049C00010A53
:02049D00012537
:02049E00013F1C
:02049F00015901
:0204A0000173E6
:0204A100018DCB
:0204A20001A8AF
:0204A30001C294
:0204A40001DC79
:0204A50001F65E
:0204A600021042
:0204A700022928
:0204A80002430D
:0204A900025DF2
:0204AA000277D7
:0204AB000291BC
:0204AC0002AAA2
:0204AD0002C487
:0204AE0002DE6C
:0204AF0002F752
:0204B000031136
:0204B100032A1C
:0204B200034401
:0204B300035DE7
:0204B4000376CD
:0204B5000390B2
:0204B60003A998
:0204B70003C27E
:0204B80003DC63
:0204B90003F549
:0204BA00000E32
:0204BB00002718
:0204BC000040FE
:0204BD000059E4
:0204BE000072CA
:0204BF00008BB0
:0204C00000A496
:0204C10000BD7C
:0204C20000D662
:0204C30000EE49
:0204C40001072E
:0204C500012014
:0204C6000139FA
:0204C7000151E1
:0204C800016AC7
:0204C9000182AE
:0204CA00019B94
:0204CB0001B37B
:0204CC0001CC61
:0204CD0001E448
:0204CE0001FD2E
:0204CF00021514
:0204D000022DFB
:0204D1000246E1
:0204D200025EC8
:0204D3000276AF
:0204D400028E96
:0204D50002A67D
:0204D60002BF63
:0204D70002D74A
:0204D80002EF31
:0204D900030717
:0204DA00031FFE
:0204DB000336E6
:0204DC00034ECD
:0204DD000366B4
:0204DE00037E9B
:0204DF00039682
:0204E00003AD6A
:0204E10003C551
:0204E20003DD38
:0204E30003F420
:0204E400000C0A
:0204E5000024F1
:0204E600003BD9
:0204E7000053C0
:0204E800006AA8
:0204E900008190
:0204EA00009977
:0204EB0000B05F
:0204EC0000C747
:0204ED0000DF2E
:0204EE0000F616
:0204EF00010DFD
:0204F0000124E5
:0204F100013BCD
:0204F2000153B4
:0204F300016A9C
:0204F400018184
:0204F50001986C
:0204F60001AE55
:0204F70001C53D
:0204F80001DC25
:0204F90001F30D
:0204FA00020AF4
:0204FB000221DC
:0204FC000238C4
:0204FD00024EAD
:0204FE00026595
:0204FF00027C7D
:02050000029265
:0205010002A94D
:0205020002BF36
:0205030002D61E
:0205040002EC07
:020505000303EE
:020506000319D7
:020507000330BF
:020508000346A8
:02050900035C91
:02050A0003727A
:02050B00038962
:02050C00039F4B
:02050D0003B534
:02050E0003CB1D
:02050F0003E106
:0205100003F7EF
:02051100000DDB
:020512000023C4
:020513000039AD
:02051400004F96
:0205150000657F
:02051600007B68
:02051700009151
:0205180000A73A
:0205190000BD23
:02051A0000D20D
:02051B0000E8F6
:02051C0000FEDF
:02051D000113C8
:02051E000129B1
:02051F00013F9A
:02052000015484
:02052100016A6D
:02052200017F57
:02052300019540
:0205240001AA2A
:0205250001BF14
:0205260001D5FD
:0205270001EAE7
:0205280001FFD1
:020529000215B9
:02052A00022AA3
:02052B00023F8D
:02052C00025477
:02052D00026961
:02052E00027F4A
:02052F00029434
:0205300002A91E
:0205310002BE08
:0205320002D3F2
:0205330002E8DC
:0205340002FDC6
:020535000311B0
:0205360003269A
:02053700033B84
:0205380003506E
:02053900036558
:02053A00037943
:02053B00038E2D
:02053C0003A317
:02053D0003B702
:02053E0003CCEC
:02053F0003E1D6
:0205400003F5C1
:02054100000AAE
:02054200001E99
:02054300003383
:0205440000476E
:02054500005B59
:02054600007043
:0205470000842E
:02054800009918
:0205490000AD03
:02054A0000C1EE
:02054B0000D5D9
:02054C0000EAC3
:02054D0000FEAE
:02054E00011298
:02054F00012683
:02055000013A6E
:02055100014E59
:02055200016244
:0205530001762F
:02055400018A1A
:02055500019E05
:0205560001B2F0
:0205570001C6DB
:0205580001DAC6
:0205590001EDB2
:02055A0002019C
:02055B00021587
:02055C00022972
:02055D00023C5E
:02055E00025049
:02055F00026434
:02056000027720
:02056100028B0B
:02056200029EF7
:0205630002B2E2
:0205640002C5CE
:0205650002D9B9
:0205660002ECA5
:0205670003008F
:0205680003137B
:02056900032667
:02056A00033A52
:02056B00034D3E
:02056C0003602A
:02056D00037415
:02056E00038701
:02056F00039AED
:0205700003ADD9
:0205710003C0C5
:0205720003D3B1
:0205730003E69D
:0205740003FA88
:02057500000D77
:02057600002063
:0205770000334F
:0205780000463B
:02057900005828
:02057A00006B14
:02057B00007E00
:02057C000091EC
:02057D0000A4D8
:02057E0000B7C4
:02057F0000C9B1
:0205800000DC9D
:0205810000EF89
:02058200010175
:02058300011461
:0205840001274D
:0205850001393A
:02058600014C26
:02058700015E13
:020588000171FF
:020589000183EC
:02058A000196D8
:02058B0001A8C5
:02058C0001BBB1
:02058D0001CD9E
:02058E0001DF8B
:02058F0001F277
:02059000020463
:02059100021650
:0205920002283D
:02059300023B29
:02059400024D16
:02059500025F03
:020596000271F0
:020597000283DD
:020598000295CA
:0205990002A7B7
:02059A0002B9A4
:02059B0002CB91
:02059C0002DD7E
:02059D0002EF6B
:02059E00030157
:02059F00031344
:0205A000032531
:0205A10003371E
:0205A20003490B
:0205A300035AF9
:0205A400036CE6
:0205A500037ED3
:0205A6000390C0
:0205A70003A1AE
:0205A80003B39B
:0205A90003C588
:0205AA0003D676
:0205AB0003E863
:0205AC0003FA50
:0205AD00000B41
:0205AE00001D2E
:0205AF00002E1C
:0205B000004009
:0205B1000051F7
:0205B2000062E5
:0205B3000074D2
:0205B4000085C0
:0205B5000097AD
:0205B60000A89B
:0205B70000B989
:0205B80000CB76
:0205B90000DC64
:0205BA0000ED52
:0205BB0000FE40
:0205BC00010F2D
:0205BD0001211A
:0205BE00013208
:0205BF000143F6
:0205C0000154E4
:0205C1000165D2
:0205C2000176C0
:0205C3000187AE
:0205C40001989C
:0205C50001A98A
:0205C60001BA78
:0205C70001CB66
:0205C80001DC54
:0205C90001ED42
:0205CA0001FD31
:0205CB00020E1E
:0205CC00021F0C
:0205CD000230FA
:0205CE000241E8
:0205CF000251D7
:0205D0000262C5
:0205D1000273B3
:0205D2000283A2
:0205D300029490
:0205D40002A47F
:0205D50002B56D
:0205D60002C65B
:0205D70002D64A
:0205D80002E738
:0205D90002F727
:0205DA00030814
:0205DB00031803
:0205DC000328F2
:0205DD000339E0
:0205DE000349CF
:0205DF00035ABD
:0205E000036AAC
:0205E100037A9B
:0205E200038A8A
:0205E300039B78
:0205E40003AB67
:0205E50003BB56
:0205E60003CB45
:0205E70003DB34
:0205E80003EC22
:0205E90003FC11
:0205EA00000C03
:0205EB00001CF2
:0205EC00002CE1
:0205ED00003CD0
:0205EE00004CBF
:0205EF00005CAE
:0205F000006C9D
:0205F100007C8C
:0205F200008C7B
:0205F300009C6A
:0205F40000AC59
:0205F50000BB49
:0205F60000CB38
:0205F70000DB27
:0205F80000EB16
:0205F90000FB05
:0205FA00010AF4
:0205FB00011AE3
:0205FC00012AD2
:0205FD000139C2
:0205FE000149B1
:0205FF000159A0
:0206000001688F
:0206010001787E
:0206020001876E
:0206030001975D
:0206040001A74C
:0206050001B63C
:0206060001C62B
:0206070001D51B
:0206080001E40B
:0206090001F4FA
:02060A000203E9
:02060B000213D8
:02060C000222C8
:02060D000231B8
:02060E000241A7
:02060F00025097
:02061000025F87
:02061100026E77
:02061200027E66
:02061300028D56
:02061400029C46
:0206150002AB36
:0206160002BA26
:0206170002C916
:0206180002D905
:0206190002E8F5
:02061A0002F7E5
:02061B000306D4
:02061C000315C4
:02061D000324B4
:02061E000333A4
:02061F00034294
:02062000035085
:02062100035F75
:02062200036E65
:02062300037D55
:02062400038C45
:02062500039B35
:0206260003AA25
:0206270003B816
:0206280003C706
:0206290003D6F6
:02062A0003E5E6
:02062B0003F3D7
:02062C000002CA
:02062D000011BA
:02062E00001FAB
:02062F00002E9B
:02063000003D8B
:02063100004B7C
:02063200005A6C
:0206330000685D
:0206340000774D
:0206350000853E
:0206360000942E
:0206370000A21F
:0206380000B10F
:0206390000BF00
:02063A0000CDF1
:02063B0000DCE1
:02063C0000EAD2
:02063D0000F9C2
:02063E000107B2
:02063F000115A3
:02064000012493
:02064100013284
:02064200014075
:02064300014E66
:02064400015D56
:02064500016B47
:02064600017938
:02064700018729
:0206480001951A
:0206490001A30B
:02064A0001B1FC
:02064B0001BFED
:02064C0001CDDE
:02064D0001DBCF
:02064E0001E9C0
:02064F0001F7B1
:020650000205A1
:02065100021392
:02065200022183
:02065300022F74
:02065400023D65
:02065500024B56
:02065600025947
:02065700026738
:02065800027529
:0206590002821B
:02065A0002900C
:02065B00029EFD
:02065C0002ACEE
:02065D0002B9E0
:02065E0002C7D1
:02065F0002D5C2
:0206600002E3B3
:0206610002F0A5
:0206620002FE96
:02066300030C86
:02066400031978
:02066500032769
:0206660003345B
:0206670003424C
:02066800034F3E
:02066900035D2F
:02066A00036A21
:02066B00037812
:02066C00038504
:02066D000393F5
:02066E0003A0E7
:02066F0003ADD9
:0206700003BBCA
:0206710003C8BC
:0206720003D6AD
:0206730003E39F
:0206740003F091
:0206750003FD83
:02067600000B77
:02067700001869
:0206780000255B
:0206790000324D
:02067A0000403E
:02067B00004D30
:02067C00005A22
:02067D00006714
:02067E00007406
:02067F000081F8
:02068000008FE9
:02068100009CDB
:0206820000A9CD
:0206830000B6BF
:0206840000C3B1
:0206850000D0A3
:0206860000DD95
:0206870000EA87
:0206880000F779
:0206890001046A
:02068A0001105D
:02068B00011D4F
:02068C00012A41
:02068D00013733
:02068E00014425
:02068F00015117
:02069000015E09
:02069100016AFC
:020692000177EE
:020693000184E0
:020694000191D2
:02069500019EC4
:0206960001AAB7
:0206970001B7A9
:0206980001C49B
:0206990001D08E
:02069A0001DD80
:02069B0001E973
:02069C0001F665
:02069D00020356
:02069E00020F49
:02069F00021C3B
:0206A00002282E
:0206A100023520
:0206A200024113
:0206A300024E05
:0206A400025AF8
:0206A5000267EA
:0206A6000273DD
:0206A7000280CF
:0206A800028CC2
:0206A9000299B4
:0206AA0002A5A7
:0206AB0002B19A
:0206AC0002BE8C
:0206AD0002CA7F
:0206AE0002D672
:0206AF0002E364
:0206B00002EF57
:0206B10002FB4A
:0206B20003073C
:0206B30003142E
:0206B400032021
:0206B500032C14
:0206B600033807
:0206B7000344FA
:0206B8000350ED
:0206B900035DDF
:0206BA000369D2
:0206BB000375C5
:0206BC000381B8
:0206BD00038DAB
:0206BE0003999E
:0206BF0003A591
:0206C00003B184
:0206C10003BD77
:0206C20003C96A
:0206C30003D55D
:0206C40003E150
:0206C50003ED43
:0206C60003F936
:0206C70000052C
:0206C80000111F
:0206C900001D12
:0206CA00002905
:0206CB000034F9
:0206CC000040EC
:0206CD00004CDF
:0206CE000058D2
:0206CF000064C5
:0206D000006FB9
:0206D100007BAC
:0206D20000879F
:0206D300009392
:0206D400009E86
:0206D50000AA79
:0206D60000B66C
:0206D70000C160
:0206D80000CD53
:0206D90000D946
:0206DA0000E43A
:0206DB0000F02D
:0206DC0000FB21
:0206DD00010713
:0206DE00011306
:0206DF00011EFA
:0206E000012AED
:0206E1000135E1
:0206E2000141D4
:0206E300014CC8
:0206E4000158BB
:0206E5000163AF
:0206E600016EA3
:0206E700017A96
:0206E80001858A
:0206E90001917D
:0206EA00019C71
:0206EB0001A765
:0206EC0001B358
:0206ED0001BE4C
:0206EE0001C940
:0206EF0001D533
:0206F00001E027
:0206F10001EB1B
:0206F20001F70E
:0206F300020201
:0206F400020DF5
:0206F5000218E9
:0206F6000223DD
:0206F700022FD0
:0206F800023AC4
:0206F9000245B8
:0206FA000250AC
:0206FB00025BA0
:0206FC00026694
:0206FD00027188
:0206FE00027C7C
:0206FF0002886F
:02070000029362
:02070100029E56
:0207020002A94A
:0207030002B43E
:0207040002BF32
:0207050002CA26
:0207060002D51A
:0207070002E00E
:0207080002EB02
:0207090002F5F7
:02070A000300EA
:02070B00030BDE
:02070C000316D2
:02070D000321C6
:02070E00032CBA
:02070F000337AE
:020710000342A2
:02071100034C97
:0207120003578B
:0207130003627F
:02071400036D73
:02071500037768
:0207160003825C
:02071700038D50
:02071800039844
:0207190003A239
:02071A0003AD2D
:02071B0003B821
:02071C0003C216
:02071D0003CD0A
:02071E0003D8FE
:02071F0003E2F3
:0207200003EDE7
:0207210003F8DB
:020722000002D3
:02072300000DC7
:020724000017BC
:020725000022B0
:02072600002CA5
:02072700003799
:0207280000418E
:02072900004C82
:02072A00005677
:02072B0000616B
:02072C00006B60
:02072D00007654
:02072E00008049
:02072F00008A3E
:02073000009532
:02073100009F27
:0207320000A91C
:0207330000B410
:0207340000BE05
:0207350000C9F9
:0207360000D3EE
:0207370000DDE3
:0207380000E7D8
:0207390000F2CC
:02073A0000FCC1
:02073B000106B5
:02073C000110AA
:02073D00011B9E
:02073E00012593
:02073F00012F88
:0207400001397D
:02074100014372
:02074200014D67
:0207430001585B
:02074400016250
:02074500016C45
:0207460001763A
:0207470001802F
:02074800018A24
:02074900019419
:02074A00019E0E
:02074B0001A803
:02074C0001B2F8
:02074D0001BCED
:02074E0001C6E2
:02074F0001D0D7
:0207500001DACC
:0207510001E4C1
:0207520001EEB6
:0207530001F8AB
:0207540002029F
:02075500020C94
:02075600021689
:0207570002207E
:02075800022A73
:02075900023369
:02075A00023D5E
:02075B00024753
:02075C00025148
:02075D00025B3D
:02075E00026433
:02075F00026E28
:0207600002781D
:02076100028212
:02076200028C07
:020763000295FD
:02076400029FF2
:0207650002A9E7
:0207660002B2DD
:0207670002BCD2
:0207680002C6C7
:0207690002CFBD
:02076A0002D9B2
:02076B0002E3A7
:02076C0002EC9D
:02076D0002F692
:02076E0002FF88
:02076F0003097C
:02077000031371
:02077100031C67
:0207720003265C
:02077300032F52
:02077400033947
:0207750003423D
:02077600034C32
:02077700035528
:02077800035F1D
:02077900036813
:02077A00037208
:02077B00037BFE
:02077C000385F3
:02077D00038EE9
:02077E000397DF
:02077F0003A1D4
:0207800003AACA
:0207810003B4BF
:0207820003BDB5
:0207830003C6AB
:0207840003D0A0
:0207850003D996
:0207860003E28C
:0207870003EC81
:0207880003F577
:0207890003FE6D
:02078A00000766
:02078B0000115B
:02078C00001A51
:02078D00002347
:02078E00002C3D
:02078F00003533
:02079000003F28
:0207910000481E
:02079200005114
:02079300005A0A
:02079400006300
:02079500006DF5
:020796000076EB
:02079700007FE1
:020798000088D7
:020799000091CD
:02079A00009AC3
:02079B0000A3B9
:02079C0000ACAF
:02079D0000B5A5
:02079E0000BE9B
:02079F0000C791
:0207A00000D087
:0207A10000D97D
:0207A20000E273
:0207A30000EB69
:0207A40000F45F
:0207A50000FD55
:0207A60001064A
:0207A700010F40
:0207A800011836
:0207A90001212C
:0207AA00012A22
:0207AB00013318
:0207AC00013C0E
:0207AD00014405
:0207AE00014DFB
:0207AF000156F1
:0207B000015FE7
:0207B1000168DD
:0207B2000171D3
:0207B3000179CA
:0207B4000182C0
:0207B500018BB6
:0207B6000194AC
:0207B700019CA3
:0207B80001A599
:0207B90001AE8F
:0207BA0001B785
:0207BB0001BF7C
:0207BC0001C872
:0207BD0001D168
:0207BE0001DA5E
:0207BF0001E255
:0207C00001EB4B
:0207C10001F342
:0207C20001FC38
:0207C30002052D
:0207C400020D24
:0207C50002161A
:0207C600021F10
:0207C700022707
:0207C8000230FD
:0207C9000238F4
:0207CA000241EA
:0207CB000249E1
:0207CC000252D7
:0207CD00025ACE
:0207CE000263C4
:0207CF00026CBA
:0207D0000274B1
:0207D100027CA8
:0207D20002859E
:0207D300028D95
:0207D40002968B
:0207D500029E82
:0207D60002A778
:0207D70002AF6F
:0207D80002B865
:0207D90002C05C
:0207DA0002C853
:0207DB0002D149
:0207DC0002D940
:0207DD0002E137
:0207DE0002EA2D
:0207DF0002F224
:0207E00002FA1B
:0207E100030310
:0207E200030B07
:0207E3000313FE
:0207E400031CF4
:0207E5000324EB
:0207E600032CE2
:0207E7000334D9
:0207E800033DCF
:0207E9000345C6
:0207EA00034DBD
:0207EB000355B4
:0207EC00035EAA
:0207ED000366A1
:0207EE00036E98
:0207EF0003768F
:0207F000037E86
:0207F10003867D
:0207F200038F73
:0207F30003976A
:0207F400039F61
:0207F50003A758
:0207F60003AF4F
:0207F70003B746
:0207F80003BF3D
:0207F90003C734
:0207FA0003CF2B
:0207FB0003D722
:0207FC0003DF19
:0207FD0003E710
:0207FE0003F006
:0207FF0003F8FD
:00000001ff
