:020000040000FA
:020000000004FA
:0200010003F406
:020002000204F6
:0200030000DA21
:020004000024D6
:02000500012ECA
:02000600036F86
:020007000128CE
:0200080003FCF7
:02000900019A5A
:02000A00006391
:02000B00001AD9
:02000C00029C54
:02000D0000945D
:02000E00023DB1
:02000F00002AC5
:02001000000CE2
:0200110001826A
:0200120002F1F9
:02001300025B8E
:020014000240A8
:02001500028364
:02001600015295
:02001700001ACD
:0200180000776F
:02001900012EB6
:02001A000332AF
:02001B00029F42
:02001C0003CB14
:02001D00005190
:02001E000025BB
:02001F0002AF2E
:0200200003E4F7
:02002100016F6D
:0200220003D405
:02002300039F39
:02002400029840
:0200250000F8E1
:0200260002A333
:02002700006D6A
:02002800016174
:020029000006CF
:02002A0003B41D
:02002B0001E6EC
:02002C00039837
:02002D0002A02F
:02002E000315B8
:02002F0000B718
:02003000005A74
:02003100015B71
:020032000316B3
:02003300025E6B
:020034000304C3
:02003500015672
:0200360003AB1A
:0200370003F3D1
:0200380001477E
:0200390001853F
:02003A0002E8DA
:02003B0001AE14
:02003C0001B908
:02003D00003F82
:02003E0001734C
:02003F00023E7F
:0200400001F4C9
:020041000014A9
:020042000204B6
:0200430000DEDD
:02004400033582
:0200450002E5D2
:0200460002EACC
:02004700013284
:02004800008036
:0200490002466D
:02004A00009222
:02004B0003EFC1
:02004C00015B56
:02004D0000357C
:02004E0000337D
:02004F00036349
:0200500000238B
:02005100032B7F
:0200520001911A
:0200530002DACF
:020054000304A3
:0200550000A405
:0200560002F7AF
:020057000004A3
:0200580002BEE6
:0200590001277D
:02005A00027D25
:02005B00016939
:02005C00022D73
:02005D0000E1C0
:02005E0003AAF3
:02005F0000F9A6
:0200600001CECF
:02006100000499
:02006200009606
:0200630001F1A9
:02006400024850
:0200650001EBAD
:0200660001A5F2
:0200670001177F
:02006800011E77
:02006900023C57
:02006A0003028F
:02006B00028110
:02006C0002BBD5
:02006D00031E70
:02006E0002FB93
:02006F00000C83
:0200700000EF9F
:0200710003B6D4
:02007200006A22
:0200730003A1E7
:02007400010B7E
:02007500020D7A
:02007600005830
:02007700008CFB
:0200780000D4B2
:020079000392F0
:02007A0002047E
:02007B0002F78A
:02007C00017011
:02007D00036A14
:02007E000089F7
:02007F0000D8A7
:02008000038CEF
:0200810001C1BB
:02008200014A31
:02008300037701
:0200840003E691
:02008500035323
:02008600027204
:0200870000C8AF
:020088000384EF
:0200890000690C
:02008A0000AACA
:02008B0003D69A
:02008C0002C6AA
:02008D000288E7
:02008E00035518
:02008F000388E4
:020090000296D6
:02009100000B62
:020092000290DA
:0200930002EA7F
:02009400030463
:0200950000FD6C
:02009600023234
:0200970002560F
:020098000284E0
:02009900005B0A
:02009A0001174C
:02009B0000B6AD
:02009C00011948
:02009D00012937
:02009E0000065A
:02009F0000312E
:0200A00002BD9F
:0200A1000289D2
:0200A200036EEB
:0200A3000183D7
:0200A400005505
:0200A500023027
:0200A600035AFB
:0200A7000164F2
:0200A8000271E3
:0200A9000087CE
:0200AA0000DE76
:0200AB00033917
:0200AC00013C15
:0200AD0001C888
:0200AE00005BF5
:0200AF000070DF
:0200B00000E866
:0200B100036FDB
:0200B20003E762
:0200B30003DC6C
:0200B40001F158
:0200B5000155F3
:0200B600013F08
:0200B7000067E0
:0200B8000084C2
:0200B90001CF75
:0200BA000287BB
:0200BB000276CB
:0200BC000281BF
:0200BD0000340D
:0200BE00014FF0
:0200BF000360DC
:0200C0000354E7
:0200C100011824
:0200C200032E0B
:0200C3000254E5
:0200C400012316
:0200C50003B581
:0200C6000350E5
:0200C700021322
:0200C800029F95
:0200C90003CF63
:0200CA00006BC9
:0200CB0002DD54
:0200CC0000F042
:0200CD00038BA3
:0200CE000271BD
:0200CF0000042B
:0200D00001111C
:0200D100008F9E
:0200D2000374B5
:0200D300007FAC
:0200D400000B1F
:0200D50003E541
:0200D600031F06
:0200D70001EF37
:0200D800018B9A
:0200D900000421
:0200DA000031F3
:0200DB00018D95
:0200DC00002101
:0200DD000073AE
:0200DE00036DB0
:0200DF000255C8
:0200E00002B864
:0200E1000267B4
:0200E200036CAD
:0200E300000417
:0200E40002A375
:0200E50001EE2A
:0200E60000C355
:0200E700023BDA
:0200E80001BA5B
:0200E90002F320
:0200EA0001F81B
:0200EB00034FC1
:0200EC00000012
:0200ED0001B060
:0200EE0002B658
:0200EF000236D7
:0200F0000044CA
:0200F10002000B
:0200F20001B853
:0200F3000315F3
:0200F400033ACD
:0200F50000F613
:0200F60000F018
:0200F70001D234
:0200F800008482
:0200F900005BAA
:0200FA000353AE
:0200FB000247BA
:0200FC000131D0
:0200FD00036896
:0200FE0003E11C
:0200FF0001748A
:020100000320DA
:02010100005BA1
:020102000155A5
:02010300034EA9
:0201040000E019
:0201050002579F
:020106000204F1
:0201070000975F
:02010800017480
:020109000319D8
:02010A0003757B
:02010B00004BA7
:02010C00039C52
:02010D000004EC
:02010E00012DC1
:02010F000030BE
:02011000000BE2
:02011100020CDE
:020112000244A5
:0201130003FEE9
:020114000233B4
:020115000004E4
:020116000139AD
:0201170002B92B
:02011800030ED4
:0201190002E8FA
:02011A00019F43
:02011B0001BF22
:02011C00018C54
:02011D00038F4E
:02011E000329B3
:02011F00011BC2
:020120000020BD
:02012100017E5D
:02012200019C3E
:0201230000A03A
:020124000304D2
:02012500023B9B
:0201260001498D
:02012700016D68
:0201280002BF14
:0201290000DAFA
:02012A0003854B
:02012B00035C73
:02012C00027D52
:02012D00013A95
:02012E0002C904
:02012F0001F4D9
:0201300001D7F5
:02013100028F3B
:0201320001FBCF
:02013300007357
:02013400018B3D
:0201350000CFF9
:0201360002893C
:02013700008442
:0201380002D3F0
:0201390000992B
:02013A0000D7EC
:02013B0003358A
:02013C0000D6EB
:02013D0001229D
:02013E0002A21B
:02013F0003CEED
:0201400003E8D2
:0201410003D6E3
:0201420002FBBE
:020143000015A5
:02014400021F98
:02014500012F88
:02014600035E56
:0201470001A90C
:0201480000DADB
:0201490002733F
:02014A00019A18
:02014B000004AE
:02014C0002E6C9
:02014D0003E7C6
:02014E0002119C
:02014F0002CCE0
:0201500002CFDC
:02015100031D8C
:0201520001FFAB
:020153000004A6
:0201540000FDAC
:0201550000FDAB
:02015600016244
:0201570001D3D2
:02015800014D57
:0201590003277A
:02015A00001F84
:02015B00036837
:02015C0003B5E9
:02015D00004C54
:02015E00021786
:02015F0000B9E5
:0201600003A4F6
:02016100033069
:0201620001B6E4
:0201630000A9F1
:0201640001B8E0
:0201650003E9AC
:0201660000BBDC
:02016700014C49
:02016800037919
:02016900030889
:02016A0002D0C1
:02016B0001E3AE
:02016C0000B8D9
:02016D00025C32
:02016E00019FEF
:02016F00024745
:02017000024447
:0201710002E3A7
:02017200020485
:02017300035730
:020174000190F8
:0201750003A9DC
:02017600021C69
:02017700002462
:0201780000FE87
:02017900012C57
:02017A0003BAC6
:02017B000383FC
:02017C00007D04
:02017D0000FF81
:02017E00030E6E
:02017F0001AAD3
:02018000021F5C
:02018100015328
:02018200011A60
:02018300018CED
:02018400025423
:02018500001167
:0201860001A7CF
:0201870001A0D5
:020188000384EE
:02018900013A39
:02018A0000650E
:02018B0003CAA5
:02018C0000ADC4
:02018D00003D33
:02018E0000F37C
:02018F0000016D
:0201900002B5B6
:0201910003EA7F
:020192000172F8
:020193000184E5
:02019400002E3B
:0201950000C5A3
:02019600035B09
:02019700023133
:02019800032F33
:02019900015A09
:02019A0002520F
:02019B0003CA95
:02019C0001045C
:02019D0000540C
:02019E00009BC4
:02019F0002C993
:0201A0000364F6
:0201A100000B51
:0201A20000F764
:0201A300028CCC
:0201A40002DB7C
:0201A500032E27
:0201A6000199BD
:0201A7000280D4
:0201A800022D26
:0201A9000260F2
:0201AA0003DD73
:0201AB0000044E
:0201AC000266E9
:0201AD00025BF3
:0201AE000098B7
:0201AF0000CF7F
:0201B000034406
:0201B1000270DA
:0201B2000097B4
:0201B3000171D8
:0201B40003C581
:0201B500030F36
:0201B600012224
:0201B70003CE75
:0201B8000289BA
:0201B90000172D
:0201BA00003013
:0201BB00013110
:0201BC0001C878
:0201BD00029EA0
:0201BE00000B34
:0201BF0003C576
:0201C0000294A7
:0201C100020733
:0201C200022415
:0201C300032512
:0201C400032D09
:0201C500000434
:0201C60000CF68
:0201C70003CD66
:0201C80000181D
:0201C900035FD2
:0201CA0003AC84
:0201CB0001220F
:0201CC0003C16D
:0201CD00012E01
:0201CE000273BA
:0201CF0001CC61
:0201D000006CC1
:0201D100004CE0
:0201D20001EE3C
:0201D3000234F4
:0201D400002603
:0201D50002C660
:0201D60002DE47
:0201D70000D74F
:0201D80002849F
:0201D900010221
:0201DA0002839E
:0201DB00002EF4
:0201DC0003F22C
:0201DD000265B9
:0201DE00009A85
:0201DF00020319
:0201E000024BD0
:0201E1000338E1
:0201E200028A8F
:0201E30003DC3B
:0201E400028B8C
:0201E50003967F
:0201E60003858F
:0201E7000053C3
:0201E8000352C0
:0201E9000317FA
:0201EA000165AD
:0201EB000115FC
:0201EC00000A07
:0201ED00011CF3
:0201EE00020409
:0201EF000156B7
:0201F000006BA2
:0201F1000158B3
:0201F20000E427
:0201F300007C8E
:0201F4000029E0
:0201F500008D7B
:0201F60000D730
:0201F70000C442
:0201F80002966D
:0201F9000113F0
:0201FA0001857D
:0201FB0001B74A
:0201FC0001FA06
:0201FD000321DC
:0201FE00008B74
:0201FF000224D8
:02020000026A90
:02020100007784
:020202000204F4
:02020300017A7E
:0202040003F401
:020205000351A3
:02020600003DB9
:020207000041B4
:0202080003D120
:02020900005E95
:02020A0002648C
:02020B0003816D
:02020C0000856B
:02020D00038963
:02020E000204E8
:02020F0002E407
:0202100000A349
:02021100036385
:02021200030ADD
:02021300015890
:02021400000ADE
:0202150002F6EF
:020216000228BC
:020217000004E1
:02021800036978
:0202190001CE14
:02021A00016C75
:02021B0003607E
:02021C0001CD12
:02021D00020BD2
:02021E0002C616
:02021F00022EAD
:02022000001DBF
:02022100004596
:02022200005882
:02022300023D9A
:020224000234A2
:020225000110C6
:02022600026173
:0202270002A62D
:0202280001844F
:0202290003F6DA
:02022A0002824E
:02022B0003715D
:02022C000104CB
:02022D0003AE1E
:02022E00004A84
:02022F00025972
:02023000023991
:02023100036761
:0202320002B513
:02023300008E3B
:02023400033293
:0202350000F9CE
:02023600029232
:0202370001477D
:02023800014083
:0202390003C7F9
:02023A00018C35
:02023B0000F0D1
:02023C00004977
:02023D00002996
:02023E0001AE0F
:02023F0000C3FA
:02024000027446
:02024100033880
:02024200013A7F
:0202430002AE09
:02024400001D9B
:0202450002B6FF
:0202460002A014
:02024700014B69
:0202480003C6EB
:02024900010FA3
:02024A00006F43
:02024B0003C8E6
:02024C0001F5BA
:02024D00011C92
:02024E000109A4
:02024F00018923
:0202500000C4E8
:02025100019C0E
:020252000204A4
:02025300016642
:0202540002FAAC
:02025500002B7C
:0202560002F8AC
:02025700005352
:0202580002841E
:02025900039010
:02025A00039A05
:02025B00034955
:02025C0002326C
:02025D00013866
:02025E0000FF9F
:02025F00004A53
:02026000026D2D
:0202610001B5E5
:0202620001D4C5
:02026300024F48
:0202640000E9AF
:0202650000187F
:02026600016C29
:0202670000068F
:02026800030889
:0202690000048F
:02026A0001751C
:02026B00012F61
:02026C0002D2BC
:02026D00024845
:02026E0002325A
:02026F00026724
:02027000026921
:0202710003DEAA
:02027200010E7B
:0202730003582E
:0202740001B5D2
:02027500033054
:02027600016520
:02027700030181
:02027800024042
:02027900036C14
:02027A0003631C
:02027B0002146B
:02027C0001047B
:02027D0001D4AA
:02027E0000C0BE
:02027F00032951
:02028000021C5E
:0202810000D6A5
:02028200034C2B
:0202830000B6C3
:02028400021A5C
:0202850000D1A6
:0202860001175E
:020287000097DE
:0202880000F480
:02028900025D14
:02028A0002155B
:02028B00010967
:02028C00025A14
:02028D0001F37B
:02028E00031853
:02028F0002FC6F
:02029000034E1B
:0202910000D695
:02029200020464
:020293000188E0
:0202940000E781
:0202950003164E
:02029600031152
:020297000271F2
:02029800000A5A
:020299000285DC
:02029A0002FA66
:02029B00038ED0
:02029C00020C52
:02029D00028BD2
:02029E00020458
:02029F0000F865
:0202A000020A50
:0202A10000A7B4
:0202A20003A2B5
:0202A30003DA7C
:0202A40002DC7A
:0202A5000186D0
:0202A60002ADA7
:0202A70001C68E
:0202A8000184CF
:0202A9000289C8
:0202AA0002044C
:0202AB000064ED
:0202AC0003F855
:0202AD00039FAD
:0202AE000172DB
:0202AF00016CE0
:0202B000001C30
:0202B100014EFC
:0202B20002BC8C
:0202B30002B790
:0202B40002DF67
:0202B50002CB7A
:0202B60002BE86
:0202B7000259EA
:0202B800034BF6
:0202B90000043F
:0202BA00026DD3
:0202BB000296A9
:0202BC000170CF
:0202BD000382BA
:0202BE00039E9D
:0202BF00019BA1
:0202C000010A31
:0202C10003F147
:0202C2000185B4
:0202C30000E257
:0202C40003C66F
:0202C500014FE7
:0202C60000B87E
:0202C700001025
:0202C80002FF33
:0202C9000180B2
:0202CA0002A28E
:0202CB000346E8
:0202CC0000E44C
:0202CD000045EA
:0202CE00004DE1
:0202CF0000B677
:0202D00000D953
:0202D1000271B8
:0202D200005BCF
:0202D3000163C5
:0202D400030421
:0202D5000031F6
:0202D600001C0A
:0202D70000FD28
:0202D80002E042
:0202D9000266BB
:0202DA0003958A
:0202DB0000A27F
:0202DC0000BB65
:0202DD0002D34A
:0202DE000072AC
:0202DF00007E9F
:0202E000020A10
:0202E1000328F0
:0202E20003B562
:0202E300002AEF
:0202E400006EAA
:0202E50002A570
:0202E600020410
:0202E70001A470
:0202E8000351C0
:0202E9000265AC
:0202EA0002957B
:0202EB0002CF40
:0202EC0000050B
:0202ED00000F00
:0202EE00007896
:0202EF00015EAE
:0202F0000044C8
:0202F10002F019
:0202F2000242C6
:0202F300010DFB
:0202F40002F70F
:0202F5000350B4
:0202F60003EE15
:0202F700000FF6
:0202F800032FD2
:0202F90003ED13
:0202FA0002E61A
:0202FB0001946C
:0202FC000130CF
:0202FD0001906E
:0202FE00000CF2
:0202FF00025BA0
:02030000017882
:02030100008773
:0203020003B442
:02030300031ADB
:0203040001A84E
:020305000004F2
:0203060003767C
:0203070000C72D
:020308000330C0
:02030900033DB2
:02030A0001B63A
:02030B00028A64
:02030C0003B636
:02030D000031BD
:02030E0002D615
:02030F0001509B
:020310000305E3
:020311000003E7
:0203120003EDF9
:0203130000E800
:02031400028B5A
:0203150000CD19
:0203160002F2F1
:02031700028161
:02031800022EB3
:0203190000CD15
:02031A00004899
:02031B00008C54
:02031C00027C61
:02031D0002EAF2
:02031E00018458
:02031F0003CC0D
:020320000010CB
:02032100005783
:02032200016375
:02032300019C3B
:02032400000FC8
:0203250003666D
:0203260000DBFA
:0203270003349D
:0203280001C111
:02032900034C83
:02032A000120B0
:02032B0001F8D7
:02032C000104CA
:02032D0000E2EC
:02032E00029833
:02032F00009834
:0203300001B713
:02033100002F9B
:0203320000A029
:02033300010ABD
:0203340003D2F2
:0203350002C103
:020336000204BF
:02033700033091
:02033800004380
:0203390002A41C
:02033A00022D92
:02033B00002898
:02033C00025766
:02033D0001F9C4
:02033E0002CDEE
:02033F00021AA0
:0203400001B406
:020341000306B1
:020342000214A3
:02034300008830
:0203440000BAFD
:0203450000B402
:02034600014371
:0203470000FABA
:0203480003436D
:0203490003654A
:02034A0003911D
:02034B0003F1BC
:02034C0001AE00
:02034D000206A6
:02034E0001525A
:02034F00021793
:02035000001596
:02035100035651
:02035200033C6A
:02035300019413
:0203540001A303
:02035500033B68
:0203560001C9DB
:02035700036938
:0203580003F9A7
:02035900002979
:02035A0000940D
:02035B0000CFD1
:02035C00027F1E
:02035D00006F2F
:02035E0001A5F7
:02035F00007824
:0203600001A4F6
:02036100036730
:02036200009207
:0203630003A4F1
:0203640001E2B4
:02036500026F25
:0203660001692B
:0203670002FB97
:02036800028110
:02036900019AF7
:02036A00034A44
:02036B0003117C
:02036C00000A85
:02036D0000048A
:02036E0002A6E5
:02036F00008408
:02037000024445
:0203710003B8CF
:02037200030086
:0203730003A6DF
:0203740001C2C4
:0203750001166F
:02037600003352
:020377000398E9
:0203780000D2B1
:0203790001A3DE
:02037A00031D61
:02037B0000CFB1
:02037C0003E09C
:02037D00023646
:02037E00019CE0
:02037F0002E496
:02038000010F6B
:0203810000700A
:0203820001D4A4
:0203830001A9CE
:02038400032351
:0203850003650E
:0203860000A9CC
:0203870001690A
:020388000384EC
:02038900036E01
:02038A0003531B
:02038B00024529
:02038C00036606
:02038D0001115C
:02038E00000A63
:02038F0002A2C8
:0203900003EE7A
:0203910002E97F
:0203920001A9BF
:020393000088E0
:02039400015511
:020395000280E4
:0203960002491A
:0203970001F370
:0203980000EF74
:02039900000D55
:02039A0000AFB2
:02039B0003F964
:02039C0002015C
:02039D0001005D
:02039E00008AD3
:02039F0000B9A3
:0203A0000164F6
:0203A100015405
:0203A2000173E5
:0203A300000454
:0203A40003D97B
:0203A5000384CF
:0203A600008DC8
:0203A70002ADA5
:0203A80002FC55
:0203A90003311E
:0203AA0000D27F
:0203AB00006DE3
:0203AC0000D37C
:0203AD00024DFF
:0203AE0001D874
:0203AF000059F3
:0203B00001DB6F
:0203B10000C981
:0203B200012523
:0203B30003C580
:0203B400018FB7
:0203B50002B292
:0203B60001E460
:0203B700039CA5
:0203B8000151F1
:0203B90000B88A
:0203BA0002FD42
:0203BB0000043C
:0203BC0001A995
:0203BD0002FB41
:0203BE00037AC0
:0203BF00025EDC
:0203C00001CE6C
:0203C100022315
:0203C200012E0A
:0203C3000170C7
:0203C4000160D6
:0203C50002AF85
:0203C6000185AF
:0203C70003C76A
:0203C8000058DB
:0203C900025DD3
:0203CA000082AF
:0203CB000039F7
:0203CC0001042A
:0203CD0003B972
:0203CE0001C369
:0203CF00006AC2
:0203D000001A11
:0203D10003A780
:0203D200039690
:0203D3000161C6
:0203D40002C164
:0203D50000F234
:0203D60003FF23
:0203D700020A18
:0203D80002928F
:0203D90001BD64
:0203DA0003A37B
:0203DB00039885
:0203DC000374A8
:0203DD0002DD3F
:0203DE00029784
:0203DF0003C950
:0203E000034DCB
:0203E10000FA20
:0203E20002F126
:0203E30000E830
:0203E400037C98
:0203E50003779C
:0203E6000124F0
:0203E700039978
:0203E80000090A
:0203E900011100
:0203EA0002040B
:0203EB000242CC
:0203EC0000818E
:0203ED00021FED
:0203EE00027596
:0203EF000225E5
:0203F000026D9C
:0203F100007694
:0203F20000AA5F
:0203F300020303
:0203F400015FA7
:0203F50000D135
:0203F60002F70C
:0203F700024DB5
:0203F800007F84
:0203F90001BF42
:0203FA000019E8
:0203FB0002C935
:0203FC00018F6F
:0203FD000004FA
:0203FE0000F30A
:0203FF0001AB50
:020400000159A0
:02040100005F9A
:0204020003A94C
:020403000004F3
:02040400017C79
:0204050002AB48
:020406000019DB
:0204070003945C
:0204080003846B
:02040900024CA3
:02040A00019C53
:02040B0001D31B
:02040C00015499
:02040D0003E307
:02040E000200EA
:02040F000043A8
:0204100002B632
:020411000032B7
:0204120001BF28
:0204130001E9FD
:020414000025C1
:02041500002ABB
:02041600015093
:0204170001ECF6
:0204180002B42C
:020419000216C9
:02041A00039D40
:02041B00034D8F
:02041C000104D9
:02041D0003DBFF
:02041E00018259
:02041F0001A535
:02042000014B8E
:0204210002389F
:02042200024D89
:0204230002EAEB
:02042400005086
:020425000108CC
:02042600013B98
:020427000222AF
:02042800015F72
:0204290000666B
:02042A0003DEEF
:02042B000307C5
:02042C00031FAC
:02042D0002C506
:02042E00015E6D
:02042F00027D4C
:02043000014485
:0204310003D1F5
:02043200029C2A
:0204330003E4E0
:020434000313B0
:020435000025A0
:020436000312AF
:0204370003318F
:0204380002A51B
:0204390001C3FD
:02043A00027A44
:02043B0003BDFF
:02043C0000EDD1
:02043D00013F7D
:02043E00032A8F
:02043F0003CEEA
:02044000026256
:0204410003991D
:020442000112A5
:0204430000C0F7
:0204440000575F
:0204450000BAFB
:02044600016152
:0204470003CBE5
:0204480002E8C8
:02044900028629
:02044A0002BFEF
:02044B00036547
:02044C00037437
:02044D00007835
:02044E000204A6
:02044F00011B8F
:0204500003A106
:0204510003C9DD
:02045200038520
:0204530003F6AE
:0204540000DBCB
:020455000004A1
:0204560000BEE6
:02045700034759
:02045800003D65
:0204590000138E
:02045A00027D21
:02045B0001E7B7
:02045C0002E5B7
:02045D0003A3F7
:02045E00035E3B
:02045F0001CFCB
:0204600002A4F4
:0204610000F3A6
:0204620002A9ED
:02046300000493
:0204640003048F
:0204650002E0B3
:02046600037A17
:0204670000D6BD
:02046800028E02
:02046900034846
:02046A00002B65
:02046B00005639
:02046C00005638
:02046D00019EEE
:02046E0001FB90
:02046F00030D7B
:0204700001BFCA
:0204710001BBCD
:0204720000E99F
:0204730002DFA6
:02047400005F27
:0204750002CEB5
:0204760003ACD5
:02047700000E75
:02047800001969
:02047900027708
:02047A0003D6A7
:02047B0002621B
:02047C00013A43
:02047D0003F189
:02047E00020476
:02047F00025B1E
:0204800002BCBC
:02048100035125
:02048200021A5C
:02048300027104
:020484000080F6
:0204850000C4B1
:020486000385EC
:0204870000551E
:02048800018DE4
:0204890003CDA1
:02048A000175FA
:02048B00022845
:02048C00024725
:02048D000273F8
:02048E00030861
:02048F00039ECA
:02049000028BDD
:02049100005C0D
:02049200035D08
:02049300031054
:0204940003B6AD
:0204950001CB99
:020496000186DD
:02049700025D04
:020498000284DC
:02049900026FF0
:02049A0000550B
:02049B0003B0AC
:02049C0000C09E
:02049D00000E4F
:02049E0001EE6D
:02049F00020356
:0204A00002C098
:0204A10000EC6D
:0204A20003292C
:0204A3000172E4
:0204A40000A3B3
:0204A50001FE56
:0204A60002ABA7
:0204A70003420E
:0204A800034B04
:0204A90000C988
:0204AA0003B994
:0204AB00019EB0
:0204AC0000FF4F
:0204AD0000F756
:0204AE0000B399
:0204AF0002FD4C
:0204B00001C089
:0204B1000191B7
:0204B20001380F
:0204B300013016
:0204B40003390A
:0204B50001D86C
:0204B60003E25F
:0204B70000043F
:0204B800004DF5
:0204B90001B38D
:0204BA0003A19C
:0204BB00037CC0
:0204BC00002F0F
:0204BD0001B28A
:0204BE000098A4
:0204BF000194A6
:0204C000010930
:0204C100028FA8
:0204C2000081B7
:0204C3000388AC
:0204C400022410
:0204C5000039FC
:0204C600029B97
:0204C700029899
:0204C8000186AB
:0204C900004EE3
:0204CA0002F836
:0204CB00003BF4
:0204CC00010429
:0204CD00000924
:0204CE000152D9
:0204CF0001C862
:0204D00002C464
:0204D100019C8C
:0204D2000330F5
:0204D3000379AB
:0204D40001180D
:0204D50000E540
:0204D600017DA6
:0204D70002D24F
:0204D80001BA67
:0204D900037F9F
:0204DA00016CB3
:0204DB000062BD
:0204DC000064BA
:0204DD00002AF3
:0204DE0000AF6D
:0204DF0000C556
:0204E00000A377
:0204E1000178A0
:0204E20000FC1C
:0204E300010016
:0204E40003040F
:0204E50003C44E
:0204E60002CE44
:0204E700021100
:0204E80001739E
:0204E9000262AD
:0204EA000367A6
:0204EB0003BA52
:0204EC0002D537
:0204ED00000508
:0204EE00020406
:0204EF00028782
:0204F00001D534
:0204F100025AAD
:0204F200003DCB
:0204F30000F512
:0204F40002DC28
:0204F50000C441
:0204F600019073
:0204F70003C53B
:0204F8000125DC
:0204F900023DC2
:0204FA000204FA
:0204FB00016C92
:0204FC0002F705
:0204FD000255A6
:0204FE0003F306
:0204FF00009566
:0205000000F009
:02050100013DBA
:0205020000D423
:0205030001C035
:02050400005D98
:0205050002E80A
:020506000122D0
:0205070003DC13
:02050800009C55
:02050900012DC2
:02050A00033CB0
:02050B0003F1FA
:02050C00038862
:02050D0000EB01
:02050E00014C9E
:02050F0003BF28
:0205100000D217
:02051100022BBB
:020512000222C3
:0205130003598A
:02051400005A8B
:02051500032FB2
:020516000100E2
:0205170001B031
:0205180003746A
:0205190002706E
:02051A00005887
:02051B000004DA
:02051C000115C7
:02051D00038C4D
:02051E00036573
:02051F00003D9D
:0205200000E4F5
:020521000303D2
:0205220002B322
:020523000220B4
:020524000123B1
:0205250000E2F2
:02052600036E62
:02052700035E71
:0205280003745A
:02052900023797
:02052A0001913D
:02052B0002725A
:02052C00006B62
:02052D00015378
:02052E0000DFEC
:02052F00004981
:0205300001E9DF
:0205310000DDEB
:0205320000A225
:0205330000B70F
:02053400003F86
:0205350001A221
:02053600022998
:0205370001A41D
:02053800020CB3
:0205390003209D
:02053A000208B5
:02053B0000F9C5
:02053C0002D6E5
:02053D0002CFEB
:02053E000009B2
:02053F00013A7F
:02054000005168
:020541000216A0
:0205420001CCEA
:0205430000D7DF
:02054400025E55
:0205450002ECC6
:0205460000179C
:02054700002290
:0205480001A20E
:0205490003218C
:02054A0002C2EB
:02054B0001E5C8
:02054C0000CFDE
:02054D00024A60
:02054E00034D5B
:02054F00029E0A
:02055000007C2D
:02055100024066
:020552000204A1
:0205530002495B
:02055400019C08
:02055500023D65
:0205560001C4DE
:0205570000C7DB
:0205580002841B
:0205590000831D
:02055A00023E5F
:02055B0000CBD3
:02055C00027E1D
:02055D00029406
:02055E0000D9C2
:02055F00015148
:0205600003DEB8
:0205610003E6AF
:02056200000295
:02056300019CF9
:0205640000A2F3
:0205650003256C
:02056600010A88
:0205670003AAE5
:0205680001840C
:0205690001E0AF
:02056A00007817
:02056B00012766
:02056C00038CFE
:02056D0002B7D3
:02056E0000D3B8
:02056F0002CFB9
:02057000000980
:0205710001F691
:0205720003D1B3
:02057300024143
:0205740003047E
:02057500009FE5
:0205760002027F
:02057700023848
:0205780000126F
:0205790001D0AF
:02057A0000CDB2
:02057B00012D50
:02057C000189F3
:02057D000298E2
:02057E0002DC9D
:02057F00025127
:02058000021760
:02058100002058
:0205820002DC99
:0205830000E591
:0205840000AEC7
:02058500003143
:020586000097DC
:0205870001EC85
:0205880002C9A6
:0205890000046C
:02058A00005B14
:02058B0000234B
:02058C0000FA73
:02058D00016EFD
:02058E0000B4B7
:02058F00024F19
:0205900001C4A4
:0205910002471F
:020592000269FC
:0205930003C99A
:0205940002C3A0
:02059500021F43
:0205960002C0A1
:0205970003550A
:02059800000958
:0205990002312D
:02059A0003FE5E
:02059B00002F2F
:02059C0001BCA0
:02059D00038CCD
:02059E00002338
:02059F00015405
:0205A00003F165
:0205A100037DD8
:0205A20001DB7B
:0205A30003054E
:0205A40000B5A0
:0205A500022032
:0205A60003A0B0
:0205A700026CE4
:0205A80000430E
:0205A900032825
:0205AA00010945
:0205AB00037CCF
:0205AC00036BDF
:0205AD0000C785
:0205AE00023F0A
:0205AF0000F05A
:0205B000001732
:0205B10000C781
:0205B200019BAB
:0205B3000269DB
:0205B40003F949
:0205B50003B48D
:0205B600035AE6
:0205B70000B68C
:0205B8000154EC
:0205B90002320C
:0205BA000378C4
:0205BB00002717
:0205BC0001D666
:0205BD00005FDD
:0205BE000197A3
:0205BF00010534
:0205C0000394A2
:0205C100034BEA
:0205C20002FF36
:0205C300020E26
:0205C400000D28
:0205C5000087AD
:0205C60002AB86
:0205C70001072A
:0205C800013BF5
:0205C90003B37A
:0205CA00035BD1
:0205CB000153DA
:0205CC0000AD80
:0205CD00021D0D
:0205CE0003B375
:0205CF00009298
:0205D00000A683
:0205D100005DCB
:0205D200005DCA
:0205D300013CE9
:0205D4000338EA
:0205D50001F132
:0205D600001B08
:0205D700033BE4
:0205D8000360BE
:0205D90002D648
:0205DA0001E539
:0205DB00028399
:0205DC0000130A
:0205DD00031801
:0205DE0000F229
:0205DF00039681
:0205E0000147D1
:0205E100004DCB
:0205E20002B362
:0205E30001FE17
:0205E40002E42F
:0205E500010B08
:0205E60002C150
:0205E70000B161
:0205E80001A769
:0205E9000240CE
:0205EA0000AC63
:0205EB000065A9
:0205EC0001E824
:0205ED00027496
:0205EE0003C147
:0205EF0003BE49
:0205F0000049C0
:0205F10002ED19
:0205F200009B6C
:0205F30001679E
:0205F4000042C3
:0205F50002B84A
:0205F60000A85B
:0205F7000004FE
:0205F800008B76
:0205F900038479
:0205FA00037C80
:0205FB000001FD
:0205FC0001609C
:0205FD0000609C
:0205FE0001FFFB
:0205FF000330C7
:02060000009662
:020601000242B3
:02060200037182
:020603000245AE
:02060400038A67
:02060500026B86
:020606000036BC
:020607000016DB
:0206080002D21C
:02060900028C61
:02060A00027A72
:02060B0002AD3E
:02060C0003C623
:02060D0002BB2E
:02060E00009258
:02060F00021EC9
:0206100003C421
:020611000133B3
:020612000127BE
:020613000125BF
:02061400013EA5
:0206150003C917
:020616000127BA
:0206170003805E
:0206180002845A
:020619000329B3
:02061A00036A71
:02061B00020AD1
:02061C00025288
:02061D0003D008
:02061E00021ABE
:02061F00008C4D
:020620000209CD
:0206210000B91E
:0206220001D104
:02062300014B89
:0206240001AB28
:0206250003C010
:0206260002656B
:02062700023F90
:0206280001844B
:0206290003B715
:02062A00016A63
:02062B000004C9
:02062C00017E4D
:02062D000026A5
:02062E00026167
:02062F00026E59
:020630000226A0
:0206310002BF06
:02063200008F37
:0206330002CDF6
:0206340003556C
:02063500026A57
:02063600027749
:0206370003D2EC
:0206380000843C
:020639000004BB
:02063A000300BB
:02063B00031C9E
:02063C0002B802
:02063D0000B506
:02063E00003387
:02063F00005960
:020640000016A2
:0206410001E8CE
:02064200039B18
:020643000213A0
:02064400010AA9
:0206450002D9D8
:02064600003979
:020647000008A9
:0206480003109D
:0206490003C6E6
:02064A00021696
:02064B0003208A
:02064C000104A7
:02064D0002A207
:02064E00036047
:02064F0002F0B7
:02065000011592
:0206510001693D
:02065200032083
:0206530000D0D5
:0206540000356F
:0206550001F9A9
:0206560001762B
:02065700007F22
:02065800032578
:02065900037D1F
:02065A00016538
:02065B00024D4E
:02065C0000FCA0
:02065D00015644
:02065E0000207A
:02065F0002CDCA
:02066000034055
:02066100039400
:0206620001E1B4
:0206630000088D
:0206640003761B
:0206650000EAA9
:02066600004052
:02066700003859
:02066800023A54
:0206690002226B
:02066A00020488
:02066B0001F696
:02066C0003D5B4
:02066D00031375
:02066E00007713
:02066F0001EC9C
:02067000024442
:02067100010581
:02067200022C58
:0206730001FC88
:0206740000BFC5
:020675000297EA
:02067600033E41
:0206770001D7A9
:0206780000B1CF
:0206790001126C
:02067A0003017A
:02067B0001106C
:02067C0000205C
:02067D00033048
:02067E00032651
:02067F000295E2
:020680000188EF
:02068100015026
:02068200004630
:02068300019BD9
:02068400012053
:0206850003115F
:0206860003DD92
:0206870003F17D
:020688000384E9
:0206890002610C
:02068A0003AEBD
:02068B0001BBB1
:02068C0001CC9F
:02068D0003E286
:02068E000285E3
:02068F000292D5
:02069000030560
:0206910000C3A4
:02069200026400
:02069300000461
:02069400030859
:0206950001EA78
:02069600000B57
:020697000176EA
:0206980002B2AC
:02069900008BD4
:02069A0003DC7F
:02069B000161FB
:02069C00017DDE
:02069D00000853
:02069E00001E3C
:02069F0003E76F
:0206A0000064F4
:0206A100014016
:0206A2000097BF
:0206A30002C48F
:0206A400023022
:0206A500031E32
:0206A6000375DA
:0206A7000290BF
:0206A800010A45
:0206A900008BC4
:0206AA000396B5
:0206AB000155F7
:0206AC000166E5
:0206AD0003AC9C
:0206AE00001634
:0206AF000274D3
:0206B000023F07
:0206B1000269DC
:0206B200012D18
:0206B30003D66C
:0206B4000296AC
:0206B500004EF5
:0206B600025CE4
:0206B700006DD4
:0206B800004AF6
:0206B90001A29C
:0206BA0001E15C
:0206BB0003F644
:0206BC00002616
:0206BD0003DA5E
:0206BE000170C9
:0206BF00000435
:0206C0000345F0
:0206C1000340F4
:0206C200003204
:0206C3000255DE
:0206C40001AF84
:0206C50001E44E
:0206C60002042C
:0206C7000059D8
:0206C8000237F7
:0206C90003CE5E
:0206CA0003F833
:0206CB00000825
:0206CC00039B8E
:0206CD000068C3
:0206CE00020F19
:0206CF0001EA3E
:0206D00002DE48
:0206D1000128FE
:0206D2000232F2
:0206D300005DC8
:0206D40002DA48
:0206D5000173AF
:0206D600005EC4
:0206D700001011
:0206D800010B14
:0206D90003AF6D
:0206DA00000E10
:0206DB0001B765
:0206DC00038E8B
:0206DD00039781
:0206DE0002CE4A
:0206DF0000EF2A
:0206E0000051C7
:0206E10001B264
:0206E20000080E
:0206E3000056BF
:0206E400017B98
:0206E50000040F
:0206E600020010
:0206E70002CE41
:0206E80002F31B
:0206E90003EA22
:0206EA0003F417
:0206EB0001EF1D
:0206EC000124E7
:0206ED00011DED
:0206EE00017297
:0206EF0001A167
:0206F00000DF29
:0206F10001E620
:0206F20002D034
:0206F30000E322
:0206F40000659F
:0206F500007390
:0206F60002CD33
:0206F70003AF4F
:0206F80001A35C
:0206F9000150AE
:0206FA000152AB
:0206FB00020DEE
:0206FC00017C7F
:0206FD000309EF
:0206FE00035F98
:0206FF00003CBD
:020700000048AF
:0207010002E60E
:020702000008ED
:020703000004F0
:02070400036789
:0207050002CA26
:0207060002A44B
:020707000321CC
:0207080003F3F9
:02070900002AC4
:02070A000204E7
:02070B0002C624
:02070C00028D5C
:02070D000022C8
:02070E0000D316
:02070F000044A4
:020710000044A3
:0207110000A244
:020712000305DD
:0207130002BA28
:02071400009251
:0207150002AF31
:02071600005D84
:0207170001E8F7
:02071800006E71
:0207190001B825
:02071A00000DD0
:02071B000208D2
:02071C00026D6C
:02071D000002D8
:02071E00015E7A
:02071F0000C513
:0207200003FCD8
:02072100001CBA
:02072200016D67
:0207230003379A
:02072400039C34
:02072500036C63
:0207260001F9D7
:0207270000F4DC
:02072800003D92
:0207290001BB12
:02072A00013597
:02072B000024A8
:02072C00018E3C
:02072D0001DBEE
:02072E0002A91E
:02072F0002A71F
:02073000016A5C
:0207310003447F
:02073200011AAA
:02073300003C88
:02073400023D84
:0207350000C8FA
:02073600017947
:0207370001B30C
:02073800027944
:0207390000427C
:02073A0002D5E6
:02073B00011E9D
:02073C000104B6
:02073D00034671
:02073E00034C6A
:02073F000303B2
:0207400002B401
:0207410000DDD9
:020742000204AF
:0207430000971D
:0207440000BEF5
:0207450000337F
:02074600021E91
:0207470002EDC1
:02074800002887
:02074900004C62
:02074A0002A506
:02074B00032584
:02074C00023B6E
:02074D0000AFFB
:02074E0003782E
:02074F00039510
:0207500001E9BD
:02075100030D96
:02075200033270
:0207530001F2B1
:02075400022C75
:0207550001E0C1
:0207560002049B
:02075700025F3F
:0207580001603E
:0207590003FD9E
:02075A00018715
:02075B00038514
:02075C00018D0D
:02075D00012079
:02075E00018117
:02075F00039005
:0207600001A4F2
:02076100036330
:02076200019DF7
:0207630002286A
:0207640003B5DB
:0207650001B0E1
:0207660000157C
:02076700034D40
:02076800000887
:02076900031774
:02076A00014448
:02076B00033257
:02076C0001305A
:02076D00031A6D
:02076E00003257
:02076F0002F690
:02077000010185
:0207710002E3A1
:0207720003FA88
:02077300025131
:0207740002770A
:02077500035D22
:02077600022C53
:02077700022856
:020778000084FB
:0207790000413D
:02077A00020873
:02077B00000478
:02077C0001C1B9
:02077D00000476
:02077E0000A8D1
:02077F000278FE
:02078000010C6A
:0207810000A7CF
:02078200020C67
:02078300026012
:0207840003046C
:02078500016F02
:02078600030B63
:0207870001135C
:02078800006B04
:020789000180ED
:02078A0000224B
:02078B00036108
:02078C00016604
:02078D00035611
:02078E00012840
:02078F000184E3
:02079000019FC7
:02079100011A4B
:0207920001D98B
:0207930003E47D
:0207940001431F
:0207950001DB86
:02079600034816
:0207970000BCA4
:0207980002DC81
:02079900039FBC
:02079A00022437
:02079B000296C4
:02079C00020752
:02079D00024B0D
:02079E0001D97F
:02079F0003A5B0
:0207A00002FE57
:0207A100036CE7
:0207A200008EC7
:0207A30001F55E
:0207A40003044C
:0207A50002CE82
:0207A60003EF5F
:0207A700006FE1
:0207A800019DB1
:0207A90003EE5D
:0207AA0002D873
:0207AB0000B597
:0207AC00029CAD
:0207AD00003F0B
:0207AE0003CF77
:0207AF0001D374
:0207B00001093D
:0207B1000245FF
:0207B200004DF8
:0207B30003BB86
:0207B40002D66B
:0207B5000176CB
:0207B60000DC65
:0207B7000399A4
:0207B8000162DC
:0207B90002F943
:0207BA00020437
:0207BB0000F04C
:0207BC0002CC6D
:0207BD00032C0B
:0207BE00020433
:0207BF00038BAA
:0207C000001423
:0207C10003F43F
:0207C200035AD8
:0207C3000234FE
:0207C400000A29
:0207C50003E04F
:0207C60000131E
:0207C7000239F5
:0207C80003002C
:0207C90002111B
:0207CA0001E745
:0207CB0003B970
:0207CC00034FD9
:0207CD0002EA3E
:0207CE00032006
:0207CF0002BA6C
:0207D00002988D
:0207D100018C99
:0207D200003DE8
:0207D30001071C
:0207D40003D848
:0207D50002120E
:0207D600026BB4
:0207D70000CD53
:0207D8000235E8
:0207D900009589
:0207DA0002B269
:0207DB00000418
:0207DC00009A81
:0207DD0000F723
:0207DE0001F127
:0207DF00009583
:0207E00002080D
:0207E1000362B1
:0207E200019381
:0207E3000143D0
:0207E40002B35E
:0207E500019A77
:0207E600010B05
:0207E7000353BA
:0207E80001D935
:0207E90001000D
:0207EA00000A03
:0207EB0000F319
:0207EC000059B2
:0207ED00015AAF
:0207EE00017197
:0207EF000060A8
:0207F0000008FF
:0207F1000052B4
:0207F2000309F9
:0207F30003C33E
:0207F40003BB45
:0207F50001B74A
:0207F60001E917
:0207F70001CF30
:0207F8000014EB
:0207F900007589
:0207FA00039F5B
:0207FB000312E7
:0207FC000104F6
:0207FD000041B9
:0207FE00000CED
:0207FF000004F4
:00000001ff
