:020000040000FA
:020000000000FE
:0200010000FFFE
:0200020001FFFC
:0200030002FEFB
:0200040003FDFA
:0200050000FBFE
:0200060001F9FE
:0200070002F6FF
:0200080003F4FF
:0200090000F005
:02000A0001ED06
:02000B0002E908
:02000C0003E50A
:02000D0000E011
:02000E0001DB14
:02000F0002D617
:0200100003D01B
:0200110000CA23
:0200120001C328
:0200130002BD2C
:0200140003B532
:0200150000AE3B
:0200160001A641
:02001700029E47
:0200180003954E
:02001900008C59
:02001A00018360
:02001B00027968
:02001C00036F70
:02001D0000657C
:02001E00015A85
:02001F00024F8E
:02002000034398
:020021000038A5
:02002200012BB0
:02002300021FBA
:020024000312C5
:020025000005D4
:0200260000F7E1
:0200270001E9ED
:0200280002DBF9
:0200290003CD05
:02002A0000BE16
:02002B0001AE24
:02002C00029F31
:02002D00038F3F
:02002E00007E52
:02002F00016E60
:02003000025D6F
:02003100034B7F
:02003200003A92
:020033000128A2
:020034000215B3
:020035000302C4
:0200360003EFD6
:0200370000DCEB
:0200380001C8FD
:0200390002B40F
:02003A0003A021
:02003B00008B38
:02003C0001764B
:02003D0002615E
:02003E00034B72
:02003F0000358A
:02004000011E9F
:020041000208B3
:0200420002F0CA
:0200430003D9DF
:0200440000C1F9
:0200450001A90F
:02004600029125
:0200470003783C
:02004800005F57
:0200490001466E
:02004A00022C86
:02004B0003129E
:02004C0003F8B7
:02004D0000DDD4
:02004E0001C2ED
:02004F0002A706
:02005000038B20
:02005100006F3E
:02005200015358
:02005300023673
:0200540003198E
:0200550003FCAA
:0200560000DFC9
:0200570001C1E5
:0200580002A202
:0200590003841E
:02005A0000653F
:02005B0001465C
:02005C0002267A
:02005D00030797
:02005E0003E7B6
:02005F0000C6D9
:0200600001A6F7
:02006100028417
:02006200036336
:0200630000415A
:02006400012079
:0200650001FD9B
:0200660002DBBB
:0200670003B8DC
:02006800009501
:02006900017123
:02006A00024D45
:02006B00032967
:02006C0000058D
:02006D0000E0B1
:02006E0001BBD4
:02006F000296F7
:0200700003701B
:02007100004A43
:02007200012467
:0200730001FD8D
:0200740002D6B2
:0200750003AFD7
:02007600008800
:02007700016026
:0200780002384C
:02007900031072
:02007A0003E79A
:02007B0000BEC5
:02007C000195EC
:02007D00026B14
:02007E0003413C
:02007F00001768
:0200800000ED91
:0200810001C2BA
:020082000297E3
:02008300036C0C
:0200840000403A
:02008500011464
:0200860001E88F
:0200870002BCB9
:02008800038FE4
:02008900006213
:02008A0001353E
:02008B0002076A
:02008C0002D997
:02008D0003ABC3
:02008E00007CF4
:02008F00014E20
:02009000021E4E
:0200910002EF7C
:0200920003BFAA
:020093000090DB
:02009400015F0A
:02009500022F38
:0200960002FE68
:0200970003CD97
:02009800009CCA
:02009900016AFA
:02009A0002382A
:02009B0003065A
:02009C0003D48B
:02009D0000A1C0
:02009E00016EF1
:02009F00023A23
:0200A000030754
:0200A10003D387
:0200A200009FBD
:0200A300016AF0
:0200A400023622
:0200A500030155
:0200A60003CC89
:0200A7000096C1
:0200A8000160F5
:0200A900022A29
:0200AA0002F45E
:0200AB0003BD93
:0200AC000086CC
:0200AD00014F01
:0200AE00021836
:0200AF0002E06D
:0200B00003A8A3
:0200B1000070DD
:0200B200013714
:0200B30001FF4B
:0200B40002C682
:0200B500038CBA
:0200B6000053F5
:0200B70001192D
:0200B80001DF66
:0200B90002A59E
:0200BA00036AD7
:0200BB00002F14
:0200BC0000F44E
:0200BD0001B888
:0200BE00027DC1
:0200BF000341FB
:0200C000000539
:0200C10000C875
:0200C200018BB0
:0200C300024EEB
:0200C400031126
:0200C50003D462
:0200C6000096A2
:0200C7000158DE
:0200C80002191B
:0200C90002DB58
:0200CA00039C95
:0200CB00005DD6
:0200CC00011E13
:0200CD0001DE52
:0200CE00029E90
:0200CF00035ECE
:0200D000001E10
:0200D10000DD50
:0200D200019C8F
:0200D300025BCE
:0200D400031A0D
:0200D50003D84E
:0200D600009692
:0200D7000154D2
:0200D800021212
:0200D90002CF54
:0200DA00038C95
:0200DB000049DA
:0200DC0001061B
:0200DD0001C25E
:0200DE00027EA0
:0200DF00033AE2
:0200E00003F625
:0200E10000B16C
:0200E200016CAF
:0200E3000227F2
:0200E40002E236
:0200E500039C7A
:0200E6000056C2
:0200E700011006
:0200E80001CA4B
:0200E900028390
:0200EA00033CD5
:0200EB0003F51B
:0200EC0000AE64
:0200ED000167A9
:0200EE00021FEF
:0200EF0002D736
:0200F000038E7D
:0200F1000046C7
:0200F20000FD0F
:0200F30001B456
:0200F400026B9D
:0200F5000321E5
:0200F60003D82D
:0200F700008E79
:0200F8000143C2
:0200F90001F90B
:0200FA0002AE54
:0200FB0003639D
:0200FC000018EA
:0200FD0000CD34
:0200FE0001817E
:0200FF000235C8
:0201000002E912
:02010100039D5C
:020102000051AA
:020103000104F5
:0201040001B741
:0201050002698D
:02010600031CD8
:0201070003CE25
:02010800008075
:020109000132C1
:02010A0001E40E
:02010B0002955B
:02010C000346A8
:02010D0003F7F6
:02010E0000A847
:02010F00015895
:020110000208E3
:0201110002B832
:02011200036880
:020113000018D2
:0201140000C722
:02011500017671
:020116000225C0
:0201170002D410
:02011800038260
:020119000030B4
:02011A0000DE05
:02011B00018C55
:02011C000239A6
:02011D0002E7F7
:02011E00039448
:02011F0000419D
:0201200000EDF0
:02012100019A41
:02012200024693
:0201230002F2E6
:02012400039D39
:0201250000498F
:0201260000F4E3
:02012700019F36
:02012800024A89
:0201290002F5DD
:02012A00039F31
:02012B00004989
:02012C0000F3DE
:02012D00019D32
:02012E00024786
:02012F0002F0DC
:02013000039931
:0201310000428A
:0201320000EBE0
:02013300019336
:02013400023C8B
:0201350002E4E2
:02013600038B39
:02013700003393
:0201380000DAEB
:02013900018241
:02013A00022998
:02013B0002CFF1
:02013C00037648
:02013D00001CA4
:02013E0000C2FD
:02013F00016855
:02014000020EAD
:0201410002B406
:0201420003595F
:0201430003FEB9
:0201440000A316
:0201450001486F
:0201460001ECCA
:02014700029024
:0201480003347E
:0201490003D8D9
:02014A00007C37
:02014B00011F92
:02014C0001C2EE
:02014D00026549
:02014E000308A4
:02014F0003AB00
:02015000004D60
:0201510000EFBD
:02015200019119
:02015300023375
:0201540002D5D2
:0201550003762F
:02015600001790
:0201570000B8EE
:0201580001594B
:0201590001FAA9
:02015A00029A07
:02015B00033A65
:02015C0003DAC4
:02015D00007A26
:02015E00011A84
:02015F0001B9E4
:02016000025843
:0201610002F7A3
:02016200039602
:02016300003466
:0201640000D3C6
:02016500017126
:02016600020F86
:0201670002ADE7
:02016800034A48
:0201690003E8A9
:02016A0000850E
:02016B0001226F
:02016C0001BFD1
:02016D00025B33
:02016E0002F895
:02016F000394F7
:0201700000305D
:0201710000CCC0
:02017200016723
:02017300020385
:02017400029EE9
:0201750003394C
:0201760003D4B0
:02017700006F17
:0201780001097B
:0201790001A4DF
:02017A00023E43
:02017B0002D8A8
:02017C0003710D
:02017D00000B75
:02017E0000A4DB
:02017F00013D40
:0201800001D6A6
:02018100026F0B
:02018200030870
:0201830003A0D7
:02018400003841
:0201850000D0A8
:0201860001680E
:02018700020074
:020188000297DC
:02018900032F42
:02018A0003C6AA
:02018B00005D15
:02018C0000F37E
:02018D00018AE5
:02018E0002204D
:02018F0002B6B6
:02019000034C1E
:0201910003E287
:020192000078F3
:02019300010D5C
:0201940001A3C5
:0201950002382E
:0201960002CD98
:02019700036102
:0201980003F66C
:02019900008ADA
:02019A00011E44
:02019B0001B2AF
:02019C00024619
:02019D0002DA84
:02019E00036DEF
:02019F0000005E
:0201A0000094C9
:0201A100012635
:0201A20001B9A1
:0201A300024C0C
:0201A40002DE79
:0201A5000370E5
:0201A600000255
:0201A7000094C2
:0201A80001262E
:0201A90001B79C
:0201AA00024908
:0201AB0002DA76
:0201AC00036BE3
:0201AD0003FB52
:0201AE00008CC3
:0201AF00011C31
:0201B00001AD9F
:0201B100023D0D
:0201B20002CD7C
:0201B300035CEB
:0201B40003EC5A
:0201B500007BCD
:0201B600010B3B
:0201B700019AAB
:0201B80002291A
:0201B90002B78B
:0201BA000346FA
:0201BB0003D46B
:0201BC000062DF
:0201BD0000F050
:0201BE00017EC0
:0201BF00020C30
:0201C0000299A2
:0201C100032712
:0201C20003B484
:0201C3000041F9
:0201C40000CE6B
:0201C500015ADD
:0201C60001E74F
:0201C7000273C1
:0201C80002FF34
:0201C900038BA6
:0201CA0000171C
:0201CB0000A38F
:0201CC00012E02
:0201CD0001B976
:0201CE000245E8
:0201CF0002D05C
:0201D000035AD0
:0201D10003E544
:0201D2000070BB
:0201D30000FA30
:0201D4000184A4
:0201D500020E18
:0201D60002988D
:0201D700032102
:0201D80003AB77
:0201D9000034F0
:0201DA0000BD66
:0201DB000146DB
:0201DC0001CF51
:0201DD000258C6
:0201DE0002E13C
:0201DF000369B2
:0201E00003F129
:0201E1000079A3
:0201E200010119
:0201E300018990
:0201E400021007
:0201E50002987E
:0201E600031FF5
:0201E70003A66D
:0201E800002DE8
:0201E90000B460
:0201EA00013AD8
:0201EB0001C150
:0201EC000247C8
:0201ED0002CD41
:0201EE000353B9
:0201EF0003D932
:0201F000005EAF
:0201F10000E428
:0201F2000169A1
:0201F30001EE1B
:0201F400027394
:0201F50002F80E
:0201F600037D87
:0201F700000105
:0201F80000867F
:0201F900010AF9
:0201FA00018E74
:0201FB000212EE
:0201FC00029669
:0201FD000319E4
:0201FE00039D5F
:0201FF000020DE
:0202000000A359
:020201000126D4
:0202020001A950
:02020300022CCB
:0202040002AE48
:020205000331C3
:0202060003B340
:020207000035C0
:0202080000B73D
:020209000139B9
:02020A0001BA37
:02020B00023CB3
:02020C0002BD31
:02020D00033EAE
:02020E0003BF2C
:02020F000040AD
:0202100000C12B
:020211000142A8
:0202120001C227
:020213000242A5
:0202140002C224
:020215000342A2
:0202160003C221
:020217000042A3
:0202180000C123
:020219000141A1
:02021A0001C021
:02021B00023FA0
:02021C0002BE20
:02021D00033D9F
:02021E0003BB20
:02021F00003AA3
:0202200000B824
:020221000136A4
:0202220001B524
:020223000232A5
:0202240002B026
:02022500032EA6
:0202260003AB28
:020227000029AC
:0202280000A62E
:020229000123AF
:02022A0001A031
:02022B00021DB2
:02022C00029935
:02022D000316B6
:02022E00039239
:02022F00000EBF
:02023000008A42
:020231000106C4
:02023200018247
:0202330001FDCB
:0202340002794D
:0202350002F4D1
:02023600036F54
:0202370003EAD8
:0202380000655F
:0202390000E0E3
:02023A00015B66
:02023B0001D5EB
:02023C0002506E
:02023D0002CAF3
:02023E00034477
:02023F0003BEFC
:02024000003884
:0202410000B10A
:02024200012B8E
:0202430001A414
:02024400021D99
:0202450002961F
:02024600030FA4
:0202470003882A
:020248000001B3
:0202490000793A
:02024A0000F2C0
:02024B00016A46
:02024C0001E2CD
:02024D00025A53
:02024E0002D2DA
:02024F00034A60
:0202500003C1E8
:02025100003972
:0202520000B0FA
:02025300012781
:02025400019E09
:02025500021590
:02025600028C18
:0202570003039F
:02025800037928
:0202590003EFB1
:02025A0000663C
:02025B0000DCC5
:02025C0001524D
:02025D0001C8D6
:02025E00023D5F
:02025F0002B3E8
:02026000032871
:02026100039EFA
:02026200001387
:02026300008811
:0202640000FD9B
:02026500017125
:0202660001E6AF
:02026700025B38
:0202680002CFC3
:0202690003434D
:02026A0003B7D8
:02026B00002B66
:02026C00009FF1
:02026D0001137B
:02026E00018706
:02026F0001FA92
:02027000026D1D
:0202710002E1A8
:02027200035433
:0202730003C7BF
:0202740000394F
:0202750000ACDB
:02027600011F66
:020277000191F3
:0202780002037F
:0202790002760B
:02027A0002E898
:02027B00035925
:02027C0003CBB2
:02027D00003D42
:02027E0000AFCF
:02027F0001205C
:020280000191EA
:02028100020277
:02028200027305
:0202830002E493
:02028400035520
:0202850003C6AE
:02028600003640
:0202870000A7CE
:0202880001175C
:020289000187EB
:02028A0001F77A
:02028B00026708
:02028C0002D797
:02028D00034725
:02028E0003B6B5
:02028F00002548
:020290000095D7
:02029100010466
:020292000173F6
:0202930001E286
:02029400025115
:0202950002BFA6
:02029600032E35
:02029700039CC6
:02029800000B59
:020299000079EA
:02029A0000E77B
:02029B0001550B
:02029C0001C39C
:02029D0002302D
:02029E00029EBE
:02029F00030B4F
:0202A0000379E0
:0202A10003E672
:0202A200005307
:0202A30000C099
:0202A400012D2A
:0202A500019ABC
:0202A60002064E
:0202A7000273E0
:0202A80002DF73
:0202A900034B05
:0202AA0003B798
:0202AB0000232E
:0202AC00008FC1
:0202AD0000FB54
:0202AE000167E6
:0202AF0001D27A
:0202B000023E0C
:0202B10002A9A0
:0202B200031433
:0202B300037FC7
:0202B40003EA5B
:0202B5000055F2
:0202B60000C086
:0202B700012B19
:0202B8000195AE
:0202B90001FF43
:0202BA00026AD6
:0202BB0002D46B
:0202BC00033EFF
:0202BD0003A894
:0202BE0000122C
:0202BF00007BC2
:0202C00000E557
:0202C100014EEC
:0202C20001B881
:0202C300022116
:0202C400028AAC
:0202C50002F342
:0202C600035CD7
:0202C70003C56D
:0202C800002D07
:0202C90000969D
:0202CA0000FE34
:0202CB000166CA
:0202CC0001CF60
:0202CD000237F6
:0202CE00029F8D
:0202CF00030723
:0202D000036EBB
:0202D10003D652
:0202D200003DED
:0202D30000A584
:0202D400010C1B
:0202D5000173B3
:0202D60001DA4B
:0202D7000241E2
:0202D80002A87A
:0202D900030F11
:0202DA000376A9
:0202DB0003DC42
:0202DC000043DD
:0202DD0000A976
:0202DE00010F0E
:0202DF000175A7
:0202E00001DB40
:0202E1000241D8
:0202E20002A771
:0202E300030C0A
:0202E4000372A3
:0202E50003D73D
:0202E600003DD9
:0202E70000A273
:0202E80001070C
:0202E900016CA6
:0202EA0001D140
:0202EB000235DA
:0202EC00029A74
:0202ED0002FF0E
:0202EE000363A8
:0202EF0003C743
:0202F000002CE0
:0202F10000907B
:0202F20000F416
:0202F3000158B0
:0202F40001BC4B
:0202F500021FE6
:0202F600028381
:0202F70002E61D
:0202F800034AB7
:0202F90003AD53
:0202FA000010F2
:0202FB0000738E
:0202FC0000D62A
:0202FD000139C5
:0202FE00019C61
:0202FF0001FEFE
:02030000026198
:0203010002C335
:020302000326D0
:0203030003886D
:0203040003EA0A
:02030500004CAA
:0203060000AE47
:020307000110E3
:02030800017181
:0203090001D31E
:02030A000234BB
:02030B00029658
:02030C0002F7F6
:02030D00035893
:02030E0003B931
:02030F00001AD2
:02031000007B70
:0203110000DC0E
:02031200013DAB
:02031300019D4A
:0203140001FEE8
:02031500025E86
:0203160002BE25
:02031700031EC3
:02031800037E62
:0203190003DE01
:02031A00003EA3
:02031B00009E42
:02031C0000FEE1
:02031D00015D80
:02031E0001BD1F
:02031F00021CBE
:02032000027B5E
:0203210002DAFE
:0203220003399D
:0203230003983D
:0203240003F7DD
:02032500005680
:0203260000B520
:020327000113C0
:02032800017260
:0203290001D001
:02032A00022EA1
:02032B00028C42
:02032C0002EAE3
:02032D00034883
:02032E0003A624
:02032F000004C8
:02033000006269
:0203310000BF0B
:02033200011DAB
:02033300017A4D
:0203340001D7EF
:02033500023490
:02033600029132
:0203370002EED4
:02033800034B75
:0203390003A817
:02033A000005BC
:02033B0000615F
:02033C0000BE01
:02033D00011AA3
:02033E00017646
:02033F0001D3E8
:02034000022F8A
:02034100028B2D
:0203420002E7D0
:02034300034372
:02034400039E16
:0203450003FAB9
:02034600005560
:0203470000B103
:02034800010CA6
:0203490001674A
:02034A0001C3ED
:02034B00021E90
:02034C00027934
:02034D0002D3D9
:02034E00032E7C
:02034F00038920
:0203500003E3C5
:02035100003E6C
:02035200009811
:0203530000F3B5
:02035400014D59
:0203550001A7FE
:020356000201A2
:02035700025B47
:0203580002B5EC
:02035900030F90
:02035A00036836
:02035B0003C2DB
:02035C00001B84
:02035D00007529
:02035E0000CECF
:02035F00012774
:0203600001801A
:0203610001D9C0
:02036200023265
:02036300028B0B
:0203640002E4B1
:02036500033C57
:020366000395FD
:0203670003EDA4
:0203680000464D
:02036900009EF4
:02036A0000F69B
:02036B00014E41
:02036C0001A6E8
:02036D0001FE8F
:02036E00025635
:02036F0002AEDC
:02037000030583
:02037100035D2A
:0203720003B4D2
:02037300000C7C
:02037400006324
:0203750000BACC
:02037600011173
:0203770001681B
:0203780001BFC3
:0203790002166A
:02037A00026D12
:02037B0002C4BA
:02037C00031A62
:02037D0003710A
:02037E0003C7B3
:02037F00001D5F
:02038000007407
:0203810000CAB0
:02038200012058
:02038300017601
:0203840001CCAA
:02038500022153
:020386000277FC
:0203870002CDA5
:0203880003224E
:020389000378F7
:02038A0003CDA1
:02038B0000224E
:02038C000078F7
:02038D0000CDA1
:02038E0001224A
:02038F000177F4
:0203900001CB9F
:02039100022048
:020392000275F2
:0203930002C99D
:02039400031E46
:020395000372F1
:0203960003C79B
:02039700001B49
:02039800006FF4
:0203990000C39F
:02039A00011749
:02039B00016BF4
:02039C0001BF9F
:02039D0002124A
:02039E000266F5
:02039F0002BAA0
:0203A000030D4B
:0203A1000361F6
:0203A20003B4A2
:0203A300000751
:0203A400005AFD
:0203A50000ADA9
:0203A600010054
:0203A700015300
:0203A80001A6AC
:0203A90001F958
:0203AA00024B04
:0203AB00029EB0
:0203AC0002F05D
:0203AD00034308
:0203AE000395B5
:0203AF0003E762
:0203B000003912
:0203B100008BBF
:0203B20000DD6C
:0203B300012F18
:0203B4000181C5
:0203B50001D372
:0203B60002241F
:0203B7000276CC
:0203B80002C879
:0203B900031926
:0203BA00036AD4
:0203BB0003BC81
:0203BC00000D32
:0203BD00005EE0
:0203BE0000AF8E
:0203BF0001003B
:0203C0000151E9
:0203C10001A198
:0203C20001F246
:0203C3000243F3
:0203C4000293A2
:0203C50002E351
:0203C6000334FE
:0203C7000384AD
:0203C80003D45C
:0203C90000240E
:0203CA000074BD
:0203CB0000C46C
:0203CC0001141A
:0203CD000164C9
:0203CE0001B478
:0203CF00020327
:0203D0000253D6
:0203D10002A385
:0203D20002F235
:0203D3000341E4
:0203D400039094
:0203D50003E043
:0203D600002FF6
:0203D700007EA6
:0203D80000CD56
:0203D900011C05
:0203DA00016AB6
:0203DB0001B966
:0203DC00020815
:0203DD000256C6
:0203DE0002A576
:0203DF0002F327
:0203E0000341D7
:0203E100039087
:0203E20003DE38
:0203E300002CEC
:0203E400007A9D
:0203E50000C84E
:0203E6000116FE
:0203E7000163B0
:0203E80001B161
:0203E90001FF12
:0203EA00024CC3
:0203EB00029A74
:0203EC0002E726
:0203ED000334D7
:0203EE00038288
:0203EF0003CF3A
:0203F000001CEF
:0203F1000069A1
:0203F20000B653
:0203F300010304
:0203F400014FB7
:0203F500019C69
:0203F60001E91B
:0203F7000235CD
:0203F80002827F
:0203F90002CE32
:0203FA00031BE3
:0203FB00036796
:0203FC0003B349
:0203FD0003FFFC
:0203FE00004BB2
:0203FF00009765
:0204000000E317
:02040100012FC9
:02040200017B7C
:0204030001C630
:020404000212E2
:02040500025D96
:0204060002A949
:0204070002F4FD
:020408000340AF
:02040900038B63
:02040A0003D617
:02040B000021CE
:02040C00006C82
:02040D0000B736
:02040E000102E9
:02040F00014D9D
:02041000019752
:0204110001E206
:02041200022CBA
:0204130002776E
:0204140002C123
:02041500030CD6
:0204160003568B
:0204170003A040
:0204180003EAF5
:020419000034AD
:02041A00007E62
:02041B0000C817
:02041C000112CB
:02041D00015C80
:02041E0001A635
:02041F0001EFEB
:0204200002399F
:02042100028255
:0204220002CC0A
:020423000315BF
:02042400035E75
:0204250003A82A
:0204260003F1E0
:02042700003A99
:0204280000834F
:0204290000CC05
:02042A000115BA
:02042B00015D71
:02042C0001A627
:02042D0001EFDD
:02042E00023793
:02042F00028049
:0204300002C800
:020431000311B5
:0204320003596C
:0204330003A123
:0204340003E9DA
:02043500003293
:02043600007A4A
:0204370000C102
:020438000109B8
:0204390001516F
:02043A00019926
:02043B0001E1DD
:02043C00022894
:02043D0002704B
:02043E0002B703
:02043F0002FFBA
:02044000034671
:02044100038D29
:0204420003D4E1
:02044300001C9B
:02044400006353
:0204450000AA0B
:0204460000F1C3
:0204470001377B
:02044800017E33
:0204490001C5EB
:02044A00020CA2
:02044B0002525B
:02044C00029913
:02044D0002DFCC
:02044E00032683
:02044F00036C3C
:0204500003B2F5
:0204510003F8AE
:02045200003E6A
:02045300008522
:0204540000CADC
:02045500011094
:0204560001564D
:02045700019C06
:0204580001E2BF
:02045900022778
:02045A00026D31
:02045B0002B3EA
:02045C0002F8A4
:02045D00033D5D
:02045E00038316
:02045F0003C8D0
:02046000000D8D
:02046100005247
:02046200009701
:0204630000DCBB
:02046400012174
:0204650001662E
:0204660001ABE8
:0204670001F0A2
:0204680002345C
:02046900027916
:02046A0002BED0
:02046B0003028A
:02046C00034645
:02046D00038BFF
:02046E0003CFBA
:02046F00001378
:02047000005733
:02047100009CED
:0204720000E0A8
:02047300012462
:0204740001671E
:0204750001ABD9
:0204760001EF94
:0204770002334E
:0204780002760A
:0204790002BAC5
:02047A0002FE80
:02047B0003413B
:02047C000384F7
:02047D0003C8B2
:02047E00000B71
:02047F00004E2D
:020480000091E9
:0204810000D4A5
:02048200011760
:02048300015A1C
:02048400019DD8
:0204850001E094
:0204860002234F
:0204870002660B
:0204880002A8C8
:0204890002EB84
:02048A00032D40
:02048B000370FC
:02048C0003B2B9
:02048D0003F476
:02048E00003735
:02048F000079F2
:0204900000BBAF
:0204910000FD6C
:02049200013F28
:020493000181E5
:0204940001C3A2
:0204950002055E
:0204960002471B
:020497000288D9
:0204980002CA96
:02049900030C52
:02049A00034D10
:02049B00038FCD
:02049C0003D08B
:02049D0000114C
:02049E00005309
:02049F000094C7
:0204A00000D585
:0204A100011642
:0204A200015700
:0204A3000198BE
:0204A40001D97C
:0204A500021A39
:0204A600025BF7
:0204A700029BB6
:0204A80002DC74
:0204A900031D31
:0204AA00035DF0
:0204AB00039EAE
:0204AC0003DE6D
:0204AD00001F2E
:0204AE00005FED
:0204AF00009FAC
:0204B00000DF6B
:0204B100012028
:0204B2000160E7
:0204B30001A0A6
:0204B40001E065
:0204B500022023
:0204B600025FE3
:0204B700029FA2
:0204B80002DF61
:0204B900031F1F
:0204BA00035EDF
:0204BB00039E9E
:0204BC0003DD5E
:0204BD00001D20
:0204BE00005CE0
:0204BF00009C9F
:0204C00000DB5F
:0204C100011A1E
:0204C2000159DE
:0204C30001989E
:0204C40001D75E
:0204C50002161D
:0204C6000255DD
:0204C70002949D
:0204C80002D35D
:0204C90003121C
:0204CA000350DD
:0204CB00038F9D
:0204CC0003CD5E
:0204CD00000C21
:0204CE00004AE2
:0204CF000089A2
:0204D00000C763
:0204D100010523
:0204D2000144E3
:0204D3000182A4
:0204D40001C065
:0204D50001FE26
:0204D600023CE6
:0204D700027AA7
:0204D80002B868
:0204D90002F629
:0204DA000334E9
:0204DB000371AB
:0204DC0003AF6C
:0204DD0003ED2D
:0204DE00002AF2
:0204DF000068B3
:0204E00000A575
:0204E10000E237
:0204E2000120F7
:0204E300015DB9
:0204E400019A7B
:0204E50001D73D
:0204E6000215FD
:0204E7000252BF
:0204E800028F81
:0204E90002CC43
:0204EA00030805
:0204EB000345C7
:0204EC00038289
:0204ED0003BF4B
:0204EE0003FB0E
:0204EF000038D3
:0204F000007595
:0204F10000B158
:0204F20000ED1B
:0204F300012ADC
:0204F40001669F
:0204F50001A361
:0204F60001DF24
:0204F700021BE6
:0204F8000257A9
:0204F90002936C
:0204FA0002CF2F
:0204FB00030BF1
:0204FC000347B4
:0204FD00038377
:0204FE0003BF3A
:0204FF0003FAFE
:020500000036C3
:02050100007286
:0205020000AD4A
:0205030000E90D
:020504000124D0
:02050500016093
:02050600019B57
:0205070001D61B
:020508000212DD
:02050900024DA1
:02050A00028865
:02050B0002C329
:02050C0002FEED
:02050D000339B0
:02050E00037474
:02050F0003AF38
:0205100003EAFC
:020511000025C3
:02051200005F88
:02051300009A4C
:0205140000D510
:02051500010FD4
:02051600014A98
:0205170001845D
:0205180001BF21
:0205190001F9E6
:02051A000233AA
:02051B00026D6F
:02051C0002A833
:02051D0002E2F8
:02051E00031CBC
:02051F00035681
:02052000039046
:0205210003CA0B
:020522000004D3
:02052300003E98
:0205240000775E
:0205250000B123
:0205260000EBE8
:020527000124AD
:02052800015E72
:02052900019837
:02052A0001D1FD
:02052B00020BC1
:02052C00024487
:02052D00027D4D
:02052E0002B712
:02052F0002F0D8
:0205300003299D
:02053100036263
:02053200039B29
:0205330003D4EF
:02053400000DB8
:0205350000467E
:02053600007F44
:0205370000B80A
:0205380000F0D1
:02053900012996
:02053A0001625C
:02053B00019B22
:02053C0001D3E9
:02053D00020CAE
:02053E00024475
:02053F00027C3C
:0205400002B502
:0205410002EDC9
:0205420003258F
:02054300035E55
:0205440003961C
:0205450003CEE3
:020546000006AD
:02054700003E74
:0205480000763B
:0205490000AE02
:02054A0000E6C9
:02054B00011E8F
:02054C00015557
:02054D00018D1E
:02054E0001C5E5
:02054F0001FCAD
:02055000023473
:02055100026C3A
:0205520002A302
:0205530002DBC9
:02055400031290
:02055500034958
:0205560003811F
:0205570003B8E7
:0205580003EFAF
:0205590000267A
:02055A00005D42
:02055B0000940A
:02055C0000CBD2
:02055D00010299
:02055E00013961
:02055F00017029
:0205600001A7F1
:0205610001DDBA
:02056200021481
:02056300024B49
:02056400028112
:0205650002B8DA
:0205660002EFA2
:0205670003256A
:02056800035B33
:020569000392FB
:02056A0003C8C4
:02056B0003FE8D
:02056C00003558
:02056D00006B21
:02056E0000A1EA
:02056F0000D7B3
:02057000010D7B
:02057100014344
:0205720001790D
:0205730001AFD6
:0205740001E59F
:02057500021B67
:02057600025031
:020577000286FA
:0205780002BCC3
:0205790002F18D
:02057A00032755
:02057B00035D1E
:02057C000392E8
:02057D0003C7B2
:02057E0003FD7B
:02057F00003248
:02058000006712
:02058100009DDB
:0205820000D2A5
:0205830001076E
:02058400013C38
:02058500017102
:0205860001A6CC
:0205870001DB96
:0205880002105F
:02058900024529
:02058A00027AF3
:02058B0002AFBD
:02058C0002E388
:02058D00031851
:02058E00034D1B
:02058F000381E6
:0205900003B6B0
:0205910003EA7B
:02059200001F48
:02059300005313
:020594000088DD
:0205950000BCA8
:0205960000F073
:0205970001253C
:02059800015907
:02059900018DD2
:02059A0001C19D
:02059B0001F568
:02059C00022932
:02059D00025DFD
:02059E000291C8
:02059F0002C593
:0205A00002F95E
:0205A100032D28
:0205A2000360F4
:0205A3000394BF
:0205A40003C88A
:0205A50003FB56
:0205A600002F24
:0205A7000062F0
:0205A8000096BB
:0205A90000C987
:0205AA0000FD52
:0205AB0001301D
:0205AC000163E9
:0205AD000197B4
:0205AE0001CA80
:0205AF0001FD4C
:0205B000023017
:0205B1000263E3
:0205B2000296AF
:0205B30002C97B
:0205B40002FC47
:0205B500032F12
:0205B6000362DE
:0205B7000395AA
:0205B80003C876
:0205B90003FB42
:0205BA00002D12
:0205BB000060DE
:0205BC000092AB
:0205BD0000C577
:0205BE0000F843
:0205BF00012A0F
:0205C000015DDB
:0205C100018FA8
:0205C20001C175
:0205C30001F441
:0205C40002260D
:0205C5000258DA
:0205C600028AA7
:0205C70002BC74
:0205C80002EE41
:0205C90003210C
:0205CA000353D9
:0205CB000385A6
:0205CC0003B674
:0205CD0003E841
:0205CE00001A11
:0205CF00004CDE
:0205D000007EAB
:0205D10000AF79
:0205D20000E146
:0205D300011312
:0205D4000144E0
:0205D5000176AD
:0205D60001A77B
:0205D70001D948
:0205D800020A15
:0205D900023CE2
:0205DA00026DB0
:0205DB00029E7E
:0205DC0002D04B
:0205DD00030118
:0205DE000332E6
:0205DF000363B4
:0205E000039482
:0205E10003C550
:0205E20003F61E
:0205E3000027EF
:0205E4000058BD
:0205E50000898B
:0205E60000BA59
:0205E70000EB27
:0205E800011BF5
:0205E900014CC3
:0205EA00017D91
:0205EB0001AD60
:0205EC0001DE2E
:0205ED00020FFB
:0205EE00023FCA
:0205EF00027098
:0205F00002A067
:0205F10002D036
:0205F200030103
:0205F3000331D2
:0205F4000361A1
:0205F50003926F
:0205F60003C23E
:0205F70003F20D
:0205F8000022DF
:0205F9000052AE
:0205FA0000827D
:0205FB0000B24C
:0205FC0000E21B
:0205FD000112E9
:0205FE000142B8
:0205FF00017287
:0206000001A156
:0206010001D125
:020602000201F3
:020603000231C2
:02060400026092
:02060500029061
:0206060002BF31
:0206070002EF00
:02060800031ECF
:02060900034E9E
:02060A00037D6E
:02060B0003AC3E
:02060C0003DC0D
:02060D00000BE0
:02060E00003AB0
:02060F00006980
:0206100000994F
:0206110000C81F
:0206120000F7EF
:020613000126BE
:0206140001558E
:0206150001845E
:0206160001B32E
:0206170001E2FE
:020618000210CE
:02061900023F9E
:02061A00026E6E
:02061B00029D3E
:02061C0002CB0F
:02061D0002FADF
:02061E000329AE
:02061F0003577F
:0206200003864F
:0206210003B420
:0206220003E3F0
:020623000011C4
:02062400003F95
:02062500006E65
:02062600009C36
:0206270000CA07
:0206280000F9D7
:020629000127A7
:02062A00015578
:02062B00018349
:02062C0001B11A
:02062D0001DFEB
:02062E00020DBB
:02062F00023B8C
:0206300002695D
:0206310002972E
:0206320002C5FF
:0206330002F3D0
:020634000320A1
:02063500034E72
:02063600037C43
:0206370003A915
:0206380003D7E6
:020639000005BA
:02063A0000328C
:02063B0000605D
:02063C00008D2F
:02063D0000BA01
:02063E0000E8D2
:02063F000115A3
:02064000014374
:02064100017046
:02064200019D18
:0206430001CAEA
:0206440001F7BC
:0206450002258C
:0206460002525E
:02064700027F30
:0206480002AC02
:0206490002D9D4
:02064A000306A5
:02064B00033377
:02064C00035F4A
:02064D00038C1C
:02064E0003B9EE
:02064F0003E6C0
:02065000001395
:02065100003F68
:02065200006C3A
:0206530000990C
:0206540000C5DF
:0206550000F2B1
:02065600011E83
:02065700014B55
:02065800017728
:0206590001A3FB
:02065A0001D0CD
:02065B0001FCA0
:02065C00022872
:02065D00025544
:02065E00028117
:02065F0002ADEA
:0206600002D9BD
:0206610003058F
:02066200033162
:02066300035D35
:02066400038908
:0206650003B5DB
:0206660003E1AE
:02066700000D84
:02066800003957
:0206690000652A
:02066A000091FD
:02066B0000BCD1
:02066C0000E8A4
:02066D00011476
:02066E00013F4A
:02066F00016B1D
:020670000197F0
:0206710001C2C4
:0206720001EE97
:0206730002196A
:0206740002453D
:02067500027011
:02067600029BE5
:0206770002C7B8
:0206780002F28C
:02067900031D5F
:02067A00034833
:02067B00037406
:02067C00039FDA
:02067D0003CAAE
:02067E0003F582
:02067F00002059
:02068000004B2D
:02068100007601
:0206820000A1D5
:0206830000CCA9
:0206840000F77D
:02068500012250
:02068600014C25
:020687000177F9
:0206880001A2CD
:0206890001CDA1
:02068A0001F776
:02068B00022249
:02068C00024C1E
:02068D000277F2
:02068E0002A2C6
:02068F0002CC9B
:0206900002F670
:02069100032143
:02069200034B18
:020693000376EC
:0206940003A0C1
:0206950003CA96
:0206960003F56A
:02069700001F42
:02069800004917
:020699000073EC
:02069A00009DC1
:02069B0000C796
:02069C0000F16B
:02069D00011B3F
:02069E00014514
:02069F00016FE9
:0206A0000199BE
:0206A10001C393
:0206A20001ED68
:0206A30002173C
:0206A400024111
:0206A500026AE7
:0206A6000294BC
:0206A70002BE91
:0206A80002E767
:0206A90003113B
:0206AA00033B10
:0206AB000364E6
:0206AC00038EBB
:0206AD0003B791
:0206AE0003E166
:0206AF00000A3F
:0206B000003315
:0206B100005DEA
:0206B2000086C0
:0206B30000AF96
:0206B40000D96B
:0206B500010240
:0206B600012B16
:0206B7000154EC
:0206B800017DC2
:0206B90001A698
:0206BA0001CF6E
:0206BB0001F844
:0206BC00022119
:0206BD00024AEF
:0206BE000273C5
:0206BF00029C9B
:0206C00002C571
:0206C10002EE47
:0206C20003171C
:0206C300033FF3
:0206C4000368C9
:0206C50003919F
:0206C60003BA75
:0206C70003E24C
:0206C800000B25
:0206C9000033FC
:0206CA00005CD2
:0206CB000084A9
:0206CC0000AD7F
:0206CD0000D556
:0206CE0000FE2C
:0206CF00012602
:0206D000014ED9
:0206D1000177AF
:0206D200019F86
:0206D30001C75D
:0206D40001EF34
:0206D500021809
:0206D6000240E0
:0206D7000268B7
:0206D80002908E
:0206D90002B865
:0206DA0002E03C
:0206DB00030812
:0206DC000330E9
:0206DD000358C0
:0206DE00038097
:0206DF0003A86E
:0206E00003D045
:0206E10003F71D
:0206E200001FF7
:0206E3000047CE
:0206E400006FA5
:0206E50000967D
:0206E60000BE54
:0206E70000E62B
:0206E800010D02
:0206E9000135D9
:0206EA00015CB1
:0206EB00018488
:0206EC0001AB60
:0206ED0001D337
:0206EE0001FA0F
:0206EF000221E6
:0206F0000249BD
:0206F100027095
:0206F20002976D
:0206F30002BF44
:0206F40002E61C
:0206F500030DF3
:0206F6000334CB
:0206F700035BA3
:0206F80003827B
:0206F90003A953
:0206FA0003D12A
:0206FB0003F802
:0206FC00001FDD
:0206FD000045B6
:0206FE00006C8E
:0206FF00009366
:0207000000BA3D
:0207010000E115
:020702000108EC
:02070300012EC5
:0207040001559D
:02070500017C75
:0207060001A34D
:0207070001C926
:0207080001F0FE
:020709000216D6
:02070A00023DAE
:02070B00026387
:02070C00028A5F
:02070D0002B038
:02070E0002D710
:02070F0002FDE9
:020710000324C0
:02071100034A99
:02071200037072
:0207130003974A
:0207140003BD23
:0207150003E3FC
:020716000009D8
:02071700002FB1
:0207180000558A
:02071900007C62
:02071A0000A23B
:02071B0000C814
:02071C0000EEED
:02071D000114C5
:02071E00013A9E
:02071F00016077
:02072000018551
:0207210001AB2A
:0207220001D103
:0207230001F7DC
:02072400021DB4
:0207250002438D
:02072600026867
:02072700028E40
:0207280002B419
:0207290002D9F3
:02072A0002FFCC
:02072B000324A5
:02072C00034A7E
:02072D00036F58
:02072E00039531
:02072F0003BA0B
:0207300003E0E4
:020731000005C1
:02073200002B9A
:02073300005074
:0207340000754E
:02073500009B27
:0207360000C001
:0207370000E5DB
:02073800010AB4
:02073900012F8E
:02073A00015567
:02073B00017A41
:02073C00019F1B
:02073D0001C4F5
:02073E0001E9CF
:02073F00020EA8
:02074000023382
:0207410002585C
:02074200027D36
:0207430002A210
:0207440002C6EB
:0207450002EBC5
:0207460003109E
:02074700033578
:02074800035A52
:02074900037E2D
:02074A0003A307
:02074B0003C8E1
:02074C0003ECBC
:02074D00001199
:02074E00003574
:02074F00005A4E
:02075000007F28
:0207510000A303
:0207520000C7DE
:0207530000ECB8
:02075400011092
:0207550001356C
:02075600015947
:02075700017D22
:0207580001A2FC
:0207590001C6D7
:02075A0001EAB2
:02075B00020E8C
:02075C00023366
:02075D00025741
:02075E00027B1C
:02075F00029FF7
:0207600002C3D2
:0207610002E7AD
:02076200030B87
:02076300032F62
:0207640003533D
:02076500037718
:02076600039BF3
:0207670003BFCE
:0207680003E3A9
:02076900000787
:02076A00002A63
:02076B00004E3E
:02076C00007219
:02076D000096F4
:02076E0000B9D0
:02076F0000DDAB
:02077000010185
:02077100012461
:0207720001483C
:02077300016B18
:02077400018FF3
:0207750001B2CF
:0207760001D6AA
:0207770001F986
:02077800021D60
:0207790002403C
:02077A00026417
:02077B000287F3
:02077C0002AACF
:02077D0002CDAB
:02077E0002F186
:02077F00031461
:0207800003373D
:02078100035A19
:02078200037EF4
:0207830003A1D0
:0207840003C4AC
:0207850003E788
:02078600000A67
:02078700002D43
:0207880000501F
:020789000073FB
:02078A000096D7
:02078B0000B9B3
:02078C0000DC8F
:02078D0000FF6B
:02078E00012147
:02078F00014423
:020790000167FF
:02079100018ADB
:0207920001ACB8
:0207930001CF94
:0207940001F270
:0207950002154B
:02079600023728
:02079700025A04
:02079800027CE1
:02079900029FBD
:02079A0002C19A
:02079B0002E476
:02079C00030652
:02079D0003292E
:02079E00034B0B
:02079F00036EE7
:0207A0000390C4
:0207A10003B2A1
:0207A20003D57D
:0207A30003F75A
:0207A40000193A
:0207A500003C16
:0207A600005EF3
:0207A7000080D0
:0207A80000A2AD
:0207A90000C48A
:0207AA0000E667
:0207AB00010843
:0207AC00012A20
:0207AD00014DFC
:0207AE00016FD9
:0207AF000191B6
:0207B00001B294
:0207B10001D471
:0207B20001F64E
:0207B30002182A
:0207B400023A07
:0207B500025CE4
:0207B600027EC1
:0207B70002A09E
:0207B80002C17C
:0207B90002E359
:0207BA00030535
:0207BB00032613
:0207BC000348F0
:0207BD00036ACD
:0207BE00038BAB
:0207BF0003AD88
:0207C00003CE66
:0207C10003F043
:0207C200001223
:0207C300003301
:0207C4000054DF
:0207C5000076BC
:0207C60000979A
:0207C70000B977
:0207C80000DA55
:0207C90000FB33
:0207CA00011D0F
:0207CB00013EED
:0207CC00015FCB
:0207CD000181A8
:0207CE0001A286
:0207CF0001C364
:0207D00001E442
:0207D10002051F
:0207D2000226FD
:0207D3000247DB
:0207D4000268B9
:0207D500028A96
:0207D60002AB74
:0207D70002CC52
:0207D80002ED30
:0207D900030D0E
:0207DA00032EEC
:0207DB00034FCA
:0207DC000370A8
:0207DD00039186
:0207DE0003B264
:0207DF0003D342
:0207E00003F321
:0207E100001402
:0207E2000035E0
:0207E3000056BE
:0207E40000769D
:0207E50000977B
:0207E60000B859
:0207E70000D838
:0207E80000F916
:0207E9000119F4
:0207EA00013AD2
:0207EB00015AB1
:0207EC00017B8F
:0207ED00019B6E
:0207EE0001BC4C
:0207EF0001DC2B
:0207F00001FC0A
:0207F100021DE7
:0207F200023DC6
:0207F300025EA4
:0207F400027E83
:0207F500029E62
:0207F60002BE41
:0207F70002DF1F
:0207F80002FFFE
:0207F900031FDC
:0207FA00033FBB
:0207FB00035F9A
:0207FC00037F79
:0207FD00039F58
:0207FE0003BF37
:0207FF0003DF16
:00000001ff
