:020000040000FA
:0200000003F506
:020001000351A9
:0200020002DA20
:02000300032FC9
:020004000018E2
:02000500022ACD
:0200060001797E
:0200070002AC49
:0200080001CE27
:02000900035F93
:02000A0003975A
:02000B0002A64B
:02000C0001569B
:02000D0003D915
:02000E00025797
:02000F00017C72
:0200100001A746
:020011000311D9
:02001200025A90
:0200130003E503
:020014000025C5
:02001500039C4A
:02001600028165
:0200170001A244
:02001800017273
:020019000212D1
:02001A00009054
:02001B000104DE
:02001C000016CC
:02001D00024F90
:02001E00002FB1
:02001F00028657
:0200200001934A
:020021000234A7
:0200220000D408
:0200230001EBEF
:02002400024395
:0200250002A334
:0200260003597C
:0200270000F4E3
:02002800009442
:02002900028D46
:02002A0003A32E
:02002B00004C87
:02002C00017C55
:02002D0003CFFF
:02002E0003F3DA
:02002F0002B617
:0200300000AC22
:02003100029239
:0200320001507B
:0200330001606A
:0200340003C403
:02003500014C7C
:02003600027E48
:02003700005C6B
:02003800038E35
:0200390000FDC8
:02003A0001586B
:02003B00019C26
:02003C00026858
:02003D0000D5EC
:02003E0001853A
:02003F00016D51
:0200400001536A
:02004100026259
:02004200011D9E
:0200430002AD0C
:0200440003EDCA
:0200450001A414
:0200460000F5C3
:02004700028332
:02004800039221
:0200490000BBFA
:02004A00035A57
:02004B000009AA
:02004C0003ECC3
:02004D0000337E
:02004E0001515E
:02004F0000E2CD
:02005000037437
:02005100024962
:02005200023377
:02005300008C1F
:0200540001EEBB
:0200550003D1D5
:02005600031491
:0200570000C3E4
:02005800021A8A
:0200590003F4AE
:02005A00037928
:02005B0001F4AE
:02005C00002A78
:02005D0003643A
:02005E0000ECB4
:02005F0001C3DB
:0200600002C5D7
:02006100017D1F
:02006200030495
:02006300007526
:0200640002D2C6
:0200650003494D
:02006600036233
:02006700003364
:0200680002ABE9
:02006900002570
:02006A0001CBC8
:02006B0001177B
:02006C0002F69A
:02006D0001028E
:02006E0003F994
:02006F00019FEF
:0200700002D2BA
:0200710001226A
:02007200018803
:0200730001A7E3
:020074000295F3
:0200750001B2D6
:02007600002761
:020077000394F0
:0200780000F591
:0200790001CFB5
:02007A0003463B
:02007B00032A56
:02007C0002562A
:02007D0002631C
:02007E0000A5DB
:02007F00025C21
:02008000014A33
:02008100025922
:02008200032455
:02008300012357
:0200840001D0A9
:02008500026512
:02008600004A2E
:02008700013A3C
:02008800022351
:02008900010470
:02008A00030F62
:02008B0001AEC4
:02008C00026F01
:02008D0002C7A8
:02008E0000155B
:02008F00000D62
:02009000001757
:020091000180EC
:02009200021357
:02009300034D1B
:020094000289DF
:02009500017FE9
:020096000180E7
:0200970000481F
:02009800033D26
:0200990000273E
:02009A0000461E
:02009B000164FE
:02009C0001243D
:02009D0000E47D
:02009E00025FFF
:02009F00032A32
:0200A00000A6B8
:0200A10000E17C
:0200A200011942
:0200A300032533
:0200A400004F0B
:0200A50002D186
:0200A60003C590
:0200A700010056
:0200A80000282E
:0200A900030D45
:0200AA00031839
:0200AB00021A37
:0200AC0001C28F
:0200AD0003AF9F
:0200AE0001ABA4
:0200AF0001311D
:0200B000002E20
:0200B1000066E7
:0200B200034009
:0200B30002BF8A
:0200B40000B298
:0200B500027ACD
:0200B60001F750
:0200B70000FF48
:0200B80001380D
:0200B9000084C1
:0200BA0000C77D
:0200BB00035DE3
:0200BC0002350B
:0200BD00035DE1
:0200BE00004BF5
:0200BF0002FD40
:0200C000010835
:0200C1000093AA
:0200C200030C2D
:0200C300028BAE
:0200C40000DE5C
:0200C50003B482
:0200C60000D266
:0200C7000266CF
:0200C80001F83D
:0200C9000182B2
:0200CA0002F939
:0200CB0003F63A
:0200CC000289A7
:0200CD0000A78A
:0200CE0000220E
:0200CF000284A9
:0200D000025BD1
:0200D10000FC31
:0200D200008BA1
:0200D30002E148
:0200D40001D752
:0200D50003A97D
:0200D60001E740
:0200D700029E87
:0200D80003EC37
:0200D900035CC6
:0200DA000356CB
:0200DB0001AB77
:0200DC0000041E
:0200DD0000B76A
:0200DE000160BF
:0200DF000065BA
:0200E0000368B3
:0200E100009588
:0200E20001F922
:0200E3000134E6
:0200E40000BD5D
:0200E500025CBB
:0200E6000032E6
:0200E70003E52F
:0200E80003EA29
:0200E9000243D0
:0200EA0000A470
:0200EB000157BB
:0200EC000237D9
:0200ED00018A86
:0200EE000161AE
:0200EF00037C90
:0200F000022CE0
:0200F10003A367
:0200F20001818A
:0200F3000252B7
:0200F40003DA2D
:0200F500003CCD
:0200F60001EB1C
:0200F700026B9A
:0200F8000032D4
:0200F9000157AD
:0200FA000012F2
:0200FB000239C8
:0200FC0001FE03
:0200FD0001946C
:0200FE00031DE0
:0200FF0000E817
:0201000000A15C
:0201010000F903
:0201020003A850
:020103000333C4
:0201040001797F
:0201050000CC2C
:020106000335BF
:020107000337BC
:02010800027C77
:02010900039B56
:02010A0000CB28
:02010B0003CD22
:02010C00035F8F
:02010D00013AB5
:02010E000001EE
:02010F00019C51
:02011000006687
:0201110002AB3F
:02011200026E7B
:020113000210D8
:0201140003D214
:0201150001B82F
:02011600025D88
:0201170003DA09
:0201180000588D
:020119000235AD
:02011A0003716F
:02011B0002C11F
:02011C00024A95
:02011D0003FFDE
:02011E0002A538
:02011F000018C6
:0201200002D407
:02012100013E9D
:02012200016377
:0201230001D603
:02012400009643
:02012500005A7E
:020126000304D0
:02012700034291
:0201280003389A
:020129000128AB
:02012A0003943C
:02012B0000E0F2
:02012C000322AC
:02012D0000D6FA
:02012E0000844B
:02012F000017B7
:02013000025D6E
:02013100016665
:0201320003BF09
:02013300038F38
:0201340003883E
:0201350001C601
:0201360000C9FE
:0201370002FFC5
:0201380002D5EE
:02013900026062
:02013A00006162
:02013B0002F4CC
:02013C0000F0D1
:02013D00003789
:02013E0003A11B
:02013F00016558
:0201400003E2D8
:0201410001BEFD
:02014200015A60
:0201430000F5C5
:02014400032195
:02014500022F87
:0201460000D5E2
:02014700017342
:0201480002575C
:0201490001EBC8
:02014A0002E2CF
:02014B0003A30C
:02014C00028F20
:02014D00025D51
:02014E0001129C
:02014F00019617
:02015000024962
:02015100019A11
:0201520001DDCD
:0201530001DACF
:02015400002A7F
:0201550002E5C1
:0201560000F1B6
:02015700008224
:02015800005550
:0201590002D5CD
:02015A00027130
:02015B0001E7BA
:02015C0003A7F7
:02015D0002425C
:02015E00003669
:02015F0000049A
:02016000004D50
:02016100039504
:02016200008912
:02016300016A2F
:02016400010E8A
:0201650002098D
:0201660002A8ED
:0201670001C7CE
:0201680001D1C3
:0201690001474C
:02016A0002D6BB
:02016B00013F52
:02016C0002E4AB
:02016D00027B13
:02016E0002830A
:02016F00017A13
:02017000023259
:02017100035237
:02017200033A4E
:0201730000C5C5
:0201740002592E
:0201750002B1D5
:02017600006A1D
:0201770002275D
:020178000287FC
:0201790000265E
:02017A0001CCB6
:02017B0001C0C1
:02017C0002FD82
:02017D00002E52
:02017E0003D5A7
:02017F000094EA
:02018000012854
:02018100002C50
:02018200003F3C
:02018300006416
:0201840002B8BF
:02018500024D29
:02018600019FD7
:020187000379FA
:020188000280F3
:020189000186ED
:02018A0002EC85
:02018B0001CEA3
:02018C0000630E
:02018D0001C9A6
:02018E0000630C
:02018F00033F2C
:0201900000B8B5
:0201910003B3B6
:02019200030068
:02019300012D3C
:0201940000FB6E
:02019500010166
:02019600003136
:02019700014F16
:0201980003134F
:0201990003EF72
:02019A0002D48D
:02019B0002A0C0
:02019C0001C799
:02019D0003500D
:02019E00020B52
:02019F00005707
:0201A000012636
:0201A1000388D1
:0201A20001B4A6
:0201A30002D583
:0201A40001A7B1
:0201A50000ADAB
:0201A600032A2A
:0201A7000362F1
:0201A800003421
:0201A90000BE96
:0201AA00038CC4
:0201AB000361EE
:0201AC0003232B
:0201AD0001C18E
:0201AE0001A2AC
:0201AF0001E568
:0201B000011C30
:0201B1000283C7
:0201B2000065E6
:0201B30001E366
:0201B40001A0A8
:0201B50002AC9A
:0201B60003BE86
:0201B700038EB5
:0201B80000F550
:0201B900031130
:0201BA00005BE8
:0201BB0003A29D
:0201BC00002120
:0201BD00006BD5
:0201BE000372CA
:0201BF0003DE5D
:0201C000009DA0
:0201C10000DB61
:0201C200031721
:0201C3000243F5
:0201C400011B1D
:0201C50002C373
:0201C600020D28
:0201C70001A68F
:0201C80000B87D
:0201C90001CA69
:0201CA0003F23E
:0201CB0002161A
:0201CC0002E748
:0201CD00019B94
:0201CE0000D05F
:0201CF000384A7
:0201D000006AC3
:0201D10002EB3F
:0201D200014BDF
:0201D30002ED3B
:0201D400029394
:0201D500031D08
:0201D6000347DD
:0201D7000275AF
:0201D80002F330
:0201D9000039EB
:0201DA0000E043
:0201DB0003F12E
:0201DC000045DC
:0201DD0000FC24
:0201DE0000BF60
:0201DF0002B26A
:0201E000019884
:0201E100008B91
:0201E200028396
:0201E3000231E7
:0201E40002D542
:0201E5000342D3
:0201E6000242D3
:0201E70003040F
:0201E8000059BC
:0201E9000145CE
:0201EA0000F41F
:0201EB0001E829
:0201EC000351BD
:0201ED00006FA1
:0201EE0003A666
:0201EF00007599
:0201F00001A567
:0201F100020A00
:0201F20000D833
:0201F300010900
:0201F4000165A3
:0201F500012CDB
:0201F6000305FF
:0201F7000231D3
:0201F80001B450
:0201F900006B99
:0201FA00017989
:0201FB00039E61
:0201FC000240BF
:0201FD0003F607
:0201FE0003E616
:0201FF000146B7
:0202000002D426
:0202010003EE0A
:020202000318DF
:0202030003CF27
:0202040000D721
:020205000143B3
:020206000020D6
:02020700007382
:02020800012DC6
:0202090001935F
:02020A0000658D
:02020B0000E70A
:02020C000207E7
:02020D0002D617
:02020E00024D9F
:02020F0003AC3E
:0202100001D417
:0202110003C325
:0202120000E109
:0202130003CC1A
:0202140003B035
:0202150003CE16
:020216000320C3
:02021700008E57
:02021800038958
:0202190002AF32
:02021A000133AE
:02021B00027B64
:02021C00011CC3
:02021D00009A45
:02021E0003BA21
:02021F0001C616
:02022000019D3E
:0202210002A534
:02022200038A4D
:0202230003E4F2
:0202240002478F
:020225000223B2
:02022600029044
:02022700026271
:0202280000E2F2
:0202290001478B
:02022A00026E62
:02022B0003AE20
:02022C0003F1DC
:02022D00028B42
:02022E00025973
:02022F0002AE1D
:02023000025971
:0202310000E7E4
:02023200012B9E
:02023300027453
:0202340003A61F
:02023500000CBB
:0202360002B70D
:0202370002CBF8
:0202380003922F
:020239000020A3
:02023A00034B74
:02023B00008938
:02023C0002F0CE
:02023D00016C52
:02023E0003A219
:02023F00002D90
:02024000025D5D
:0202410001AD0D
:0202420000DEDC
:02024300032A8C
:0202440003C4F1
:0202450001DFD7
:0202460000B501
:02024700033E74
:0202480000ECC8
:02024900008C27
:02024A0001AD04
:02024B0003109E
:02024C0000357B
:02024D00003877
:02024E00023874
:02024F0001604C
:0202500000C5E7
:0202510003E7C1
:02025200018F1A
:02025300015E4A
:02025400022C7A
:0202550003257F
:0202560003ADF6
:0202570002F4AF
:0202580003EFB2
:02025900020A97
:02025A00008022
:02025B00024C53
:02025C0002FBA3
:02025D00013B63
:02025E0000C8D6
:02025F0000801D
:0202600003B9E0
:02026100019FFB
:02026200016E2B
:02026300027324
:02026400039005
:02026500007F18
:02026600002472
:0202670001BADA
:0202680000A8EC
:0202690003D7B9
:02026A0002C6CA
:02026B0000D3BE
:02026C0000AEE2
:02026D00022964
:02026E0000127C
:02026F0001E0AC
:0202700002D2B8
:0202710001F199
:0202720002D6B2
:02027300005336
:0202740001E99E
:0202750002CFB6
:02027600022064
:02027700035929
:0202780001ABD8
:02027900001A69
:02027A0002265A
:02027B0002F986
:02027C0001B8C7
:02027D00020B72
:02027E0002D9A3
:02027F00034B2F
:0202800002F981
:02028100011961
:0202820000C4B6
:02028300013345
:0202840002096D
:02028500023441
:02028600011065
:02028700020C67
:02028800001B59
:0202890002E091
:02028A0001531E
:02028B00030F5F
:02028C0003105D
:02028D0000C1AE
:02028E00034B20
:02028F00025714
:0202900000A8C4
:0202910001E783
:02029200014A1F
:02029300024324
:0202940003C89D
:0202950001392D
:02029600023331
:0202970001ACB8
:0202980003035E
:02029900018FD3
:02029A0000A9B9
:02029B0003CB93
:02029C0001BBA4
:02029D0002520B
:02029E000092CC
:02029F00001449
:0202A00003CC8D
:0202A100034018
:0202A20001AFAA
:0202A300028DCA
:0202A400011B3C
:0202A50000A3B4
:0202A600004115
:0202A70003C78B
:0202A800020A48
:0202A90002D67B
:0202AA0000F65C
:0202AB00003D14
:0202AC0003B697
:0202AD0002C885
:0202AE0000F856
:0202AF00013E0E
:0202B000033019
:0202B100020148
:0202B2000164E5
:0202B300002128
:0202B400020244
:0202B500023B0A
:0202B600000442
:0202B70002E95A
:0202B8000246FC
:0202B900013012
:0202BA00035BE4
:0202BB0003ED51
:0202BC00023509
:0202BD0001B688
:0202BE00019F9E
:0202BF00017CC0
:0202C000008AB2
:0202C100021326
:0202C20001BA7F
:0202C30002CA6D
:0202C4000065D3
:0202C50001E74F
:0202C600031D16
:0202C70002F83B
:0202C80001062D
:0202C900009A99
:0202CA00012A07
:0202CB0001C66A
:0202CC000251DD
:0202CD0001C06E
:0202CE0003C764
:0202CF00037DAD
:0202D0000055D7
:0202D10001EF3B
:0202D200033AED
:0202D30003FD29
:0202D4000382A3
:0202D5000138EE
:0202D6000076B0
:0202D7000069BC
:0202D80000DE46
:0202D90000F72C
:0202DA0000170B
:0202DB0001BA66
:0202DC000147D8
:0202DD0001F529
:0202DE00036EAD
:0202DF00012CF0
:0202E0000240DA
:0202E1000236E3
:0202E200008D8D
:0202E300008495
:0202E40001A275
:0202E5000340D4
:0202E60000C254
:0202E70001DA3A
:0202E800017E95
:0202E900037D93
:0202EA0002CE42
:0202EB00037F8F
:0202EC000053BD
:0202ED000141CD
:0202EE000145C8
:0202EF000027E6
:0202F000010A01
:0202F10003798F
:0202F2000319EE
:0202F30002D730
:0202F400028D79
:0202F50001A165
:0202F6000334CF
:0202F700031AE8
:0202F8000062A2
:0202F90002B051
:0202FA00017F82
:0202FB00001DE4
:0202FC000222DC
:0202FD0002CC31
:0202FE0001CD30
:0202FF00025E9D
:0203000003D721
:020301000201F7
:020302000026D3
:0203030001AD4A
:020304000214E1
:0203050000A155
:020306000130C4
:0203070002C62C
:020308000119D9
:0203090003915E
:02030A0001935D
:02030B0002AC42
:02030C000232BB
:02030D00039E4D
:02030E00027675
:02030F000230BA
:02031000023AAF
:020311000228C0
:02031200015593
:020313000329BC
:020314000324C0
:0203150000E402
:02031600039250
:020317000301E0
:0203180002875A
:02031900016E73
:02031A00036B73
:02031B00000FD1
:02031C00026B72
:02031D00025B81
:02031E00033E9C
:02031F00004993
:02032000017D5D
:0203210001B920
:02032200011BBD
:0203230002AE28
:0203240001E9ED
:0203250002A232
:02032600002CA9
:0203270001B41F
:02032800034987
:0203290003CB04
:02032A00035F6F
:02032B0000F5DB
:02032C0000418E
:02032D0000DEF0
:02032E000205C6
:02032F00039633
:0203300000CB00
:020331000110B9
:02033200002E9B
:02033300016661
:02033400004D7A
:02033500007452
:02033600013292
:0203370002348E
:020338000316AA
:0203390002F6CA
:02033A0001B60A
:02033B0002A31B
:02033C00013589
:02033D00012B92
:02033E0001E0DC
:02033F0002DDDD
:02034000038632
:0203410003A80F
:02034200028235
:02034300039B1A
:0203440002CDE8
:02034500033281
:0203460000981D
:02034700023F73
:0203480003F2BE
:02034900011F92
:02034A00012C84
:02034B0003EFBE
:02034C00007837
:02034D0002AB01
:02034E000207A4
:02034F0001F0BB
:0203500001FAB0
:0203510001C2E7
:0203520000A801
:02035300025F47
:0203540002376E
:0203550003FEA5
:02035600031A88
:02035700030B96
:02035800038D13
:0203590003C2DD
:02035A00038C12
:02035B0002702E
:02035C0003EAB2
:02035D00036F2C
:02035E00009D00
:02035F00032B6E
:02036000022E6B
:0203610001ACED
:02036200010494
:0203630003B4E1
:02036400015E38
:02036500015540
:02036600039002
:0203670003335E
:0203680000197A
:0203690001860B
:02036A0003543A
:02036B0000EDA3
:02036C0002028B
:02036D0001B7D6
:02036E00001D70
:02036F00006923
:02037000025D2C
:02037100017019
:02037200015632
:02037300016621
:02037400015F27
:0203750000A3E3
:0203760002D2B1
:0203770003B2CF
:02037800028DF4
:0203790003552A
:02037A0000F889
:02037B0003A8D5
:02037C0002AECF
:02037D000195E8
:02037E00000B72
:02037F000180FB
:0203800001B4C6
:02038100002C4E
:02038200005920
:02038300020B6B
:0203840000B2C5
:0203850003CEA5
:0203860003076B
:02038700022250
:02038800003F34
:0203890001640D
:02038A0001026E
:02038B00028DE1
:02038C0001D599
:02038D00022A42
:02038E00038AE0
:02038F0000FA72
:020390000290D9
:020391000395D2
:0203920003D591
:0203930002B1B5
:0203940003FD67
:02039500033C27
:0203960003C2A0
:02039700018AD9
:02039800001B48
:0203990002D38D
:02039A00015B05
:02039B000370ED
:02039C0000AAB5
:02039D00004D11
:02039E000272E9
:02039F000276E4
:0203A00003CD8B
:0203A1000268F0
:0203A20001A0B8
:0203A30000ED6B
:0203A400003A1D
:0203A500032330
:0203A60000E372
:0203A700019DB6
:0203A8000061F2
:0203A900012829
:0203AA00039BB3
:0203AB00030449
:0203AC00032E1E
:0203AD0003A0AB
:0203AE00003419
:0203AF000050FC
:0203B0000376D2
:0203B100018DBC
:0203B200020344
:0203B300006ADE
:0203B400008CBB
:0203B50001F055
:0203B600004BFA
:0203B700031130
:0203B80001D86A
:0203B9000083BF
:0203BA000287B8
:0203BB00035FDE
:0203BC0002ED50
:0203BD0000DA64
:0203BE000053EA
:0203BF000180BB
:0203C00003D068
:0203C1000290A8
:0203C20001EE4A
:0203C3000147F0
:0203C400000B2C
:0203C500022E06
:0203C600031C16
:0203C70002979B
:0203C8000034FF
:0203C9000385AA
:0203CA000073BE
:0203CB00023BF3
:0203CC000087A8
:0203CD00034EDD
:0203CE0002101B
:0203CF00004FDD
:0203D00001C565
:0203D10001F435
:0203D20000B376
:0203D300018A9D
:0203D4000054D3
:0203D500006CBA
:0203D600015CC8
:0203D700032FF2
:0203D8000158CA
:0203D9000369B6
:0203DA0001011F
:0203DB0001F52A
:0203DC0001F826
:0203DD00004CD2
:0203DE0000F528
:0203DF00036EAB
:0203E000035DBB
:0203E1000070AA
:0203E200025FB8
:0203E300008692
:0203E40003080C
:0203E5000138DD
:0203E60002D43F
:0203E7000367AA
:0203E80002AD64
:0203E90000848E
:0203EA000015FC
:0203EB0001838C
:0203EC00004EC1
:0203ED0003FA11
:0203EE00004EBF
:0203EF0000F517
:0203F00001A763
:0203F10001D336
:0203F200014CBC
:0203F30003BE47
:0203F40000EF18
:0203F500003ACC
:0203F600017094
:0203F7000050B4
:0203F800007390
:0203F90001847D
:0203FA000315E9
:0203FB0000F10F
:0203FC0002DC21
:0203FD000041BD
:0203FE000107F5
:0203FF0000A656
:0204000002C731
:02040100033BBB
:0204020001CB2C
:0204030001B640
:020404000333C0
:02040500017C78
:02040600004AAA
:0204070003965A
:0204080002B63A
:0204090001B838
:02040A0003DB12
:02040B000112DC
:02040C0000FAF4
:02040D000344A6
:02040E00038762
:02040F00019F4B
:020410000126C3
:02041100018A5E
:0204120002FDE9
:0204130000AD3A
:0204140002895B
:02041500003FA6
:0204160001885B
:0204170001C919
:020418000115CC
:0204190002E4FB
:02041A0002F1ED
:02041B0000E6F9
:02041C00005E80
:02041D00015B81
:02041E00034396
:02041F0001C812
:02042000008C4E
:02042100038D49
:02042200025581
:02042300008C4B
:0204240001AC29
:0204250001F3E1
:0204260000686C
:0204270001458D
:020428000003CF
:0204290000735E
:02042A000219B5
:02042B0000B718
:02042C000005C9
:02042D0003CA00
:02042E00039336
:02042F00034682
:02043000024088
:02043100009A2F
:0204320001BC0B
:02043300017650
:0204340003784B
:02043500036A58
:02043600013B88
:0204370000477C
:0204380000685A
:02043900016759
:02043A0002E8D6
:02043B00008D32
:02043C0002516B
:02043D00039723
:02043E00002A92
:02043F0003A612
:0204400002199F
:0204410002F2C5
:020442000204B2
:0204430002E4D1
:02044400012C89
:020445000106AE
:0204460001C4EF
:0204470003416F
:0204480001436E
:02044900035856
:02044A00015B54
:02044B0002B9F4
:02044C0003A00B
:02044D0003604A
:02044E0001D5D6
:02044F0002C5E4
:0204500001F4B5
:0204510002FDAA
:0204520001A403
:02045300018521
:0204540002574D
:020455000001A4
:02045600022C76
:0204570000990A
:0204580002C8D8
:0204590000C6DB
:02045A0001F3AC
:02045B00023568
:02045C00016835
:02045D0002E4B7
:02045E0002ECAE
:02045F0000C7D4
:02046000003E5C
:02046100014E4A
:02046200036C29
:02046300026233
:0204640002058F
:02046500020C87
:02046600021280
:0204670001E6AC
:02046800013F52
:0204690003DEB0
:02046A00017A15
:02046B0001BDD1
:02046C0000612D
:02046D0001513B
:02046E0000226A
:02046F0000A8E3
:02047000029EEA
:02047100018008
:02047200015C2B
:0204730001B9CD
:0204740002661E
:02047500033151
:0204760003CFB2
:0204770003D8A8
:0204780003512E
:0204790001ACD4
:02047A00029FDF
:02047B00024538
:02047C00001965
:02047D0003EA90
:02047E00014833
:02047F00005922
:02048000004F2B
:02048100016414
:02048200031164
:02048300014234
:02048400037300
:02048500019CD8
:020486000375FC
:0204870000ABC8
:0204880000EA88
:0204890000323F
:02048A00020668
:02048B00024627
:02048C00008FDF
:02048D0000C5A8
:02048E0002A1C9
:02048F0001AAC0
:02049000020B5D
:02049100031C4A
:02049200010F58
:02049300031F45
:02049400014E17
:020495000378EA
:02049600013231
:0204970002540D
:020498000295CB
:0204990001A9B7
:02049A000380DD
:02049B0003B8A4
:02049C0002015B
:02049D00022932
:02049E0003FB5E
:02049F00034117
:0204A00003B6A1
:0204A10000F465
:0204A200030451
:0204A3000174E2
:0204A40003FD56
:0204A50002ACA7
:0204A60000F361
:0204A70002CE83
:0204A80003BB94
:0204A90003CC82
:0204AA000286C8
:0204AB0003FE4E
:0204AC00036CDF
:0204AD00010547
:0204AE000068E4
:0204AF000179D1
:0204B00003CC7B
:0204B10003182E
:0204B2000384C1
:0204B3000049FE
:0204B400018EB7
:0204B50003083A
:0204B600006CD8
:0204B7000165DD
:0204B80001F74A
:0204B90001A0A0
:0204BA000052EE
:0204BB0001CD71
:0204BC0001F34A
:0204BD0000330A
:0204BE00009E9E
:0204BF0002BE7B
:0204C0000291A7
:0204C10003C373
:0204C200020B2B
:0204C300015ED8
:0204C4000162D3
:0204C50001CB69
:0204C6000289A9
:0204C7000335FB
:0204C80003B37C
:0204C90003C767
:0204CA0002FD31
:0204CB000187A7
:0204CC0002D755
:0204CD0002EC3F
:0204CE00017AB1
:0204CF00022306
:0204D00000B674
:0204D1000136F2
:0204D2000345E0
:0204D30002A382
:0204D40003190A
:0204D500005FC6
:0204D6000254CE
:0204D70000B271
:0204D800034FD0
:0204D9000227F8
:0204DA0000918F
:0204DB0002A974
:0204DC0003F922
:0204DD00008796
:0204DE0003E732
:0204DF00020514
:0204E00002997F
:0204E100018098
:0204E200027C9A
:0204E3000123F3
:0204E40001888D
:0204E5000352C0
:0204E6000268AA
:0204E700025AB7
:0204E800030D02
:0204E900005DB4
:0204EA0001F01F
:0204EB0003AA62
:0204EC00017F8E
:0204ED0002C249
:0204EE00039B6E
:0204EF0003C147
:0204F000030502
:0204F1000120E8
:0204F20001C542
:0204F300010402
:0204F400029D67
:0204F500020003
:0204F600034DB4
:0204F700020EF3
:0204F80002758B
:0204F90003E816
:0204FA000257A7
:0204FB0001C23C
:0204FC00017489
:0204FD0001BA42
:0204FE00023CBE
:0204FF00028673
:0205000002A255
:02050100024AAC
:02050200016A8C
:02050300038F64
:0205040000D71E
:0205050000886C
:020506000324CC
:0205070003BB34
:0205080002B23D
:02050900039657
:02050A000233BA
:02050B0002509C
:02050C0003C624
:02050D00025A90
:02050E0001DB0F
:02050F00025494
:02051000032ABC
:020511000041A7
:0205120001994D
:0205130002DC08
:0205140003FEE4
:0205150000A044
:02051600006D76
:02051700038D52
:0205180001C31D
:0205190002835B
:02051A00021BC2
:02051B0003CE0D
:02051C0003CC0E
:02051D0001F9E2
:02051E00019C3E
:02051F000320B7
:0205200001E9EF
:02052100020CCA
:020522000316BE
:020523000110C5
:02052400039C36
:02052500029B37
:020526000219B8
:02052700016071
:02052800009E33
:0205290003B01D
:02052A00022CA1
:02052B00000FBF
:02052C0000DAF3
:02052D0000C309
:02052E0003596F
:02052F0000A921
:020530000015B4
:0205310001E0E7
:0205320001C204
:02053300034D76
:0205340002655E
:02053500032C95
:020536000120A2
:0205370003F6C9
:0205380003E0DE
:0205390000912F
:02053A0001A31B
:02053B00030DAE
:02053C0000C2FB
:02053D00024674
:02053E0003B206
:02053F0000AA10
:020540000106B2
:0205410000B602
:0205420003664E
:0205430000F3C3
:02054400015262
:0205450000268E
:02054600014D65
:02054700008C26
:0205480001C2EE
:0205490000E2CE
:02054A0001A707
:02054B0003B4F7
:02054C00031C8E
:02054D0003A405
:02054E00012981
:02054F00033671
:0205500001DDCB
:0205510000F3B5
:02055200002B7C
:02055300037E25
:0205540002A9FA
:02055500018221
:0205560003EAB6
:02055700016938
:02055800022A75
:0205590001F7A8
:02055A00007629
:02055B0001B8E5
:02055C00016A32
:02055D00035544
:02055E0003494F
:02055F00012B6E
:02056000010098
:0205610002296D
:0205620001088E
:0205630000E6B0
:02056400021281
:0205650003EAA7
:0205660002BCD5
:0205670001E6AB
:02056800018010
:02056900017E11
:02056A00015638
:02056B00013756
:02056C0000D3BA
:02056D0003F198
:02056E00026623
:02056F0000107A
:0205700000D1B8
:02057100005533
:0205720002ACD9
:0205730003AFD4
:0205740002DAA9
:0205750000691B
:0205760003F38D
:02057700013F42
:02057800006C15
:02057900013B44
:02057A00035725
:02057B00027DFF
:02057C0002E497
:02057D00004A32
:02057E00024C2D
:02057F0000DD9D
:0205800003C4B2
:02058100030174
:0205820002581D
:02058300018EE7
:02058400007500
:02058500033140
:02058600014131
:020587000285EB
:0205880002D39C
:02058900024925
:02058A000089E6
:02058B0001412C
:02058C0000A5C8
:02058D00023436
:02058E00020564
:02058F0003C6A1
:02059000035313
:0205910000A7C1
:020592000383E1
:0205930003A4BF
:0205940000FD68
:020595000383DE
:0205960002E081
:0205970002F769
:0205980003BCA2
:0205990000DF81
:02059A00022736
:02059B0003BC9F
:02059C00013527
:02059D000272E8
:02059E00034E0A
:02059F0003B3A4
:0205A000037ADC
:0205A1000293C3
:0205A2000070E7
:0205A3000174E1
:0205A40000F362
:0205A500033021
:0205A60003BB95
:0205A70002C68A
:0205A80003A3AB
:0205A90002C08E
:0205AA000371DB
:0205AB0001E568
:0205AC0001FC50
:0205AD00034603
:0205AE0001C981
:0205AF00017FCA
:0205B000021334
:0205B100036CD9
:0205B200015DE9
:0205B3000398AB
:0205B4000251F2
:0205B5000144FF
:0205B6000048FB
:0205B70003013E
:0205B800017CC4
:0205B900038CB1
:0205BA0001320C
:0205BB0001DC61
:0205BC0001D963
:0205BD0000DB61
:0205BE000292A7
:0205BF00030B2C
:0205C00001FA3E
:0205C1000378BD
:0205C200031024
:0205C30001092C
:0205C40000B580
:0205C500025AD8
:0205C60001A38F
:0205C7000284AC
:0205C80000B081
:0205C900001818
:0205CA0000DA55
:0205CB000243E9
:0205CC00009A93
:0205CD00039F8A
:0205CE000330F8
:0205CF00032FF8
:0205D0000375B1
:0205D10003D451
:0205D200002DFA
:0205D3000051D5
:0205D40003FE24
:0205D5000379A8
:0205D6000247DA
:0205D700003EE4
:0205D800016EB2
:0205D900017BA4
:0205DA00008897
:0205DB00022BF1
:0205DC00028695
:0205DD000140DB
:0205DE00022DEC
:0205DF00014CCD
:0205E000028691
:0205E100018196
:0205E200023FD6
:0205E30000B462
:0205E400008293
:0205E50001997A
:0205E6000024EF
:0205E7000367A8
:0205E80003CF3F
:0205E90000D040
:0205EA00028786
:0205EB0000E925
:0205EC00038189
:0205ED00027496
:0205EE00015DAD
:0205EF00005AB0
:0205F000031AEC
:0205F100019770
:0205F200039C68
:0205F3000128DD
:0205F40001E123
:0205F50001E91A
:0205F60000D52E
:0205F700029D63
:0205F800034DB1
:0205F90002A15D
:0205FA00007887
:0205FB00009E60
:0205FC000306F4
:0205FD00038178
:0205FE0001E911
:0205FF000247B1
:02060000004EAA
:0206010003E014
:020602000120D5
:02060300036B87
:020604000311E0
:0206050003AE42
:02060600013FB2
:0206070003AC42
:0206080002B737
:02060900028568
:02060A00026389
:02060B0002C02B
:02060C00032EBB
:02060D0003AA3E
:02060E000047A3
:02060F00005C8D
:02061000003AAE
:02061100038E56
:0206120002687C
:02061300006382
:0206140001AF34
:0206150001EBF7
:0206160000FAE8
:0206170002C01F
:020618000333AA
:0206190002518C
:02061A0003BD1E
:02061B00035783
:02061C000128B3
:02061D0000E4F7
:02061E00028157
:02061F0001FFD9
:02062000033A9B
:0206210001B026
:0206220001AE27
:0206230002FBD8
:0206240001696A
:0206250000CD06
:0206260001379A
:0206270002339C
:020628000008C8
:0206290002735A
:02062A00011BB2
:02062B000004C9
:02062C00033495
:02062D00027257
:02062E00018247
:02062F00008247
:02063000033392
:0206310001596D
:020632000301C2
:0206330003E5DD
:0206340003F3CE
:02063500033A86
:0206360001823F
:0206370002536C
:02063800021DA1
:02063900007946
:02063A00016B52
:02063B0000A716
:02063C0001EAD1
:02063D00018436
:02063E0003298E
:02063F0002AF08
:0206400003E6CF
:0206410002E3D2
:02064200034370
:02064300012490
:02064400003D77
:0206450000991A
:0206460002159B
:02064700007041
:0206480003D2DB
:0206490003B8F4
:02064A0000604E
:02064B00016349
:02064C0002CDDD
:02064D00008F1C
:02064E00027B2D
:02064F00006940
:02065000022680
:0206510003CFD5
:0206520001198C
:0206530001F8AC
:0206540002366C
:0206550001EDB5
:0206560000D8CA
:0206570002E7B8
:0206580003F4A9
:0206590003FAA2
:02065A0002A2FA
:02065B0003EEAC
:02065C0003DEBB
:02065D00027524
:02065E00031D7A
:02065F00020196
:02066000031184
:02066100024253
:02066200031281
:0206630001BADA
:0206640002484A
:02066500003B58
:02066600038D02
:0206670000444D
:02066800021F6F
:0206690001236B
:02066A00013855
:02066B00024843
:02066C0003E3A6
:02066D00026128
:02066E00014544
:02066F0000C1C8
:02067000007513
:02067100008CFB
:0206720000A0E6
:0206730000E69F
:0206740000DDA7
:0206750000DDA6
:02067600005D25
:02067700038DF1
:02067800023F3F
:02067900003B44
:02067A0001611C
:02067B0001F884
:02067C000184F7
:02067D0003D2A6
:02067E00012356
:02067F00014335
:0206800003C7AE
:02068100011264
:0206820000BFB7
:02068300029CD7
:0206840002A8CA
:0206850000E48F
:02068600012A47
:02068700034925
:02068800031D50
:0206890000D09F
:02068A0000026C
:02068B000086E7
:02068C00027EEC
:02068D0001DC8E
:02068E0002491F
:02068F0003BEA8
:0206900002392D
:0206910001A1C5
:020692000187DE
:02069300024320
:0206940003A5BC
:02069500013131
:02069600034817
:02069700017FE1
:0206980003EA73
:02069900027DE0
:02069A0000C995
:02069B00030357
:02069C0000FB61
:02069D000261F8
:02069E00037ED9
:02069F00002534
:0206A00003DD78
:0206A10002F85D
:0206A20001480D
:0206A3000274DF
:0206A4000278DA
:0206A500017CD6
:0206A60003301F
:0206A700037FCF
:0206A8000251FD
:0206A9000385C7
:0206AA00031734
:0206AB0000FA53
:0206AC0000D775
:0206AD0002F554
:0206AE0002D96F
:0206AF00009FAA
:0206B000001632
:0206B100011432
:0206B20003E55E
:0206B30003E55D
:0206B400014EF5
:0206B50000261D
:0206B60003EF50
:0206B70000C67B
:0206B80002C579
:0206B9000156E8
:0206BA0000DC62
:0206BB00010D2F
:0206BC0001C972
:0206BD0002CE6B
:0206BE000076C4
:0206BF000244F3
:0206C0000050E8
:0206C100026FC6
:0206C2000096A0
:0206C30002B57E
:0206C4000076BE
:0206C50001E34F
:0206C60003121D
:0206C70003DE50
:0206C80003EC41
:0206C9000352DA
:0206CA0001FE2F
:0206CB0003D159
:0206CC0000AD7F
:0206CD000083A8
:0206CE000330F7
:0206CF00008D9C
:0206D00000C167
:0206D100036EB6
:0206D20000CA5C
:0206D300003AEB
:0206D4000231F1
:0206D5000257CA
:0206D600008A98
:0206D70000CA57
:0206D80003021B
:0206D90002F825
:0206DA0000E935
:0206DB00004ECF
:0206DC000167B4
:0206DD0003BF59
:0206DE0003C354
:0206DF0000D841
:0206E0000326EF
:0206E10002BA5B
:0206E200032CE7
:0206E30000A372
:0206E40002FD15
:0206E50001F41E
:0206E60001BC55
:0206E70001EC24
:0206E800029E70
:0206E90003E527
:0206EA00014EBF
:0206EB0002F417
:0206EC0000A765
:0206ED00028980
:0206EE000049C1
:0206EF0001D434
:0206F0000356AF
:0206F1000042C5
:0206F20000EE18
:0206F3000120E4
:0206F400009173
:0206F500039E62
:0206F60001B849
:0206F70002DE21
:0206F8000357A6
:0206F90002A35A
:0206FA0000BC42
:0206FB0001D02C
:0206FC00018A71
:0206FD0003DF19
:0206FE0000CE2C
:0206FF000015E4
:0207000001B541
:0207010001AD48
:0207020003D71B
:02070300002BC9
:02070400027180
:0207050002BE32
:0207060000D21F
:0207070000C12F
:020708000242AB
:02070900016C81
:02070A0001EDFF
:02070B000002EA
:02070C00038563
:02070D000019D1
:02070E0001E9FF
:02070F0000D612
:0207100000DA0D
:02071100018F56
:0207120003578B
:0207130001964D
:0207140000BA29
:02071500006B77
:02071600009051
:02071700012EB1
:020718000202DB
:020719000327B4
:02071A00007E5F
:02071B0001ECEF
:02071C00032FA9
:02071D0000A03A
:02071E0001CE0A
:02071F0002A135
:02072000033E96
:0207210003488B
:0207220002F0E3
:0207230001EFE4
:02072400005B78
:020725000227A9
:0207260002E9E6
:0207270002DCF2
:0207280001DDF1
:0207290003B615
:02072A00007D50
:02072B000000CC
:02072C000220A9
:02072D00030FB8
:02072E00027156
:02072F00003296
:02073000004E79
:0207310002CDF7
:02073200037D45
:0207330002368C
:02073400030DB3
:0207350001D7EA
:02073600028C33
:020737000107B8
:0207380001734B
:0207390003506B
:02073A0002C3F8
:02073B0003CCED
:02073C000207B2
:02073D0001D1E8
:02073E0002C9EE
:02073F0000EFC9
:020740000017A0
:02074100008036
:02074200019D17
:0207430003AA07
:0207440002AC05
:0207450002426E
:02074600024C63
:0207470003238A
:02074800007C33
:02074900022488
:02074A00000E9F
:02074B00025C4E
:02074C0000B2F9
:02074D00032F78
:02074E0001ADFB
:02074F00000A9E
:0207500002762F
:02075100006E38
:02075200025053
:0207530003D3CE
:0207540000C4DF
:02075500012E73
:02075600011B85
:02075700007828
:0207580002D2CB
:02075900006C32
:02075A00014359
:02075B0001306B
:02075C0003EFA9
:02075D00018A0F
:02075E0001EEAA
:02075F00010196
:0207600002EAAB
:02076100036132
:0207620002395A
:0207630003AFE2
:02076400035739
:0207650001672A
:0207660001A5EB
:0207670003EAA3
:02076800004649
:0207690002CCC0
:02076A00030288
:02076B00014D3E
:02076C00013159
:02076D0002B4D4
:02076E00021770
:02076F0002E99D
:02077000012660
:0207710000DFA7
:0207720001D6AE
:0207730000186C
:02077400038AF6
:0207750000463C
:0207760001CEB2
:0207770000750B
:0207780003E399
:0207790000403E
:02077A00016D0F
:02077B00032257
:02077C00017802
:02077D00006C0E
:02077E0003F086
:02077F0003CAAB
:0207800003CCA8
:02078100004135
:0207820000CCA9
:0207830001650E
:0207840002323F
:0207850002F37D
:020786000386E8
:02078700000B65
:02078800003B34
:02078900001757
:02078A00039BCF
:02078B0002D595
:02078C00015A10
:02078D0003580F
:02078E0000BBAE
:02078F00015D0A
:02079000011056
:02079100001452
:0207920002273C
:02079300031F42
:0207940002F76A
:0207950001D38E
:020796000389D5
:0207970003D489
:0207980002ACB1
:020799000061FD
:02079A000089D4
:02079B00030356
:02079C0003F860
:02079D00031443
:02079E000092C7
:02079F00004513
:0207A000021045
:0207A10001D580
:0207A20003B79B
:0207A3000366EB
:0207A40000D281
:0207A500004210
:0207A600014D03
:0207A70003F954
:0207A800002629
:0207A90001F657
:0207AA0000FB52
:0207AB000188C3
:0207AC00037FC9
:0207AD000274D4
:0207AE0002B493
:0207AF00002325
:0207B0000297AE
:0207B10002053F
:0207B20002370C
:0207B300036DD4
:0207B4000148FA
:0207B500000F33
:0207B600033509
:0207B700033508
:0207B800037DBF
:0207B900004FEF
:0207BA000185B7
:0207BB00033108
:0207BC0000EB50
:0207BD0002F93F
:0207BE0000F742
:0207BF000338FD
:0207C0000145F1
:0207C100037DB6
:0207C200016DC7
:0207C300033100
:0207C40000AD86
:0207C50001E150
:0207C60002B57A
:0207C700031914
:0207C80002BE6F
:0207C900022903
:0207CA0000A489
:0207CB0002BB6F
:0207CC0003D058
:0207CD00000822
:0207CE00037BAB
:0207CF0001DA4D
:0207D000035DC7
:0207D10003AA79
:0207D20002CF54
:0207D30000CD57
:0207D40001938F
:0207D50000F032
:0207D60002D54A
:0207D700034DD0
:0207D8000234E9
:0207D900039F7C
:0207DA000377A3
:0207DB000168B3
:0207DC0001A278
:0207DD000032E8
:0207DE0000BE5B
:0207DF000326EF
:0207E00003CD47
:0207E100024FC5
:0207E20002A073
:0207E30000A96B
:0207E40000A56E
:0207E5000221EF
:0207E6000141CF
:0207E700020905
:0207E800003BD4
:0207E90003CE3D
:0207EA0000ED20
:0207EB000325E4
:0207EC00029F6A
:0207ED00038483
:0207EE00014EBA
:0207EF000055B3
:0207F0000038CF
:0207F1000136CF
:0207F20002F013
:0207F300019C67
:0207F40000FA09
:0207F5000103FE
:0207F60001C13F
:0207F700032ECF
:0207F8000104FA
:0207F900035E9D
:0207FA00021EDD
:0207FB00012BD0
:0207FC00009B60
:0207FD00004DAD
:0207FE00000DEC
:0207FF0003F7FE
:00000001ff
