:020000040000FA
:020000000044BA
:02000100030FEB
:02000200039762
:0200030000DE1D
:020004000044B6
:020005000107F1
:0200060003B63F
:02000700037084
:0200080000F105
:0200090003C131
:02000A00003BB9
:02000B0002DC15
:02000C0002757B
:02000D00038668
:02000E0002B03E
:02000F00032AC2
:02001000011FCE
:02001100010FDD
:02001200027575
:02001300017179
:020014000206E2
:020015000013D6
:02001600004C9C
:0200170001C323
:02001800009B4B
:0200190001DF05
:02001A000004E0
:02001B0000469D
:02001C0002469A
:02001D000209D6
:02001E0003AC31
:02001F0002835A
:02002000037467
:0200210001AC30
:0200220001B328
:0200230003DFF9
:0200240003B522
:0200250000C118
:0200260003E3F2
:02002700015C7A
:0200280003D8FB
:02002900004B8A
:02002A00025D75
:02002B0002AD24
:02002C00008D45
:02002D000031A0
:02002E0001AA25
:02002F0000C20D
:0200300001CD00
:0200310000D8F5
:02003200017754
:02003300005576
:0200340000DEEC
:0200350002D7F0
:020036000318AD
:0200370000FACD
:0200380000CAFC
:02003900026A59
:02003A000210B2
:02003B0003655B
:02003C0002F4CC
:02003D00001AA7
:02003E00035C61
:02003F0000853A
:0200400003D2E9
:02004100007D40
:02004200038930
:02004300004A71
:0200440002E6D2
:0200450003A511
:020046000206B0
:0200470002D3E2
:02004800012590
:0200490001F2C2
:02004A00003183
:02004B0000D1E2
:02004C0003733C
:02004D00036549
:02004E00024F5F
:02004F00025C51
:0200500000F1BD
:02005100014C60
:020052000003A9
:02005300003F6C
:0200540003297E
:0200550003ADF9
:02005600024F57
:02005700030E96
:02005800018421
:02005900025E45
:02005A0001554E
:02005B0001F2B0
:02005C00011988
:02005D00026639
:02005E00015B44
:02005F0002514C
:02006000020993
:02006100038218
:0200620002DBBF
:02006300002A71
:02006400000991
:02006500026037
:02006600024155
:0200670003F2A2
:02006800004A4C
:0200690002D1C2
:02006A0003BCD5
:02006B00023F52
:02006C0003612E
:02006D0001F59B
:02006E00038904
:02006F0002A8E5
:02007000005638
:0200710003E7A3
:0200720002305A
:02007300023257
:02007400007812
:0200750000F099
:0200760003E1A4
:02007700008205
:0200780003C4BF
:02007900012B59
:02007A0001374C
:02007B0002A8D9
:02007C0002D6AA
:02007D0001265A
:02007E0001B1CE
:02007F0000D3AC
:020080000186F7
:02008100010973
:0200820002E793
:0200830002E099
:0200840000D4A6
:02008500013741
:02008600003345
:0200870000E394
:0200880000B8BE
:0200890002244F
:02008A0001FC77
:02008B0000363D
:02008C0000CBA7
:02008D00039AD4
:02008E00010669
:02008F00006C03
:02009000022B41
:0200910002B1BA
:0200920001501B
:02009300020564
:02009400015415
:0200950002C6A1
:0200960002DC8A
:02009700011551
:0200980001EC79
:0200990000B9AC
:02009A000263FF
:02009B0002421F
:02009C00003E24
:02009D0000DA87
:02009E0003C994
:02009F00010955
:0200A000012E2F
:0200A10003203A
:0200A20003D188
:0200A30002A7B2
:0200A4000097C3
:0200A50003FA5C
:0200A600025AFC
:0200A70003381C
:0200A800028BC9
:0200A90003E46E
:0200AA00000C48
:0200AB000292BF
:0200AC00037CD3
:0200AD0002F956
:0200AE0000B59B
:0200AF000157F7
:0200B000004806
:0200B1000163E9
:0200B2000175D6
:0200B30003C97F
:0200B400001238
:0200B5000362E4
:0200B600014CFB
:0200B7000191B5
:0200B8000085C1
:0200B90001D371
:0200BA00011A29
:0200BB000387B9
:0200BC0000A2A0
:0200BD0003B18D
:0200BE0001A09F
:0200BF0001ED51
:0200C000011C21
:0200C1000247F4
:0200C200028AB0
:0200C300010F2B
:0200C40001F148
:0200C5000185B3
:0200C600000E2A
:0200C70000A493
:0200C800002016
:0200C90002181B
:0200CA00025FD3
:0200CB0001B181
:0200CC000382AD
:0200CD00039B93
:0200CE0002230B
:0200CF00001718
:0200D000039C8F
:0200D100024AE1
:0200D200037EAB
:0200D3000361C7
:0200D400022BFD
:0200D50002EC3B
:0200D60002B373
:0200D700012402
:0200D80001DB4A
:0200D90001D84C
:0200DA0003DB46
:0200DB00004CD7
:0200DC0000031F
:0200DD0001ED33
:0200DE00031409
:0200DF00024DD0
:0200E000008D91
:0200E100014ECE
:0200E2000075A7
:0200E30002FA1F
:0200E400039681
:0200E50002ED2A
:0200E60000AF69
:0200E70001D73F
:0200E800014FC6
:0200E900030A08
:0200EA0003F819
:0200EB0003759B
:0200EC0001F120
:0200ED0002E02F
:0200EE00023BD3
:0200EF0000CD42
:0200F00001F716
:0200F100014DBF
:0200F2000012FA
:0200F3000110FA
:0200F400010FFA
:0200F50003FD09
:0200F60000D137
:0200F7000139CD
:0200F8000031D5
:0200F90001D133
:0200FA0001C340
:0200FB0000D033
:0200FC0002C33D
:0200FD00037B83
:0200FE0002F707
:0200FF0000AD52
:0201000001FA02
:020101000159A2
:0201020003FEFA
:0201030000F406
:0201040000FCFD
:0201050003A74E
:0201060001698D
:02010700014BAA
:0201080000AB4A
:02010900029161
:02010A0002D120
:02010B0002B13F
:02010C0000A948
:02010D00020AE4
:02010E0001C628
:02010F00008C62
:02011000021DCE
:020111000230BA
:02011200016684
:0201130003697E
:020114000011D8
:02011500000EDA
:02011600026B7A
:0201170003875C
:0201180003A33F
:02011900027969
:02011A0000CE15
:02011B00015D84
:02011C0000855C
:02011D00033F9E
:02011E000020BF
:02011F00005C82
:02012000037367
:020121000114C7
:0201220001E4F6
:02012300014594
:0201240003FED8
:0201250000F9DF
:02012600016E68
:02012700005A7C
:02012800023B98
:02012900034D84
:02012A000318B8
:02012B00016B66
:02012C00030DC1
:02012D0003933A
:02012E00028845
:02012F00010FBE
:0201300001F6D6
:020131000210BA
:0201320000E7E4
:020133000318AF
:0201340003AD19
:02013500037B4A
:02013600023293
:0201370003A51E
:0201380003C002
:0201390003754C
:02013A0001A919
:02013B00034F70
:02013C00031DA1
:02013D0002A21C
:02013E0000A01F
:02013F0001AD10
:0201400001F8C4
:0201410000D9E3
:02014200027841
:02014300036255
:02014400034373
:02014500026155
:0201460000189F
:02014700009A1C
:02014800005164
:02014900035958
:02014A00010FA3
:02014B0001A50C
:02014C00016B45
:02014D0003931A
:02014E0001842A
:02014F0002119B
:02015000017933
:0201510003E7C2
:0201520001E1C9
:02015300029D0B
:0201540001CCDC
:02015500009711
:0201560001EEB8
:0201570002A8FC
:0201580002346F
:0201590000D5CF
:02015A0002C9D8
:02015B00037F20
:02015C0003405E
:02015D0001EAB5
:02015E00039903
:02015F00007F1F
:02016000005548
:02016100033861
:0201620000CFCC
:0201630001FA9F
:0201640001F3A5
:0201650000A2F6
:0201660002D7BE
:0201670003C7CC
:0201680003D4BE
:02016900033B56
:02016A0001C6CC
:02016B0002F0A0
:02016C00035539
:02016D00029FEF
:02016E00010787
:02016F0002F399
:0201700003BECC
:02017100034742
:02017200023257
:0201730003EA9D
:0201740000F099
:02017500010285
:02017600002661
:0201770002582C
:0201780003A0E2
:0201790000156F
:02017A00033B45
:02017B0002334D
:02017C0000067B
:02017D000094EC
:02017E0000621D
:02017F0003601B
:0201800001700C
:0201810002A7D3
:02018200032B4D
:02018300021068
:0201840000DB9E
:020185000278FE
:0201860003571D
:02018700034D26
:02018800026A09
:02018900004B29
:02018A0001DB97
:02018B0001D998
:02018C0001B4BC
:02018D00003F31
:02018E0002521B
:02018F0002FB71
:02019000033D2D
:020191000292D8
:0201920000B4B7
:02019300021850
:0201940002AFB8
:0201950002D393
:0201960001F472
:0201970003E380
:0201980000C4A1
:02019900016003
:02019A00012B37
:02019B0003C19E
:02019C0001F769
:02019D0003213C
:02019E0002F667
:02019F000299C3
:0201A000017FDD
:0201A10002D585
:0201A200001D3E
:0201A300004A10
:0201A4000373E3
:0201A500024B0B
:0201A6000372E2
:0201A700006FE7
:0201A80000F065
:0201A900001242
:0201AA000279D8
:0201AB00004111
:0201AC00012B25
:0201AD0000CC84
:0201AE00003817
:0201AF00029DAF
:0201B0000097B6
:0201B100010843
:0201B200014EFC
:0201B3000093B7
:0201B4000364E2
:0201B50000FA4E
:0201B60001C482
:0201B70001EF56
:0201B8000187BD
:0201B90003C180
:0201BA000183BF
:0201BB0002FE42
:0201BC0003142A
:0201BD00028DB1
:0201BE0001102E
:0201BF00033902
:0201C00000C776
:0201C10000E15B
:0201C200007FBC
:0201C300035DDA
:0201C40001E94F
:0201C500035ADB
:0201C60003D85C
:0201C70003DD56
:0201C80002A48F
:0201C90001260D
:0201CA0002DD54
:0201CB0003A689
:0201CC0000131E
:0201CD000347E6
:0201CE0001F737
:0201CF0003E348
:0201D000019993
:0201D10001A586
:0201D20001D654
:0201D30000CC5E
:0201D40002E641
:0201D5000055D3
:0201D60001899D
:0201D700012FF6
:0201D80000F62F
:0201D9000372AF
:0201DA000166BC
:0201DB0002AA76
:0201DC000351CD
:0201DD0002E23C
:0201DE00021C01
:0201DF000065B9
:0201E0000249D2
:0201E100034ECB
:0201E200035FB9
:0201E3000330E7
:0201E40001E731
:0201E50003E431
:0201E600018C8A
:0201E700023FD5
:0201E80002759E
:0201E90001F91A
:0201EA000034DF
:0201EB000263AD
:0201EC0003F915
:0201ED000023ED
:0201EE0000828D
:0201EF00039C6F
:0201F00002010A
:0201F100001BF1
:0201F2000146C4
:0201F300019E6B
:0201F400019573
:0201F50000798F
:0201F600033FC5
:0201F700013ACB
:0201F800024EB5
:0201F90002D032
:0201FA00026F92
:0201FB0001E31E
:0201FC000008F9
:0201FD000201FD
:0201FE00038478
:0201FF0003E318
:020200000003F9
:0202010002C930
:0202020001A851
:02020300035E98
:02020400008E6A
:020205000135C1
:020206000123D2
:02020700006491
:020208000347AA
:020209000114DE
:02020A0002A64A
:02020B00035698
:02020C00037479
:02020D0002EB02
:02020E0001FAF3
:02020F00000CE1
:02021000019556
:0202110002C722
:0202120002A048
:02021300026384
:0202140001BE29
:020215000020C7
:0202160001C71E
:020217000335AD
:02021800034C95
:0202190003538D
:02021A0002FFE1
:02021B0001518F
:02021C0003B627
:02021D000102DC
:02021E0001FCE1
:02021F000213C8
:0202200001FDDE
:0202210000B922
:02022200037D5A
:0202230000F0E9
:02022400026A6C
:020225000303D1
:0202260002C410
:0202270002597A
:02022800015C77
:0202290003636D
:02022A00013C95
:02022B000215BA
:02022C00029E30
:02022D0002329B
:02022E00018746
:02022F0003F9D1
:0202300002705A
:0202310003C008
:0202320000B911
:0202330000C801
:0202340000A622
:0202350003E0E4
:02023600028F35
:0202370000C8FD
:020238000203BF
:02023900028041
:02023A000308B7
:02023B0002AE11
:02023C0001B906
:02023D0000AB14
:02023E00022894
:02023F0003B703
:0202400000E3D9
:0202410000C7F4
:02024200006A50
:0202430003B402
:02024400027E38
:0202450000A215
:0202460001F3C2
:0202470003159D
:02024800032889
:02024900032F81
:02024A00022A86
:02024B0001268A
:02024C00034667
:02024D0000C2ED
:02024E0001BAF3
:02024F00023972
:02025000027C2E
:0202510001B1F9
:0202520000E7C3
:0202530002E1C6
:02025400009E0A
:02025500021A8B
:0202560002D2D2
:0202570002CFD4
:0202580002B5ED
:0202590001EAB8
:02025A00004B57
:02025B00027F20
:02025C00038B12
:02025D0000D8C7
:02025E00010A93
:02025F0000FE9F
:02026000005A42
:02026100034850
:0202620001AFEA
:02026300034F47
:02026400011681
:0202650001A4F2
:0202660001D7BE
:0202670001B2E2
:0202680000B7DD
:0202690003C1CF
:02026A00021779
:02026B00034D41
:02026C0000E6AA
:02026D00014549
:02026E00019DF0
:02026F00014C40
:02027000004349
:02027100032167
:0202720000DCAE
:0202730002A0E7
:0202740003B6CF
:02027500003750
:020276000094F2
:02027700000B7A
:0202780002DAA8
:02027900019CE6
:02027A0003ACD3
:02027B00014937
:02027C0002C7B7
:02027D0003017B
:02027E0002F785
:02027F0002FD7E
:0202800002205A
:020281000094E7
:0202820002C7B1
:0202830000D6A3
:0202840001C0B7
:020285000288ED
:0202860002D79D
:02028700025221
:0202880001D79C
:02028900006E05
:02028A0002EB85
:02028B00006E03
:02028C0001D49B
:02028D0002B5B8
:02028E000373F8
:02028F0002FB70
:0202900002CB9F
:0202910001DB8F
:020292000071F9
:02029300020E59
:0202940003A7BE
:0202950001194D
:02029600016DF8
:020297000198CC
:020298000165FE
:0202990000CF94
:02029A0003AFB0
:02029B000183DD
:02029C0003D489
:02029D00011945
:02029E00023725
:02029F00025CFF
:0202A0000280DA
:0202A100022831
:0202A2000170E9
:0202A30003F264
:0202A40002074F
:0202A500039FB5
:0202A600015CF9
:0202A70001ED67
:0202A80002A5AD
:0202A90002351C
:0202AA00021E32
:0202AB0001064A
:0202AC0003B895
:0202AD0001F955
:0202AE000354F7
:0202AF0000CE7F
:0202B00001AD9E
:0202B1000263E6
:0202B20001E168
:0202B30001C682
:0202B40000D078
:0202B500035DE7
:0202B60001D174
:0202B70003A49E
:0202B80000C57F
:0202B90001F052
:0202BA000247F9
:0202BB00023B04
:0202BC0001F946
:0202BD0001122C
:0202BE0000023C
:0202BF00024EED
:0202C0000045F7
:0202C100022217
:0202C200031720
:0202C3000367CF
:0202C40003A590
:0202C50003E94B
:0202C60002F63E
:0202C700020033
:0202C8000088AC
:0202C90002B77A
:0202CA00003BF7
:0202CB00020F20
:0202CC0002B678
:0202CD000357D5
:0202CE00032308
:0202CF0002D457
:0202D0000243E7
:0202D10000C764
:0202D20003A384
:0202D30001BD6B
:0202D4000364C1
:0202D5000073B4
:0202D60001071E
:0202D70001B86C
:0202D8000183A0
:0202D900010919
:0202DA00004DD5
:0202DB00031905
:0202DC000165BA
:0202DD0003B963
:0202DE00016FAE
:0202DF00022EED
:0202E00002FA20
:0202E100037B9D
:0202E2000350C7
:0202E300030214
:0202E4000240D6
:0202E5000127EF
:0202E60003DB38
:0202E700018094
:0202E8000361B0
:0202E9000065AE
:0202EA0001CD44
:0202EB0001D13F
:0202EC000248C6
:0202ED0001B35B
:0202EE000148C5
:0202EF0003FF0B
:0202F00002AB5F
:0202F100010901
:0202F2000259AF
:0202F3000026E3
:0202F4000127E0
:0202F500018284
:0202F6000207FD
:0202F70001A262
:0202F8000157AC
:0202F90000976C
:0202FA00034DB2
:0202FB0001D42C
:0202FC0003B34A
:0202FD00017C82
:0202FE00027884
:0202FF00034FAB
:020300000040BB
:020301000052A8
:0203020003FEF8
:0203030003569F
:0203040002579E
:02030500016B8A
:02030600036C86
:02030700019063
:02030800031ED2
:020309000046AC
:02030A000122CE
:02030B00017A75
:02030C0001A648
:02030D00019A53
:02030E000113D9
:02030F00002FBD
:020310000302E6
:020311000124C5
:0203120002FEE9
:0203130000AA3E
:020314000215D0
:0203150002D113
:0203160003B131
:0203170003CE13
:02031800038957
:02031900034798
:02031A00028956
:02031B0000E7F9
:02031C00039C40
:02031D00019F3E
:02031E00031FBB
:02031F0000F3E9
:0203200001A733
:0203210002E3F5
:0203220002EBEC
:0203230002EFE7
:0203240002FED7
:020325000231A3
:0203260000E5F0
:020327000005CF
:0203280001FBD7
:0203290000735F
:02032A0001A22E
:02032B000311BC
:02032C00002CA3
:02032D0000AD21
:02032E00014686
:02032F0000ECE0
:02033000006B60
:0203310003EED9
:0203320002B611
:02033300016A5D
:0203340003C8FC
:0203350001AB1A
:02033600038F33
:0203370000F7CD
:0203380001942E
:02033900027050
:02033A0002942B
:02033B00028D31
:02033C00027E3F
:02033D0001B20B
:02033E0000A01D
:02033F00033980
:0203400001CEEC
:0203410003A80F
:02034200016D4B
:02034300032590
:0203440003DCD8
:0203450000BBFB
:0203460000FCB9
:0203470001565D
:020348000110A2
:0203490000783A
:02034A0003CBE3
:02034B0002436B
:02034C00011797
:02034D00035E4D
:02034E00011C90
:02034F0002B8F2
:02035000000F9C
:0203510000E0CA
:02035200019A0E
:0203530001D3D4
:02035400022A7B
:0203550001D0D5
:02035600012E76
:02035700005F45
:0203580002C9D8
:0203590001A100
:02035A0003F0AE
:02035B0001BCE3
:02035C00032379
:02035D00007925
:02035E00018B11
:02035F0001C3D8
:02036000028811
:02036100026E2A
:0203620001FE9A
:02036300016F28
:02036400006334
:020365000395FE
:0203660001E0B4
:0203670000464E
:02036800021978
:0203690000167C
:02036A0001642C
:02036B00026925
:02036C0002C7C6
:02036D0003A8E3
:02036E00039FEB
:02036F0003A7E2
:02037000033B4D
:020371000292F6
:02037200015632
:02037300001B6D
:02037400026223
:02037500009DE9
:0203760002BCC7
:0203770000196B
:02037800018101
:0203790001E59C
:02037A0003146A
:02037B00033A43
:02037C00034438
:02037D00032655
:02037E0002A1DA
:02037F00022258
:02038000011862
:0203810003A7D0
:02038200024631
:02038300003840
:0203840001F086
:0203850003A0D3
:0203860001076D
:0203870001A3D0
:0203880002C4AD
:02038900032649
:02038A0003214D
:02038B0003323B
:02038C00029BD2
:02038D00022B41
:02038E0000BBB2
:02038F0003DA8F
:02039000023C2D
:02039100009CCE
:02039200026FF8
:02039300005A0E
:02039400019CCA
:020395000287DD
:0203960003CA98
:02039700004F15
:02039800004D16
:02039900005E04
:02039A0000540D
:02039B0003D786
:02039C0002DF7E
:02039D00025C00
:02039E0000E27B
:02039F00032534
:0203A0000197C3
:0203A100033126
:0203A20000ADAC
:0203A300026DE9
:0203A4000398BC
:0203A50000292D
:0203A600012B29
:0203A700011B38
:0203A8000179D9
:0203A900015FF2
:0203AA000086CB
:0203AB0003E469
:0203AC0002F35A
:0203AD0001E667
:0203AE0000311C
:0203AF00024A00
:0203B000008DBE
:0203B100022325
:0203B2000398AE
:0203B300010443
:0203B40001F452
:0203B50002A79D
:0203B60002E360
:0203B70003142D
:0203B8000344FC
:0203B90002DF61
:0203BA0002330C
:0203BB0001AD92
:0203BC0000A996
:0203BD0002F943
:0203BE0001DC60
:0203BF0003DD5C
:0203C0000189B1
:0203C10003B681
:0203C20000F346
:0203C30001EE49
:0203C400032A0A
:0203C50003C370
:0203C6000060D5
:0203C7000094A0
:0203C800007FB4
:0203C9000057DB
:0203CA00035DD1
:0203CB00029599
:0203CC0001FA34
:0203CD0000A18D
:0203CE0002E744
:0203CF00012506
:0203D000031513
:0203D100012108
:0203D20002BB6C
:0203D3000031F7
:0203D40000E146
:0203D500018B9A
:0203D60002968D
:0203D70002C062
:0203D80002B869
:0203D900029B85
:0203DA00027BA4
:0203DB0001E33C
:0203DC00009E81
:0203DD0003C556
:0203DE000253C8
:0203DF0000AC70
:0203E00002F029
:0203E10000FD1D
:0203E20002997E
:0203E300009880
:0203E40001A86E
:0203E50002A470
:0203E6000368AA
:0203E700001BF9
:0203E80000A76C
:0203E900005DB5
:0203EA0000B061
:0203EB000030E0
:0203EC0003709C
:0203ED0002B854
:0203EE0001C24A
:0203EF00007F8D
:0203F00002CC3D
:0203F1000146C3
:0203F200037A8C
:0203F300015DAA
:0203F400029C69
:0203F500002CDA
:0203F600017C88
:0203F700026A98
:0203F800031CE4
:0203F900038F70
:0203FA00000FF2
:0203FB000044BC
:0203FC0003D12B
:0203FD00038477
:0203FE0002AE4D
:0203FF0001D724
:020400000105F4
:0204010003E70F
:020402000209ED
:0204030000B146
:02040400025F95
:02040500003BBA
:020406000232C0
:02040700037779
:0204080000F101
:0204090001945C
:02040A00028E60
:02040B000324C8
:02040C00038467
:02040D00039357
:02040E0003B039
:02040F00034D9B
:02041000028F59
:020411000245A2
:0204120000EEFA
:0204130003FCE8
:0204140002B232
:020415000119CB
:02041600030FD2
:0204170001667C
:020418000316C9
:0204190000A23F
:02041A0001FCE3
:02041B000327B5
:02041C0000736B
:02041D0000E5F8
:02041E00014C8F
:02041F0001AF2B
:02042000024494
:02042100020CCB
:0204220001A136
:0204230000FBDC
:0204240000BB1B
:02042500036969
:0204260002C70B
:02042700016D65
:0204280003F4DB
:020429000206C9
:02042A00002CA4
:02042B000215B8
:02042C0003E2E9
:02042D00014686
:02042E0002A129
:02042F00036B5D
:0204300000903A
:020431000106C2
:02043200018C3B
:0204330001DAEC
:020434000204C0
:020435000211B2
:0204360001685B
:02043700010CB6
:0204380000843E
:02043900039C22
:02043A00027945
:02043B00016955
:02043C00038437
:02043D0001C8F4
:02043E0003F5C4
:02043F00024A6F
:0204400003D2E5
:02044100015761
:02044200028135
:0204430003A90B
:02044400011E97
:02044500019B19
:02044600023F73
:0204470002AC05
:0204480002A010
:0204490002A50A
:02044A00023975
:02044B0002416C
:02044C00016E3F
:02044D0000CBE2
:02044E00000F9D
:02044F000306A2
:02045000018425
:0204510003EFB7
:020452000202A4
:02045300003374
:02045400026143
:02045500003075
:0204560001B1F2
:0204570002CED3
:0204580000237F
:0204590000CED3
:02045A0001CAD5
:02045B0002910C
:02045C0002BFDD
:02045D00037723
:02045E00031A7F
:02045F00030395
:0204600002FA9E
:02046100025641
:0204620001B7E0
:02046300010D89
:02046400000690
:0204650002AAE9
:02046600015043
:0204670003BAD6
:0204680001F69B
:0204690000058C
:02046A0001D4BB
:02046B0003A7E5
:02046C00017518
:02046D0002C5C6
:02046E0000107C
:02046F0000ED9E
:02047000018207
:02047100025A2D
:0204720002BEC8
:02047300032A5A
:02047400036221
:0204750003463C
:0204760002DFA3
:0204770002A5DC
:0204780001C7BA
:0204790001057B
:02047A000084FC
:02047B0003423A
:02047C0001E499
:02047D0000532A
:02047E0002FF7B
:02047F0000C7B4
:02048000033047
:0204810000EE8B
:0204820002A9CD
:0204830003F67E
:020484000180F5
:0204850002ACC7
:020486000390E1
:02048700005D16
:0204880001422F
:020489000196DA
:02048A0001F976
:02048B00020865
:02048C0002224A
:02048D0001FB71
:02048E00017FEC
:02048F00016604
:020490000085E5
:0204910003F373
:02049200027CEA
:020493000187DF
:02049400006EF8
:0204950002CF94
:02049600012F34
:0204970003510F
:02049800015110
:0204990003500E
:02049A0000BCA4
:02049B00020A53
:02049C000368F3
:02049D0000B2AB
:02049E0001BAA1
:02049F000287D2
:0204A000031E39
:0204A10003DC7A
:0204A200001A3E
:0204A300005BFC
:0204A40000B89E
:0204A5000059FC
:0204A600003024
:0204A7000399B7
:0204A800034609
:0204A9000261EE
:0204AA000197B8
:0204AB00000748
:0204AC00032922
:0204AD0001D17B
:0204AE00005AF2
:0204AF00026CDD
:0204B0000087C3
:0204B10002CF78
:0204B200003E0A
:0204B300023E07
:0204B40003C67D
:0204B500010440
:0204B600021B27
:0204B700035EE2
:0204B80000132F
:0204B90000FB46
:0204BA0001AC93
:0204BB00021726
:0204BC0001F24B
:0204BD00023DFE
:0204BE00021822
:0204BF00021C1D
:0204C00001C673
:0204C1000145F3
:0204C20000D266
:0204C30003DC58
:0204C40002C470
:0204C50001C371
:0204C6000053E1
:0204C70002F73A
:0204C800015BD6
:0204C9000383AB
:0204CA00021E10
:0204CB0003F339
:0204CC0001FA33
:0204CD00039397
:0204CE0000E448
:0204CF00025DCC
:0204D00003F433
:0204D10000E643
:0204D20001C166
:0204D300027DA8
:0204D400030C17
:0204D50003BE64
:0204D600002BF9
:0204D70000958E
:0204D80000D34F
:0204D900003EE3
:0204DA00002FF1
:0204DB00039884
:0204DC00034DCE
:0204DD00028497
:0204DE0001D843
:0204DF0000F02B
:0204E00003F225
:0204E100029E79
:0204E200011BFC
:0204E30003E331
:0204E4000239DB
:0204E500006CA9
:0204E6000238DA
:0204E7000034DF
:0204E8000214FC
:0204E900039B73
:0204EA00013BD4
:0204EB0002B15C
:0204EC00036F9C
:0204ED0000CF3E
:0204EE0001CF3C
:0204EF0002A069
:0204F0000334D3
:0204F10003A75F
:0204F2000052B6
:0204F3000065A2
:0204F400000006
:0204F5000031D4
:0204F60003EB16
:0204F70003FB05
:0204F8000340BF
:0204F90002B748
:0204FA000229D5
:0204FB0000E31C
:0204FC000052AC
:0204FD000313E7
:0204FE00017388
:0204FF00003BC0
:0205000002BD3A
:02050100011ED9
:02050200031CD8
:02050300013DB8
:0205040002C330
:020505000111E2
:020506000233BE
:020507000038BA
:02050800016C84
:02050900028E60
:02050A00039854
:02050B0000A24C
:02050C00017775
:02050D00023FAB
:02050E0002FDEC
:02050F0002E602
:020510000335B1
:02051100039F46
:02051200039F45
:02051300039F44
:020514000327BB
:0205150002AD35
:0205160002934E
:0205170001F0F1
:0205180000DD04
:0205190000538D
:02051A0002DFFE
:02051B000213C9
:02051C0000E1FC
:02051D00030DCC
:02051E000202D7
:02051F000017C3
:0205200002785F
:02052100006672
:02052200028451
:020523000035A1
:020524000207CC
:0205250003C70A
:0205260000B51E
:02052700025B75
:0205280003A22C
:0205290000745C
:02052A00016965
:02052B0001FBD2
:02052C00030AC0
:02052D00038C3D
:02052E000013B8
:02052F00000BBF
:0205300000A623
:0205310000A325
:02053200003A8D
:0205330000299D
:02053400003590
:0205350003774A
:0205360002D1F0
:02053700028F31
:0205380001AE12
:0205390000843C
:02053A0003A21A
:02053B00029527
:02053C000106B6
:02053D0003C2F7
:02053E00022297
:02053F00007545
:0205400002D2E5
:0205410000D8E0
:0205420002DBDA
:0205430000D0E6
:02054400025D56
:0205450003F3BE
:02054600016A48
:0205470002EDC3
:02054800006849
:02054900016847
:02054A0002416C
:02054B00036942
:02054C00003C71
:02054D0000CBE1
:02054E00010AA0
:02054F0001B2F7
:02055000021C8B
:02055100023571
:02055200027431
:02055300024E56
:02055400020A99
:0205550001B1F2
:020556000101A1
:0205570000DDC5
:0205580000564B
:02055900037528
:02055A0002C0DD
:02055B00019904
:02055C00005746
:02055D00032277
:02055E0001F3A7
:02055F0000C1D9
:0205600002DFB8
:0205610001A1F6
:02056200037A1A
:0205630001DFB6
:02056400037D15
:0205650001B3E0
:0205660003266A
:0205670001038E
:0205680002BBD4
:0205690003D5B8
:02056A00016826
:02056B00027B11
:02056C00036921
:02056D00004C40
:02056E00013E4C
:02056F00021276
:0205700002B7D0
:02057100038500
:0205720003F094
:0205730003EB98
:0205740000661F
:02057500004C38
:02057600004142
:02057700007C06
:0205780000235E
:02057900037FFE
:02057A0002ED90
:02057B0002D2AA
:02057C00020B70
:02057D0000E993
:02057E00000378
:02057F00030473
:02058000022651
:0205810000DE9A
:02058200037EF6
:02058300021F55
:0205840000D99C
:0205850002D79B
:0205860000FA79
:02058700033D32
:02058800019ED2
:02058900034A23
:02058A0000EB84
:02058B0002EB81
:02058C00004825
:02058D0001DE8D
:02058E00032A3E
:02058F000075F5
:0205900001D692
:0205910002D492
:0205920003A9BB
:0205930000B3B3
:0205940001A4C0
:02059500021A48
:0205960002A0C1
:02059700031748
:02059800032F2F
:02059900035A03
:02059A0003BF9D
:02059B000393C8
:02059C00036EEC
:02059D00035CFD
:02059E00034216
:02059F0002F464
:0205A0000271E6
:0205A100016DEA
:0205A200011F37
:0205A30003FC57
:0205A4000362F0
:0205A500023D15
:0205A6000159F9
:0205A70003B996
:0205A80002D976
:0205A900011C33
:0205AA0003E666
:0205AB000257F5
:0205AC000058F5
:0205AD0002AF9B
:0205AE0000EE5D
:0205AF0002BF89
:0205B0000091B8
:0205B100024303
:0205B20003ED57
:0205B30001F74E
:0205B4000374CE
:0205B50000B58F
:0205B60001B290
:0205B700030E31
:0205B8000046FB
:0205B9000151EE
:0205BA0001DB63
:0205BB00030C2F
:0205BC0003A397
:0205BD00000834
:0205BE0000B685
:0205BF00011920
:0205C00001B088
:0205C10001BD7A
:0205C20002270E
:0205C30001B580
:0205C40001EE46
:0205C50001AC87
:0205C6000171C1
:0205C70000F240
:0205C80000939E
:0205C900003DF3
:0205CA00031517
:0205CB0002B577
:0205CC0001F13B
:0205CD00011714
:0205CE0000200B
:0205CF0002F434
:0205D000019296
:0205D1000033F5
:0205D20002B372
:0205D3000129FC
:0205D40003FB27
:0205D50001FB28
:0205D600002003
:0205D700026AB6
:0205D8000067BA
:0205D900029E80
:0205DA000051CE
:0205DB000240DC
:0205DC0003B06A
:0205DD000127F4
:0205DE0002D346
:0205DF000042D8
:0205E0000168B0
:0205E10002B75F
:0205E20003E232
:0205E30000B660
:0205E40001B361
:0205E50002BD55
:0205E60002F31E
:0205E70003FE11
:0205E8000055BC
:0205E9000117F8
:0205EA00018C82
:0205EB0001828B
:0205EC0001DB31
:0205ED0001BA51
:0205EE0001F911
:0205EF0001C445
:0205F00001AE5A
:0205F100016E99
:0205F2000135D1
:0205F300009670
:0205F4000041C4
:0205F500036A97
:0205F60002E120
:0205F700026A96
:0205F800016E92
:0205F9000058A8
:0205FA00032AD2
:0205FB000212EA
:0205FC0000D429
:0205FD0003A455
:0205FE00027881
:0205FF0000D327
:020600000351A4
:0206010001D91D
:02060200039F54
:020603000218DB
:020604000014E0
:020605000234BD
:020606000036BC
:0206070001ED03
:0206080003C12C
:0206090000E708
:02060A0002F8F4
:02060B00005B92
:02060C0001E506
:02060D00035791
:02060E000005E5
:02060F00017D6B
:02061000028561
:0206110003A63E
:02061200004B9B
:02061300014B99
:0206140001B72C
:020615000238A9
:0206160002D907
:02061700038559
:02061800000FD1
:02061900000FD0
:02061A000026B8
:02061B00007568
:02061C00006E6E
:02061D00008B50
:02061E0000AC2E
:02061F00005B7E
:0206200003B322
:0206210003B123
:02062200034E85
:0206230002B61D
:020624000205CD
:0206250001745E
:02062600007B57
:0206270003FED0
:0206280002DBF3
:02062900018846
:02062A00008549
:02062B0003A02A
:02062C00024A80
:02062D0000D3F8
:02062E00039C2B
:02062F0001E6E2
:02063000001AAE
:02063100029134
:0206320000B412
:0206330002FDC6
:02063400015073
:02063500032F91
:0206360000D9E9
:02063700034876
:0206380000EED2
:02063900029726
:02063A0003E7D4
:02063B00015369
:02063C00034E6B
:02063D00009C1F
:02063E0001B405
:02063F0002D6E1
:020640000017A1
:0206410000F6C1
:02064200022292
:020643000309A9
:0206440000179D
:0206450000E6CD
:0206460001733E
:0206470002317E
:0206480002545A
:0206490002F5B8
:02064A0003208B
:02064B00038129
:02064C0003D2D7
:02064D0003DDCB
:02064E0003BFE8
:02064F0003980E
:0206500003B7EE
:02065100036D37
:02065200033B68
:0206530002ECB7
:0206540002C4DE
:02065500023A67
:0206560001B0F1
:0206570000FEA3
:0206580000514F
:0206590003524A
:02065A0002ABF1
:02065B0002019A
:02065C00010F8C
:02065D00037622
:02065E00028810
:02065F00017A1E
:02066000002F69
:0206610002692C
:02066200015540
:02066300000590
:0206640001F59E
:0206650000444F
:0206660002ACE4
:0206670000DDB4
:02066800032D60
:02066900015836
:02066A00033B50
:02066B0000C7C6
:02066C0002EC9E
:02066D00006724
:02066E00024C3C
:02066F0003B7CF
:02067000017512
:0206710002B2D3
:0206720000374F
:0206730001384C
:0206740002BBC7
:020675000390F0
:0206760000D8AA
:0206770001D3AD
:0206780002A2DC
:02067900039DDF
:02067A0000D7A7
:02067B00013547
:02067C0001B9C2
:02067D0002C4B5
:02067E00034136
:02067F00036F07
:02068000003B3D
:02068100004334
:02068200004630
:02068300009BDA
:0206840000E391
:0206850000E88B
:0206860000C2B0
:02068700009BD6
:0206880000ABC5
:0206890000214E
:02068A0003B1BA
:02068B0003A5C5
:02068C00034C1D
:02068D00028CDD
:02068E00020662
:02068F000176F2
:0206900000A9BF
:020691000397CD
:02069200032E35
:0206930002273C
:0206940000C79D
:02069500001E45
:0206960002CB95
:0206970001BDA3
:020698000071EF
:0206990002C09D
:02069A000184D9
:02069B0003F862
:02069C00025307
:02069D00012E2C
:02069E00036DEA
:02069F00014315
:0206A00003CC89
:0206A10001C98D
:0206A200037CD7
:0206A3000195BF
:0206A40003D879
:0206A5000188CA
:0206A600034609
:0206A700010050
:0206A80002B19D
:0206A900006FE0
:0206AA00020844
:0206AB00034901
:0206AC0000ED5F
:0206AD0001DC6E
:0206AE00032423
:0206AF00004207
:0206B0000173D4
:0206B10002DF66
:0206B2000369DA
:0206B300009BAA
:0206B400019BA8
:0206B50001FA48
:0206B60002EA56
:0206B70003B985
:0206B80003EB52
:0206B90000DE61
:0206BA00013FFE
:0206BB00018BB1
:0206BC0001CF6C
:0206BD00028EAB
:0206BE00027FB9
:0206BF0002CC6B
:0206C00002E254
:0206C10002E64F
:0206C20002C76D
:0206C3000268CB
:0206C4000273BF
:0206C500028AA7
:0206C600022D03
:0206C7000178B8
:0206C8000134FB
:0206C90000CC63
:0206CA000042EC
:0206CB0003A288
:0206CC0002FA30
:0206CD000236F3
:0206CE00016FBA
:0206CF0000DA4F
:0206D00003B570
:0206D10002D74E
:0206D200015BCA
:0206D30000BA6B
:0206D400035AC7
:0206D50002160B
:0206D60000E43E
:0206D70003928C
:0206D800021707
:0206D90000D946
:0206DA0002E636
:0206DB00017BA1
:0206DC00039584
:0206DD00024DCC
:0206DE00002EEC
:0206DF00029186
:0206E00000E236
:0206E10002A76E
:0206E20000DE38
:0206E30002B65D
:0206E400005FB5
:0206E5000262AF
:0206E60003DF30
:0206E70001C947
:0206E80003937A
:0206E90000BE51
:0206EA000252BA
:0206EB0003C545
:0206EC000158B3
:0206ED00027E8B
:0206EE0003BF48
:0206EF000123E5
:0206F00001F611
:0206F100036A9A
:0206F2000052B4
:0206F300012DD7
:0206F400026F93
:0206F50002CE33
:0206F60003AB54
:0206F70000C938
:0206F800010EF1
:0206F90001B945
:0206FA00028E6E
:0206FB0002DA21
:0206FC000344B5
:0206FD0003B147
:0206FE0003E215
:0206FF000047B2
:0207000000BC3B
:0207010000F006
:020702000110E4
:0207030000F103
:020704000106EC
:0207050000CE24
:0207060000BB36
:020707000050A0
:020708000022CD
:0207090003BF2C
:02070A0003D01A
:02070B00035594
:02070C00029257
:02070D000244A4
:02070E0001B236
:02070F00010DDA
:020710000007E0
:0207110003A53E
:02071200027F64
:02071300021AC8
:0207140000FCE7
:0207150003EEF1
:0207160002E6F9
:0207170001B42B
:0207180000C41B
:02071900038E4D
:02071A000234A7
:02071B0000CB11
:02071C0003CF09
:02071D000207D1
:02071E00006A6F
:02071F000315C0
:02072000015C7A
:020721000002D4
:02072200024B88
:0207230000BD17
:0207240002EDE4
:0207250000C210
:020726000316B8
:020727000118B7
:0207280002F1DC
:0207290000FED0
:02072A0002D2F9
:02072B00009D2F
:02072C0002A524
:02072D00000FBB
:02072E00019830
:02072F00035471
:020730000106C0
:0207310002665E
:0207320003C3FF
:0207330001596A
:0207340002B30E
:020735000009B9
:0207360001417F
:02073700028F2F
:02073800032696
:0207390000526C
:02073A00016755
:02073B00022793
:02073C00037840
:02073D00001C9E
:02073E0000F2C7
:02073F0001B106
:0207400002AD08
:0207410002F1C3
:0207420003CFE3
:02074300007D37
:0207440000A50E
:020745000111A0
:0207460001F6BA
:02074700021D91
:02074800022B82
:0207490002604C
:02074A0002C5E6
:02074B0002AA00
:02074C0002EABF
:02074D0002F2B6
:02074E0002FBAC
:02074F00031E87
:0207500002B9EC
:0207510002E8BC
:02075200027F24
:02075300021092
:0207540001DDC5
:0207550001BAE7
:0207560001356B
:02075700005947
:0207580000336C
:0207590003D0CB
:02075A0002FF9C
:02075B0001F6A5
:02075C00014654
:02075D00009CFE
:02075E0003EDA9
:02075F00035A3B
:02076000023065
:02076100011184
:02076200004B4A
:0207630002EEA4
:0207640001FB97
:0207650000A5ED
:0207660003523C
:02076700024C42
:0207680001236B
:02076900036328
:02076A00024F3C
:02076B00007A12
:02076C00031771
:02076D0001DFAA
:02076E0003EF97
:02076F00023452
:0207700000A7E0
:0207710002D4B0
:02077200012361
:02077300035F22
:02077400018FF3
:0207750003403F
:020776000188F8
:0207770003512C
:02077800017E00
:02077900033E3D
:02077A0000D1AC
:02077B0002C7B3
:02077C0000B0CB
:02077D00024D2B
:02077E00039DD9
:02077F00010B6C
:0207800002E491
:02078100003A3C
:0207820001BFB5
:02078300036A07
:02078400008EE5
:0207850001C6AB
:02078600032549
:02078700002848
:02078800015D11
:02078900029DCF
:02078A0003BDAD
:02078B00006606
:02078C00017AF0
:02078D00026FF9
:02078E0003273F
:02078F0003E580
:0207900000FA6D
:020791000197CE
:02079200021E45
:0207930002E57D
:0207940003CA96
:02079500003B27
:02079600006AF7
:0207970000FF61
:0207980001CB93
:0207990001CB92
:02079A0001E676
:02079B000261F9
:02079C000286D3
:02079D00031047
:02079E00032432
:02079F00032431
:0207A000032430
:0207A100034B08
:0207A20002F85B
:0207A30002EB67
:0207A40003232D
:0207A50002A3AD
:0207A6000259F6
:0207A700020846
:0207A80001E767
:0207A9000151FC
:0207AA000162EA
:0207AB0000F359
:0207AC00002B20
:0207AD0003FF48
:0207AE000380C6
:0207AF0002BC8A
:0207B00001F452
:0207B10001271E
:0207B20000B68F
:0207B30003B988
:0207B400031B25
:0207B50001D36E
:0207B6000145FB
:0207B70003F647
:0207B800033606
:0207B900023408
:0207BA00011923
:0207BB000390A9
:0207BC00029B9E
:0207BD00012118
:0207BE00002E0B
:0207BF0002A393
:0207C00001A591
:0207C10003E64D
:0207C200028AA9
:0207C30001181B
:0207C40003A090
:0207C500020729
:0207C6000057DA
:0207C700028DA1
:0207C8000161CD
:0207C900032308
:0207CA0001B775
:0207CB00035ACF
:0207CC0001A486
:0207CD0003F730
:0207CE0001E048
:0207CF00001315
:0207D00001BC6A
:0207D10003C85B
:0207D20001BA6A
:0207D300038998
:0207D400012101
:0207D50002DA46
:0207D60000C45D
:0207D700028599
:0207D8000053CC
:0207D90001D449
:0207DA00031BFF
:0207DB0000DD3F
:0207DC000273A6
:0207DD00038394
:0207DE0000D346
:0207DF0002A076
:0207E00003A272
:0207E10000D442
:0207E200021300
:0207E300038B86
:0207E4000058BB
:0207E500019E73
:0207E60002B857
:0207E70003828B
:0207E800008C83
:0207E900019B72
:0207EA000230DB
:0207EB000347C2
:0207EC000055B6
:0207ED0000BC4E
:0207EE0001B355
:0207EF00022ED8
:0207F0000305FF
:0207F10003689B
:0207F200001CE9
:0207F30000867E
:0207F4000120E2
:0207F50001BE43
:0207F6000231CE
:0207F7000254AA
:0207F80002BE3F
:0207F9000302F9
:0207FA000352A8
:0207FB0003AE4B
:0207FC0003B642
:0207FD0003BA3D
:0207FE000008F1
:0207FF00001ADE
:00000001ff
