:020000040000FA
:020000000001FD
:0200010003B248
:02000200030AEF
:0200030002B841
:020004000030CA
:020005000140B8
:02000600007286
:0200070000C235
:0200080001FBFA
:02000900006F86
:02000A000130C3
:02000B000205EC
:02000C000144AD
:02000D000229C6
:02000E0000B63A
:02000F0001925C
:020010000244A8
:020011000133B9
:0200120001816A
:02001300033FA9
:02001400035C8B
:0200150003AB3B
:020016000301E4
:0200170000FEE9
:02001800025193
:0200190000BC29
:02001A0002C51D
:02001B00003AA9
:02001C0001D011
:02001D0001568A
:02001E0001B52A
:02001F0002DB02
:0200200001FFDE
:02002100015488
:02002200005587
:0200230003AC2C
:020024000121B8
:0200250003B81E
:0200260003D500
:02002700030DC7
:020028000019BD
:0200290003359D
:02002A0001D5FE
:02002B0002D8F9
:02002C0002567A
:02002D0001E4EC
:02002E00007759
:02002F00026667
:02003000018B42
:020031000126A6
:0200320001E6E5
:02003300021AAF
:02003400016A5F
:02003500011AAE
:020036000007C1
:02003700028441
:02003800029331
:0200390003B909
:02003A0003328F
:02003B0003C3FD
:02003C0001F7CA
:02003D0003E2DC
:02003E00016F50
:02003F0000259A
:02004000035566
:0200410003F4C6
:0200420000E9D3
:0200430002B504
:0200440003BDFA
:02004500004079
:02004600023581
:02004700019422
:020048000008AE
:02004900014E66
:02004A0002D4DE
:02004B00002D86
:02004C0002B3FD
:02004D0001B9F7
:02004E0002B5F9
:02004F0000D5DA
:02005000018924
:02005100001E8F
:020052000207A3
:0200530002A108
:02005400039314
:02005500005C4D
:0200560002C3E3
:0200570002A401
:0200580001F0B5
:0200590000DBCA
:02005A0001B5EE
:02005B0000F1B2
:02005C00015E43
:02005D0003DEC0
:02005E00039409
:02005F0001F6A8
:0200600002CBD1
:0200610003F2A8
:0200620001BAE1
:0200630002C4D5
:02006400000892
:0200650000D3C6
:0200660002B5E1
:0200670001C0D6
:02006800007323
:02006900039FF3
:02006A00028D05
:02006B0002E7AA
:02006C0000EBA7
:02006D00032D61
:02006E0002F09E
:02006F0003B9D3
:0200700003D1BA
:0200710003D5B5
:02007200031C6D
:02007300036226
:02007400011D6C
:02007500034541
:02007600038401
:02007700020085
:0200780001B1D4
:02007900001273
:02007A0001661D
:02007B00007013
:02007C0002EA96
:02007D00011070
:02007E0001EE91
:02007F00035329
:0200800001AECF
:0200810000700D
:0200820001A0DB
:02008300022158
:0200840001A3D6
:0200850002C0B7
:0200860002D99D
:02008700021A5B
:0200880003C3B0
:0200890001B0C4
:02008A0000D79D
:02008B00011161
:02008C00011160
:02008D00028EE1
:02008E0002323C
:02008F00038DDF
:02009000013B32
:0200910000E687
:02009200031356
:02009300036800
:02009400009BCF
:02009500005613
:020096000375F0
:0200970001C89E
:02009800024D17
:0200990003065C
:02009A0001372C
:02009B0001233F
:02009C00023A26
:02009D00032C32
:02009E0001B8A7
:02009F0002DA83
:0200A00002D08C
:0200A10000DA83
:0200A20003B1A8
:0200A300011F3B
:0200A400025404
:0200A5000384D2
:0200A6000076E2
:0200A700000A4D
:0200A800007CDA
:0200A900034C06
:0200AA000168EB
:0200AB0002FC55
:0200AC000396B9
:0200AD00022728
:0200AE0000F65A
:0200AF0001C28C
:0200B0000192BB
:0200B10000E469
:0200B20003BE8B
:0200B3000169E1
:0200B40000B496
:0200B50003FF47
:0200B600010542
:0200B700010046
:0200B80000B690
:0200B9000062E3
:0200BA0003C57C
:0200BB00024DF4
:0200BC0002CF71
:0200BD0003A698
:0200BE0002E955
:0200BF00021F1E
:0200C0000289B3
:0200C10000D766
:0200C200018BB0
:0200C300009E9D
:0200C40001BF7A
:0200C5000050E9
:0200C6000354E1
:0200C7000161D5
:0200C80000EC4A
:0200C900000035
:0200CA00005CD8
:0200CB0003939D
:0200CC0002D65A
:0200CD00031B13
:0200CE0001250A
:0200CF00018EA0
:0200D0000074BA
:0200D100021219
:0200D200023AF0
:0200D30000A388
:0200D40000D753
:0200D500021E09
:0200D60003C461
:0200D70000D255
:0200D8000027FF
:0200D90000B174
:0200DA0001041F
:0200DB0003C35D
:0200DC00038699
:0200DD0002A57A
:0200DE00039786
:0200DF0000908F
:0200E00003EE2D
:0200E10003E139
:0200E200029B7F
:0200E300026AAF
:0200E4000162B7
:0200E50001C751
:0200E60001CB4C
:0200E70003CA4A
:0200E80001EF26
:0200E90002977C
:0200EA000040D4
:0200EB000152C0
:0200EC00006BA7
:0200ED000020F1
:0200EE000331DC
:0200EF0000927D
:0200F000032CDF
:0200F1000217F4
:0200F20000B458
:0200F300024BBE
:0200F400028880
:0200F5000126E2
:0200F60001FD0A
:0200F7000153B3
:0200F80003649F
:0200F90000BB4A
:0200FA000215ED
:0200FB0000847F
:0200FC000140C1
:0200FD0001C040
:0200FE0003C439
:0200FF000148B6
:0201000000B845
:02010100008874
:0201020003BA3E
:02010300016990
:020104000130C8
:0201050002E016
:0201060002B144
:020107000118DD
:020108000320D2
:0201090001ED06
:02010A000325CB
:02010B0000EC06
:02010C00018A66
:02010D0003F5F8
:02010E00034AA2
:02010F00034D9E
:02011000000AE3
:020111000209E1
:02011200025594
:02011300025692
:0201140003F9ED
:0201150001B235
:02011600024A9B
:02011700012FB6
:02011800024B98
:0201190001FDE6
:02011A0001439F
:02011B0001766B
:02011C00009E43
:02011D00015D82
:02011E0002AF2E
:02011F00005E80
:02012000029D3E
:02012100023D9D
:0201220000BF1C
:020123000017C3
:020124000302D4
:0201250000A92F
:02012600010FC7
:0201270000A531
:0201280000A72E
:0201290002EFE3
:02012A0001F1E1
:02012B0000D7FB
:02012C00038B43
:02012D00028F3F
:02012E000313B9
:02012F000329A2
:02013000015A72
:02013100011DAE
:02013200028148
:02013300026F59
:02013400026D5A
:0201350000E6E2
:0201360000F1D6
:02013700027153
:020138000210B3
:0201390001576C
:02013A0002744D
:02013B0000883A
:02013C00035866
:02013D0003B904
:02013E000316A6
:02013F0003DAE1
:02014000013E7E
:02014100034475
:0201420002DCDD
:0201430001DEDB
:0201440002ECCB
:02014500019F18
:0201460002565F
:02014700027044
:02014800003A7B
:0201490002E4CE
:02014A0002773A
:02014B0003FFB0
:02014C00017937
:02014D0001C4EB
:02014E0000DBD4
:02014F00037734
:0201500003703A
:02015100039217
:0201520003ACFC
:02015300006E3C
:02015400039610
:020155000005A3
:02015600016A3C
:0201570000AAFC
:02015800038C16
:0201590000F9AB
:02015A0000E4BF
:02015B0000386A
:02015C0001059B
:02015D00026539
:02015E00008A15
:02015F0000B8E6
:02016000014557
:0201610001A6F5
:02016200026138
:02016300013465
:0201640000D5C4
:02016500012E69
:02016600035A3A
:02016700017421
:0201680002DDB6
:0201690000157F
:02016A0002BAD7
:02016B000192FF
:02016C0000A8E9
:02016D0001206F
:02016E00015F2F
:02016F0000F995
:0201700000A3EA
:02017100025337
:02017200014A40
:0201730001DFAA
:0201740001C9BF
:0201750003E1A4
:0201760000493E
:02017700006125
:0201780002CDB6
:0201790003750C
:02017A00037F01
:02017B0001740D
:02017C0000FC85
:02017D00031F5E
:02017E00023845
:02017F0001EF8E
:02018000032E4C
:02018100003F3D
:0201820000BCBF
:02018300017900
:0201840000E099
:02018500027105
:02018600033242
:0201870001680D
:0201880000C6AF
:02018900025121
:02018A00008BE8
:02018B00032B44
:02018C000384EA
:02018D0000145C
:02018E0000F37C
:02018F000373F8
:020190000280EB
:02019100024F1B
:020192000088E3
:02019300005416
:02019400023F28
:02019500005414
:0201960001F96D
:0201970000194D
:0201980001154F
:0201990000DD87
:02019A0000B9AA
:02019B000374EB
:02019C000171EF
:02019D000069F7
:02019E0003ABB1
:02019F0000213D
:0201A000001548
:0201A100034D0C
:0201A200035107
:0201A30002EF69
:0201A400029EB9
:0201A5000071E7
:0201A60003D57F
:0201A70002064E
:0201A80001ACA8
:0201A90002ED65
:0201AA0003ABA5
:0201AB00034D02
:0201AC0002C689
:0201AD0000A1AF
:0201AE00012628
:0201AF00020547
:0201B00002B299
:0201B100000F3D
:0201B20000E16A
:0201B3000152F7
:0201B400034FF7
:0201B5000250F6
:0201B6000384C0
:0201B70001C67F
:0201B800018BB9
:0201B90000E262
:0201BA0003B38D
:0201BB000376C9
:0201BC00033806
:0201BD0003E05D
:0201BE0003EF4D
:0201BF0003A893
:0201C00000F24B
:0201C1000356E3
:0201C2000044F7
:0201C30002C474
:0201C40003A393
:0201C5000150E7
:0201C600000A2D
:0201C70001D95C
:0201C8000261D2
:0201C900033100
:0201CA000373BD
:0201CB0000240E
:0201CC00001021
:0201CD0003A588
:0201CE000143EB
:0201CF0000F638
:0201D00000A984
:0201D10003E247
:0201D200003FEC
:0201D30000E248
:0201D40002E740
:0201D500012EF9
:0201D6000077B0
:0201D7000327FC
:0201D80001C262
:0201D900024FD3
:0201DA0000ED36
:0201DB00036EB1
:0201DC0001938D
:0201DD0000DE42
:0201DE0000D04F
:0201DF0002A775
:0201E000019785
:0201E10002A07A
:0201E20000AB70
:0201E300009783
:0201E400010117
:0201E50002878F
:0201E60003B361
:0201E70000D93D
:0201E800004EC7
:0201E9000247CB
:0201EA0000D93A
:0201EB000033DF
:0201EC000242CD
:0201ED0002E12D
:0201EE000014FB
:0201EF00018786
:0201F000010804
:0201F1000257B3
:0201F2000311F7
:0201F30002D632
:0201F4000351B5
:0201F500000206
:0201F600028D78
:0201F70002679D
:0201F8000116EE
:0201F9000227DB
:0201FA000312EE
:0201FB00036A95
:0201FC00009A67
:0201FD000246B8
:0201FE0001ED11
:0201FF000315E6
:02020000036396
:02020100026198
:0202020001D623
:020203000152A6
:0202040002A452
:02020500018D69
:0202060003E40F
:02020700018D67
:02020800008074
:0202090000B340
:02020A00004EA4
:02020B00036C82
:02020C0000529E
:02020D0003529A
:02020E0002DA12
:02020F00035E8C
:02021000038564
:020211000007E4
:02021200039C4B
:02021300034D99
:02021400021CCA
:020215000124C2
:0202160003B330
:02021700033AA8
:02021800032CB5
:0202190001548E
:02021A00017968
:02021B00017E62
:02021C0001A03F
:02021D000004DB
:02021E00012EAF
:02021F0003A634
:020220000038A4
:0202210001BF1B
:02022200017069
:02022300026E69
:02022400025581
:0202250000B324
:02022600035F74
:0202270002775C
:020228000029AB
:0202290000E1F2
:02022A0003537C
:02022B00005180
:02022C0002F9D5
:02022D00008B44
:02022E00009E30
:02022F0000E7E6
:02023000017754
:02023100006A61
:02023200024C7C
:0202330001C9FF
:0202340003E5E0
:0202350003CCF8
:0202360002FDC7
:02023700013193
:02023800006064
:0202390000D0F3
:02023A0001229F
:02023B000213AC
:02023C0002BD01
:02023D0000952A
:02023E00032596
:02023F00008934
:0202400000FAC2
:0202410002F2C7
:02024200036D4A
:02024300019127
:0202440002DADC
:0202450003159F
:02024600005E58
:0202470003337F
:02024800024B67
:0202490002DBD6
:02024A00003979
:02024B00004D64
:02024C0003208D
:02024D00032F7D
:02024E0001525B
:02024F0000B7F6
:0202500002EFBB
:0202510003C9DF
:0202520001A504
:020253000107A1
:020254000107A0
:02025500030A9A
:0202560002C4E0
:02025700025B48
:0202580002683A
:0202590001C8DA
:02025A0001CCD5
:02025B00023A65
:02025C00011986
:02025D00031587
:02025E0002F6A6
:02025F00022F6C
:02026000007B21
:02026100000A91
:02026200017821
:0202630003C8CE
:02026400008810
:02026500037B19
:02026600030F84
:02026700000A8B
:020268000199FA
:02026900017E14
:02026A0003C6C9
:02026B0002FD92
:02026C0000513F
:02026D00031A72
:02026E00016C21
:02026F0003A7E3
:0202700000B3D9
:0202710001FF8B
:02027200035136
:02027300031E68
:0202740002295D
:0202750003C6BE
:0202760001CEB7
:02027700008302
:0202780002B6CC
:0202790001C9B9
:02027A00017C05
:02027B00002A57
:02027C0002B2CC
:02027D00005629
:02027E00030F6C
:02027F00034A30
:0202800003DF9A
:02028100024534
:020282000287F1
:02028300032F47
:02028400013542
:02028500004A2D
:020286000293E1
:0202870000B7BE
:02028800020F63
:02028900005221
:02028A0003F57A
:02028B0003D09E
:02028C000176F9
:02028D0000F07F
:02028E0000E985
:02028F00027FEC
:0202900001A0CB
:020291000092D9
:02029200004E1C
:02029300005712
:0202940002E581
:0202950000ABBC
:0202960000E97D
:0202970001A2C2
:02029800035908
:02029900012B37
:02029A0000D48E
:02029B0002A4BB
:02029C0001B6A9
:02029D00037DDF
:02029E0000421C
:02029F0002C794
:0202A000009CC0
:0202A10001C793
:0202A200010950
:0202A30003B6A0
:0202A40001CE89
:0202A50001FC5A
:0202A6000197BE
:0202A700006CE9
:0202A80001341F
:0202A900010D45
:0202AA00000250
:0202AB000080D1
:0202AC0003D479
:0202AD0001DE70
:0202AE00011F2E
:0202AF0002EB60
:0202B000031A2F
:0202B100004902
:0202B20003A5A2
:0202B300014503
:0202B40003AD98
:0202B500003B0C
:0202B60002FA4A
:0202B7000292B1
:0202B800006CD8
:0202B90000B68D
:0202BA0002261A
:0202BB000252ED
:0202BC000176C9
:0202BD000279C4
:0202BE00030E2D
:0202BF000387B3
:0202C000030534
:0202C100035DDB
:0202C200010930
:0202C3000352E4
:0202C400004AEE
:0202C50000AD8A
:0202C60003D85B
:0202C700001F16
:0202C800026AC8
:0202C9000270C1
:0202CA0002A090
:0202CB000040F1
:0202CC00032409
:0202CD00021F0E
:0202CE0002919B
:0202CF0000CB62
:0202D00003C762
:0202D1000137F3
:0202D20001C267
:0202D300009C8D
:0202D40003DF46
:0202D5000064C3
:0202D60001D253
:0202D70002A47F
:0202D80003EF32
:0202D90001C65C
:0202DA0002F32D
:0202DB0001031D
:0202DC000056CA
:0202DD000024FB
:0202DE000252CA
:0202DF0003A674
:0202E00003CA4F
:0202E100011703
:0202E20000BF5B
:0202E30002CF48
:0202E400021402
:0202E500003BDC
:0202E60001BD58
:0202E70001D53F
:0202E80002C151
:0202E900015BB7
:0202EA00018B86
:0202EB0001C54B
:0202EC0003AA63
:0202ED000361AB
:0202EE00002BE3
:0202EF0003EC1E
:0202F000038B7E
:0202F10002AC5D
:0202F20003CC3B
:0202F300006B9E
:0202F40000AD5B
:0202F50003AC58
:0202F600037390
:0202F70000BA4B
:0202F800034CB5
:0202F90001AA58
:0202FA00013EC3
:0202FB00025FA0
:0202FC000032CE
:0202FD0000D32C
:0202FE000121DC
:0202FF0000FC01
:020300000321D7
:020301000112E7
:020302000355A1
:02030300014FA8
:020304000140B6
:02030500006294
:0203060002AB48
:020307000331C0
:0203080003C32D
:02030900012BC6
:02030A000320CE
:02030B000035BB
:02030C0001F6F8
:02030D0000D11D
:02030E00001ECF
:02030F00021FCB
:020310000008E3
:0203110001F2F7
:0203120002EDFA
:0203130000F9EF
:0203140000FBEC
:0203150002C123
:020316000128BC
:0203170001CD16
:02031800016181
:02031900038E51
:02031A0002CB14
:02031B0000944C
:02031C0001746A
:02031D0000B529
:02031E0000BB22
:02031F0002E4F6
:02032000035088
:02032100016376
:020322000321B5
:0203230001D007
:02032400019046
:02032500015E77
:0203260003577B
:0203270000983C
:0203280000FDD6
:0203290003AE21
:02032A00027659
:02032B00026E60
:02032C00037854
:02032D00007757
:02032E00036961
:02032F00011BB0
:02033000018347
:02033100038C3B
:020332000104C4
:0203330002E0E6
:0203340000FFC8
:02033500024084
:02033600009332
:0203370000D5EF
:0203380002E9D8
:0203390001D8E9
:02033A00037846
:02033B0000CCF4
:02033C0001D0EE
:02033D00017449
:02033E0001C6F6
:02033F0003CFEA
:0203400003A90F
:02034100005763
:02034200000EAB
:0203430003F4C1
:02034400002493
:0203450003F5BE
:0203460001971D
:02034700026C46
:0203480002BAF7
:0203490001EBC6
:02034A00027A35
:02034B0001CDE2
:02034C00008F20
:02034D00023B71
:02034E00017A32
:02034F000008A4
:0203500002A405
:02035100011A8F
:02035200025651
:02035300003D6B
:0203540003E0C4
:02035500014263
:02035600039111
:0203570001079C
:0203580002E3BE
:02035900019C05
:02035A00008D14
:02035B00023E60
:02035C00004F50
:02035D00037328
:02035E00036B2F
:02035F00030A8F
:02036000005F3C
:02036100005644
:02036200031B7B
:0203630003EAAB
:02036400011383
:02036500000E88
:02036600014351
:02036700007123
:0203680000385B
:0203690002820E
:02036A00002B66
:02036B00014847
:02036C0000F897
:02036D00019CF1
:02036E00007419
:02036F00021872
:02037000021871
:0203710003394E
:02037200034C3A
:02037300035D28
:02037400037B09
:0203750002F193
:02037600001570
:02037700005A2A
:02037800007310
:02037900000A78
:02037A00022F50
:02037B0000C4BC
:02037C00010579
:02037D00034932
:02037E0002FD7E
:02037F0002C4B6
:02038000005427
:020381000098E2
:0203820003A3D3
:02038300009BDD
:0203840001E393
:02038500010372
:0203860002A2D1
:020387000286EC
:0203880003C9A7
:020389000074FE
:02038A0001E28E
:02038B000092DE
:02038C00001D52
:02038D00036407
:02038E00004825
:02038F00001854
:02039000030464
:0203910000A5C5
:02039200039BCB
:0203930001CF98
:02039400003E29
:0203950003253E
:0203960001FF65
:02039700034A17
:0203980000D291
:02039900039FC0
:02039A0003D688
:02039B0000C69A
:02039C0000FC63
:02039D00024C10
:02039E000185D7
:02039F0002D981
:0203A00001A7B3
:0203A1000064F6
:0203A20000DF7A
:0203A300001345
:0203A400021144
:0203A50002361E
:0203A600032D25
:0203A700029CB6
:0203A80001A7AB
:0203A9000068EA
:0203AA00024C03
:0203AB00020C42
:0203AC000179D5
:0203AD0001AF9E
:0203AE0002E962
:0203AF0000C18B
:0203B00001FE4C
:0203B1000089C1
:0203B20001A4A4
:0203B30001C483
:0203B4000089BE
:0203B50000E165
:0203B60000EA5B
:0203B700021131
:0203B80000F74C
:0203B9000161E0
:0203BA000276C9
:0203BB000296A8
:0203BC000342FA
:0203BD00014DF0
:0203BE0000E954
:0203BF000144F7
:0203C00000FD3E
:0203C10001FF3A
:0203C200013602
:0203C300030A2B
:0203C400031F15
:0203C5000037FF
:0203C6000079BC
:0203C700013BF8
:0203C80003210F
:0203C90002121E
:0203CA0001220E
:0203CB0002D955
:0203CC0000E44B
:0203CD0000210D
:0203CE0000D459
:0203CF000286A4
:0203D00003F731
:0203D100033BEC
:0203D200019791
:0203D30003AC79
:0203D400014ED8
:0203D50001BB6A
:0203D6000368BA
:0203D70003F829
:0203D8000077AC
:0203D9000139E8
:0203DA0001D54B
:0203DB00011D02
:0203DC000139E5
:0203DD0003B863
:0203DE000141DB
:0203DF0001ED2E
:0203E00001100A
:0203E100014DCC
:0203E200009089
:0203E3000029EF
:0203E400008196
:0203E50001878E
:0203E6000258BB
:0203E7000173A0
:0203E800009281
:0203E90000BA58
:0203EA00026CA3
:0203EB00013AD5
:0203EC00002CE3
:0203ED00019F6E
:0203EE00032BDF
:0203EF0001C348
:0203F00001A664
:0203F100027A8E
:0203F200031BEB
:0203F30001C344
:0203F40003F80C
:0203F50002AC58
:0203F600020CF7
:0203F70001976C
:0203F800002ED5
:0203F900000101
:0203FA00029A65
:0203FB0000CA36
:0203FC0002BC41
:0203FD000003FB
:0203FE00036B8F
:0203FF000334C5
:0204000000E713
:020401000157A1
:0204020000B741
:0204030002B045
:020404000204F0
:020405000112E2
:02040600016E85
:0204070003F3FD
:020408000104ED
:02040900002BC6
:02040A0000846C
:02040B0000549B
:02040C0001539A
:02040D0000905D
:02040E00027773
:02040F0002C326
:02041000009C4E
:02041100028E59
:02041200025294
:020413000140A6
:0204140003DC07
:020415000218CB
:020416000341A0
:020417000219C8
:02041800009052
:020419000023BE
:02041A00019748
:02041B000119C5
:02041C000236A6
:02041D0003C416
:02041E000021BB
:02041F0000F6E5
:02042000035186
:02042100038F47
:02042200018453
:02042300006671
:0204240002D6FE
:0204250002A231
:02042600015281
:02042700037B55
:02042800014B86
:02042900023C93
:02042A0001408F
:02042B0000A12E
:02042C000208C4
:02042D00028645
:02042E00029F2B
:02042F000224A5
:02043000007159
:020431000014B5
:02043200033491
:02043300034183
:02043400011AAB
:02043500010BB9
:0204360002B111
:0204370001388A
:020438000315AA
:02043900022996
:02043A0003C8F5
:02043B0000AD12
:02043C0000EAD4
:02043D00001E9F
:02043E00013883
:02043F00029F1A
:020440000205B3
:0204410000B108
:02044200033B7A
:0204430001B7FF
:0204440003A310
:0204450003C3EF
:02044600007F35
:02044700038828
:020448000204AC
:02044900009021
:02044A00032885
:02044B00014D61
:02044C0001BDF0
:02044D0002E2C9
:02044E00026941
:02044F00017931
:0204500000A703
:020451000000A9
:0204520002FBAB
:02045300008225
:0204540002F0B4
:0204550003FBA7
:0204560000E2C2
:02045700024B56
:02045800005F43
:0204590002920D
:02045A0003F8A5
:02045B0002F5A8
:02045C0001613C
:02045D0000A8F5
:02045E00016F2C
:02045F00000B90
:02046000002674
:0204610000CDCC
:0204620000AAEE
:0204630001BED8
:02046400018015
:0204650000E2B3
:02046600005341
:0204670003AAE6
:02046800023858
:0204690002C1CE
:02046A00038508
:02046B00023A53
:02046C00000B83
:02046D00018A02
:02046E0002D7B3
:02046F00037E0A
:02047000028107
:02047100027314
:02047200012F58
:02047300003453
:02047400006422
:0204750002186B
:02047600012C57
:0204770000F98A
:0204780000384A
:0204790001443C
:02047A0001DCA3
:02047B0003205C
:02047C0001D8A5
:02047D00022B50
:02047E0003D1A8
:02047F0001D3A7
:0204800002F781
:02048100013741
:02048200024135
:02048300031B59
:02048400006A0C
:02048500022C47
:0204860003EE83
:0204870000BDB6
:0204880003254A
:02048900011759
:02048A0000264A
:02048B00014A24
:02048C00010B62
:02048D00035A10
:02048E0003B9B0
:02048F0001303A
:02049000021E4A
:02049100009ACF
:02049200020066
:02049300036FF5
:02049400015015
:020495000399C9
:0204960001D291
:0204970002F26F
:02049800017BE6
:020499000372EC
:02049A00024F0F
:02049B00031E3E
:02049C00026BF1
:02049D00003D20
:02049E0000203C
:02049F00011E3C
:0204A00001CD8C
:0204A100005009
:0204A200022B2B
:0204A300008BCC
:0204A400001541
:0204A50000DC79
:0204A600029FB3
:0204A700007FD4
:0204A80001450C
:0204A900031539
:0204AA0003C08D
:0204AB000075DA
:0204AC00022626
:0204AD00010547
:0204AE0000F557
:0204AF00014CFE
:0204B00000FD4D
:0204B1000278CF
:0204B2000396AF
:0204B30001FA4C
:0204B400028CB8
:0204B50001DC68
:0204B600000242
:0204B70000A0A3
:0204B80002CB75
:0204B9000144FC
:0204BA0002340A
:0204BB00035FDD
:0204BC00020735
:0204BD00031426
:0204BE0002D169
:0204BF00013703
:0204C00001A693
:0204C100032412
:0204C200003BFD
:0204C30002F243
:0204C40000EF47
:0204C500035FD3
:0204C60002EE44
:0204C70003E848
:0204C80002131D
:0204C90000C968
:0204CA0002FE30
:0204CB00030A22
:0204CC00030229
:0204CD000064C9
:0204CE000051DB
:0204CF00037AAE
:0204D000021117
:0204D10003CD59
:0204D200000622
:0204D30001A185
:0204D400030E15
:0204D500024BD8
:0204D60000E341
:0204D70003F32D
:0204D8000023FF
:0204D90001A37D
:0204DA000059C7
:0204DB00038E8E
:0204DC00023AE2
:0204DD0002CC4F
:0204DE00035EBB
:0204DF00018397
:0204E000026FA9
:0204E10002DE39
:0204E2000321F4
:0204E300032BE9
:0204E400025CB8
:0204E50003C64C
:0204E60001F91A
:0204E7000331DF
:0204E8000126EB
:0204E9000126EA
:0204EA00001DF3
:0204EB00027C91
:0204EC000046C8
:0204ED000138D4
:0204EE00006CA0
:0204EF0000AF5C
:0204F000005AB0
:0204F1000164A4
:0204F2000155B2
:0204F3000136D0
:0204F40001B84D
:0204F5000335CD
:0204F600017390
:0204F70003F010
:0204F80001956C
:0204F900011BE5
:0204FA0000A45C
:0204FB0001ED11
:0204FC00027587
:0204FD00030EEC
:0204FE00004FAD
:0204FF00026A8F
:020500000108F0
:02050100038174
:0205020000B443
:020503000337BC
:02050400010AEA
:020505000004F0
:02050600013FB3
:0205070001CF22
:020508000209E6
:020509000211DD
:02050A00019658
:02050B0003E00B
:02050C0003CF1B
:02050D0003DE0B
:02050E000220C9
:02050F000037B3
:02051000038561
:0205110000E9FF
:0205120000D314
:0205130003657E
:02051400004A9B
:0205150002DF03
:020516000217CA
:02051700005F83
:0205180003DD01
:02051900026777
:02051A000137A7
:02051B00016776
:02051C0003706A
:02051D00037C5D
:02051E00017D5D
:02051F0000B228
:02052000003E9B
:0205210002B224
:02052200026372
:020523000121B4
:02052400007362
:02052500017063
:0205260000C40F
:0205270002E8E8
:0205280003BB13
:0205290002CD01
:02052A00036369
:02052B00004589
:02052C0003FAD0
:02052D00007755
:02052E00038345
:02052F00025D6B
:020530000214B3
:02053100031BAA
:0205320001AC1A
:0205330001A81D
:02053400027E45
:02053500032C95
:02053600027E43
:0205370002D1EF
:020538000202BD
:0205390001B10E
:02053A00032894
:02053B00033B80
:02053C00025E5D
:02053D0000C7F5
:02053E00022396
:02053F0001E8D1
:0205400003189E
:02054100005761
:0205420003FFB5
:0205430003FCB7
:0205440001D8DC
:0205450002D9D9
:0205460003D8D8
:0205470001575A
:0205480003743A
:0205490001F0BF
:02054A00003B74
:02054B0001733A
:02054C00003A73
:02054D0002EFBB
:02054E00038C1C
:02054F0003C9DE
:0205500000DDCC
:0205510003B7EE
:0205520000F0B7
:0205530000BBEB
:0205540002FCA7
:0205550003366B
:0205560000940F
:0205570001FAA7
:0205580001C9D7
:0205590002247A
:02055A0000DDC2
:02055B00034F4C
:02055C00029B00
:02055D00037E1B
:02055E00025E3B
:02055F00033D5A
:0205600001C4D4
:02056100016A2D
:02056200010C8A
:02056300037B18
:0205640002E9AA
:02056500016F24
:02056600009201
:0205670001C1D0
:0205680001DCB4
:02056900017D12
:02056A00010589
:02056B00004D41
:02056C0002FB90
:02056D00005933
:02056E00035434
:02056F00028503
:02057000002A5F
:02057100023F47
:02057200024A3B
:02057300018EF7
:02057400011173
:02057500015033
:0205760002A1E0
:0205770000F58D
:0205780003D5A9
:02057900028BF3
:02057A00001768
:02057B00031A61
:02057C0001C6B6
:02057D00021664
:02057E0001BCBE
:02057F0001FF7A
:0205800003DD99
:0205810003F580
:02058200029DD8
:0205830003DE95
:0205840003670B
:02058500007FF5
:02058600024928
:020587000377F8
:02058800026F00
:0205890001323D
:02058A00018CE2
:02058B0000F876
:02058C00007AF3
:02058D0000F874
:02058E0002D693
:02058F00024C1C
:02059000032D39
:0205910000F870
:0205920002EA7B
:0205930003EC77
:02059400028CD7
:0205950001085B
:02059600015E04
:02059700012F32
:0205980001C799
:0205990000342C
:02059A00012F2F
:02059B00010558
:02059C0003DF7B
:02059D00017DDE
:02059E00015604
:02059F00028CCC
:0205A00003F75F
:0205A100001B3D
:0205A200014B0B
:0205A300015005
:0205A40001EC68
:0205A500005103
:0205A6000193BF
:0205A700024E02
:0205A800030B43
:0205A90003BA93
:0205AA00004A05
:0205AB00001F2F
:0205AC000267E4
:0205AD00021832
:0205AE0001BA90
:0205AF00038CBB
:0205B0000197B1
:0205B1000186C1
:0205B20000BC8B
:0205B300005AEC
:0205B400011034
:0205B5000363DE
:0205B6000387B9
:0205B700016ED3
:0205B80000A39E
:0205B9000079C7
:0205BA0003E557
:0205BB0001BC81
:0205BC00004AF3
:0205BD0001BB80
:0205BE0003F048
:0205BF000067D3
:0205C0000068D1
:0205C10000DA5E
:0205C200027CB9
:0205C3000193A2
:0205C4000259DA
:0205C500007DB7
:0205C600038FA1
:0205C70002C16F
:0205C800010E22
:0205C90001111E
:0205CA00011816
:0205CB000359D2
:0205CC000181AB
:0205CD00011714
:0205CE000352D6
:0205CF00011E0B
:0205D000032303
:0205D10001BD6A
:0205D200010125
:0205D30000BF67
:0205D4000081A4
:0205D5000367BA
:0205D600007CA7
:0205D700026FB1
:0205D80003938B
:0205D900021608
:0205DA0003B963
:0205DB00021DFF
:0205DC000275A6
:0205DD0001D04B
:0205DE0000E635
:0205DF000021F9
:0205E00003A670
:0205E100036BAA
:0205E200030113
:0205E30001B75E
:0205E40002B162
:0205E50000B262
:0205E600022AE7
:0205E700018091
:0205E80000868B
:0205E900010B04
:0205EA00006CA3
:0205EB0003C942
:0205EC00001AF3
:0205ED0001EC1F
:0205EE0001A565
:0205EF00034ABD
:0205F00002B453
:0205F1000364A1
:0205F20000A463
:0205F300016D98
:0205F40000877E
:0205F5000059AB
:0205F6000329D7
:0205F70002DE22
:0205F8000119E7
:0205F9000349B4
:0205FA0002916C
:0205FB0003D625
:0205FC0003AF4B
:0205FD00027783
:0205FE000047B4
:0205FF0000E713
:0206000003EE07
:0206010000A94E
:020602000211E3
:02060300030EE4
:020604000205ED
:02060500014CA6
:0206060002D818
:0206070000668B
:02060800037677
:02060900012FBF
:02060A0002AE3E
:02060B0000836A
:02060C000336B3
:02060D0002EEFB
:02060E00039156
:02060F0000EFFA
:0206100002588E
:020611000305DF
:0206120001D60F
:0206130001855F
:0206140000677D
:0206150000B72C
:02061600005A88
:0206170000F7EA
:0206180003EDF0
:02061900025D80
:02061A00013E9F
:02061B000133A9
:02061C00029A40
:02061D0001A535
:02061E000232A6
:02061F0003E2F4
:02062000021CBA
:020621000024B3
:0206220000C115
:0206230002A62D
:02062400004292
:0206250003C010
:020626000300CF
:0206270003C608
:02062800036667
:020629000317B5
:02062A0003DDEE
:02062B00025C6F
:02062C000303C6
:02062D00020EBB
:02062E00037B4C
:02062F0002F6D1
:020630000002C6
:0206310001E4E2
:0206320003942F
:0206330003DEE4
:02063400014380
:0206350001FFC3
:0206360000249E
:02063700019729
:0206380003C3FA
:02063900000EB1
:02063A00038536
:02063B00030FAB
:02063C00035168
:02063D00008F2C
:02063E0002FABE
:02063F0002793E
:0206400002BFF7
:02064100032C88
:020642000307AC
:02064300013480
:02064400007B39
:02064500034F61
:0206460003F6B9
:02064700008031
:0206480002A707
:02064900001798
:02064A00020CA0
:02064B0001B7F5
:02064C0003E7C2
:02064D00013E6C
:02064E00022B7D
:02064F0002DFC8
:02065000035154
:02065100032C78
:0206520001FAAB
:0206530002FBA8
:02065400013F64
:0206550003851B
:02065600006E34
:0206570002524D
:0206580003524B
:0206590001514D
:02065A00020B91
:02065B0002ECAF
:02065C00012576
:02065D0001AFEB
:02065E00017128
:02065F0000E6B3
:02066000005F39
:0206610003F4A0
:0206620003A0F3
:0206630002F69D
:02066400015D36
:0206650002266B
:02066600004C46
:02066700028A05
:02066800037A13
:02066900016628
:02066A00026D1F
:02066B0000721B
:02066C00013853
:02066D00021574
:02066E00005F2B
:02066F00010880
:0206700000EE9A
:020671000095F2
:02067200007016
:02067300008EF7
:0206740000FB89
:02067500014F33
:02067600012958
:0206770003BDC1
:0206780000245C
:0206790001413D
:02067A0001B9C4
:02067B0003E199
:02067C00020B6F
:02067D00023B3E
:02067E00022553
:02067F00036412
:0206800003690C
:02068100033A3A
:0206820003DE95
:02068300021360
:02068400025A18
:0206850000F87B
:02068600020A66
:02068700017CF4
:0206880002FB73
:0206890001EF7F
:02068A0001AFBE
:02068B00014B21
:02068C00038CDD
:02068D00031157
:02068E0002590F
:02068F000399CD
:0206900000CD9B
:0206910003C4A0
:02069200022F35
:0206930001560E
:02069400026FF3
:020695000291D0
:020696000264FC
:020697000290CF
:020698000369F4
:02069900011648
:02069A0003A7B4
:02069B0002C893
:02069C00020F4B
:02069D0000E576
:02069E000259FF
:02069F000164F4
:0206A00000DE7A
:0206A10003391B
:0206A20002D381
:0206A30001E371
:0206A4000256FC
:0206A50001DB77
:0206A600020C44
:0206A70000420F
:0206A80001A3AC
:0206A900032527
:0206AA000182CB
:0206AB00014705
:0206AC0002DE6C
:0206AD000258F1
:0206AE0003C681
:0206AF0002DC6B
:0206B000033312
:0206B100003017
:0206B20000E660
:0206B3000075D0
:0206B400018FB4
:0206B50002C67B
:0206B6000298A8
:0206B700032E10
:0206B800027BC3
:0206B9000271CC
:0206BA00008EB0
:0206BB00024EED
:0206BC0000F14B
:0206BD00018BAF
:0206BE0000D961
:0206BF00039D99
:0206C0000243F3
:0206C10001191D
:0206C200002F07
:0206C3000369C9
:0206C400028CA6
:0206C50001131F
:0206C6000245EB
:0206C7000149E7
:0206C80001220D
:0206C9000088A7
:0206CA00020923
:0206CB00000A23
:0206CC0000BE6E
:0206CD00022405
:0206CE00021117
:0206CF00022AFD
:0206D00003D253
:0206D100005CCB
:0206D20000C75F
:0206D30002180B
:0206D40000E044
:0206D50001B072
:0206D60000E43E
:0206D700029986
:0206D80002C559
:0206D9000138E6
:0206DA000174A9
:0206DB0002FF1C
:0206DC0000FE1E
:0206DD00029386
:0206DE000278A0
:0206DF00038096
:0206E000001701
:0206E10002868F
:0206E200010213
:0206E3000172A2
:0206E400019D76
:0206E5000326EA
:0206E6000364AB
:0206E70003A668
:0206E80000ED23
:0206E900000E01
:0206EA0001D23B
:0206EB0002AF5C
:0206EC00030207
:0206ED0002E227
:0206EE00025CAC
:0206EF00013ACE
:0206F0000309FC
:0206F100035DA7
:0206F200015EA7
:0206F300002ADB
:0206F40002BA48
:0206F50003AE52
:0206F60001B44D
:0206F700032AD4
:0206F8000230CE
:0206F90000E916
:0206FA00012FCE
:0206FB00009F5E
:0206FC0000CE2E
:0206FD000310E8
:0206FE00008A70
:0206FF000247B0
:020700000110E6
:0207010001876E
:02070200002ACB
:020703000143B0
:0207040000FAF9
:02070500033AB5
:0207060003D816
:02070700026787
:02070800026687
:02070900030EDD
:02070A00038961
:02070B0002B337
:02070C00035197
:02070D00000FDB
:02070E0003499D
:02070F000340A5
:02071000020ADB
:0207110001A342
:0207120003AE34
:0207130001E201
:0207140001875B
:0207150003ECF3
:020716000228B7
:02071700011BC4
:0207180001914D
:020719000012CC
:02071A000109D3
:02071B0000B626
:02071C0003399F
:02071D0000607A
:02071E000004D5
:02071F0001B91E
:0207200000DCFB
:0207210000C214
:02072200006F66
:0207230002DEF4
:0207240002C60B
:0207250002BE12
:02072600014F81
:0207270000A828
:0207280002E9E4
:02072900020EBE
:02072A0003D3F7
:02072B0001E4E7
:02072C0001B515
:02072D00008347
:02072E00038640
:02072F0003B60F
:0207300001E1E5
:0207310002A81C
:02073200029231
:0207330001FAC9
:020734000103BF
:0207350003B807
:0207360001F1CF
:02073700036558
:0207380003912B
:0207390001F0CD
:02073A0001AE0E
:02073B0001D7E4
:02073C00016852
:02073D000304B3
:02073E00015662
:02073F0002CBEB
:0207400001AF07
:02074100000DA9
:0207420003FDB5
:0207430003377A
:02074400035E52
:020745000208A8
:02074600008E23
:020747000005AB
:0207480001832B
:0207490001F4B9
:02074A00020D9E
:02074B00025555
:02074C00034860
:02074D00011D8C
:02074E0003F4B2
:02074F0003C8DD
:02075000005255
:0207510001594C
:02075200023D66
:0207530002653D
:02075400010E94
:0207550001366B
:0207560001BDE3
:02075700015F40
:0207580002CCD1
:02075900005D41
:02075A00005845
:02075B0000E5B7
:02075C00000D8E
:02075D00039EF9
:02075E0001494F
:02075F000298FE
:0207600000E1B6
:02076100016D28
:02076200015A3A
:0207630001850E
:0207640002D0C1
:0207650001CDC4
:02076600030688
:0207670002D8B6
:02076800016F1F
:0207690002D0BC
:02076A0002FB90
:02076B000196F5
:02076C00025930
:02076D0000B5D5
:02076E0003E6A0
:02076F00033451
:0207700001A0E6
:02077100020480
:02077200032B57
:0207730003A1E0
:0207740001DDA5
:02077500002062
:0207760000B2CF
:02077700017C03
:02077800006C13
:02077900033249
:02077A00036416
:02077B000282F8
:02077C0001CCAE
:02077D00026810
:02077E00015721
:02077F000383F2
:0207800001AEC8
:02078100005323
:0207820003FB77
:0207830000EF85
:02078400034B25
:02078500031E51
:02078600005021
:020787000290DE
:020788000186E8
:0207890000A1CD
:02078A00032F3B
:02078B00005517
:02078C00033731
:02078D0002A6C2
:02078E000169FF
:02078F00022343
:0207900003570D
:0207910003451E
:02079200003233
:02079300003430
:0207940001352D
:0207950000F171
:02079600011848
:02079700033924
:0207980000B5AA
:0207990002AEAE
:02079A00025902
:02079B0000AFAD
:02079C000278E1
:02079D000077E3
:02079E0003292D
:02079F0002FF57
:0207A00000480F
:0207A100032E25
:0207A20003AAA8
:0207A30001ADA6
:0207A40000F65D
:0207A500010C45
:0207A6000182CE
:0207A70001AAA5
:0207A80000BD92
:0207A90001C489
:0207AA0003C783
:0207AB00017DCE
:0207AC000197B3
:0207AD0002BA8E
:0207AE00033412
:0207AF000152F5
:0207B000034103
:0207B100030241
:0207B2000282C1
:0207B300036DD4
:0207B4000375CB
:0207B500000240
:0207B6000290AF
:0207B70000330D
:0207B800022914
:0207B9000151EC
:0207BA000289B2
:0207BB00027BBF
:0207BC0001D06A
:0207BD0000E852
:0207BE00002613
:0207BF0003A194
:0207C0000382B2
:0207C100039C97
:0207C20003D45E
:0207C30003CA67
:0207C400030E22
:0207C50001042D
:0207C60000F839
:0207C70002141A
:0207C800036FBD
:0207C90003CB60
:0207CA00021813
:0207CB0000D557
:0207CC0002AC7D
:0207CD0001F534
:0207CE0000EB3E
:0207CF0001C364
:0207D000026FB6
:0207D10000E442
:0207D20002E241
:0207D30002041E
:0207D40003D14F
:0207D50001B56C
:0207D60000F22F
:0207D70002A678
:0207D80003DA42
:0207D9000167B6
:0207DA0000130A
:0207DB00009587
:0207DC000360B8
:0207DD0000D248
:0207DE000145D3
:0207DF0000E137
:0207E000038F85
:0207E100014ACB
:0207E20001DB39
:0207E30000E92B
:0207E40001EB27
:0207E5000063AF
:0207E600038F7F
:0207E70002937B
:0207E80000858A
:0207E9000054BA
:0207EA0000BA53
:0207EB0000828A
:0207EC00022BDE
:0207ED000016F4
:0207EE0000B653
:0207EF000220E6
:0207F000027F86
:0207F10003B251
:0207F20003A75B
:0207F30003FF02
:0207F40002629F
:0207F500004AB8
:0207F600030AF4
:0207F70003DE1F
:0207F80003F408
:0207F9000040BE
:0207FA0001A854
:0207FB0000F507
:0207FC0002C237
:0207FD0003985F
:0207FE0003ED09
:0207FF000002F6
:00000001ff
