:020000040000FA
:020000000000FE
:02000100007F7E
:0200020003FEFB
:02000300017981
:0200040003EC0B
:02000500024FA8
:02000600039B5A
:0200070002C530
:0200080002C133
:02000900028271
:02000A0000F7FD
:02000B00010FE3
:02000C0001B73A
:02000D0001D917
:02000E00005F91
:02000F00002FC0
:02001000002FBF
:020011000343A7
:02001200004CA0
:02001300022ABF
:0200140003BC2B
:0200150003DE08
:02001600016B7C
:02001700033CA8
:020018000027BF
:020019000303DF
:02001A0002A240
:02001B0001D80A
:02001C0003736C
:02001D0002439C
:02001E000114CB
:02001F0002B12C
:0200200001E4F9
:02002100017468
:020022000027B5
:0200230000C01B
:020024000204D4
:0200250002B126
:0200260001884F
:02002700014690
:0200280000A72F
:02002900026370
:02002A0001359E
:02002B0003D2FE
:02002C0000F0E2
:02002D0003428C
:02002E00017A55
:02002F00024786
:02003000005975
:02003100025C6F
:0200320002FBCF
:0200330000E0EB
:0200340002B315
:02003500031AAC
:0200360000BA0E
:02003700023590
:02003800022E96
:0200390003447E
:02003A000016AE
:02003B00034080
:02003C00035E61
:02003D000308B6
:02003E0000D8E8
:02003F00036359
:02004000013D80
:0200410000FBC2
:02004200012F8C
:02004300006754
:02004400013386
:02004500022196
:0200460001BAFD
:02004700028A2B
:0200480003199A
:0200490001EDC7
:02004A00018C27
:02004B00007B38
:02004C00013A77
:02004D00024C63
:02004E00022F7F
:02004F0003624A
:0200500000604E
:0200510003A505
:0200520003A900
:0200530002E5C4
:0200540003CFD8
:0200550000DDCC
:02005600008028
:02005700012C7A
:02005800015154
:02005900035E44
:02005A0001C0E3
:02005B0002E4BD
:02005C0001346D
:02005D00031985
:02005E0002FCA2
:02005F00034359
:0200600002524A
:02006100028D0E
:02006200025743
:02006300000F8C
:02006400021682
:0200650002C8CF
:02006600008216
:0200670001A0F6
:02006800007B1B
:02006900036A28
:02006A0000C6CE
:02006B0002E3AE
:02006C0000167C
:02006D0002B0DF
:02006E0001048B
:02006F0001612D
:02007000021676
:0200710001701C
:0200720001BBD0
:02007300014149
:02007400024C3C
:02007500032264
:02007600020B7B
:02007700014C3A
:0200780003285B
:0200790001E2A2
:02007A0003BAC7
:02007B0002F190
:02007C0001C4BD
:02007D0002720D
:02007E00033548
:02007F00024835
:0200800001E598
:0200810000433A
:020082000398E1
:02008300021A5F
:0200840001FD7C
:02008500017305
:0200860002AEC8
:0200870003DE96
:02008800033142
:0200890002D69D
:02008A0000F87C
:02008B0003C2AE
:02008C00015E13
:02008D0003F47A
:02008E0001ACC3
:02008F0000ABC4
:02009000031754
:02009100031258
:0200920002BEAC
:02009300003D2E
:0200940001AFBA
:02009500013137
:0200960000E088
:0200970002DA8B
:0200980001382D
:0200990002144F
:02009A000387DA
:02009B0003A7B9
:02009C00008AD8
:02009D0000451C
:02009E0000EC74
:02009F000090CF
:0200A00001431A
:0200A100011547
:0200A200021347
:0200A300024D0C
:0200A40003CD8A
:0200A500009FBA
:0200A60002CE88
:0200A7000061F6
:0200A8000360F3
:0200A90001D183
:0200AA0001BB98
:0200AB00012032
:0200AC0002044C
:0200AD000269E6
:0200AE00004F01
:0200AF0001B599
:0200B000009AB4
:0200B10002FB50
:0200B20002D377
:0200B300021F2A
:0200B40002D771
:0200B50002F354
:0200B600006DDB
:0200B70001390D
:0200B800034DF6
:0200B900009DA8
:0200BA00031B26
:0200BB0000BB88
:0200BC00036CD3
:0200BD00011E22
:0200BE0003C07D
:0200BF00013FFF
:0200C0000387B4
:0200C1000084B9
:0200C200021F1B
:0200C3000242F7
:0200C40002D464
:0200C50001BD7B
:0200C60000E157
:0200C70002270E
:0200C8000371C2
:0200C90002A291
:0200CA00019B98
:0200CB00023CF5
:0200CC000266CA
:0200CD0003F638
:0200CE0000CA66
:0200CF0002BD70
:0200D00003AB80
:0200D100016DBF
:0200D20001DD4E
:0200D30002D356
:0200D400022503
:0200D50001A97F
:0200D6000334F1
:0200D700009B8C
:0200D80003AF74
:0200D9000242E1
:0200DA000225FD
:0200DB000127FB
:0200DC00011809
:0200DD0003C559
:0200DE0002FA24
:0200DF0000849B
:0200E000022BF1
:0200E10001BB61
:0200E20000FC20
:0200E30001B565
:0200E40001AD6C
:0200E50002A96E
:0200E600026EA8
:0200E70002BF56
:0200E8000160B5
:0200E900001104
:0200EA00009480
:0200EB0000A76C
:0200EC00020A06
:0200ED00027A95
:0200EE0003B35A
:0200EF00037399
:0200F000037299
:0200F100016CA0
:0200F2000319F0
:0200F3000230D9
:0200F4000069A1
:0200F500037A8C
:0200F6000117F0
:0200F70002F510
:0200F80002C63E
:0200F900023EC5
:0200FA00030CF5
:0200FB0002E21F
:0200FC00036E91
:0200FD00025FA0
:0200FE0001629D
:0200FF000225D8
:020100000252A9
:02010100039465
:02010200039464
:0201030003FDFA
:02010400027582
:0201050000A355
:02010600002EC9
:0201070002BB39
:0201080001ED07
:02010900036988
:02010A0000D023
:02010B0003C52A
:02010C0001E709
:02010D0000D61A
:02010E000232BB
:02010F00039853
:0201100002A645
:0201110000F6F6
:020112000025C6
:0201130001CD1C
:0201140003875F
:0201150002EDF9
:02011600019551
:020117000117CE
:020118000308DA
:0201190000FEE6
:02011A00008D56
:02011B00034897
:02011C0002C21D
:02011D00008C54
:02011E000237A6
:02011F00015489
:0201200003706A
:02012100021BBF
:0201220002E2F7
:02012300035186
:0201240000F3E6
:02012500015582
:0201260001FFD7
:02012700007B5B
:02012800025182
:020129000108CB
:02012A000228A9
:02012B00033699
:02012C0001B61A
:02012D00032E9F
:02012E000120AE
:02012F00010FBE
:02013000007D50
:0201310000EAE2
:0201320003D6F2
:0201330002C107
:0201340003299D
:02013500028C3A
:0201360002665F
:02013700003393
:02013800016F55
:0201390003942D
:02013A00001BA8
:02013B00007E44
:02013C0002338C
:02013D0002B30B
:02013E00037448
:02013F0001EBD2
:02014000038E2C
:0201410001CFEC
:02014200022396
:0201430001FCBD
:0201440002CBEC
:020145000202B4
:020146000110A6
:02014700016550
:02014800007045
:02014900039D14
:02014A00005B58
:02014B0000159D
:02014C00003879
:02014D00022D81
:02014E00035F4D
:02014F00013677
:02015000011C90
:02015100007834
:0201520000B1FA
:02015300032E79
:02015400015256
:02015500008523
:0201560002287D
:0201570003A003
:02015800024E55
:0201590003960B
:02015A0000D7CC
:02015B0003722D
:02015C0000C6DB
:02015D0002326C
:02015E00011589
:02015F0002CBD1
:0201600000B1EC
:02016100002379
:02016200027C1D
:02016300011782
:02016400014D4B
:02016500007721
:0201660003EDA7
:0201670001088D
:02016800011D77
:0201690001840F
:02016A00039000
:02016B000098FA
:02016C0001EFA1
:02016D0000E8A8
:02016E0002D6B7
:02016F00010B82
:0201700000D8B5
:02017100038DFC
:02017200027B0E
:0201730002F098
:02017400023B4C
:0201750001A9DE
:020176000289FC
:0201770002255F
:0201780001C9BB
:0201790002C1C1
:02017A0002572A
:02017B0001D5AC
:02017C000283FC
:02017D0001A9D6
:02017E000090EF
:02017F00007E00
:0201800002B9C2
:020181000088F4
:02018200032E4A
:0201830003F087
:02018400001267
:0201850000D6A2
:02018600037FF5
:02018700014F26
:020188000386EC
:0201890003640D
:02018A00022A47
:02018B0001155C
:02018C0001650B
:02018D00005818
:02018E00032943
:02018F00031556
:02019000015913
:02019100032F3A
:0201920001D298
:02019300027BED
:02019400026304
:0201950002C4A2
:0201960000D493
:0201970001CC99
:0201980002E182
:02019900014A19
:02019A00023C25
:02019B0002EB75
:02019C00008DD4
:02019D0000540C
:02019E000372EA
:02019F00031C3F
:0201A0000081DC
:0201A10000D28A
:0201A200014119
:0201A30002FD5B
:0201A400033521
:0201A50003183D
:0201A60003D282
:0201A7000293C1
:0201A8000086CF
:0201A90002D77B
:0201AA0002B29F
:0201AB0001420F
:0201AC0003B19D
:0201AD00032924
:0201AE0000D27D
:0201AF0001D578
:0201B000035AF0
:0201B1000289C1
:0201B2000087C4
:0201B300027BCD
:0201B400018ABE
:0201B50002DA6C
:0201B600038EB6
:0201B70000CB7B
:0201B80003B38F
:0201B9000169DA
:0201BA00030E32
:0201BB0001C57C
:0201BC0002AE91
:0201BD0002E955
:0201BE000396A6
:0201BF0001D469
:0201C00002C279
:0201C100037CBD
:0201C200012218
:0201C30000CE6C
:0201C400039E98
:0201C50002AE88
:0201C60003181C
:0201C70001F63F
:0201C8000063D2
:0201C9000378B9
:0201CA00004EE5
:0201CB0003FE31
:0201CC00039E90
:0201CD000045EB
:0201CE00030C20
:0201CF00010726
:0201D000034CDE
:0201D10002EF3B
:0201D200010723
:0201D30002A583
:0201D40000DD4C
:0201D50000C365
:0201D6000368BC
:0201D70001DD48
:0201D8000135EF
:0201D900027FA3
:0201DA0002CC55
:0201DB00032AF5
:0201DC0000AA77
:0201DD000059C7
:0201DE000345D7
:0201DF00027BA1
:0201E000030911
:0201E10001FA21
:0201E200005BC0
:0201E3000336E1
:0201E400039680
:0201E500028591
:0201E600010D09
:0201E7000038DE
:0201E800010D07
:0201E900009480
:0201EA0003D63A
:0201EB0003D936
:0201EC0001A36D
:0201ED00023BD3
:0201EE0002A766
:0201EF0003EA21
:0201F000030A00
:0201F100010A01
:0201F20002EE1B
:0201F30001B950
:0201F400026D9A
:0201F500020DF9
:0201F60001986E
:0201F7000211F3
:0201F80000788D
:0201F90001CC37
:0201FA00030DF3
:0201FB00013AC7
:0201FC000152AE
:0201FD000051AF
:0201FE000336C6
:0201FF0002FDFF
:0202000000A359
:020201000124D6
:02020200017B7E
:0202030002A354
:02020400019661
:02020500034FA5
:0202060000C630
:0202070002F6FD
:0202080002D61C
:02020900015E94
:02020A00038669
:02020B000244AB
:02020C0002915D
:02020D0001608E
:02020E0003A942
:02020F0002608B
:02021000027A70
:0202110000ECFF
:0202120002A741
:0202130000A148
:0202140003CC19
:02021500011ACC
:02021600017C69
:0202170001E5FF
:0202180003459C
:02021900028D54
:02021A0000AC36
:02021B0002924D
:02021C00012EB1
:02021D00016F6F
:02021E0000429C
:02021F00029546
:02022000015784
:02022100017268
:0202220003D403
:02022300016870
:02022400031ABB
:0202250001D501
:02022600028252
:02022700020DC6
:02022800015F74
:02022900016072
:02022A0002F9D7
:02022B000314BA
:02022C00029638
:02022D00026964
:02022E00037259
:02022F00029833
:0202300000C10B
:0202310002D3F6
:0202320001B217
:02023300024483
:02023400016C5B
:02023500000FB8
:020236000310B3
:02023700035270
:0202380001B70C
:0202390003219F
:02023A00007250
:02023B00028B34
:02023C00024D71
:02023D00009926
:02023E00024D6F
:02023F00004B72
:02024000037049
:02024100009B20
:0202420000AB0F
:02024300007E3B
:0202440000F0C8
:0202450002DFD6
:0202460003288B
:0202470002A50E
:0202480002347E
:0202490002AF02
:02024A0000F2C0
:02024B0001D6DA
:02024C00023579
:02024D0002EAC3
:02024E0000CEE0
:02024F0000B9F4
:02025000038326
:020251000205A4
:02025200011792
:02025300018F19
:02025400004464
:02025500020C99
:0202560003BEE5
:02025700022F74
:0202580002346E
:0202590000A201
:02025A00024D53
:02025B00000998
:02025C0002AAF4
:02025D0003029A
:02025E0001E5B8
:02025F00002578
:02026000029406
:02026100020396
:02026200034354
:02026300032571
:02026400027B1B
:02026500021283
:0202660002BCD8
:0202670001484C
:0202680002830F
:02026900033D53
:02026A0000434F
:02026B0002642B
:02026C00026D21
:02026D00012965
:02026E00036724
:02026F0001F19B
:020270000195F6
:02027100031C6C
:02027200035235
:02027300030284
:0202740002F690
:0202750003F78D
:0202760002D0B4
:0202770000493C
:02027800012A59
:02027900023D44
:02027A00004939
:02027B0000166B
:02027C00026A14
:02027D00000E71
:02027E0001C6B7
:02027F00005A23
:02028000008FED
:02028100032B4D
:0202820000F288
:0202830002A9CE
:02028400011562
:0202850000F97E
:0202860003185B
:0202870000373E
:0202880001175C
:02028900027CF5
:02028A0001264B
:02028B0001D997
:02028C00015619
:02028D00005D12
:02028E0003AFBC
:02028F00000C61
:02029000023535
:0202910002E980
:0202920002E781
:0202930002EE79
:0202940003BCA9
:02029500021154
:0202960002A9BB
:02029700024221
:020298000199CA
:02029900016CF6
:02029A000276EA
:02029B000173ED
:02029C0003203D
:02029D00003728
:02029E000175E8
:02029F000392C8
:0202A000034B0E
:0202A100015802
:0202A2000274E4
:0202A3000357FF
:0202A40000BC9C
:0202A500035AFA
:0202A60003EA69
:0202A70003242E
:0202A80001BF94
:0202A9000073E0
:0202AA0003F758
:0202AB0001014F
:0202AC00004709
:0202AD000281CC
:0202AE000063EB
:0202AF0002A2A9
:0202B00001F457
:0202B100030E3A
:0202B20002A2A6
:0202B3000167E1
:0202B400000E3A
:0202B500034DF7
:0202B60003D46F
:0202B7000258EB
:0202B800038BB6
:0202B900001E25
:0202BA0000C37F
:0202BB00022C13
:0202BC00010A35
:0202BD00020D30
:0202BE0001E657
:0202BF000145F7
:0202C00000DA62
:0202C1000154E6
:0202C2000363D4
:0202C30003B482
:0202C40002F83E
:0202C50001DB5B
:0202C600010B2A
:0202C7000138FC
:0202C800030C25
:0202C9000336FA
:0202CA000262CE
:0202CB00013DF3
:0202CC000071BF
:0202CD0000AC83
:0202CE00029894
:0202CF0002E14A
:0202D0000230FA
:0202D1000132F8
:0202D200008F9B
:0202D30000F237
:0202D400030322
:0202D500036EB6
:0202D60002D94B
:0202D70001EE36
:0202D8000155CE
:0202D90001B76B
:0202DA0003BA65
:0202DB0000071A
:0202DC000344D9
:0202DD00021805
:0202DE000129F4
:0202DF00011EFE
:0202E000029D7D
:0202E100024CCD
:0202E20000CF4B
:0202E30002CB4C
:0202E40000E632
:0202E50003C450
:0202E60000080E
:0202E7000257BC
:0202E8000354BD
:0202E90003A36D
:0202EA0003E629
:0202EB0000C051
:0202EC0002D33B
:0202ED0002C24B
:0202EE00012FDE
:0202EF0002B952
:0202F000000408
:0202F10001B05A
:0202F200005DAD
:0202F30000AD5C
:0202F400033EC7
:0202F50000B057
:0202F60001A461
:0202F70002B94A
:0202F800008C78
:0202F90003BE42
:0202FA0000EC16
:0202FB0000B44D
:0202FC0003B548
:0202FD00028B72
:0202FE0001D429
:0202FF00022DCE
:020300000032C9
:02030100008179
:0203020003B442
:0203030002698D
:02030400013ABC
:0203050000C333
:02030600019E56
:0203070000678D
:0203080001B83A
:02030900022CC4
:02030A00025B94
:02030B0002E10D
:02030C0000559A
:02030D00035299
:02030E0000707D
:02030F000047A5
:02031000037177
:02031100028464
:020312000219CE
:0203130002C81E
:020314000127BF
:0203150001CD18
:02031600015292
:02031700004B99
:02031800034F91
:0203190002F3ED
:02031A0003CE10
:02031B00027569
:02031C00037C60
:02031D00037962
:02031E000300DA
:02031F0002A535
:0203200002FDDC
:02032100009C3E
:020322000014C5
:0203230001FADD
:0203240002E0F5
:0203250003597A
:0203260003F7DB
:02032700014E85
:0203280003EEE2
:02032900006969
:02032A0003527C
:02032B00013996
:02032C0002AF1E
:02032D00004688
:02032E00028C3F
:02032F000214B6
:02033000036C5C
:020331000324A3
:0203320001CDFB
:0203330003F4D1
:02033400022A9B
:0203350000FCCA
:0203360000FACB
:0203370002B111
:0203380002AF12
:0203390001833E
:02033A0003B905
:02033B0001E0DF
:02033C0000833C
:02033D0000308E
:02033E00017349
:02033F0000D8E4
:0203400002ECCD
:02034100003B7F
:02034200014F69
:0203430002B303
:0203440000F5C2
:02034500009C1A
:0203460002367D
:02034700024B67
:0203480001664C
:020349000011A1
:02034A0002D5DA
:02034B00023C72
:02034C0002CFDE
:02034D00011697
:02034E00019B11
:02034F0000E6C6
:02035000037E2A
:0203510001EDBC
:0203520000B9F0
:02035300006B3D
:0203540001881E
:02035500009A0C
:0203560002257E
:0203570002B2F0
:0203580002C5DC
:0203590002E6BA
:02035A00039A04
:02035B00016639
:02035C0000D1CE
:02035D00025E3E
:02035E00029407
:02035F0001F7A4
:02036000010C8E
:02036100005644
:02036200005940
:02036300019AFD
:02036400009DFA
:0203650001E4B1
:0203660001F2A2
:02036700014B48
:02036800007122
:0203690003E6A9
:02036A00002E63
:02036B0001C9C6
:02036C00013A54
:02036D00030289
:02036E0003A3E7
:02036F00039DEC
:02037000037216
:0203710003A2E5
:0203720000AEDB
:0203730003166F
:02037400035A2A
:0203750001FA8B
:0203760003760C
:02037700004C38
:0203780000FC87
:0203790002057B
:02037A0003E599
:02037B00031C61
:02037C00002758
:02037D000384F7
:02037E0001B2CA
:02037F00032E4B
:02038000007605
:02038100020672
:02038200005B1E
:0203830003F481
:02038400014B2B
:0203850000DE98
:0203860003284A
:0203870000A6CE
:0203880001D39F
:02038900032C43
:02038A00012A46
:02038B00004A26
:02038C00010668
:02038D0003D893
:02038E00013D2F
:02038F0001ADBE
:0203900001A2C8
:020391000198D1
:02039200020661
:020393000368FD
:0203940002362F
:0203950002E87C
:0203960001F96B
:0203970003E081
:0203980001174B
:0203990002144C
:02039A0003510D
:02039B00014619
:02039C000069F6
:02039D0001322B
:02039E00001944
:02039F000194C7
:0203A000021B3E
:0203A100022434
:0203A200022532
:0203A3000295C1
:0203A40003E96B
:0203A5000298BC
:0203A60003173B
:0203A70001DC77
:0203A800035CF4
:0203A900000C46
:0203AA000060F1
:0203AB0000CE82
:0203AC0001CA84
:0203AD0003C883
:0203AE00033C0E
:0203AF00009BB1
:0203B0000057F4
:0203B10002E563
:0203B20000B792
:0203B300024105
:0203B40003F64E
:0203B5000248FC
:0203B60001AA9A
:0203B700028EB4
:0203B8000167DB
:0203B90002A69A
:0203BA0002BD82
:0203BB00021E20
:0203BC00013A04
:0203BD000083BB
:0203BE000069D4
:0203BF00015DDE
:0203C00003D068
:0203C100003208
:0203C20002F443
:0203C3000085B3
:0203C4000156E0
:0203C50001D75E
:0203C6000276BD
:0203C70003A38E
:0203C80001CD65
:0203C9000164CD
:0203CA0002D659
:0203CB0002919D
:0203CC00010529
:0203CD00029F8D
:0203CE0003CD5D
:0203CF0000FD2F
:0203D000029D8C
:0203D100011B0E
:0203D20000E445
:0203D3000264C2
:0203D400020A1B
:0203D5000041E5
:0203D6000176AE
:0203D70002160C
:0203D800028E93
:0203D9000348D7
:0203DA0000B170
:0203DB000335E8
:0203DC00033FDD
:0203DD00013AE3
:0203DE00019389
:0203DF0000B369
:0203E000030612
:0203E10000F624
:0203E20002EE29
:0203E3000158BF
:0203E400009E79
:0203E500012AEB
:0203E6000366AC
:0203E70003BC55
:0203E80002957C
:0203E900005AB8
:0203EA0001749C
:0203EB00024DC1
:0203EC00034DBF
:0203ED0000DC32
:0203EE000363A7
:0203EF00034BBE
:0203F00000FB10
:0203F10000DB2F
:0203F2000353B3
:0203F30000CB3D
:0203F40001A95D
:0203F5000256AE
:0203F6000338CA
:0203F70000B64E
:0203F8000337C9
:0203F9000321DE
:0203FA0000DA27
:0203FB0000CA36
:0203FC000355A7
:0203FD0000E31B
:0203FE0001D725
:0203FF00029961
:02040000038E69
:02040100011ADE
:0204020003A352
:02040300038D67
:02040400013EB7
:02040500011ADA
:0204060003856C
:0204070000E310
:02040800019A57
:02040900020CE3
:02040A00029D51
:02040B0003B13B
:02040C0001AB42
:02040D0000EFFE
:02040E0001DF0C
:02040F0000DF0C
:02041000025296
:0204110002994E
:020412000218CE
:020413000131B5
:020414000045A1
:0204150003B82A
:0204160003EAF7
:02041700013EA4
:020418000015CD
:0204190000D011
:02041A0003D00D
:02041B00017767
:02041C000225B7
:02041D00023BA0
:02041E00021BBF
:02041F000223B6
:0204200002B424
:02042100002FAA
:0204220002F4E2
:02042300036272
:0204240001D8FD
:0204250002B71C
:02042600025E74
:02042700012BA7
:02042800037F50
:0204290001B719
:02042A0000339D
:02042B0003517B
:02042C00036F5C
:02042D0000ECE1
:02042E000026A6
:02042F00017B4F
:02043000014980
:0204310003EDD9
:0204320001C403
:02043300032D97
:02043400008541
:0204350002289B
:02043600007351
:0204370003C4FC
:0204380000764C
:0204390002E7D8
:02043A0003724B
:02043B00027548
:02043C00004A74
:02043D00014E6E
:02043E0001DCDF
:02043F00025069
:020440000306B1
:02044100005960
:0204420002A313
:02044300024174
:02044400038C27
:0204450002E0D3
:0204460000981C
:02044700010CA6
:02044800009919
:02044900039816
:02044A0002624C
:02044B0001535B
:02044C0000C3EB
:02044D00010CA0
:02044E00028822
:02044F0001901A
:02045000027D2B
:0204510001A800
:0204520003693C
:02045300001B8C
:02045400001492
:0204550003AEF4
:0204560003425F
:0204570003267A
:0204580003B4EB
:0204590001425E
:02045A00002977
:02045B0000C1DE
:02045C0003613A
:02045D0000603D
:02045E00001587
:02045F0002D8C1
:0204600000FF9B
:0204610002E1B6
:0204620000D5C3
:02046300033163
:02046400024C48
:02046500027C17
:0204660000177D
:0204670003721E
:0204680000E5AD
:0204690000C4CD
:02046A00036528
:02046B00011E70
:02046C00024448
:02046D00032B5F
:02046E00002963
:02046F000193F7
:0204700003BEC9
:0204710002FE89
:0204720003A8DD
:02047300021075
:02047400028AFA
:02047500016A1A
:0204760003057C
:0204770003AED2
:0204780003B9C6
:02047900037905
:02047A0003423B
:02047B00036715
:02047C00003C42
:02047D00021368
:02047E00013F3C
:02047F00021465
:0204800000E397
:02048100020077
:0204820001BCBB
:02048300006A0D
:02048400025D17
:0204850003E58D
:0204860001551E
:02048700030070
:0204880001353C
:02048900004829
:02048A000089E7
:02048B00024924
:02048C0001DA93
:02048D00038CDE
:02048E0003B1B8
:02048F00029ACF
:020490000096D4
:0204910001F771
:02049200030C59
:02049300002641
:020494000196CF
:0204950003AAB8
:0204960002B4AE
:0204970003025E
:0204980000E57D
:0204990000ABB6
:02049A0002A5B9
:02049B0003213B
:02049C00026FED
:02049D0000DE7F
:02049E0002BC9E
:02049F00005803
:0204A000020157
:0204A100000653
:0204A20002B4A2
:0204A300025BFA
:0204A40003480B
:0204A50001C98B
:0204A600022C26
:0204A70000C093
:0204A80001D180
:0204A90001ADA3
:0204AA0000A2AE
:0204AB0002FE4F
:0204AC00010C41
:0204AD00031B2F
:0204AE000177D4
:0204AF00006DDE
:0204B000004A00
:0204B100015AEE
:0204B20003EA5B
:0204B300004700
:0204B40002BC88
:0204B5000396AC
:0204B600032120
:0204B70001A89A
:0204B8000377C8
:0204B90000DB66
:0204BA00021E20
:0204BB00038CB0
:0204BC000171CC
:0204BD00001726
:0204BE0003CA6F
:0204BF0000D566
:0204C0000382B5
:0204C100001C1D
:0204C20002EF47
:0204C3000043F4
:0204C4000065D1
:0204C500039D95
:0204C6000237FB
:0204C700007CB7
:0204C80002B779
:0204C9000131FF
:0204CA000033FD
:0204CB00000827
:0204CC0000F935
:0204CD000350DA
:0204CE000355D4
:0204CF000151D9
:0204D000018F9A
:0204D1000056D3
:0204D20001F136
:0204D30002A67F
:0204D40002BF65
:0204D50002859E
:0204D6000240E2
:0204D7000237EA
:0204D80002B56B
:0204D90003FF1F
:0204DA00025FBF
:0204DB00021B02
:0204DC00037D9E
:0204DD0002CB50
:0204DE00004DCF
:0204DF00004BD0
:0204E000030B0C
:0204E10000D544
:0204E20001F027
:0204E30002A372
:0204E4000335DE
:0204E50003EC26
:0204E600011003
:0204E70002E62B
:0204E80001B65B
:0204E90001C54B
:0204EA00035AB3
:0204EB0002BA53
:0204EC00002DE1
:0204ED0003F713
:0204EE00025FAB
:0204EF0003AA5E
:0204F000001EEC
:0204F100000009
:0204F20003966F
:0204F3000325DF
:0204F40002F212
:0204F5000342C0
:0204F600005BA9
:0204F700028081
:0204F80001F809
:0204F9000306F8
:0204FA0001EF10
:0204FB0002F706
:0204FC00026399
:0204FD00007786
:0204FE00017883
:0204FF0001A852
:02050000014DAB
:0205010000A94F
:020502000002F5
:0205030003995A
:0205040003B43E
:0205050000955F
:02050600027F72
:0205070001B63B
:02050800027D72
:020509000117D8
:02050A0001C727
:02050B0000CF1F
:02050C00027378
:02050D0002F5F5
:02050E00029851
:02050F00019E4B
:020510000048A1
:0205110002DB0B
:0205120001974F
:0205130000BE28
:02051400009451
:0205150001588B
:02051600034E92
:0205170002B729
:0205180003D30B
:0205190002E6F8
:02051A000030AF
:02051B0003F2E9
:02051C00026D6E
:02051D0003E3F6
:02051E00009546
:02051F0000C317
:0205200000AE2B
:02052100009642
:0205220000BD1A
:02052300016372
:0205240002C80B
:02052500012CA7
:0205260000D003
:0205270001F3DE
:0205280000D6FB
:0205290001B916
:02052A0000DBF4
:02052B00027D4F
:02052C0002DCEF
:02052D00023B8F
:02052E0000D6F5
:02052F0002EFD9
:0205300000C405
:02053100029432
:02053200009F28
:020533000323A0
:02053400025F64
:02053500029230
:0205360003FBC5
:0205370002D8E8
:02053800036856
:0205390001E9D6
:02053A00029924
:02053B0001B706
:02053C00038139
:02053D00003587
:02053E000010AB
:02053F00035166
:02054000023582
:0205410000FBBD
:0205420003DED6
:02054300031E95
:0205440002F8BB
:0205450003A809
:02054600016C46
:02054700008230
:0205480001258B
:02054900039419
:02054A00000BA4
:02054B0002C6E6
:02054C000003AA
:02054D0003FDAC
:02054E0002F2B7
:02054F00011E8B
:0205500002BEE9
:02055100000C9C
:0205520001475F
:0205530002A9FB
:02055400006E37
:0205550002D3CF
:0205560002148D
:02055700026B35
:0205580000158C
:02055900034D50
:02055A00004F50
:02055B00035546
:02055C00009C01
:02055D00005E3E
:02055E0002D7C2
:02055F00004159
:0205600000D8C1
:0205610000D6C2
:02056200007621
:0205630003F2A1
:0205640003860C
:02056500036C25
:0205660003DEB2
:0205670001167B
:02056800034F3F
:0205690002C3CB
:02056A0003ACE0
:02056B00024448
:02056C0002C4C7
:02056D00016823
:02056E00026722
:02056F0001FD8C
:02057000006326
:0205710001D1B6
:02057200028203
:0205730002AFD5
:020574000291F2
:02057500026121
:02057600025829
:0205770002B0D0
:0205780003A0DE
:0205790001631C
:02057A0000314E
:02057B0000413D
:02057C0001CEAE
:02057D00010F6C
:02057E00023D3C
:02057F000190E9
:02058000034036
:020581000386EF
:02058200029ADB
:0205830000B3C3
:02058400020A69
:0205850002D79B
:02058600035020
:0205870003AEC1
:02058800002948
:0205890000F878
:02058A0002521B
:02058B00006FFF
:02058C000386E4
:02058D0003CE9B
:02058E00017EEC
:02058F0000CE9C
:0205900001F474
:0205910001283F
:02059200029FC6
:020593000291D3
:0205940001352F
:0205950002C1A1
:02059600036BF5
:02059700036AF5
:0205980002F46B
:0205990002401E
:02059A000183DB
:02059B0000F46A
:02059C0000C895
:02059D00013724
:02059E000275E4
:02059F0000B8A2
:0205A000003623
:0205A100012631
:0205A20003BB99
:0205A300002C2A
:0205A40002AEA5
:0205A5000377DA
:0205A60002BB96
:0205A70000B0A2
:0205A800018BC5
:0205A9000181CE
:0205AA0000C887
:0205AB000393B8
:0205AC00021734
:0205AD00008AC2
:0205AE00032028
:0205AF00020D3B
:0205B0000187C1
:0205B10001C186
:0205B20002F055
:0205B3000148FD
:0205B40000FD48
:0205B5000243FF
:0205B600014FF3
:0205B7000255EB
:0205B8000188B8
:0205B900031C21
:0205BA000344F8
:0205BB00023606
:0205BC00002419
:0205BD000141FA
:0205BE0001C179
:0205BF0001D960
:0205C00001BA7E
:0205C10001989F
:0205C20001A690
:0205C30002181C
:0205C400032012
:0205C50000F242
:0205C60003BF71
:0205C70003BC73
:0205C800011B15
:0205C900000E22
:0205CA0000C867
:0205CB00037BB0
:0205CC00005BD2
:0205CD00039990
:0205CE000167C3
:0205CF0001F930
:0205D000017FA9
:0205D100002DFB
:0205D2000234F1
:0205D30003C65D
:0205D40001150F
:0205D5000252D0
:0205D60003B16F
:0205D7000161C0
:0205D800039589
:0205D900027F9F
:0205DA00024FCE
:0205DB000338E3
:0205DC00016AB2
:0205DD00011704
:0205DE000270A9
:0205DF0001A673
:0205E00002E92E
:0205E100026CAA
:0205E200005FB8
:0205E30000F323
:0205E4000058BD
:0205E50002C052
:0205E600005AB9
:0205E7000158B9
:0205E80001EA26
:0205E9000240CE
:0205EA00028B82
:0205EB0002FA12
:0205EC0003C04A
:0205ED00010A01
:0205EE00030AFE
:0205EF0001EF1A
:0205F00001EA1E
:0205F100032ADB
:0205F20001E026
:0205F300023ACA
:0205F40000699C
:0205F500009C68
:0205F6000302FE
:0205F70003CC33
:0205F8000329D5
:0205F9000147B8
:0205FA000257A6
:0205FB00028775
:0205FC000207F4
:0205FD000106F5
:0205FE0003B345
:0205FF00023CBC
:0206000000D028
:0206010003A054
:0206020002D81C
:0206030002A84B
:02060400033FB2
:0206050000CB28
:02060600037A75
:02060700037C72
:0206080000FDF3
:02060900002EC1
:02060A00013BB2
:02060B00005499
:02060C0001A546
:02060D00015E8C
:02060E0003AC3B
:02060F0000BE2B
:0206100000C028
:0206110003E103
:02061200024F95
:020613000037AE
:0206140001C71C
:02061500032CB4
:0206160000944E
:02061700022CB3
:020618000021BF
:0206190002A23B
:02061A0001DB02
:02061B0001F9E3
:02061C000329B0
:02061D00019941
:02061E00017564
:02061F0002EAED
:020620000226B0
:0206210003557F
:0206220002A331
:02062300003D98
:02062400005183
:020625000309C7
:0206260000943E
:02062700011DB3
:0206280000D1FF
:0206290003DCF0
:02062A00026A62
:02062B0000A825
:02062C0002C109
:02062D0000E2E9
:02062E00033691
:02062F0001EADE
:02063000012A9D
:020631000120A6
:0206320001F9CC
:0206330003E1E1
:020634000304BD
:02063500038C34
:0206360001A61B
:02063700017C44
:02063800033A83
:02063900030DAF
:02063A00011DA0
:02063B00019824
:02063C0000A814
:02063D00027940
:02063E00033483
:02063F000306B0
:0206400002199D
:0206410000981F
:0206420002AE06
:0206430000862F
:02064400024A68
:0206450000248F
:02064600024070
:0206470000C9E8
:0206480003E7C6
:0206490003C7E5
:02064A0000911D
:02064B0002713A
:02064C0001901B
:02064D00021A8F
:02064E00003773
:02064F00001297
:0206500001D5D2
:0206510001AAFC
:0206520003BBE8
:02065300003174
:0206540003376A
:0206550000F5AE
:0206560001970A
:0206570001445C
:02065800002779
:02065900026A33
:02065A00003569
:02065B0001B2EA
:02065C00030B8E
:02065D00006833
:02065E0001F3A6
:02065F0003D5C1
:0206600002375F
:02066100014155
:02066200011E77
:0206630001F69E
:0206640003F29F
:02066500033A56
:0206660003F897
:0206670002533C
:02066800027519
:02066900008708
:02066A0000B0DE
:02066B00031A70
:02066C0003EC9D
:02066D00034F39
:02066E00016C1D
:02066F00026A1D
:02067000027214
:0206710001ACDA
:02067200004046
:0206730002562D
:0206740000166E
:0206750001A8DA
:0206760003344B
:0206770000E1A0
:0206780002D9A5
:0206790001413D
:02067A0000423C
:02067B0000037A
:02067C0000ADCF
:02067D00026613
:02067E00015623
:02067F0001A4D4
:020680000378FD
:0206810002F97C
:02068200004E28
:02068300039FD3
:02068400011261
:0206850000CFA4
:0206860002FC74
:0206870003C1AD
:02068800034429
:0206890001ADC1
:02068A00032249
:02068B0003CAA0
:02068C0003CB9E
:02068D00034D1B
:02068E000276F2
:02068F00016CFC
:02069000005711
:02069100035B09
:0206920002A1C3
:02069300024E15
:020694000288DA
:020695000376EA
:02069600013E23
:0206970000065B
:0206980003F469
:02069900012F2F
:02069A0003DB80
:02069B0000203D
:02069C00022337
:02069D00020A4F
:02069E0003FA5D
:02069F00001A3F
:0206A000028FC7
:0206A100037ED6
:0206A200030E45
:0206A3000164F0
:0206A40002A5AD
:0206A50002F75A
:0206A600027FD1
:0206A7000163ED
:0206A80003C786
:0206A90001D17D
:0206AA0003A7A4
:0206AB00016DDF
:0206AC00034801
:0206AD00015EEC
:0206AE0003D374
:0206AF0002CD7A
:0206B0000270D6
:0206B10002E263
:0206B200004600
:0206B30002C281
:0206B400027AC8
:0206B5000393AD
:0206B60002320E
:0206B700027BC4
:0206B8000093AD
:0206B900009EA1
:0206BA0002C17B
:0206BB00031F1B
:0206BC0001DE5D
:0206BD00032117
:0206BE00030D2A
:0206BF0001C573
:0206C000036FC6
:0206C100002E09
:0206C200002610
:0206C300037AB8
:0206C4000250E2
:0206C50000CB68
:0206C600030E21
:0206C700013EF2
:0206C800037EAF
:0206C90001F23C
:0206CA0000BD71
:0206CB00000429
:0206CC0003E940
:0206CD0000909B
:0206CE00021D0B
:0206CF0000B376
:0206D0000075B3
:0206D10001889E
:0206D200000D19
:0206D3000028FD
:0206D40001FD26
:0206D50001AE74
:0206D600035FC0
:0206D7000332EC
:0206D800014BD4
:0206D90001CD51
:0206DA0000DA44
:0206DB00029586
:0206DC000322F7
:0206DD0002A277
:0206DE000139E0
:0206DF0003090D
:0206E0000036E2
:0206E10000E037
:0206E200012CE9
:0206E300013BD9
:0206E4000130E3
:0206E500012DE5
:0206E6000155BC
:0206E70001CA46
:0206E80002AF5F
:0206E9000025EA
:0206EA00024EBE
:0206EB00014DBF
:0206EC000144C7
:0206ED000255B4
:0206EE0000A268
:0206EF00004DBC
:0206F000017790
:0206F1000043C4
:0206F20000D333
:0206F3000348BA
:0206F40003C33E
:0206F50002679A
:0206F6000356A9
:0206F70002B04F
:0206F800009868
:0206F900012FCF
:0206FA00009668
:0206FB0002EF0C
:0206FC00005BA1
:0206FD0000FB00
:0206FE0000F208
:0206FF00005F9A
:0207000003658F
:020701000224D0
:0207020000BE37
:0207030003539E
:020704000205EC
:0207050000F4FE
:020706000042AF
:020707000010E0
:02070800007E71
:0207090001AD40
:02070A0003BE2C
:02070B0002D218
:02070C000309DF
:02070D00008565
:02070E00036482
:02070F0003C91C
:0207100001D412
:0207110001A540
:02071200035C86
:02071300031BC6
:020714000101E1
:02071500012EB3
:0207160003C41A
:0207170000E2FE
:0207180000A837
:020719000337A4
:02071A0000AE2F
:02071B00012EAD
:02071C0000D605
:02071D0003C80F
:02071E000222B5
:02071F000004D4
:02072000018F47
:0207210002E2F2
:02072200001DB8
:02072300015F74
:0207240002C908
:02072500007A58
:0207260002923D
:0207270001309F
:0207280000735C
:02072900007C52
:02072A00016963
:02072B00035B6E
:02072C00027059
:02072D0002C800
:02072E00008148
:02072F0003BC09
:0207300000982F
:02073100033390
:0207320003AD15
:0207330002259D
:0207340002BA07
:02073500018A37
:0207360002B609
:02073700025B63
:02073800009926
:02073900018F2E
:02073A00015B61
:02073B00001CA0
:02073C0001F1C9
:02073D0002F8C0
:02073E00035165
:02073F0003199C
:02074000027045
:02074100017441
:02074200004273
:0207430002FBB7
:0207440001BCF6
:0207450000A40E
:0207460003D1DD
:0207470003614C
:0207480003723A
:0207490000238B
:02074A0001921A
:02074B0003DDCC
:02074C00032286
:02074D00038027
:02074E00011395
:02074F0003FBAA
:02075000005651
:02075100024064
:0207520001D8CC
:02075300033C65
:02075400028A17
:0207550003DFC0
:02075600035945
:02075700011689
:0207580001336B
:0207590003CFCC
:02075A00010696
:02075B0000F6A6
:02075C0003BDDB
:02075D00017722
:02075E00024453
:02075F00023F57
:0207600001870F
:0207610000385E
:02076200027023
:02076300004C48
:0207640001E9A9
:0207650003652A
:0207660000DCB5
:02076700026C22
:0207680000325D
:02076900024A42
:02076A0000D2BB
:02076B0003E7A2
:02076C0003A5E3
:02076D00002A60
:02076E000191F7
:02076F0003F98C
:02077000037E06
:02077100003C4A
:02077200025033
:0207730001D7AC
:0207740002EE93
:0207750001B1D0
:02077600023C43
:0207770000ACD4
:02077800011E60
:0207790003ADCE
:02077A00007706
:02077B000398E1
:02077C00012C4E
:02077D00014F2A
:02077E00001E5B
:02077F0001B4C3
:02078000022F46
:0207810001AACB
:02078200004035
:02078300021062
:0207840003333D
:0207850003C7A8
:0207860003E886
:0207870003B0BD
:02078800033D2F
:0207890002AAC2
:02078A00021259
:02078B000193D8
:02078C00014624
:02078D00014920
:02078E0001B7B1
:02078F0002ABBB
:02079000004126
:020791000295CF
:0207920001C3A1
:0207930001E57E
:02079400031749
:020795000175EC
:02079600011A46
:0207970002213D
:0207980000A7B8
:0207990000C599
:02079A000298C3
:02079B00023B1F
:02079C0003C890
:02079D00035CFB
:02079E00011048
:02079F00010156
:0207A000034A0A
:0207A100000452
:0207A200034C06
:0207A300013D16
:0207A40001F161
:0207A5000183CE
:0207A600000E43
:0207A70001ADA2
:0207A800027BD2
:0207A9000292BA
:0207AA00020D3E
:0207AB00010843
:0207AC00039CAC
:0207AD0001E465
:0207AE0003FB4B
:0207AF0001FC4B
:0207B000000047
:0207B100022321
:0207B200007FC6
:0207B300032E13
:0207B400024BF6
:0207B50001F150
:0207B600023807
:0207B700033D00
:0207B800011826
:0207B90003E556
:0207BA0003BD7D
:0207BB0000BB81
:0207BC0002F940
:0207BD000291A7
:0207BE00039D99
:0207BF00023600
:0207C0000278BD
:0207C100007CBA
:0207C200005CD9
:0207C300023200
:0207C400021819
:0207C50000280A
:0207C600007BB6
:0207C700032B02
:0207C8000052DD
:0207C900000A24
:0207CA00026DBE
:0207CB00039495
:0207CC00039890
:0207CD00029494
:0207CE0000A188
:0207CF0001D84F
:0207D0000253D2
:0207D100022CF8
:0207D200017BA9
:0207D300005BC9
:0207D40002E43D
:0207D5000131F0
:0207D600035AC4
:0207D7000178A7
:0207D80003A577
:0207D90001FB22
:0207DA0000928B
:0207DB00038396
:0207DC0002E732
:0207DD0002D93F
:0207DE000370A6
:0207DF0000C652
:0207E00002F322
:0207E100021202
:0207E200023AD9
:0207E30003858C
:0207E400020B06
:0207E50001E62B
:0207E600032DE1
:0207E70001FB14
:0207E8000268A5
:0207E900008C82
:0207EA0000808D
:0207EB00025DAD
:0207EC00023BCE
:0207ED000034D6
:0207EE00005FAA
:0207EF0002D531
:0207F00003AF55
:0207F1000305FE
:0207F20000F015
:0207F30001887B
:0207F40000E61D
:0207F5000322DD
:0207F6000053AE
:0207F70000936D
:0207F80003FA02
:0207F90002A15B
:0207FA00009E5F
:0207FB00020BEF
:0207FC0002FFFA
:0207FD00039364
:0207FE0003DF17
:0207FF0003FCF9
:00000001ff
