:020000040000FA
:020000000000FE
:020001000340BA
:020002000100FB
:020003000143B7
:020004000007F3
:02000500014FA9
:02000600011ADD
:02000700036A8A
:02000800003FB7
:02000900039A58
:02000A00017C77
:02000B0001E50D
:02000C0000D61C
:02000D0002509F
:02000E0002549A
:02000F0000E20D
:0200100001FBF2
:02001100019F4D
:0200120003D118
:02001300008F5C
:0200140003DB0C
:0200150001B632
:020016000221C5
:02001700011BCB
:0200180002A73D
:0200190002C320
:02001A00017271
:02001B0002B42D
:02001C00028957
:02001D0000F3EE
:02001E0001F2ED
:02001F00018658
:0200200003B12A
:0200210000736A
:0200220003CD0C
:0200230001BF1B
:02002400024A8E
:02002500016F69
:02002600032FA6
:02002700038A4A
:02002800028153
:020029000014C1
:02002A0000458F
:02002B000313BD
:02002C00008151
:02002D00008D44
:02002E00033A93
:02002F00008748
:02003000007658
:020031000306C4
:02003200003993
:020033000010BB
:02003400028A3E
:0200350003A91D
:02003600036E57
:0200370001D8EE
:0200380002E9DB
:0200390002A122
:02003A000102C1
:02003B00020AB7
:02003C0001BC05
:02003D000018A9
:02003E00011FA0
:02003F0000D0EF
:02004000032E8D
:02004100003885
:0200420003EFCA
:02004300025465
:02004400036750
:0200450003298D
:02004600019B1C
:0200470002BDF8
:02004800029024
:0200490001159F
:02004A00024C66
:02004B0002367B
:02004C0000D3DF
:02004D0002248B
:02004E00022A84
:02004F0000E5CA
:02005000025755
:02005100027E2D
:02005200015D4E
:0200530002F4B5
:02005400034364
:02005500024C5B
:02005600000E9A
:02005700008A1D
:0200580003C1E2
:0200590001B3F1
:02005A00026240
:02005B0001CDD5
:02005C0003F6A9
:02005D0000DCC5
:02005E0000811F
:02005F0002E5B8
:02006000000995
:0200610003EDAD
:02006200029208
:0200630003F99F
:02006400002179
:02006500030C8A
:0200660000BBDD
:02006700012D69
:02006800006432
:02006900025F34
:02006A00032170
:02006B0002A8E9
:02006C0000F79B
:02006D00020C83
:02006E0001EAA5
:02006F000090FF
:0200700001FF8E
:02007100023853
:02007200013B50
:0200730003097F
:0200740003A2E5
:0200750003077F
:0200760001394E
:0200770002384D
:02007800020480
:02007900009FE6
:02007A0002087A
:02007B00024140
:02007C00014A37
:02007D0003235B
:02007E0003CDB0
:02007F00034933
:020080000197E6
:0200810002B8C3
:0200820002ABCF
:02008300017307
:02008400030F68
:020085000380F6
:0200860002C6B0
:0200870000E295
:0200880001D5A0
:02008900019FD5
:02008A00004133
:02008B0001BAB8
:02008C00020D63
:02008D00013838
:02008E00033E2F
:02008F00001E51
:0200900003D893
:02009100026EFD
:0200920003E089
:02009300002F3C
:02009400035A0D
:02009500016305
:02009600024A1C
:02009700020F56
:0200980000B4B2
:0200990002382B
:02009A00029CC6
:02009B0001E181
:02009C0000085A
:02009D00011050
:02009E0000FA66
:02009F0003C795
:0200A0000177E6
:0200A100020B50
:0200A2000183D8
:0200A30003E078
:0200A400012237
:0200A500014B0D
:0200A6000059FF
:0200A700024F06
:0200A800032B28
:0200A90002F063
:0200AA00019DB6
:0200AB0003331D
:0200AC0003B29D
:0200AD00031B33
:0200AE00016FE0
:0200AF0002ADA0
:0200B00002D775
:0200B10001EC60
:0200B20003EE5B
:0200B30000DD6E
:0200B40000B991
:0200B5000383C3
:0200B600013C0B
:0200B70001E363
:0200B8000179CC
:0200B900000045
:0200BA000176CD
:0200BB0001DE64
:0200BC0001360B
:0200BD000381BD
:0200BE0000BD83
:0200BF0000ED52
:0200C000000F2F
:0200C100022615
:0200C200033009
:0200C300032F09
:0200C400022315
:0200C500000D2C
:0200C60000ED4B
:0200C70000C374
:0200C8000390A3
:0200C9000155DF
:0200CA00021220
:0200CB0001C76B
:0200CC000075BD
:0200CD00021C13
:0200CE0002BE70
:0200CF000259D4
:0200D00000EF3F
:0200D1000281AA
:0200D200030E1B
:0200D300029792
:0200D400011D0C
:0200D50002A087
:0200D600032005
:0200D700029F86
:0200D800011B0A
:0200D90002978C
:0200DA0003120F
:0200DB00028D94
:0200DC00010819
:0200DD0002839C
:0200DE0003001D
:0200DF00027F9E
:0200E00000FF1F
:0200E100028299
:0200E200030811
:0200E300029188
:0200E400011EFB
:0200E50002AF68
:0200E6000345D0
:0200E70002E035
:0200E800018194
:0200E9000328EA
:0200EA0003D53C
:0200EB00038987
:0200EC000244CC
:0200ED0000070A
:0200EE0000D23E
:0200EF0000A669
:0200F000038388
:0200F100016AA2
:0200F200025AB0
:0200F3000255B4
:0200F400015BAE
:0200F500036B9B
:0200F600008880
:0200F70000B057
:0200F80003E51E
:0200F9000227DC
:0200FA0003768B
:0200FB0003D32D
:0200FC00033EC1
:0200FD0001B848
:0200FE000341BC
:0200FF0003D923
:02010000038179
:020101000239C1
:020102000002F9
:0201030000DC1E
:0201040000C831
:0201050003C62F
:0201060001D620
:0201070002F8FC
:02010800032EC4
:0201090002777B
:02010A0000D51E
:02010B000246AA
:02010C0002CD22
:02010D00026985
:02010E00011AD4
:02010F0002E10B
:0201100003BF2B
:0201110003B435
:0201120002C029
:0201130000E307
:02011400021EC9
:02011500027274
:0201160001DF07
:02011700006581
:020118000204DF
:0201190002BE24
:02011A0002924F
:02011B00018061
:02011C00038A54
:02011D0000B030
:02011E0000F1EE
:02011F00004F8F
:0201200002C912
:0201210000617B
:020122000116C4
:0201230000E9F1
:0201240003DBFB
:0201250001EBEC
:02012600031ABA
:0201270003696A
:0201280002D7FC
:0201290001666D
:02012A000315BB
:02012B0003E5EA
:02012C0003D7F7
:02012D0002EAE4
:02012E000120AE
:02012F00027854
:0201300002F3D8
:02013100029139
:02013200015278
:0201330003388F
:02013400004287
:02013500007157
:0201360003C5FF
:02013700023F85
:0201380003DEE4
:0201390000A321
:02013A00009033
:02013B0003A31C
:02013C0001DDE3
:02013D00033F7E
:02013E0003C9F3
:02013F00037C3F
:02014000025764
:02014100005C60
:02014200018A30
:0201430001E2D7
:02014400016454
:020145000011A7
:0201460001E9CD
:0201470002ECC8
:02014800031B97
:0201490002753D
:02014A0000FDB6
:02014B0002B1FF
:02014C0003921C
:02014D0003A00D
:02014E0002DCD1
:02014F00014766
:0201500002E0CB
:0201510003A801
:02015200039F09
:0201530002C5E3
:02015400011C8C
:0201550002A303
:02015600035A4A
:02015700034261
:02015800025C47
:0201590000A7FD
:02015A0002257C
:02015B0002D4CC
:02015C0002B7E8
:02015D0001CCD3
:02015E0000158A
:02015F0001910C
:02016000024259
:02016100022773
:0201620001405A
:02016300038F08
:02016400011385
:0201650001CDCA
:0201660001BCDA
:0201670000E3B3
:02016800034052
:0201690000D4C0
:02016A00019FF3
:02016B0001A3EE
:02016C0000DEB3
:02016D0003523B
:02016E0000FE91
:02016F0001E4A9
:02017000020388
:02017100015B30
:0201720003EE9A
:0201730001BBCE
:0201740002C3C4
:0201750003067F
:02017600028401
:02017700013E47
:0201780003344E
:0201790000661E
:02017A0000D5AE
:02017B00008101
:02017C00036A14
:02017D000191EE
:02017E0002F687
:02017F000399E2
:02018000037A00
:02018100029BDF
:0201820000FA81
:020183000299DF
:020184000379FD
:020185000398DD
:0201860002F77E
:020187000198DD
:020188000379F9
:02018900009CD8
:02018A00010171
:02018B0000A8CA
:02018C000391DD
:02018D0001BDB2
:02018E00032B41
:02018F0003DD8E
:0201900003D397
:02019100030C5D
:02019200018AE0
:02019300034C1B
:02019400005316
:02019500009FC9
:02019600003136
:0201970003085B
:0201980001253F
:020199000289D9
:02019A0003332D
:02019B0003243B
:02019C00025D02
:02019D0000DD83
:02019E0002A4B9
:02019F0003B4A7
:0201A000000D50
:0201A10003AEAB
:0201A2000298C1
:0201A30000CB8F
:0201A40002480F
:0201A500030F46
:0201A600032034
:0201A700027CD8
:0201A800012331
:0201A90003143D
:0201AA00005102
:0201AB0000DA78
:0201AC0000AEA3
:0201AD0003CF7E
:0201AE00023D10
:0201AF0003F754
:0201B00000FE4F
:0201B1000153F8
:0201B20000F655
:0201B30003E661
:0201B400022522
:0201B50003B293
:0201B600008EB9
:0201B70000BA8C
:0201B800003411
:0201B90002FF43
:0201BA00011929
:0201BB000284BC
:0201BC00033FFF
:0201BD00034BF2
:0201BE0002A895
:0201BF000157E6
:0201C0000357E3
:0201C10000A993
:0201C200014EEC
:0201C3000145F4
:0201C400008EAB
:0201C500032B0A
:0201C600011B1B
:0201C700025FD5
:0201C80002F73C
:0201C90002E250
:0201CA0002230E
:0201CB0000B77B
:0201CC0002A18E
:0201CD0003E14C
:0201CE000075BA
:0201CF000060CE
:0201D00003A08A
:0201D1000237F3
:0201D200002506
:0201D3000169C0
:0201D400020522
:0201D50001F82F
:0201D6000142E4
:0201D70003E53E
:0201D80001E044
:0201D9000333EE
:0201DA0003DF41
:0201DB0003E43B
:0201DC000343DB
:0201DD0001FB24
:0201DE00000C13
:0201DF000178A5
:0201E000023EDD
:0201E100025FBB
:0201E20001DB3F
:0201E30000B169
:0201E40002E334
:0201E5000071A7
:0201E600015BBB
:0201E70001A174
:0201E8000143D1
:0201E9000042D2
:0201EA00029D74
:0201EB000056BC
:0201EC00016DA3
:0201ED0001E12E
:0201EE0001B35B
:0201EF0000E32B
:0201F000037298
:0201F1000160AB
:0201F20002AC5D
:0201F3000358AF
:0201F4000363A3
:0201F50002CE38
:0201F60001996D
:0201F70003C43F
:0201F8000150B4
:0201F900023CC6
:0201FA00028978
:0201FB000238C8
:0201FC000148B8
:0201FD0003BA43
:0201FE00018D71
:0201FF0002C339
:02020000035C9D
:020201000357A1
:0202020002B543
:02020300017682
:02020400039B5A
:020205000123D3
:020206000210E4
:02020700026093
:020208000215DD
:02020900012FC3
:02020A0003AD42
:02020B0001915F
:02020C0002DA14
:02020D00038963
:02020E00039D4E
:02020F000318D2
:0202100001F9F2
:020211000041AA
:0202120001EFFA
:020213000305E1
:02021400038164
:0202150003667E
:0202160002B232
:0202170001667E
:0202180003825F
:020219000107DB
:02021A0001F5EC
:02021B00024B94
:02021C00020BD3
:02021D000134AA
:02021E0003C714
:02021F0001C319
:02022000032AAF
:0202210003FBDD
:020222000036A4
:0202230003DDF9
:0202240002EEE8
:02022500016B6B
:02022600035380
:0202270000A72E
:0202280001676C
:0202290001933F
:02022A00012BA6
:02022B000030A1
:02022C0002A22C
:02022D0000814E
:02022E0001CD00
:02022F00028744
:0202300002AF1B
:02023100024485
:02023200014881
:0202330003BA0C
:02023400019B2C
:0202350002EBDA
:0202360003A91A
:0202370003D7EB
:0202380003754C
:0202390002823F
:02023A000100C1
:02023B0002EDD2
:02023C00004B75
:02023D00011AA4
:02023E00015964
:02023F00010AB2
:02024000002B91
:0202410002BFFA
:0202420000C4F6
:02024300023B7C
:02024400032491
:02024500037F35
:02024600034D66
:02024700028E25
:02024800014271
:02024900036947
:02024A000104AD
:02024B0002129D
:02024C0002941A
:02024D00028A23
:02024E0001F5B8
:02024F0000D4D9
:02025000032782
:0202510000F0BB
:02025200022E7A
:0202530002E1C6
:02025400030A9B
:0202550002A8FD
:0202560001BCE9
:0202570000475E
:0202580002485A
:0202590003C0E0
:02025A0000AEF4
:02025B0001148C
:02025C0000F0B0
:02025D0000445B
:02025E0003108B
:02025F00015448
:02026000030F8A
:02026100004358
:0202620000EFAB
:02026300011484
:0202640000B2E6
:0202650003C9CB
:0202660002593B
:02026700006332
:0202680001E6AD
:0202690002E3AE
:02026A00035B34
:02026B00034C42
:02026C0002B8D6
:02026D00019FEF
:02026E0000008E
:02026F0001DDAF
:02027000033554
:02027100000883
:02027200005733
:02027300002267
:0202740003691C
:02027500022C59
:02027600006C1A
:0202770002295A
:0202780003621F
:0202790000186B
:02027A00004C36
:02027B0003FD81
:02027C00032B52
:02027D0001D8A6
:02027E0000027C
:02027F0001ABD1
:0202800002D2A8
:02028100037701
:02028200039CDB
:02028300033F37
:02028400026214
:02028500010472
:0202860003254E
:0202870000C7AE
:0202880001E88B
:020289000289E8
:02028A0002ABC5
:02028B00024D22
:02028C000170FF
:02028D0000145B
:02028E00023834
:02028F0003DF8B
:02029000010665
:0202910001AFBB
:0202920001DA8F
:020293000187E1
:0202940000B6B2
:020295000368FC
:02029600019CC9
:0202970003530F
:02029800008DD7
:02029900014A18
:02029A00018AD7
:02029B00014E12
:02029C000095CB
:02029D000361FB
:02029E0001B0AD
:02029F000383D7
:0202A00000DB81
:0202A10001B8A2
:0202A20002193F
:0202A30001FF59
:0202A400016BEC
:0202A500005BFC
:0202A60002D183
:0202A70000CD88
:0202A800024F03
:0202A9000357F9
:0202AA0003E46B
:0202AB0003F955
:0202AC000394B9
:0202AD0002B598
:0202AE00015EEF
:0202AF00038DBD
:0202B000014407
:0202B1000282C7
:0202B2000348FF
:0202B3000396B0
:0202B400036CD9
:0202B50002C97C
:0202B60001AF96
:0202B700001E27
:0202B80002152D
:0202B9000396AA
:0202BA00009FA3
:0202BB0001310F
:0202BC00014DF2
:0202BD0000F24D
:0202BE0000211D
:0202BF0002DA61
:0202C000011D1E
:0202C10002EA4F
:0202C2000041F9
:0202C300012315
:0202C4000190A7
:0202C5000188AE
:0202C600010B2A
:0202C70000191C
:0202C80002B280
:0202C90000D75C
:0202CA000288A8
:0202CB0003C569
:0202CC00008EA2
:0202CD0000E34C
:0202CE0000C46A
:0202CF000032FB
:0202D000032DFC
:0202D10001B575
:0202D20003CA5D
:0202D300016CBC
:0202D400029B8B
:0202D5000358CC
:0202D60003A380
:0202D700037CA6
:0202D80002E33F
:0202D90001D84A
:0202DA00005BC7
:0202DB00026EB1
:0202DC00000E12
:0202DD00013EE0
:0202DE0001FD20
:0202DF00024BD0
:0202E0000228F2
:0202E100019585
:0202E200009288
:0202E300031EF8
:0202E400013BDC
:0202E50002E72E
:0202E6000025F1
:0202E70000F223
:0202E8000150C3
:0202E900013FD3
:0202EA0000BF53
:0202EB0003D13D
:0202EC0002739B
:0202ED0000A768
:0202EE00026D9F
:0202EF0003C446
:0202F00000AE5E
:0202F1000129E1
:0202F2000137D2
:0202F30000D732
:0202F4000009FF
:0202F50002CF36
:0202F6000127DE
:0202F7000312F0
:0202F800009173
:0202F90001A260
:0202FA000248B8
:0202FB0002817E
:0202FC00024DB1
:0202FD0001AE50
:0202FE0000A35B
:0202FF00032CCE
:02030000014AB0
:0203010002FCFC
:020302000042B7
:02030300011ED9
:02030400018F67
:02030500019560
:020306000130C4
:02030700006193
:020308000327C9
:0203090001836E
:02030A00037579
:02030B0000FDF3
:02030C00021CD1
:02030D0002D01C
:02030E00031CCE
:02030F0002FEEC
:02031000027673
:02031100018663
:02031200002DBC
:02031300026B7B
:020314000041A6
:0203150001AE37
:0203160002B330
:02031700035091
:0203180003845C
:0203190003518E
:02031A0002B629
:02031B0001B42B
:02031C00004A95
:02031D00027963
:02031E0000419C
:02031F0001A239
:02032000029C3D
:020321000330A7
:02032200035D79
:020323000323B2
:02032400028352
:02032500017D58
:020326000011C4
:02032700024092
:020328000008CB
:02032900016C65
:02032A00026966
:02032B000302CB
:02032C00033597
:02032D000304C7
:02032E00026D5E
:02032F00017259
:020330000012B9
:02033100024E7A
:020332000026A3
:0203330001992E
:0203340002A91C
:0203350003556E
:02033600039D25
:02033700038140
:020338000302BE
:020339000220A0
:02033A0000DAE7
:02033B0003328B
:02033C00012797
:02033D0002B903
:02033E0003E8D2
:02033F0000B507
:02034000011F9B
:02034100012891
:0203420000CEEB
:020343000012A6
:0203440002F5C0
:0203450001763F
:0203460003951D
:02034700015360
:0203480002B001
:0203490003AC03
:02034A0000466B
:02034B00008030
:02034C00005956
:02034D0003D2D9
:02034E0002EAC1
:02034F0001A209
:0203500003F9AF
:0203510001F1B8
:0203520003891D
:0203530000C1E7
:0203540001990D
:02035500021292
:02035600022B78
:0203570001E5BE
:02035800014062
:02035900003C66
:02035A0002D9C6
:02035B00011887
:02035C0002F8A5
:02035D00007925
:02035E00019C00
:02035F00026139
:0203600002C8D1
:0203610002D1C7
:02036200027C1B
:0203630001C9CE
:0203640000B9DE
:02036500034B48
:02036600018014
:02036700035839
:0203680000D3C0
:0203690001F0A1
:02036A0002B2DD
:02036B00031677
:02036C00031E6E
:02036D0002C9C3
:02036E00021873
:02036F00010B80
:0203700003A2E6
:0203710001DDAC
:0203720003BDC9
:02037300014047
:0203740002681D
:0203750003354E
:0203760003A6DC
:0203770003BDC4
:02037800037808
:0203790002D8A8
:02037A0001DDA3
:02037B000088F8
:02037C0002D9A4
:02037D0000CEB0
:02037E00026A11
:02037F0003ABCE
:020380000093E8
:02038100012059
:02038200015424
:02038300012D4A
:0203840000AEC9
:0203850003D59E
:0203860002A2D1
:0203870001175C
:0203880003323E
:0203890000F47E
:02038A00025E11
:02038B00036FFE
:02038C00002748
:02038D000086E8
:02038E00008EDF
:02038F00003D2F
:020390000394D4
:020391000293D5
:02039200013A2E
:020393000389DC
:020394000181E5
:02039500032142
:02039600006AFB
:02039700015B08
:0203980001F66C
:02039900023927
:02039A0002253A
:02039B0001BBA4
:02039C0000FA65
:02039D0003E279
:02039E000274E7
:02039F0000AFAD
:0203A0000294C5
:0203A100002337
:0203A200015CFC
:0203A300023F17
:0203A40002CC89
:0203A50003044F
:0203A60002E66D
:0203A7000273DF
:0203A80001AAA8
:0203A900008DC5
:0203AA00031A34
:0203AB000152FD
:0203AC00033517
:0203AD0000C38B
:0203AE0001FD4F
:0203AF0002E367
:0203B0000374D4
:0203B10003B097
:0203B2000399AD
:0203B300032D18
:0203B400026DD8
:0203B500015AEB
:0203B60003F34F
:0203B70002380A
:0203B800002A19
:0203B90001C879
:0203BA0003132B
:0203BB00000B35
:0203BC0000B08F
:0203BD0001023B
:0203BE0001013B
:0203BF0000AD8F
:0203C000000635
:0203C100030E29
:0203C20001C276
:0203C300002513
:0203C400023500
:0203C50003F340
:0203C600015FD5
:0203C7000279B9
:0203C8000342EE
:0203C90003B976
:0203CA0003DE50
:0203CB0003B27B
:0203CC000335F7
:0203CD000266C6
:0203CE000146E6
:0203CF0003D653
:0203D000021415
:0203D100000228
:0203D200019F89
:0203D30002EB3B
:0203D40003E73D
:0203D500009393
:0203D60000EE37
:0203D70000F92B
:0203D80000B46F
:0203D900001F03
:0203DA00033BE3
:0203DB00020618
:0203DC0000829D
:0203DD0002AF6D
:0203DE00008C91
:0203DF00021A00
:0203E0000358C0
:0203E1000048D2
:0203E20000E831
:0203E300013ADD
:0203E400013DD9
:0203E50000F125
:0203E6000056BF
:0203E700036DA4
:0203E8000236DB
:0203E90000B161
:0203EA0002DD32
:0203EB0000BB55
:0203EC00024BC2
:0203ED00038E7D
:0203EE0000828B
:0203EF000129E2
:0203F000018387
:0203F100018F7A
:0203F200014DBB
:0203F30000BF49
:0203F40003E321
:0203F50002BA4A
:0203F6000144C0
:0203F70003827F
:0203F800017290
:0203F9000316E9
:0203FA00006E93
:0203FB00017986
:0203FC000237C6
:0203FD0002AA52
:0203FE0002D02B
:0203FF0002AA50
:020400000238C0
:02040100017B7D
:02040200007187
:02040300031CD8
:02040400017C79
:02040500039062
:0204060001589B
:0204070002D61B
:020408000008EA
:0204090000EF02
:02040A00018B64
:02040B0001DC12
:02040C0001E30A
:02040D00019F4D
:02040E000110DB
:02040F000037B4
:020410000313D4
:0204110001A543
:0204120003EDF8
:0204130001EBFB
:02041400039F44
:020415000108DC
:020416000228BA
:0204170002FFE2
:02041800038C53
:0204190003CF0F
:02041A0003C815
:02041B00037963
:02041C0002E0FC
:02041D0001FEDE
:02041E0000D309
:02041F00035F79
:0204200001A237
:02042100039D39
:02042200014E89
:0204230002B71E
:0204240003D8FB
:0204250000B025
:02042600014093
:0204270001884A
:0204280001874A
:02042900013F91
:02042A0000AF21
:02042B0003D6F6
:02042C0002B616
:02042D00014F7D
:02042E0003A029
:02042F0001A921
:02043000036B5C
:0204310000E5E4
:020432000219AD
:020433000305BF
:0204340003AB18
:020435000009BC
:020436000021A3
:0204370003F1CF
:02043800037C43
:0204390002BF00
:02043A0001BC03
:02043B0000734C
:02043C0002E4D8
:02043D00010EAE
:02043E0002F2C8
:02043F0000902B
:0204400001E8D1
:0204410002FBBC
:0204420003C7EE
:02044300004E69
:02044400008F27
:02044500008B2A
:02044600004272
:0204470003B3FD
:0204480002DFD1
:0204490001C5EB
:02044A00006749
:02044B0002C4E9
:02044C0000DCD2
:02044D0002AFFC
:02044E00003D6F
:02044F00018723
:02045000028C1C
:02045100034D59
:0204520003C9DC
:020453000002A5
:0204540003F6AD
:0204550003A5FD
:02045600031190
:02045700023968
:02045800011D84
:0204590003BEE0
:02045A00021B83
:02045B0000346B
:02045C00020993
:02045D00039CFE
:02045E0000EBB1
:02045F0001F6A4
:0204600002BFD9
:02046100034452
:0204620003870E
:0204630003860E
:02046400034350
:0204650002BDD6
:0204660001F59E
:0204670000E9AA
:02046800039CF3
:02046900020C83
:02046A00003957
:02046B00022568
:02046C0003CEBD
:02046D00013557
:02046E00025B2F
:02046F00033E4A
:0204700003DFA8
:02047100003F4A
:02047200005D2B
:02047300003A4D
:0204740003D5AE
:02047500032F53
:0204760002473B
:02047700011E64
:0204780003B4CB
:02047900020976
:02047A00001D63
:02047B0001F08E
:02047C000383F8
:02047D0000D4A9
:02047E0001E596
:02047F0002B5C4
:02048000034532
:020481000394E2
:0204820003A3D2
:02048300037202
:02048400030073
:02048500024E25
:02048600015D16
:02048700002B48
:0204880002BAB6
:02048900010967
:02048A00031855
:02048B0000E788
:02048C000277F5
:02048D0003C7A3
:02048E0000D894
:02048F0001AAC0
:02049000023D2B
:020491000290D7
:0204920002A4C2
:02049300027AEB
:02049400021054
:020495000167FD
:020496000080E4
:02049700035A06
:0204980001F66B
:0204990000530E
:02049A000271ED
:02049B0000510E
:02049C0001F36A
:02049D00035703
:02049E00007CE0
:02049F000164F6
:0204A000020D4B
:0204A1000279DE
:0204A20002A6B0
:0204A3000296BF
:0204A40002480C
:0204A50001BD97
:0204A60000F460
:0204A70003EE62
:0204A80002AAA6
:0204A900012927
:0204AA00036BE2
:0204AB00016FDF
:0204AC00033714
:0204AD0000C18C
:0204AE00020F3B
:0204AF00032028
:0204B00003F453
:0204B100008BBE
:0204B20000E563
:0204B300010442
:0204B40000E561
:0204B500008ABB
:0204B60003F34E
:0204B700032020
:0204B800021030
:0204B90000C57C
:0204BA00033D00
:0204BB000179C5
:0204BC00037AC1
:0204BD00013FFD
:0204BE0002C773
:0204BF00001526
:0204C000012613
:0204C10001FD3B
:0204C20002979F
:0204C30002F73E
:0204C400031B18
:0204C50003032F
:0204C60002B181
:0204C70002240D
:0204C800015BD6
:0204C9000058D9
:0204CA00031A13
:0204CB0001A18D
:0204CC0003ED3E
:0204CD0001FE2E
:0204CE0003D554
:0204CF000172B8
:0204D00002D454
:0204D10003FC2A
:0204D20000E93F
:0204D300019C8A
:0204D40002150F
:0204D5000254CF
:0204D6000259C9
:0204D7000224FD
:0204D80001B56C
:0204D900010C14
:0204DA00002AF6
:0204DB00030E0E
:0204DC0001B865
:0204DD000029F4
:0204DE000261B9
:0204DF00005FBC
:0204E0000223F5
:0204E10003AF67
:0204E200010116
:0204E300021AFB
:0204E40002FA1A
:0204E50003A171
:0204E600001004
:0204E7000045CE
:0204E8000042D0
:0204E90000060B
:0204EA0003917C
:0204EB0002E429
:0204EC0001FF0E
:0204ED0000E02D
:0204EE00038A7F
:0204EF0001FB0F
:0204F0000035D5
:0204F1000236D1
:0204F20003FE07
:0204F300018F77
:0204F40002E81C
:0204F5000009FC
:0204F60000F311
:0204F70001A45E
:0204F800021EE2
:0204F90002609F
:0204FA00026B93
:0204FB00023EBF
:0204FC0001DA23
:0204FD00013FBD
:0204FE00006C90
:0204FF00036296
:020500000221D6
:0205010000A94F
:0205020002FAFB
:020503000113E2
:0205040002F6FD
:0205050000A351
:020506000218D9
:02050700035798
:02050800005F92
:020509000131BE
:02050A0001CC22
:02050B000231BB
:02050C00025F8C
:02050D00025793
:02050E000219D0
:02050F0001A544
:0205100000FBEE
:02051100001ACE
:020512000304E0
:0205130001B82D
:020514000036AF
:02051500027E64
:02051600009053
:02051700026D73
:020518000014CD
:02051900018659
:02051A0002C31A
:02051B0003C912
:02051C00009B42
:02051D000137A4
:02051E00019F3B
:02051F0001D108
:0205200001CE0A
:02052100019641
:020522000129AD
:0205230000874F
:0205240003B022
:0205250002A52D
:0205260001656D
:0205270003F0DF
:02052800024788
:02052900006967
:02052A00025776
:02052B000010BE
:02052C00019537
:02052D0002E6E4
:02052E000003C8
:02052F0000EBDF
:0205300001A028
:020531000220A6
:02053200026D58
:0205330002853F
:02053400026A59
:02053500021BA7
:0205360001982A
:0205370000E2E0
:0205380003F8C6
:0205390002DBE3
:02053A00018A34
:02053B000006B8
:02053C00024E6D
:02053D00006458
:02053E00024673
:02053F0003F4C3
:02054000017048
:0205410002B9FD
:0205420003CEE6
:0205430000B105
:02054400016153
:0205450001DED5
:02054600022988
:0205470002416F
:02054800022689
:0205490001D8D7
:02054A00015955
:02054B0000A608
:02054C0003C2E8
:02054D0002AA00
:02054E00016149
:02054F0003E6C1
:0205500002386F
:0205510000594F
:0205520002475E
:020553000003A3
:02055400018E16
:0205550002E6BC
:02055600000D96
:0205570001029F
:0205580001C6DA
:02055900025747
:02055A0002B8E5
:02055B0002E6B6
:02055C0002E4B7
:02055D0002B0EA
:02055E00024A4F
:02055F0001B4E5
:0205600000ECAD
:0205610003F3A2
:0205620002C9CC
:02056300016D28
:0205640003E1B1
:0205650002246E
:0205660000365D
:02056700021878
:0205680003C8C6
:02056900014847
:02056A000297F6
:02056B0003B6D5
:02056C0000A4E9
:02056D00016229
:02056E0001EF9B
:02056F00024C3C
:0205700002790E
:02057100027511
:02057200024144
:0205730001DDA8
:0205740001493B
:020575000085FF
:020576000391EF
:02057700026D13
:02057800011967
:020579000396E7
:02057A0001E39B
:02057B0000007E
:02057C0001ED8F
:02057D0003ABCE
:02057E00013941
:02057F000298E0
:0205800003C7AF
:0205810000C7B1
:020582000198DE
:02058300023A3A
:0205840002ACC7
:0205850002EF83
:0205860003036D
:0205870002E888
:02058800029FD0
:02058900022648
:02058A00017EF0
:02058B0000A8C6
:02058C0003A2C8
:02058D00026EFC
:02058E00010C5E
:02058F00037BEC
:0205900001BBAD
:0205910003CD98
:0205920001B0B6
:020593000365FE
:0205940000EC79
:0205950002441E
:02059600036EF2
:02059700006AF8
:02059800013828
:0205990001D887
:02059A00024A13
:02059B00028ECE
:02059C0002A4B7
:02059D00028CCE
:02059E00024613
:02059F0001D386
:0205A000013226
:0205A1000063F5
:0205A2000366EE
:0205A300023D17
:0205A40000E570
:0205A5000360F1
:0205A60001AEA4
:0205A70003CF80
:0205A80001C28E
:0205A9000388C5
:0205AA0001212D
:0205AB00028CC0
:0205AC0003CB7F
:0205AD0000DD6F
:0205AE0001C189
:0205AF000279CF
:0205B000030442
:0205B1000362E3
:0205B2000393B1
:0205B3000398AB
:0205B4000370D2
:0205B500031B26
:0205B600029AA7
:0205B70001EC55
:0205B80001122E
:0205B900000B35
:0205BA0002D865
:0205BB000179C4
:0205BC0003EE4C
:0205BD00023604
:0205BE000052E9
:0205BF000242F6
:0205C000000633
:0205C100019E99
:0205C200030A2A
:0205C300004AEC
:0205C400015ED6
:0205C5000247EB
:0205C60003032D
:0205C70003949B
:0205C80003FA34
:0205C9000034FC
:0205CA000042ED
:0205CB0000240A
:0205CC0003DC4E
:0205CD000367C2
:0205CE0002C861
:0205CF0001FD2C
:0205D000010721
:0205D10003E63F
:0205D20002998C
:0205D300012104
:0205D400037FA3
:0205D50001B172
:0205D60003B868
:0205D70001958C
:0205D8000346D8
:0205D90000CD53
:0205DA000229F4
:0205DB00035AC1
:0205DC000061BC
:0205DD00013DDE
:0205DE0001EE2C
:0205DF000275A3
:0205E00002D146
:0205E100030312
:0205E200030B09
:0205E30002E82C
:0205E400029B78
:0205E5000223EF
:0205E600018290
:0205E70000B65C
:0205E80003C04E
:0205E90002A06E
:0205EA000156B8
:0205EB0003E229
:0205EC000244C7
:0205ED00007D8F
:0205EE00028B7E
:0205EF0000709A
:0205F000022BDC
:0205F10003BC49
:0205F2000124E2
:0205F3000262A2
:0205F40003778B
:0205F5000062A2
:0205F6000123DF
:0205F70001BB46
:0205F800022AD5
:0205F90002708E
:0205FA00028C71
:0205FB00027F7D
:0205FC000249B2
:0205FD0001EA11
:0205FE00016199
:0205FF0000B04A
:0206000003D61F
:0206010002D223
:0206020001A64F
:020603000051A4
:0206040002D31F
:02060500012DC5
:02060600035D92
:0206070001658B
:020608000345A8
:0206090000FCF3
:02060A00028A62
:02060B0003F0FA
:02060C00012DBE
:02060D000242A7
:02060E00032EB9
:02060F0003F3F3
:02061000008F59
:020611000102E4
:02061200014E97
:02061300017272
:02061400016D76
:020615000140A2
:0206160000ECF6
:02061700006F72
:0206180003CB12
:0206190002FEDF
:02061A00020AD2
:02061B0000EEEF
:02061C0003AA2F
:02061D00023F9A
:02061E0000AC2E
:02061F0002F1E6
:02062000010FC8
:020621000305CF
:0206220000D402
:02062300027C57
:0206240003FCD5
:0206250001547E
:0206260002864A
:0206270003903E
:0206280000735D
:02062900012EA0
:02062A0001C30A
:02062B0002319A
:02062C00027753
:02062D00029732
:02062E00028F39
:02062F00026166
:02063000020CBA
:02063100019036
:0206320000EDD9
:020633000023A2
:0206340003338E
:02063500021CA5
:0206360000DFE3
:02063700037B43
:0206380001F0CF
:02063900003F80
:02063A00026854
:02063B00006A53
:02063C00024674
:02063D0003FBBD
:02063E00018A2F
:02063F0002F3C4
:02064000003682
:02064100015363
:0206420002496B
:02064300031A98
:0206440003C4ED
:0206450000496A
:0206460000A70B
:0206470000E0D1
:0206480000F2BE
:0206490000DFD0
:02064A0000A707
:02064B00004865
:02064C0003C4E5
:02064D00031A8E
:02064E00024B5D
:02064F00015652
:02065000003B6D
:0206510002FBAA
:02065200019510
:02065300000B9A
:02065400025A48
:0206550000851E
:02065600028A16
:02065700006A37
:02065800022579
:0206590003BAE2
:02065A00012B72
:02065B00027625
:02065C00039CFD
:02065D00009EFD
:02065E00017A1F
:02065F00023166
:0206600002C4D2
:02066100033262
:02066200037B18
:02066300039FF3
:02066400039EF3
:02066500037917
:02066600032F60
:0206670002C1CE
:02066800022E60
:02066900017717
:02066A00009BF3
:02066B00039AF0
:02066C00027515
:02066D00012C5E
:02066E0003BFC8
:02066F00022D5A
:02067000007711
:02067100029DE8
:02067200009FE7
:02067300027C07
:0206740000364E
:0206750001CBB7
:02067600033C43
:02067700008AF7
:0206780001B3CC
:0206790002B9C4
:02067A00039BE0
:02067B00005924
:02067C0000F389
:02067D00016911
:02067E0001BCBD
:02067F0001EB8D
:0206800001F681
:0206810001DE98
:0206820001A3D2
:02068300014331
:0206840000C1B3
:02068500001B58
:0206860003511E
:0206870002640B
:0206880001541B
:0206890000214E
:02068A0002CAA2
:02068B0001501C
:02068C0003B3B6
:02068D0001F377
:02068E0000105A
:02068F00020A5D
:0206900003E184
:020691000194D2
:0206920003253E
:020693000093D2
:0206940001DE85
:0206950003065A
:02069600000C56
:0206970000EF72
:0206980001AEB1
:02069900024C11
:02069A0002C696
:02069B00031F3B
:02069C00035405
:02069D000367F1
:02069E00035700
:02069F00032630
:0206A00002D185
:0206A100025AFB
:0206A20001C194
:0206A30001064E
:0206A40000282C
:0206A500032828
:0206A60002064A
:0206A70000C28F
:0206A800035BF2
:0206A90001D37B
:0206AA00002826
:0206AB00025CEF
:0206AC00006DDF
:0206AD00025DEC
:0206AE00002A20
:0206AF0001D672
:0206B0000360E5
:0206B10000C87F
:0206B200020F35
:0206B30003330F
:0206B40000360E
:0206B50001172B
:0206B60001D76A
:0206B7000275CA
:0206B80002F24C
:0206B900034DEF
:0206BA000386B5
:0206BB00039E9C
:0206BC000395A4
:0206BD00036ACE
:0206BE00031E19
:0206BF0002B186
:0206C000022214
:0206C1000173C3
:0206C20000A294
:0206C30003AF83
:0206C400029C96
:0206C5000168CA
:0206C600001220
:0206C700029C93
:0206C80001042B
:0206C900034CE0
:0206CA000173BA
:0206CB000379B1
:0206CC00015DCE
:0206CD00032206
:0206CE0000C565
:0206CF000248DF
:0206D00003AA7B
:0206D10000EB3C
:0206D200020C18
:0206D300030C16
:0206D40003EB36
:0206D50000AA79
:0206D6000148D9
:0206D70001C65A
:0206D8000224FA
:0206D9000261BC
:0206DA00027E9E
:0206DB00027AA1
:0206DC000256C4
:0206DD00021207
:0206DE0001AE6B
:0206DF000129EF
:0206E000008593
:0206E10003C054
:0206E20002DB39
:0206E30001D63E
:0206E40000B163
:0206E500036CA4
:0206E600020709
:0206E70000828F
:0206E80002DD31
:0206E9000119F5
:0206EA000334D7
:0206EB000130DC
:0206EC00030CFD
:0206ED0000C843
:0206EE000265A3
:0206EF0003E224
:0206F000013FC8
:0206F100027D88
:0206F200039B68
:0206F30000996C
:0206F40001788B
:0206F5000238C9
:0206F60002D828
:0206F7000359A5
:0206F80003BB42
:0206F90003FDFF
:0206FA000020DE
:0206FB000023DA
:0206FC000008F4
:0206FD0003CD2B
:0206FE00037384
:0206FF0002FAFD
:02070000026194
:0207010001AA4B
:0207020000D421
:0207030003DE13
:0207040002CA27
:0207050001975A
:020706000045AC
:0207070002D41A
:020708000144AA
:02070900039556
:02070A0001C725
:02070B0003DB0E
:02070C0001D01A
:02070D0003A740
:02070E00015E8A
:02070F0002F7EF
:02071000007275
:0207110001CE17
:02071200030BD7
:02071300002ABA
:02071400012BB7
:02071500020DD3
:0207160002D00F
:02071700037667
:0207180003FDDF
:02071900006579
:02071A0000B02D
:02071B0000DC00
:02071C0000EAF1
:02071D0000D901
:02071E0000AB2E
:02071F00005F79
:0207200003F4E0
:02072100036B68
:0207220002C50E
:020723000200D2
:02072400011DB5
:02072500001DB5
:0207260002FED1
:0207270001C20D
:02072800006867
:0207290002F0DC
:02072A00015A72
:02072B0003A623
:02072C0001D5F5
:02072D0003E6E1
:02072E0001DAEE
:02072F0003AF16
:0207300001685E
:020731000302C1
:02073200007F46
:0207330001DFE4
:0207340003219F
:0207350000467C
:02073600014D73
:02073700023787
:020738000304B8
:0207390003B308
:02073A00004578
:02073B0000BA02
:02073C000111A9
:02073D00014B6E
:02073E00016850
:02073F0001684F
:02074000014B6B
:020741000111A4
:0207420000BAFB
:0207430000456F
:0207440003B4FC
:020745000306A9
:02074600023A75
:0207470001525D
:02074800004D62
:02074900032C7F
:02074A0001EDBF
:02074B0000911B
:02074C0003198F
:02074D00018425
:02074E0003D3D3
:02074F000204A2
:02075000001A8D
:02075100021292
:0207520003EEB4
:0207530001ADF6
:02075400035050
:0207550000D6CC
:0207560002405F
:02075700038E0F
:0207580000BFE0
:0207590001D3CA
:02075A0002CCCF
:02075B0003A8F1
:02075C00006734
:02075D00010B8E
:02075E00019206
:02075F0001FD9A
:02076000024C49
:02076100027F15
:020762000295FE
:02076300029002
:02076400026E23
:02076500023060
:0207660001D7B9
:0207670001612E
:0207680000D0BF
:0207690000226C
:02076A00035931
:02076B00027317
:02076C00017218
:02076D00005634
:02076E00031D69
:02076F0001C8BF
:0207700000582F
:0207710002CDB7
:0207720001255F
:0207730003621F
:020774000183FF
:020775000389F6
:0207760001730D
:0207770003423B
:0207780000F58A
:02077900028CF0
:02077A00000974
:02077B00016912
:02077C0002AFCA
:02077D0003D99E
:02077E0000E891
:02077F0001DB9C
:0207800002B3C2
:02078100037003
:02078200001263
:020783000098DC
:0207840001036F
:0207850001531E
:020786000188E8
:0207870001A2CD
:0207880001A1CD
:020789000185E8
:02078A00014E1E
:02078B0000FC70
:02078C00008FDC
:02078D00000763
:02078E00036402
:02078F0002A6C0
:0207900001CE98
:0207910000DA8C
:0207920003CC96
:0207930002A3BF
:02079400015F03
:02079500000161
:020796000288D7
:0207970000F46C
:02079800034616
:02079900017DE0
:02079A000399C1
:02079B00019BC0
:02079C000382D6
:02079D00014F0A
:02079E00030254
:02079F00009ABE
:0207A00002173E
:0207A100037BD8
:0207A20000C392
:0207A30001F261
:0207A40003064A
:0207A500000052
:0207A60000E071
:0207A70001A5AA
:0207A8000250FD
:0207A90002E16B
:0207AA000358F2
:0207AB0003B594
:0207AC0003F751
:0207AD0000202A
:0207AE00002E1B
:0207AF00002325
:0207B00003FE46
:0207B10003BE85
:0207B2000365DD
:0207B30002F151
:0207B4000264DD
:0207B50001BD84
:0207B60000FC45
:0207B70000211F
:0207B800032D0F
:0207B900021E1E
:0207BA0000F647
:0207BB0003B584
:0207BC000259E0
:0207BD0000E456
:0207BE000355E1
:0207BF0001AD8A
:0207C00003EB49
:0207C100021024
:0207C200001B1A
:0207C300020C26
:0207C40003E44C
:0207C50001A38E
:0207C6000348E6
:0207C70000D35D
:0207C8000246E7
:0207C900039F8C
:0207CA0000DE4F
:0207CB00020426
:0207CC00031117
:0207CD00000525
:0207CE0000E049
:0207CF0001A186
:0207D0000249DC
:0207D10002D84C
:0207D200034ED4
:0207D30003AB76
:0207D40003EE32
:0207D500001909
:0207D600002AF7
:0207D7000023FD
:0207D80000021D
:0207D90003C952
:0207DA000377A3
:0207DB00030B0E
:0207DC00028792
:0207DD0001EA2F
:0207DE000134E4
:0207DF000066B2
:0207E000037E96
:0207E100027E96
:0207E2000165AF
:0207E3000033E1
:0207E40002E928
:0207E50001868B
:0207E600000A07
:0207E700027698
:0207E80000C946
:0207E900030407
:0207EA000126E6
:0207EB00032FDA
:0207EC000120EA
:0207ED0002F90F
:0207EE0000B950
:0207EF000260A6
:0207F00003EF15
:0207F10001669F
:0207F20002C53E
:0207F300000BF9
:0207F4000139C9
:0207F500024EB2
:0207F600034CB2
:0207F7000031CF
:0207F80000FD02
:0207F90001B24B
:0207FA00024FAC
:0207FB0002D327
:0207FC00033FB9
:0207FD00039364
:0207FE0003CF27
:0207FF0003F302
:00000001ff
